:1000000000000420750300005D0300005F03000092
:1000100061030000630300006503000000000000AE
:100020000000000000000000000000006703000066
:1000300069030000000000006B0300006D03000076
:10004000D53B00006F030000292E0000153700008B
:100050006F0300006F030000412B00006F030000DE
:10006000613D00006F0300006F0300006F0300009C
:100070006F0300006F0300006F0300006F030000B8
:100080006F030000B51D00006F0300006F03000048
:100090006F0300006F0300006F0300006F03000098
:1000A0006F0300006F0300006F0300006F03000088
:1000B0006F0300006F03000000000000000000005C
:1000C0006F0300006F0300006F0300006F03000068
:1000D0006F0300006F0300006F0300006F03000058
:1000E0006F0300006F0300006F03000000000000BA
:1000F000000000006F030000000000006F0300001C
:1001000000000000000000000000000000000000EF
:1001100000000000000000000000000000000000DF
:1001200000000000000000000000000000000000CF
:1001300000000000000000000000000000000000BF
:1001400000000000000000000000000000000000AF
:10015000000000000000000000000000000000009F
:10016000000000000000000000000000000000008F
:10017000000000000000000000000000000000007F
:10018000000000000000000000000000000000006F
:10019000000000000000000000000000000000005F
:1001A000000000000000000000000000000000004F
:1001B000000000000000000000000000000000003F
:1001C000000000000000000000000000000000002F
:1001D000000000000000000000000000000000001F
:1001E000000000000000000000000000000000000F
:1001F00000000000000000000000000000000000FF
:10020000354936480A1A02D0072291438D463449AF
:1002100034480A1A06D00722914381F30988022242
:1002200082F3148830483149314A00F044F83148AB
:100230003149324A00F03FF831483249324A00F041
:100240003AF832483249334A00F035F832483349F7
:10025000334A00F030F833483349344A00F02BF881
:1002600033483449344A00F026F8344834490022EF
:1002700000F02CF833483449002200F027F83348C6
:100280003349091A082902DB002202604160314A21
:1002900090471F481F49884205D00268043003B4C4
:1002A000904703BCF7E700208646EC46002000217B
:1002B000294A9047FEE7884207D0521A05D00378B2
:1002C00001300B700131013AF9D17047884202D0F8
:1002D00002700130FAE770470000042000E00320BC
:1002E00000000420000004200C5600000000002044
:1002F00010000020D0030000D00300008050000058
:100300000C5600000000002000000020805000007B
:10031000805000008050000080500000805000009D
:100320008050000080500000805000000C560000FB
:100330001C560000100000201000002010000020BB
:10034000790500207C0500207C0500207C0500202C
:100350007C2500209D03000025480000FEE7FEE705
:10036000FEE7FEE7FEE7FEE7FEE7FEE7FEE7FEE765
:1003700000F002B8FFF7FCBF0F484FF007018843B9
:1003800085460E4880470E48016841F470010160BF
:10039000BFF34F8FBFF36F8FFFF732BF09480A4992
:1003A0000A4A884207D0521A05D0037801300B70F0
:1003B0000131013AF9D1704700000420914B00004F
:1003C00088ED00E0805000000000002000000020C8
:1003D00000B583B00190019B1B682F2B04D90B49FA
:1003E00040F2CD1001F0F4FC019B1B681F2B02D8DA
:1003F0004FF0A04306E0019B1B6803F01F02019B26
:100400001A60034B184603B05DF804FB80500000EF
:100410000003005000B585B00190084611461A4609
:1004200003468DF803300B468DF8023013468DF8E5
:10043000013001AB1846FFF7CBFF03909DF8032076
:100440009DF802305B001A439DF801309B001A436F
:100450009DF818301B0242EA03019DF81C301B0472
:10046000019A1943039B02F5E07243F8221000BF82
:1004700005B05DF804FB00B585B00390002301933F
:10048000002300930023012201210398FFF7C2FFFC
:1004900000BF05B05DF804FB00B585B003900B46C6
:1004A0008DF80B309DF80B30002201920022009253
:1004B000002200210398FFF7ADFF00BF05B05DF8F3
:1004C00004FB00B585B0019001AB1846FFF780FF33
:1004D0000390019B012202FA03F31946039800F0EE
:1004E00069F800BF05B05DF804FB00B585B0019068
:1004F00001AB1846FFF76CFF0390019B012202FA43
:1005000003F31946039800F05FF800BF05B05DF8EB
:1005100004FB00B585B0019001AB1846FFF758FF0A
:100520000390039BD3F804350293029BDA43019BAB
:10053000012101FA03F31A40039BC3F80825019B2C
:1005400001229A40029B1A40039BC3F80C2500BF6E
:1005500005B05DF804FB00B583B001900091009BED
:10056000002B03D10198FFF7C0FF02E00198FFF7CD
:10057000A8FF00BF03B05DF804FB00B585B0019093
:1005800001AB1846FFF724FF0390039800F00AF828
:100590000246019B22FA03F303F00103184605B05B
:1005A0005DF804FB82B00190019BD3F80435184636
:1005B00002B0704782B001900091019B009AC3F88D
:1005C000082500BF02B0704782B001900091019BE6
:1005D000009AC3F80C2500BF02B0704700B585B083
:1005E0000190019B032B03D911493A2001F0F0FB44
:1005F000104A019B13441B781846FFF7BEFF0346C1
:10060000002B14BF012300238DF80F309DF80F300D
:10061000002B14BF01230023DBB283F00103DBB204
:1006200003F00103DBB2184605B05DF804FB00BF20
:10063000A4500000E850000000B583B00190019B79
:10064000032B03D90749412001F0C2FB064A019B55
:1006500013441B7800211846FFF77DFF00BF03B04D
:100660005DF804FBA4500000E850000000B583B022
:100670000190019B032B03D90749472001F0A8FBF8
:10068000064A019B13441B7801211846FFF763FFBC
:1006900000BF03B05DF804FBA4500000E850000068
:1006A00000B583B00023019305E00198FFF7DEFF5A
:1006B000019B01330193019B032BF6D900BF00BFBF
:1006C00003B05DF804FB00B583B00023019305E09F
:1006D0000198FFF7B1FF019B01330193019B032BAD
:1006E000F6D900BF00BF03B05DF804FB00B583B0CE
:1006F0000190019B032B03D907495F2001F068FBA0
:10070000064A019B13441B781846FFF702FF00BFFF
:1007100003B05DF804FB00BFA4500000E8500000E7
:1007200000B583B00023019309E0094A019B1344FB
:100730001B781846FFF79FFE019B01330193019B35
:10074000032BF2D9FFF7ACFF00BF03B05DF804FB49
:10075000E850000000B583B0002301930AE0094A85
:10076000019B13441B7803211846FFF795FE019B5C
:1007700001330193019B032BF1D900BF00BF03B0EC
:100780005DF804FBEC50000084B001904FF0FF33A3
:100790000293002303930DE00A4A039B13441B7842
:1007A0001A46019B934202D1039B029305E0039BEF
:1007B00001330393039B032BEED9029B184604B02D
:1007C000704700BFEC50000000B583B00190019B62
:1007D00003F00103002B01D0FFF7A2FF019B03F000
:1007E0000203002B01D0FFF7B5FF00BF03B05DF897
:1007F00004FB000084B003468DF807309DF80730F5
:100800005B08DBB21A460D4B9B5C8DF80F309DF8F0
:10081000073003F00103002B04D09DF80F301B09B3
:10082000DBB204E09DF80F3003F00F03DBB28DF86C
:100830000E309DF80E30184604B070474800002076
:1008400084B003460A468DF8073013468DF806300B
:100850009DF8073003F00103002B01D00F2300E0C7
:10086000F0238DF80F309DF8073003F00103002BC3
:1008700004D09DF806301B01DBB201E09DF8063084
:100880008DF80E309DF807305B08DBB21A46114B2D
:100890009A5C9DF807305B08DBB219469DF80F3073
:1008A0001340DAB20B4B5A549DF807305B08DBB2A9
:1008B0001A46084B9A5C9DF807305B08DBB2194674
:1008C0009DF80E301343DAB2024B5A5400BF04B005
:1008D000704700BF4800002000B585B003468DF882
:1008E00007300023039310E00F4B1A68039BDB00D3
:1008F00013440293029B1B789DF807209A4201D172
:10090000029B0DE0039B01330393084B1B781A46AF
:10091000039B9342E8DB0649882001F059FA002343
:10092000184605B05DF804FB1000002014000020FC
:10093000F450000000B585B003460A468DF8073034
:1009400013468DF806309DF807301846FFF7C4FFB0
:100950000390039B002B0BD0039B5B68002B07D0FD
:10096000039B5B689DF806109DF80720104698478A
:1009700000BF05B05DF804FB2DE9F04F85B00346DC
:100980000A468DF80F3013468DF80E309DF80F3063
:100990001846FFF72FFF0346042B00F2B48001A294
:1009A00052F823F0B90900001F0A00003B0A0000BA
:1009B0006B0A0000810A00009DF80E30002B00F049
:1009C0009F809DF80F3001211846FFF739FF002066
:1009D00000F00CFE9DF80F104FF001024FF00003E5
:1009E000A1F12004C1F1200003FA01F702FA04F496
:1009F000274322FA00F0074302FA01F6444BD3E9F9
:100A0000002346EA020100913B430193404BDDE99C
:100A10000012C3E90012002000F0FCFD70E09DF818
:100A20000E30002B01D0022200E000229DF80F3092
:100A300011461846FFF704FF65E09DF80E30002BC5
:100A40000CD09DF80F3003211846FFF7F9FE9DF8F2
:100A50000F3001211846FFF76DFF54E09DF80F306D
:100A600001211846FFF7ECFE4DE09DF80E30002BFB
:100A700048D19DF80F3004211846FFF7E1FE41E010
:100A80009DF80E30002B06D09DF80F30032118463C
:100A9000FFF7D6FE37E09DF80F3000211846FFF72C
:100AA000CFFE9DF80F3000211846FFF743FF0020CE
:100AB00000F09CFD9DF80F104FF001024FF0000375
:100AC000A1F12006C1F1200003FA01F502FA06F6B1
:100AD000354322FA00F0054302FA01F46FEA0408F4
:100AE0006FEA05090A4BD3E9002308EA020A09EA7A
:100AF000030B074BC3E900AB002000F08BFD02E0C5
:100B000000BF00E000BF00BF05B0BDE8F08F00BF30
:100B10004000002000B583B00648074B1B685B0807
:100B20000022194600F0DEFC019000BF03B05DF822
:100B300004FB00BF200000201800002000B587B093
:100B400001900023059328E01C4B1A68059BDB00ED
:100B500013440493049B1B78184601F0D7FF034607
:100B60008DF80F30049B5B78012B0CBF0123002311
:100B7000DBB21A469DF80F309A420CBF01230023C6
:100B80008DF80E30049B1B789DF80E2011461846F8
:100B9000FFF7F2FE059B01330593094B1B781A46BC
:100BA000059B9342D0DB074BD3E90023134301D0CD
:100BB000FFF7B0FF00BF07B05DF804FB1000002096
:100BC000140000204000002000B585B001900B46C5
:100BD0008DF80330019BDBB21846FFF77DFE0390D2
:100BE000039B1B78184601F091FF03468DF80B30EC
:100BF000039B5B78012B0CBF01230023DBB21A4659
:100C00009DF80B309A420CBF012300238DF80A3067
:100C10009DF80A30002B06D0054BD3E9002313437F
:100C200001D1FFF777FF00BF05B05DF804FB00BFFF
:100C30004000002000B58BB003900B4601928DF868
:100C40000B30019B092B01D8072367E001F050FE10
:100C5000034683F00103DBB2002B09D001F0F6FD5F
:100C60000990099B0893089B002B01D0089B55E035
:100C70002C4A039B13602C4A9DF80B3013702B4AAF
:100C8000019B136020220021294804F0C6F929495C
:100C90004FF000024FF00003C1E9002331E09DF85E
:100CA0000B30DB00039A1344079303238DF81430B1
:100CB00000238DF815309DF816306FF300038DF882
:100CC00016309DF816306FF341038DF816309DF8FD
:100CD00016306FF382038DF81630079B9B788DF8E2
:100CE0001530079B1B78184605AB134A194601F0CF
:100CF0000BFE0990099B0693069B002B01D0069BD7
:100D00000CE09DF80B305A1E8DF80B20002BC6D13D
:100D10000A4A00210A4800F0B1FB034618460BB00E
:100D20005DF804FB100000201400002018000020D3
:100D30004800002040000020C90B00003D0B0000CF
:100D4000F050000000B583B0114B1B68002B04D19C
:100D5000104940F2351001F03BF8002301930CE0FC
:100D60000B4B1A68019BDB0013441B7801211846CA
:100D700001F044FE019B01330193074B1B781A4697
:100D8000019B9342ECD30023184603B05DF804FBAB
:100D900010000020F45000001400002086B00390E2
:100DA0000291019201238DF817309DF81730214AE6
:100DB000039B13601F4A029B53601E4A019B936072
:100DC000039B44F20102934213D0039B44F20202BC
:100DD000934221D1019B174AD360164BDB681B88D5
:100DE0001A46144B9A61134BDB685B68114AD36156
:100DF00012E0019B0F4A13610E4B1B699B680D4A61
:100E000053610C4B1B691B680A4A9361094B1B69B0
:100E10005B68084AD36100BF72B600BF00BF9DF88F
:100E20001730DBB2002BFAD162B600BF00BF06B0AC
:100E3000704700BF6800002000B583B002900091A9
:100E4000019244F2010071466A4600F003F803B0D3
:100E500000BD00BF00B587B003900291019272B649
:100E600000BF039B44F20102934207D0039B44F26C
:100E70000202934205D1019B059303E0019B049379
:100E800000E000BF074B1B6803F00103002B00D0FC
:100E900000BE019A02990398FFF780FF00BF07B0D8
:100EA0005DF804FBF0ED00E0F0B583B0124800F00F
:100EB00067FF034618464FF00001104BD3E90023AB
:100EC000861841EB0307CDE900670D4BD3E90023FA
:100ED000DDE90001994208BF904207D2DDE9002315
:100EE00012F1807443F10005CDE90045DDE90023EE
:100EF0001046194603B0F0BD00000020900000200D
:100F00009800002088B001900091019B0793009BFE
:100F10000693079BD3E90223CDE90423069BD3E97B
:100F20000223CDE90223DDE90423DDE90201994230
:100F300008BF90422CBF01230023DBB2184608B043
:100F40007047000030B585B00190019B5B69002BB4
:100F500003D12B49A22000F03BFF00238DF80F3076
:100F6000284B1B78002B45D0019B002B42D0019BC6
:100F70001B7FDBB2002B3DD0FFF796FF019BD3E92F
:100F80000223994208BF90422CD3019B1B69002B7E
:100F900002D1019B00221A77019B5B69019A926939
:100FA00010469847019B1B69002B23D0019B1B7F98
:100FB000DBB2002B1ED0019BD3E90201019B1B6910
:100FC0001A464FF00003841841EB0305019BC3E967
:100FD0000245019B19460C4801F014F801238DF8D5
:100FE0000F3007E0019B1946074801F00BF8012379
:100FF0008DF80F309DF80F30184605B030BD00BF9A
:10100000545100008C00002048510000F0B589B018
:10101000019000910D230793009B00221A70019B01
:10102000D3E90245FFF740FF02460B46A61A65EBDF
:101030000307CDE90467DDE90423012A73F1000306
:101040001BDB049BB3F5350F05D300F0A9FA02466C
:10105000154B134403E0019BD3E90223134603938A
:101060004FF49603039A0021104800F08BFD07907F
:10107000079B002B05D1012313E000210B4800F052
:1010800059FE079B0D2B07D10198FFF75BFF034625
:101090001A46009B1A7003E00549F52000F098FEFF
:1010A0000023184609B0F0BDFFFFB4000000002087
:1010B0005451000000B583B0044800F0DDFF0190FA
:1010C000019B184603B05DF804FB00BF48510000C7
:1010D00000B583B0044800F0F1FF0190019B184671
:1010E00003B05DF804FB00BF4851000000B583B0B9
:1010F000FFF7E0FF0190019B002B02D0019B002233
:101100001A77019B002BF3D100BF00BF03B05DF83D
:1011100004FB0000054BD3E9002312F1807043F17A
:101120000001024BC3E9000100BF7047900000209E
:1011300000B583B00190134B1B68002B1DD00198A4
:1011400000F01EFE0F4B1B68D3E90223134623F069
:101150007F43194600F018FA0346B3F5960F04D3FF
:1011600009494FF4957000F033FE064B1B68184692
:10117000FFF7E8FE034B00221A6000BF03B05DF8E2
:1011800004FB00BF880000205451000000B583B06C
:101190000190FFF789FE02460B460349C1E900238F
:1011A00000BF03B05DF804FB9800002000B587B0D5
:1011B0000190FFF78DFF049000238DF81730049BFA
:1011C000002B48D02B4B1B68002B03D101238DF83B
:1011D000173019E0049BD3E90201264B1B68D3E9C1
:1011E0000223994208BF90420ED201238DF8173096
:1011F000204B1B681B7FDBB2002B05D01D4B1B68EF
:1012000019461D4800F0FEFE9DF81730002B2AD02D
:10121000FFF750FF04900DF10F0319460498FFF7F4
:10122000F5FE0346002B12D0124B1B68002B02D197
:10123000019800F0B3FB0F4A049B13609DF80F3038
:1012400083F00103DBB2002BB3D000BF0EE0094BEB
:1012500000221A60ADE7074B1B68002B05D10198EF
:1012600000F0B2FB01E000BF00E000BF00BF07B02C
:101270005DF804FB880000204851000000B587B0ED
:1012800001902C4A03AB1946104600F08DFE0590E4
:1012900048E0059B1B78022B2ED0022B32DC002B62
:1012A00002D0012B14D02DE0059B5B681B7FDBB2C5
:1012B00083F00103DBB2002B26D0059B5B68012283
:1012C0001A77059B5B6819461B4800F09BFE1BE0E4
:1012D000059B5A68194B1B689A4203D1174B002291
:1012E0001A6012E0059B5B681946134800F0FAFE8D
:1012F00003468DF8133008E0FFF7F8FE104B01228B
:101300001A7002E000BF00E000BF0A4A03AB1946B2
:10131000104600F062FE074A03AB1946104600F083
:1013200043FE0590059B002BB3D100BF00BF07B063
:101330005DF804FBF8000020485100008800002000
:101340008C00002000B583B00190019800F0E5FC0E
:101350000346002B01D0FFF7DDFE0021019800F0CD
:10136000FAFC0346002B02D00198FFF7E1FE0121B1
:10137000019800F0F0FC0346002B02D00198FFF723
:1013800005FF0198FFF77AFF0198FFF70FFF00BFF5
:1013900003B05DF804FB000008B5024800F0FDFC56
:1013A00000BF08BD0000002000B585B003460091D5
:1013B0008DF80730114A02AB1946104600F0C7FD00
:1013C0000390039B002B13D0039B9DF807201A70FA
:1013D000039B009A5A60094A02AB1946104600F076
:1013E000CFFD0346002B01D0FFF7D6FF002300E01E
:1013F0000423184605B05DF804FB00BFF800002088
:1014000000B583B0164B1B6800931648082358227A
:10141000154900F069FD0190019B002B01D0019B53
:1014200019E06B46114A1946114800F057FA01902D
:10143000019B002B01D0019B0DE001210C4800F025
:101440005BFC01230B4A0121094800F0D3FA0A4B47
:1014500001221A70019B184603B05DF804FB00BF1F
:10146000A4510000F8000020A00000204513000057
:1014700000000020FFFF7F008C00002000B587B037
:1014800003900B4601928DF80B30039B002B04D187
:10149000134940F22E2000F09BFC019B002B04D14D
:1014A0000F4940F22F2000F093FC019B002B01D14B
:1014B000072310E0039B1B680593059B019A5A6163
:1014C0009DF80B30012B0CBF01230023DBB21A4621
:1014D000059B1A610023184607B05DF804FB00BFA6
:1014E0005451000030B587B0039002910192039BE4
:1014F000002B04D1154940F23E2000F069FC039B0B
:101500000593059B1B7FDBB2002B01D000231AE063
:10151000059B019A9A61FFF7C7FC029B1A464FF0A0
:101520000003841841EB0305059BC3E90245059BB5
:101530001B69002B02D0059B029A1A6105990020B5
:10154000FFF732FF0346184607B030BD5451000084
:1015500000B585B00190019B002B04D109494FF4DF
:10156000157000F035FC019B0393039B00221A7752
:1015700003990120FFF718FF0346184605B05DF8F0
:1015800004FB00BF5451000082B001900091019A09
:10159000009BD31A23F07F43184602B07047000027
:1015A00008B5034800F0ECFB0346184608BD00BF31
:1015B0000000002072B600BF034B1B680133024AD3
:1015C000136000BF704700BF0C010020064B1B6872
:1015D000013B054A1360044B1B68002B01D162B626
:1015E00000BF00BF704700BF0C01002000B583B0F2
:1015F000019000F025F80346012B03D00449432055
:1016000000F0E6FBFFF7D6FF00BF03B05DF804FB78
:10161000A851000000B583B003468DF8073000F0F4
:101620000FF80346012B03D00449512000F0D0FBF2
:10163000FFF7CCFF00BF03B05DF804FBA85100002A
:1016400084B0EFF305830193019BC3F30803039375
:10165000039B002B0DD1EFF314830093009B0293A7
:10166000029B03F00103002B0CBF01230023DBB21C
:1016700000E00123184604B07047000082B0034622
:101680008DF807309DF8073003F01F0205499DF9DA
:1016900007305B09012000FA02F241F8232000BF65
:1016A00002B0704700E100E082B003468DF80730D9
:1016B0009DF8073003F01F0206499DF907305B09CA
:1016C000012000FA02F2403341F8232000BF02B0AB
:1016D000704700BF00E100E082B0034600918DF842
:1016E00007309DF90730002B0CDA009BDAB20C4969
:1016F0009DF8073003F00F03043B5201D2B20B44B4
:101700001A7609E0009BDAB206499DF907305201CA
:10171000D2B20B4483F8002300BF02B0704700BF71
:1017200000ED00E000E100E000B583B003460A46AA
:101730008DF8073013468DF806309DF80630072BDC
:1017400003D908496B2000F043FB9DF806209DF962
:10175000073011461846FFF7BFFF00BF03B05DF822
:1017600004FB00BF0052000000B583B003468DF8B3
:1017700007309DF907301846FFF780FF00BF03B020
:101780005DF804FB00B585B00190019B002B0AD0E9
:10179000074B43F001030393019B9B010293039BBF
:1017A0000298984700E000BF05B05DF804FB00BF59
:1017B000A052000084B0039002910192039B029A10
:1017C00002F5A872019943F8221000BF04B07047D7
:1017D00082B001900091019B009A02F5A87253F823
:1017E0002230184602B0704782B001900091019BF0
:1017F000009AC3F8042300BF02B0704782B0019082
:101800000091019B009AC3F8082300BF02B0704703
:1018100082B001900B46ADF80230BDF80230019A5B
:1018200013441B68184602B0704784B001900B4601
:10183000ADF80230BDF80230019A134400221A605C
:10184000BDF80230019A13441B680393039B00BF49
:1018500004B0704782B00190019BD3F8043518465C
:1018600002B0704700B583B001900091009BB3F5C2
:10187000805F04D306494FF4BE7000F0A9FA019BC3
:10188000009AC3F8082500BF03B05DF804FB00BF51
:101890002452000082B001900B468DF803309DF871
:1018A0000320019B13441A460123136000BF02B0BA
:1018B000704782B001900091019B009AC3F84423C5
:1018C00000BF02B0704782B001900091019B009A66
:1018D000C3F8482300BF02B07047000000B587B0CE
:1018E000039002910192039B002B03D128495520BC
:1018F00000F06EFA029B002B03D12549562000F020
:1019000067FA019B002B03D12149572000F060FAB0
:10191000039B5B7919461F4A019B42F82130039BC8
:101920005B791D4ADB0013441B79002B03D008238D
:101930000593059B27E0039B1A68029B1B881946A9
:101940001046FFF78FFF039B93F90420029B9B78BF
:1019500019461046FFF7E8FE039B93F9043018463A
:10196000FFF702FF039B5B790B4ADB001344012264
:101970001A71039B5B791946074A039B42F8313081
:1019800000230593059B184607B05DF804FB00BFD4
:1019900048520000100100201401002000B583B05F
:1019A0000190019B002B03D10649872000F010FA1B
:1019B000019B1B6800211846FFF76CFF00BF03B0B6
:1019C0005DF804FB4852000000B583B00190019B14
:1019D000002B03D106498D2000F0FAF9019B1B680A
:1019E00004211846FFF756FF00BF03B05DF804FB63
:1019F0004852000000B587B00390029101928DF823
:101A00000330039B002B03D12149962000F0E0F91D
:101A10004FF48032029B02FA03F30593029B50338A
:101A20009BB29B00ADF81230019B23F07F430193E2
:101A3000039B1B6805991846FFF7E0FE039B1B6894
:101A400005991846FFF73FFF039B1B68BDF812205E
:101A500011461846FFF7E9FE039B1B68019A02999D
:101A60001846FFF7A7FE039B1B6805991846FFF76A
:101A700020FF9DF80330002B05D0039B1B680599C0
:101A80001846FFF7B1FE00BF07B05DF804FB00BFCA
:101A90004852000000B585B00390029113468DF8BE
:101AA0000730039B002B03D10B49A92000F090F9CC
:101AB000039B1B6802991846FFF7FBFE9DF8073051
:101AC000002B05D0039B1B6802991846FFF78CFE7C
:101AD00000BF05B05DF804FB4852000000B583B0BC
:101AE00001900091019B002B03D10A49B32000F023
:101AF0006FF9019B1B6800991846FFF7E4FE019BF4
:101B00001B6800991846FFF779FE00BF03B05DF827
:101B100004FB00BF4852000000B583B001900B46A3
:101B2000ADF80230019B002B03D10F49BA2000F021
:101B30004FF9019B1B68BDF8022011461846FFF7BC
:101B400067FE0346002B09D0019B1B68BDF80220ED
:101B500011461846FFF769FE012300E000231846EE
:101B600003B05DF804FB00BF4852000082B0019052
:101B70000091019A009BD31A23F07F43184602B0CC
:101B80007047000000B58BB0039002910192009362
:101B9000039B002B03D15749CD2000F019F94FF4D6
:101BA0008032029B02FA03F30993029B50339BB2EB
:101BB0009B00ADF82230019B23F07F4301930999EC
:101BC0000398FFF78BFF039B1B681846FFF742FE45
:101BD0000790039B1B6802991846FFF7F9FD0690D2
:101BE000039B1B68079A02991846FFF7E3FD039BC6
:101BF0001B68BDF8222011461846FFF716FE07990C
:101C00000698FFF7B3FF0346012B0AD11020FFF718
:101C1000B9FD039B1B68BDF8222011461846FFF74B
:101C200004FE039B1B681846FFF714FE07900799F4
:101C30000198FFF79BFF0590039B1B6809991846C5
:101C4000FFF737FE059B012B15D1039B1868019BFD
:101C500001331A460299FFF7ADFD1020FFF792FD00
:101C6000039B1B681846FFF7F5FD0246079B93424E
:101C700035D00D2339E0039B1B68019A0299184661
:101C8000FFF798FD039B1B681846FFF7E3FD0790DD
:101C9000019B013B07991846FFF768FF0590009BE1
:101CA000C3F1FF1303F57F43059A9A4201D90D232F
:101CB0001BE0059B002B12D1039B1868019B01338D
:101CC0001A460299FFF776FD039B1B681846FFF73B
:101CD000C1FD0246079B934201D00D2305E001227E
:101CE00009990398FFF7D6FE002318460BB05DF85C
:101CF00004FB00BF4852000000B583B001900B46C2
:101D00008DF803309DF803301A4602210198FFF741
:101D1000C1FE00BF03B05DF804FB00B583B00190C5
:101D20004FF482710198FFF7F7FE0346184603B09F
:101D30005DF804FB00B583B0019000914FF4803250
:101D4000009B02FA03F319460198FFF7C7FE00BF94
:101D500003B05DF804FB00B585B001900091009BD5
:101D600050339BB29B00ADF80E30BDF80E301946D3
:101D70000198FFF7D1FE0346184605B05DF804FB55
:101D800000B583B00190019B1B681846FFF762FD08
:101D90000346184603B05DF804FB00B583B001901C
:101DA000019B93F904301846FFF77EFC00BF03B097
:101DB0005DF804FB08B5044B1B68044A1268104622
:101DC000984700BF08BD00BF10010020140100208B
:101DD00000B585B003460091ADF80630BDF8063079
:101DE000ADF80830009B039302AB1A46002144F281
:101DF0000200FFF72FF800BF05B05DF804FB86B0C6
:101E000001900091019B53E8011F8AB2D8890244D6
:101E10009889824228BF121A1889824202BFBFF3F2
:101E20002F8F002307E0C2EA010243E801200028C7
:101E3000E9D14FF001038DF80F3005900291049223
:101E4000029A009B1A609DF80F30DBB2184606B06C
:101E5000704784B00190019951E8013FC3EA034300
:101E600041E80132002AF7D10392029300BF04B087
:101E7000704786B001900091019B53E8021F1FFA42
:101E8000A1F2D888824202BFBFF32F8F00230DE05A
:101E9000D88902449889824228BF121AC1EA0242B4
:101EA00043E802200028E8D14FF001038DF80F30FD
:101EB000059002910492029A009B1A609DF80F30DF
:101EC000DBB2184606B0704784B00190019951E822
:101ED000023FC3EA234341E80232002AF7D10392CA
:101EE000029300BF04B0704784B003900291114682
:101EF0001A460B46ADF806301346ADF80430029B87
:101F0000002B01D10E231FE0BDF80630BDF80420E0
:101F1000B3FBF2F102FB01F29B1A9BB2002B01D042
:101F2000092311E0039B029A1A60039B00225A6066
:101F3000039B00229A60039BBDF806209A81039BB5
:101F4000BDF80420DA810023184604B0704700B5BC
:101F500085B001900091009B19460198FFF74FFF53
:101F60000346002B07D0019B1B68009A128813447C
:101F70000393039B00E00023184605B05DF804FBC3
:101F800000B583B001900091009B1A88009B5B888C
:101F90009A4204D10198FFF75CFF012300E000237F
:101FA000184603B05DF804FB00B585B001900091C0
:101FB000009B19460198FFF75CFF0346002B07D0F2
:101FC000019B1B68009A528813440393039B00E013
:101FD0000023184605B05DF804FB00B583B00190FE
:101FE0000091009B1A88009B5B889A4204D101985B
:101FF000FFF76AFF012300E00023184603B05DF8F5
:1020000004FB000000B585B001900091019B002BFE
:1020100003D118493A20FFF7DBFE009B002B03D1C8
:1020200014493B20FFF7D4FE019B5B6803930FE04C
:10203000019B9B68039A12680099104698470346D3
:1020400083F00103DBB2002B07D1039B1B680393D2
:10205000039B1B68002BEBD100E000BF039B1A68B9
:10206000009B1A60039B009A1A6000BF05B05DF8E0
:1020700004FB00BFA852000000B585B00190019B91
:10208000002B03D10C495120FFF7A2FE019B5B6896
:102090001B680393019B5B681B68002B06D0019BA8
:1020A0005B681A68019B5B6812681A60039B18469C
:1020B00005B05DF804FB00BFA852000000B583B076
:1020C0000190019B002B03D105495D20FFF780FEA5
:1020D000019B5B681B68184603B05DF804FB00BFFA
:1020E000A852000000B585B001900091019B002B23
:1020F00003D116496920FFF76BFE009B002B03D12B
:1021000012496A20FFF764FE00238DF80F30019B0F
:102110005B6802930FE0029B1B68009A9A4207D10A
:10212000009B1A68029B1A6001238DF80F3006E0AD
:10213000029B1B680293029B1B68002BEBD19DF84E
:102140000F30184605B05DF804FB00BFA852000030
:1021500082B003468DF807309DF8073003F01F0268
:1021600005499DF907305B09012000FA02F241F8A8
:10217000232000BF02B0704700E100E082B00346B8
:1021800000918DF807309DF90730002B0CDA009B89
:10219000DAB20C499DF8073003F00F03043B5201FB
:1021A000D2B20B441A7609E0009BDAB206499DF9D7
:1021B00007305201D2B20B4483F8002300BF02B0B3
:1021C000704700BF00ED00E000E100E000B583B023
:1021D00003460A468DF8073013468DF806309DF801
:1021E0000630072B03D908496B20FFF7F1FD9DF856
:1021F00006209DF9073011461846FFF7BFFF00BFC4
:1022000003B05DF804FB00BF0053000000B583B0CD
:1022100003468DF807309DF907301846FFF798FF01
:1022200000BF03B05DF804FB00B583B00346ADF812
:102230000630BDF80630184600F026F803461B6845
:10224000012B0CBF01230023DBB2184603B05DF85D
:1022500004FB00B585B00346ADF80630BDF8063086
:10226000184600F011F803461A4600231360BDF823
:102270000630184600F008F803461B680393039BDA
:1022800000BF05B05DF804FB82B00346ADF8063030
:10229000BDF8063003F1804303F5C043184602B091
:1022A0007047000082B00190034A019BC2F80433DA
:1022B00000BF02B0704700BF0060004082B00190D4
:1022C000034BD3F80423019B1340184602B0704718
:1022D0000060004082B00190084A019B03F5A273A0
:1022E00052F82330054943F00102019B03F5A27324
:1022F00041F8232000BF02B0704700BF00600040DB
:1023000084B00390029113468DF80730144A039B62
:1023100003F5A27352F82330114923F44F3323F409
:102320004073039A02F5A27241F822300C4A039BD3
:1023300003F5A27352F82320029B1B0203F47C5185
:102340009DF807301B0403F440330B4304491A4340
:10235000039B03F5A27341F8232000BF04B070472C
:102360000060004082B00190054A019B03F5A27312
:1023700052F823301B0A03F03F03184602B070479F
:102380000060004082B00190064A019B03F5A273F1
:1023900052F823301B0C03F00303DBB2184602B0E3
:1023A000704700BF0060004000B583B00190019B02
:1023B0001B682F2B04D90B4940F2CD10FFF708FD05
:1023C000019B1B681F2B02D84FF0A04306E0019B26
:1023D0001B6803F01F02019B1A60034B184603B0F1
:1023E0005DF804FB245300000003005000B585B0E5
:1023F0000190084611461A4603468DF803300B46F5
:102400008DF8023013468DF8013001AB1846FFF706
:10241000CBFF03909DF803209DF802305B001A4328
:102420009DF801309B001A439DF818301B0242EAC8
:1024300003019DF81C301B04019A1943039B02F50C
:10244000E07243F8221000BF05B05DF804FB00B550
:1024500085B003900B468DF80B309DF80B300022B1
:10246000019200220092002200210398FFF7BEFF94
:1024700000BF05B05DF804FB00B585B0019001AB6D
:102480001846FFF791FF0390019A039B02F5E07253
:1024900053F8223023F002030293019A039B02F5C2
:1024A000E072029943F8221000BF05B05DF804FB0A
:1024B00000B585B001900B468DF8033001AB18468E
:1024C000FFF772FF0390019A039B02F5E07253F845
:1024D0002230019A23F44031039B02F5E07243F865
:1024E0002210019A039B02F5E07253F822309DF806
:1024F000032012041146019A1943039B02F5E0726E
:1025000043F8221000BF05B05DF804FB00B585B0AC
:10251000019001AB1846FFF747FF0390039800F0C6
:1025200020F80246019B22FA03F303F00103184648
:1025300005B05DF804FB00B585B0019001AB18460D
:10254000FFF732FF0390019A039B02F5E07253F804
:1025500022301B0C03F00303DBB2184605B05DF814
:1025600004FB82B00190019BD3F81035184602B0ED
:102570007047000000B589B0039002910192184A9B
:1025800005AB92E8030083E80300039A029B13441F
:10259000022B04D9134940F2FD20FFF719FC039BDD
:1025A000079311E0079B9B0008AA134453F80C3CC7
:1025B0001846FFF7D6FF0246019B1A60019B0433C1
:1025C0000193079B01330793039A029B1344079AD5
:1025D0009A42E7D300BF00BF09B05DF804FB00BF1B
:1025E000485300002453000084B001900091009BE8
:1025F0000393019BDB080293019B03F00703019304
:102600000122019B02FA03F30399029A0A44127809
:102610001340184604B0704784B001900091009BAD
:102620000393019BDB080293019B03F007030193D3
:10263000039A029B13441B785AB20121019B01FAB1
:1026400003F35BB2134359B2039A029B1344CAB219
:102650001A7000BF04B0704782B001900C4A019B11
:102660001344303393F90030002B09DB084A019BF7
:102670001344303393F90030072B01DC012300E0D1
:10268000002303F00103DBB2184602B0704700BF1D
:102690001C01002082B00190064A019B1344303394
:1026A00093F90030072BCCBF01230023DBB218467F
:1026B00002B070471C01002082B00190064A019BC5
:1026C0001344303393F90030DB43DBB2DB09DBB278
:1026D000184602B0704700BF1C01002084B0039070
:1026E000029101928DF80330029B59B20E4A039B6E
:1026F000134430330A461A700B49029B019A41F881
:1027000023209DF8033083F00103DBB2002B08D0B7
:10271000029B083B039A51B2034A13440A4683F8CA
:10272000602000BF04B070471C01002082B00190FF
:10273000044A019B13443033FF221A7000BF02B0D9
:10274000704700BF1C01002000B583B00190044910
:102750000198FFF761FF00BF03B05DF804FB00BF05
:102760008001002082B00190044A019B1344303361
:1027700093F90030184602B0704700BF1C010020DA
:1027800082B00190034A019B52F82330184602B0F0
:10279000704700BF1C01002000B589B00390029172
:1027A00013468DF80730FF238DF81F309DF8073052
:1027B000002B01D0002300E0082305939DF807308B
:1027C000002B01D0082300E00C230493059B069303
:1027D00014E00F4A069B52F82330B3F1FF3F0AD1B1
:1027E0009DF80730029A06990398FFF777FF069B3A
:1027F0008DF81F3006E0069B01330693069A049B72
:102800009A42E6D39DF91F30184609B05DF804FBE3
:102810001C01002082B003468DF807309DF8073078
:10282000094A4FF0FF3142F823109DF80730072B7B
:1028300007D99DF80730083B034A1344FF2283F869
:10284000602000BF02B070471C01002000B583B0BB
:10285000254B93F86A30002B03D008230093009B8C
:102860003EE000238DF8073009E09DF80730184658
:10287000FFF75CFF9DF8073001338DF807309DF8B6
:1028800007302F2BF1D900238DF8073009E09DF890
:1028900007301846FFF7BEFF9DF8073001338DF86B
:1028A00007309DF807300B2BF1D9062200210F4885
:1028B00002F0B3FB06210620FFF788FC0620FFF795
:1028C000A5FC4FF4BE70FFF7C4FC4FF00040FFF7CB
:1028D000E9FC054B012283F86A2000230093009B4A
:1028E000184603B05DF804FB1C01002080010020A5
:1028F000044B93F86A30002B14BF01230023DBB292
:10290000184670471C01002000B587B00390029163
:102910000192039B2F2B04D9364940F20720FFF781
:1029200057FA002305930398FFF7C6FE0346002BD2
:1029300002D00823059357E0029B9B78C3F3400322
:10294000DBB21A4601990398FFF726FF03468DF87C
:1029500013309DF91330B3F1FF3F43D0029B9B78B6
:10296000C3F38003DBB283F00103DBB2002B13D08F
:10297000029B9B7803F00103DBB2002B03D003988A
:10298000FFF77AFD05E0029B5B7819460398FFF795
:102990005EFD0398FFF7D8FE029B9B7803F00203CD
:1029A000DBB2002B08D09DF91300029B1B781A465E
:1029B0000399FFF7A5FC17E09DF91330083B0E4A79
:1029C000134493F96010029B1B789B015AB29DF946
:1029D0001330083B0A4351B2074A13440A4683F8AE
:1029E000602001E004230593059B184607B05DF8BD
:1029F00004FB00BF505300001C01002000B589B04B
:102A000001900B468DF80330019B2F2B04D93D49D3
:102A100040F23720FFF7DCF90198FFF74DFE03463F
:102A2000002B04D137494FF40E70FFF7D1F901980C
:102A3000FFF730FE0346002B2FD00198FFF792FEE0
:102A40000346083B304A134493F960308DF80F3049
:102A50009DF80F309B098DF80E309DF80E30032B3A
:102A60000BD10198FFF752FD0346002B01D0032341
:102A700000E002238DF81F3008E09DF80E30012B96
:102A800001D1022300E003238DF81F309DF81F3091
:102A900019460198FFF70CFD30E00198FFF7DCFDC7
:102AA0000346002B2AD00198FFF75CFE03460693ED
:102AB000069B9BB240339BB29B00ADF81630069B41
:102AC0001846FFF707FCBDF816301846FFF7C1FBA4
:102AD0009DF80330002B11D00198FFF743FE034609
:102AE0001846FFF74DFE0490049B002B06D00122F0
:102AF000069B02FA03F31846FFF7D4FB00BF09B0A8
:102B00005DF804FB505300001C01002000B583B0A9
:102B10000190019B2F2B04D908494FF42270FFF735
:102B200057F90198FFF7F2FC0346002B14BF01236D
:102B30000023DBB2184603B05DF804FB50530000DD
:102B400000B599B00023179306AB00221A605A60B3
:102B50004FF48073ADF8563001231493002316937D
:102B600021E0BDF856301846FFF75EFB0346002B08
:102B70000ED01498FFF7A2FB0346002B08D0BDF837
:102B800056301846FFF765FB179A149B13431793AB
:102B9000149B5B001493BDF856300433ADF85630E7
:102BA000169B01331693169B072BDAD94FF4BE7090
:102BB000FFF73AFB0346002B0DD04FF4BE70FFF732
:102BC00048FB179B43F00043179306AB1A460221BC
:102BD0000020FFF7CFFC179BDBB2002B29D001238D
:102BE00014930023169321E0149A179B1340002B93
:102BF00016D01698FFF7B6FB11901698FFF7C2FB98
:102C000003468DF843301698FFF7BAFD0F900F9BDF
:102C1000002B05D09DF843200F9B11461198984733
:102C2000149B5B001493169B01331693169B072B82
:102C3000DAD9179B002B80F2F08000238DF84B30FF
:102C400004AB00221A605A60002313930AE0139B1E
:102C50009B0018AA13444FF0FF3243F8582C139BE3
:102C600001331393139B012BF1D900238DF84B30C3
:102C70000023169378E06B4A169B1344603393F954
:102C800000308DF83B309DF83B3023F0C0030D93AE
:102C9000644A169B1344603393F90030B3F1FF3F4D
:102CA0005FD002AB19460D98FFF79EFC0346002B40
:102CB00057D09DF83B309B098DF833300D98FFF7C6
:102CC00051FD03461846FFF75BFD0B900B9B002B55
:102CD00003D19DF83330032B43D19DF83330032BC0
:102CE00004D104AB19460D98FFF796FC0D98FFF739
:102CF00022FC03468DF82B3006AB19460D98FFF7E2
:102D000073FC0990099B002B03D09DF82B30022BFC
:102D100006D0099B002B24D19DF82B30032B20D10A
:102D20009DF83330032B13D19DF82B30022B01D1AA
:102D3000032300E002238DF823309DF82330194649
:102D40000D98FFF7B5FB9DF84B3001338DF84B30F4
:102D50000B9B002B05D09DF833200B9B11460D9843
:102D60009847169B01331693169B032B83D99DF826
:102D70004B30002B4CD001238DF84A306B461A465D
:102D800002210020FFF7F6FB0023139314E0139BAE
:102D90009B0018AA134453F8602C139B9B0018A99E
:102DA0000B4453F8483C9A4203D000238DF84A3034
:102DB00005E0139B01331393139B012BE7D99DF877
:102DC0004A30002B03D000238DF84B3020E0002345
:102DD00013931AE0139B9B0018AA134453F8602C1A
:102DE000139B9B0018A90B4443F8482C139B9B0092
:102DF00018AA134453F8502C139B9B0018A90B449A
:102E000043F8582C139B01331393139B012BE1D9E7
:102E10009DF84B30002B7FF428AF00BF19B05DF850
:102E200004FB00BF1C01002008B5064B1B68002BEB
:102E300003D105495120FEF7CBFF024B1B68984791
:102E400000BF08BD88010020A053000082B001909F
:102E5000019B044A934201D1034B00E00023184632
:102E600002B07047002000408801002000B587B004
:102E700001900091019B002B03D118497720FEF7A8
:102E8000A7FF0198FFF7E2FF0490049B002B1ED0E0
:102E900000238DF817300020FEF7A8FB049B1B7958
:102EA000002B03D001238DF8173005E0049B009A16
:102EB0001A60049B01221A710020FEF7ABFB9DF8FB
:102EC0001730002B03D011230393039B02E0002350
:102ED0000393039B184607B05DF804FBA053000062
:102EE00010B584B001900091009B0393054A039BA9
:102EF00052F82340019B93E80700A04700BF04B0AD
:102F000010BD00BF9001002000B587B00390029172
:102F10000192039B1B7905930749059B019A41F890
:102F20002320059B054A0299039800F0C7F9034640
:102F3000184607B05DF804FB90010020E12E000068
:102F400082B003468DF807309DF8073003F01F026A
:102F500005499DF907305B09012000FA02F241F8AA
:102F6000232000BF02B0704700E100E082B00346BA
:102F700000918DF807309DF90730002B0CDA009B8B
:102F8000DAB20C499DF8073003F00F03043B5201FD
:102F9000D2B20B441A7609E0009BDAB206499DF9D9
:102FA00007305201D2B20B4483F8002300BF02B0B5
:102FB000704700BF00ED00E000E100E082B001904A
:102FC000019B03F06043B3F1005F0CBF01230023BA
:102FD000DBB2184602B0704782B00190019B1B0B18
:102FE0005BB2184602B0704700B583B003460A468C
:102FF0008DF8073013468DF806309DF80630072B04
:1030000003D908496B20FEF7E3FE9DF806209DF9E1
:10301000073011461846FFF7A9FF00BF03B05DF85F
:1030200004FB00BFF053000000B583B003468DF8E9
:1030300007309DF907301846FFF782FF00BF03B045
:103040005DF804FB82B001900B468DF803309DF8CB
:103050000330019A134401221A6000BF02B0704786
:1030600084B001900B46ADF80230BDF80230019AF1
:10307000134400221A60BDF80230019A13441B6801
:103080000393039B00BF04B0704782B001900B46CE
:10309000ADF80230BDF80230019A13441B68002BD2
:1030A00014BF01230023DBB2184602B0704782B080
:1030B00001900091019BD3F80022009B1A43019BD1
:1030C000C3F8002200BF02B0704782B001900091A7
:1030D000019B009AC3F8042300BF02B0704782B07E
:1030E0000190019B0222C3F8002500BF02B0704787
:1030F00084B00390029101920093039B029AC3F85B
:103100000825039B019AC3F81025039B009AC3F876
:103110000C25039B049AC3F8142500BF04B0704724
:1031200084B0039002910192029A039BC3F8442554
:10313000039B019AC3F8482500BF04B0704784B0D0
:10314000039002910192029A039BC3F83425039BDA
:10315000019AC3F8382500BF04B0704782B00190CF
:10316000019BD3F84C35184602B0704782B00190ED
:10317000019BD3F83C35184602B0704784B00190EB
:103180000B468DF8033013468DF802309DF802305F
:10319000002B14BF01230023DBB203939DF80330FF
:1031A000032B10D0032B13DC012B02D0022B05D0F4
:1031B0000EE0039B43F0020303930AE0039B43F0FA
:1031C0000403039305E0039B43F00603039300E02D
:1031D00000BF019B039AC3F8542500BF04B0704799
:1031E00082B001900B468DF803309DF80320019BBF
:1031F000C3F8C02500BF02B0704782B001900B46F3
:103200008DF803309DF80320019BC3F85C2500BFB7
:1032100002B0704700B583B00190019B1B682F2B53
:1032200004D90B4940F2CD10FEF7D2FD019B1B687B
:103230001F2B02D84FF0A04306E0019B1B6803F050
:103240001F02019B1A60034B184603B05DF804FB94
:10325000145400000003005000B585B001900846EA
:1032600011461A4603468DF803300B468DF802309E
:1032700013468DF8013001AB1846FFF7CBFF0390E2
:103280009DF803209DF802305B001A439DF8013041
:103290009B001A439DF818301B0242EA03019DF877
:1032A0001C301B04019A1943039B02F5E07243F89A
:1032B000221000BF05B05DF804FB000000B58DB022
:1032C0000590049103920293049B002B03D1714952
:1032D0008C20FEF77DFD039B002B03D16D498D20D3
:1032E000FEF776FD059B1B791A461346DB009B1AF9
:1032F0009B00694A13440993059B1B680893099B2B
:103300001B7D002B03D008230793079BBDE0049B84
:103310001B7C032B03D907230793079BB5E0059B71
:103320001B791A465D4B53F8223019460898FFF76F
:103330009DFD0346002B03D011230793079BA4E0B8
:10334000049B1B68FF2B0FD0049B1868049BDB7C3D
:10335000002201920093002300220021FFF77CFF4E
:10336000049B1B680A9302E04FF0FF330A93049B0F
:103370005B68FF2B0ED0049B586800230193002349
:103380000093002300220021FFF766FF049B5B6887
:103390000B9302E04FF0FF330B93049BD868049B20
:1033A0009B7C002201920022009200220021FFF764
:1033B00053FF049B9868002301930023009300238C
:1033C00000220021FFF748FF049B9968049BDB68FB
:1033D00000930A9B0B9A0898FFF78AFE00220021AF
:1033E0000898FFF7ACFE002200210898FFF798FE2E
:1033F000049B197C049B5B7C1A460898FFF7BEFE71
:10340000049B1B7D19460898FFF7F7FE049B5B7D24
:1034100019460898FFF7E4FE4FF482710898FFF709
:103420001FFE4FF494710898FFF71AFE04210898C4
:10343000FFF73DFE099B00225A75099B039A9A608B
:10344000099B029A9A6140F202410898FFF73DFEFB
:10345000059B1B681846FFF7BFFD03461A46049BF1
:103460009B7D19461046FFF7BFFD059B1B6818465C
:10347000FFF7B2FD03461846FFF7D6FD099B012270
:103480001A750898FFF72BFE002318460DB05DF85B
:1034900004FB00BF385400009C0100208854000049
:1034A00000B587B001900091009B5B7DDBB2032BE0
:1034B00023D0032B3FDC012B02D0022B05D03AE0B6
:1034C00024210198FFF7BEFD36E000238DF80C3073
:1034D0000023049300230593009B9B68002B04D1D9
:1034E000174940F25510FEF773FC009B9B68009A49
:1034F000916903AA104698471EE001238DF80C300D
:103500000198FFF733FE034604930198FFF726FE68
:1035100003460593009B9B68002B04D1084940F2A9
:103520006110FEF755FC009B9B68009A916903AA05
:103530001046984700E000BF00BF07B05DF804FBED
:103540003854000000B585B00390029113468DF801
:103550000730029B9DF807205A7502990398FFF7E0
:103560009FFF00BF05B05DF804FB000000B587B009
:103570000390029101920093029B002B07D1019BC3
:10358000002B04D0384940F27F10FEF721FC009B4D
:10359000002B07D1089B002B04D033494FF4C07097
:1035A000FEF716FC039B1B791A461346DB009B1A99
:1035B0009B002E4A13440493039B1B79002B07D1D5
:1035C000089BB3F5803F03D2019BB3F5803F01D345
:1035D000092344E0029B002B08D00298FFF7EEFC81
:1035E000034683F00103DBB2002B0BD1009B002BC1
:1035F0000CD00098FFF7E2FC034683F00103DBB236
:10360000002B03D010230593059B28E0049B5B7DD2
:10361000DBB2032B1FDC022B04DA002B02D0012BC0
:1036200016D018E0049B029ADA60049B009A1A6193
:10363000049B019A1A60049B089A5A600023059320
:10364000039B1B68012204991846FFF77BFF05E0E6
:103650000823059302E00323059300BF059B18464A
:1036600007B05DF804FB00BF385400009C01002047
:1036700000B583B0019000914FF494710198FFF769
:1036800004FD0346002B23D04FF494710198FFF7FB
:10369000E7FC009B5B7DDBB2012B1BD1009BD96853
:1036A000009B1B681A460198FFF73AFD009B1969B9
:1036B000009B5B681A460198FFF741FD282101989D
:1036C000FFF7C0FC022200990198FFF73BFF02E0E0
:1036D00000BF00E000BF4FF482710198FFF7D5FCF6
:1036E0000346002B0FD04FF482710198FFF7B8FC0E
:1036F000009B5B7DDBB2022B07D10322009901986E
:10370000FFF720FF02E000BF00E000BF00BF03B0F2
:103710005DF804FB08B503490348FFF7A9FF00BFA4
:1037200008BD00BF9C0100200030004000B583B000
:1037300000230193104B1B78002B02D085230193AB
:1037400014E00D4B00229A600B4B00225A600A4B8A
:1037500000221A61084B0022DA60084800F0E6F9FE
:10376000019000F009FA044B01221A70019B1846DF
:1037700003B05DF804FB00BFB8010020C1380000B1
:1037800084B001900091019B1B68039306E0039AAB
:10379000009B9A420DD0039B1B680393039B002B55
:1037A000F5D1019B1A68009B1A60019B009A1A6070
:1037B00000E000BF04B0704784B00190019B1B681B
:1037C0000393039B002B03D0039B1A68019B1A6091
:1037D000039B184604B0704700B583B00190224B9C
:1037E0001B78002B03D12149E920FEF7F1FA1E4B8B
:1037F0009B78DBB2002B12D0019B002B03D0019BE6
:103800005B68012098470020FDF7F0FE164BDB684F
:103810000133154AD3600020FDF7FCFE17E00020BD
:10382000FDF7E4FE019B002B03D001991048FFF740
:10383000A7FF0D4BDB68002B01D100F0B1F90A4B5B
:10384000DB680133084AD3600020FDF7E3FE064B36
:10385000DB68002B04D1054940F20510FEF7B8FAE9
:1038600000BF03B05DF804FBB80100208C540000D9
:10387000C801002000B585B003468DF807309DF8DB
:103880000730002B02D10C4B039301E00B4B039349
:103890000398FFF791FF0290029B002B06D0029B3A
:1038A0005B689DF8072010469847F1E700BF00BF0E
:1038B00005B05DF804FB00BFC0010020C801002076
:1038C00000B583B003468DF807309DF80730002B14
:1038D00005D10A4B01225A700020FFF7CBFF9DF85B
:1038E0000730012B05D1054B01229A700120FFF70B
:1038F000C1FF00BF03B05DF804FB00BFB8010020AA
:1039000082B003468DF807309DF8073003F01F02A0
:1039100005499DF907305B09012000FA02F241F8E0
:10392000232000BF02B0704700E100E082B00346F0
:1039300000918DF807309DF90730002B0CDA009BC1
:10394000DAB20C499DF8073003F00F03043B520133
:10395000D2B20B441A7609E0009BDAB206499DF90F
:1039600007305201D2B20B4483F8002300BF02B0EB
:10397000704700BF00ED00E000E100E082B0019080
:10398000019B1B0B5BB2184602B0704700B583B0B9
:1039900003460A468DF8073013468DF806309DF829
:1039A0000630072B03D908496B20FEF711FA9DF862
:1039B00006209DF9073011461846FFF7B7FF00BFF4
:1039C00003B05DF804FB00BFDC54000000B583B019
:1039D00003468DF807309DF907301846FFF790FF32
:1039E00000BF03B05DF804FB82B003468DF80730DA
:1039F0000F4A9DF90730002B00DA1F335B115BB2D1
:103A000052F823209DF90730594203F01F0301F0BB
:103A10001F0158BF4B425BB222FA03F303F00103CC
:103A2000002B14BF01230023DBB2184602B07047FD
:103A300000E100E082B001904FF08042019BC2F8AB
:103A4000043300BF02B0704782B001904FF0804253
:103A5000019BC2F8083300BF02B0704782B0034632
:103A60008DF807309DF8073003F1804301221A607A
:103A700000BF02B0704784B00346ADF80630BDF811
:103A8000063003F1804300221A60BDF8063003F1CE
:103A900080431B680393039B00BF04B0704782B050
:103AA0000346ADF80630BDF8063003F180431B68CD
:103AB000002B14BF01230023DBB2184602B070476D
:103AC00082B001904FF08042019BC2F8183500BFD0
:103AD00002B0704700B583B006238DF807304FF071
:103AE0008040FFF74BFF03461846FFF77DFF034674
:103AF00083F00103DBB2002B13D04FF08040FFF7BF
:103B00003DFF03461A469DF8073019461046FFF759
:103B10003DFF4FF08040FFF731FF03461846FFF7A7
:103B200055FF00BF03B05DF804FB000000B585B091
:103B30000190019B002B03D10D49A420FEF748F909
:103B4000002303930B4B1B79002B02D08523039397
:103B500008E0084A019B1360064B01221A71054BCD
:103B600000225A71039B184605B05DF804FB00BFA4
:103B700000550000CC01002008B5074B1B79002B35
:103B800003D10649BD20FEF723F9FFF7A3FF01206B
:103B9000FFF796FF00BF08BDCC01002000550000D4
:103BA00008B50A4B1B79002B03D10949EA20FEF71F
:103BB0000FF94FF48270FFF75EFF0220FFF73AFF24
:103BC0000820FFF74BFF00BF08BD00BFCC0100205D
:103BD0000055000008B54FF48070FFF760FF034602
:103BE000002B14D04FF48070FFF745FF0120FFF742
:103BF0002BFF114B5B7983F00103DBB2002B06D066
:103C00000D4B01225A710C4B1B68002098474FF452
:103C10008270FFF744FF0346002B0AD04FF48270F6
:103C2000FFF729FF0220FFF70FFF034B1B6801205E
:103C3000984700BF08BD00BFCC01002084B00190B0
:103C40000B46ADF80230BDF80230019A1344002251
:103C50001A60BDF80230019A13441B680393039B5A
:103C600000BF04B0704782B001900B46ADF802303F
:103C7000BDF80230019A13441B68002B14BF0123C6
:103C80000023DBB2184602B0704782B00190009169
:103C9000019BD3F80423009B1340002B14BF012386
:103CA0000023DBB2184602B0704782B00190019B3E
:103CB0009B0003F5A0739BB2184602B0704782B018
:103CC00001904FF48032019B02FA03F3184602B0D0
:103CD000704700B587B00390029113468DF8073006
:103CE00000238DF8173030E09DF817301846FFF7A5
:103CF000DCFF0346ADF814309DF817301846FFF787
:103D0000DEFF0490BDF8143019460398FFF7ABFFAF
:103D10000346002B14D004990398FFF7B6FF03461F
:103D2000002B0DD0BDF8143019460398FFF786FF1D
:103D3000029B1B68029A5168BDF8142010469847F0
:103D40009DF8173001338DF817309DF817209DF836
:103D500007309A42C8D300BF00BF07B05DF804FB2C
:103D600008B5042202490348FFF7B3FF00BF08BDAE
:103D7000D40100200080004000B587B003460A4609
:103D80008DF8073013468DF8063000238DF8173074
:103D9000002304939DF807301846FCF7F5FC0490C7
:103DA000049B032B61D89DF80630022B52D0022BC6
:103DB0005EDC002B31D0012B5AD13649049A1346D0
:103DC0005B0013440B441B788DF817303149049A7B
:103DD00013465B0013440B4401331B78002B0ED0B9
:103DE0002D4B2E4A4FF480411846FDF77BFB039084
:103DF000039B002B03D1294A9DF8073013702549F6
:103E0000049A13465B0013440B4402331978244A86
:103E1000049B13440A461A702AE01F4B1846FDF70C
:103E200097FB1F4A049B134419781A48049A1346B7
:103E30005B001344034402331B78994217D11549A0
:103E4000049A13465B0013440B4402331B788DF82D
:103E500017300CE00F49049A13465B0013440B44DF
:103E600001331B788DF8173002E000BF00E000BF7F
:103E70009DF81730002B09D00A4B1B68002B05D08A
:103E8000084B1B689DF817201046984700BF07B0E5
:103E90005DF804FB34020020400200206002002094
:103EA000640200203002002000B583B00190019B25
:103EB0001B7802211846FFF75FFF00BF03B05DF8D3
:103EC00004FB000000B583B00C4B1B78002B0FD017
:103ED0000023019308E0019B022B02D00198FCF71C
:103EE000C5FB019B01330193019B032BF3D901E037
:103EF000FCF7D6FB00BF03B05DF804FBE80100202F
:103F00002DE9F04F87B003468DF80F30002305935D
:103F100000230493D14B1B78002B04D0CF4B0022FD
:103F20001A70FFF7CFFF9DF80F30172B00F2298290
:103F300001A252F823F000BF993F0000B13F0000FA
:103F4000B13F000043400000D14000004541000067
:103F5000D1410000F1410000014200001F42000079
:103F60003D42000069420000874200009542000087
:103F700095420000954200009542000095420000E5
:103F80002543000033430000474300005B4300002B
:103F90007543000075430000FFF794FFB04B1846CF
:103FA000FDF7D6FA0590AF4A9DF80F301370E9E19E
:103FB0000020FCF713FB0346002B0DD00020FCF77C
:103FC00055FB9DF80F30022B02D14FF4E16301E065
:103FD0004FF47A6304930BE00020FCF72DFB9DF86F
:103FE0000F30022B01D1C82301E04FF4C8730493B2
:103FF0009C4A9DF80F301370994C049B18464FF063
:1040000000014FF000024FF00003CB0343EA50439E
:10401000C20312F57A71009143F1000301934FF44A
:10402000FA624FF00003DDE9000100F08FFF024665
:104030000B461346002219462046FDF753FA059019
:10404000A0E10020FCF7CAFA0346002B0DD00020A7
:10405000FCF70CFB9DF80F30032B02D14FF4487393
:1040600001E04FF47A6304930BE00020FCF7E4FADC
:104070009DF80F30032B01D1C82301E04FF4C87322
:104080000493784A9DF80F301370754C049B1846C2
:104090004FF000014FF000024FF00003CB0343EA62
:1040A0005043C20312F57A7A43F1000B4FF4FA62DF
:1040B0004FF000035046594600F048FF02460B46B9
:1040C0001346002219462046FDF70CFA059059E1E7
:1040D0000020FCF783FA0346002B06D00020FCF7F3
:1040E000C5FA4FF47A63049305E00020FCF7A4FAC4
:1040F0004FF4C87304935B4A9DF80F301370584C0B
:10410000049B18464FF000014FF000024FF00003EF
:10411000CB0343EA5043C20312F57A7843F1000916
:104120004FF4FA624FF000034046494600F00EFF9C
:1041300002460B461346002219462046FDF7D2F9E7
:1041400005901FE10020FCF749FA0346002B0CD034
:104150000020FCF78BFA9DF80F30052B01D1C82306
:1041600001E04FF47A6304930BE00020FCF764FA5B
:104170009DF80F30052B01D1C82301E04FF4C8731F
:104180000493384A9DF80F301370354C049B184641
:104190004FF000014FF000024FF00003CB0343EA61
:1041A0005043C20312F57A7643F100074FF4FA62E6
:1041B0004FF000033046394600F0C8FE02460B4679
:1041C0001346002219462046FDF78CF90590D9E0E8
:1041D0000020FCF78BFA234A9DF80F301370204B18
:1041E000002240F266611846FDF77CF90590C9E0AF
:1041F0000020FCF721FA1B4A9DF80F301370C1E034
:10420000164B01221A700120FCF770FA144B0022A1
:1042100040F266611846FDF765F90590B2E00F4B74
:1042200001221A700120FCF761FA0D4B00224FF4B5
:1042300000511846FDF756F90590A3E0074B0122FF
:104240001A700120FCF752FA054B002240F2666119
:104250001846FDF747F9059094E000BFE101002002
:10426000F0010020E0010020494B01221A700120DA
:10427000FCF73CFA474B00224FF400511846FDF77B
:1042800031F905907EE0FCF71EFA434A9DF80F30A5
:10429000137077E0414B1846FDF75AF905909DF8E9
:1042A0000F30C3F111030493049B002B33D0059B03
:1042B000002B30D1049B012B26D9384E049B9BB296
:1042C0001A46C82303FB02F318464FEAE0714FF089
:1042D00000024FF00003CB0343EA5043C20312F540
:1042E0007A7443F100054FF4FA624FF00003204660
:1042F000294600F02BFE02460B46134600221946C3
:104300003046FDF7EFF805900220FCF795F9244BB5
:1043100001221A7036E00220FCF7A8F9204B002297
:104320001A702FE0FFF7CEFD1B4A9DF80F30137077
:1043300028E0FFF7C7FD0020FCF77EF9164A9DF83C
:104340000F3013701EE0FFF7BDFD0120FCF774F97C
:10435000114A9DF80F30137014E0FFF7B3FD0020F1
:10436000FCF76AF90120FCF767F90B4A9DF80F305A
:10437000137007E0FCF7A7F9074A9DF80F30137098
:1043800000E000BF059B184607B0BDE8F08F00BFF6
:10439000E1010020F0010020E001002010020020D7
:1043A000E801002000B583B00190074B1B6803F0C3
:1043B0000103002B04D0054B1B781846FFF7A0FD26
:1043C00000BF03B05DF804FBE4010020E001002021
:1043D00000B583B001900220FCF788F900BF03B05C
:1043E0005DF804FB00B585B00190009100230393B4
:1043F0002A4A019B13602A4A009B1360019B03F029
:104400000203002B2AD00023029308E0012201219D
:10441000029800F055F80390029B01330293029B2F
:10442000032B02D8039B002BF0D0039B002B06D15B
:1044300040F2333204211B48FCF7FCFB0390039B42
:10444000002B02D1FCF77EFC0390039B002B05D1CF
:10445000154A00211548FDF711F80390019B03F060
:104460000103002B14D00120FCF7AEF9039B002BB5
:1044700005D10F4A00210F48FDF700F80390039B78
:10448000002B05D10C4A01210C48FCF7F7FF0390E3
:10449000039B184605B05DF804FB00BFE401002053
:1044A000300200205C550000A93E00005855000075
:1044B000A543000050550000D143000054550000B2
:1044C00084B001900B468DF8033013468DF802300E
:1044D00000230393019B032B3CD89DF80230012B52
:1044E0000BD19DF80330012B04D1019BDBB20E33BD
:1044F000DBB200E000238DF802309DF80330022B80
:104500000FD0022B23DC002B16D0012B1FD1144916
:10451000019A13465B0013440B449DF802201A7065
:104520001AE00F49019A13465B0013440B44013310
:104530009DF802201A700FE00949019A13465B00AA
:1045400013440B4402339DF802201A7004E0072341
:10455000039301E007230393039B184604B07047BD
:104560003402002082B00023019315E00F49019A24
:1045700013469B0113445B000B44023300221A7064
:10458000019A13469B0113445B00084A134401221D
:104590005A70019B01330193019B052BE6DD044B0F
:1045A00000221A7000BF02B0704700BF6C020020EA
:1045B0007805002000B587B001AB83E807009DF8BF
:1045C0000430012B40F0BC8003238DF815305E4B86
:1045D0001B788DF8143005238DF817305A4B5B7813
:1045E0008DF816300321584800F097FA034683F0FF
:1045F0000103DBB2002B03D002238DF8153060E0FD
:104600009DF81630012B04D1504B1B788DF81530D6
:1046100057E09DF816300A2B27D99DF816301A2B33
:1046200023D805238DF817309DF81630184600F072
:10463000D7F9474B1B781A4613469B0113445B007E
:10464000444A134402330121184600F0F9F900F0FE
:10465000EFF903461A469DF81630934201D1042320
:1046600000E005238DF815302BE09DF816301A2B4D
:104670000CD99DF816301F2B08D89DF816301B3B1F
:104680008DF8173004238DF815301AE09DF8163098
:10469000022B13D1FFF766FF2D4B1B781A461346EA
:1046A0009B0113445B002B4A13440233012118463B
:1046B00000F0C6F904238DF8153002E005238DF8CB
:1046C00015309DF81520214B1A709DF817201346C0
:1046D0009B0113445B001F4A13441A4605AB1B8819
:1046E00013809DF8172013469B0113445B00194A61
:1046F00098189DF81720174913469B0113445B0037
:104700000B4402331B780333194600F0F6F99DF889
:10471000172013469B0113445B000E4A98189DF81E
:1047200017200C4913469B0113445B000B440233D2
:104730001B780433D9B20323034A00F0D7F800E012
:1047400000BF07B05DF804FB6802002008000020ED
:10475000780500206C02002000B585B0FEF7E6FF6A
:104760000390039B0293029B002B04D0274A8221D3
:104770000298FCF761FB0020FFF72EF8FCF740FEE3
:104780000390039B0193019B002B04D01F4A8621B9
:104790000198FCF751FB1E4B0122C3F840254FF056
:1047A00080430022C3F800214FF0804301221A60A9
:1047B00000BF4FF08043D3F80031002BF9D0002127
:1047C0000120FFF70FFE0390039B0093009B002B3B
:1047D00004D00E4A96210098FCF72EFB0D4800F0FD
:1047E00051F8FFF7BFFE0C4B93F88C320433D9B26B
:1047F00003230A4A0A4800F079F800F09DF80B20DC
:1048000000F0EEF800BF05B05DF804FB7C55000039
:1048100000E00140B54500006C0200206802002065
:10482000F604002008B5FFF797FF0F4B1B781A46D8
:1048300013469B0113445B000C4A134402330021CE
:10484000184600F0FDF8084B1B785A1C084B83FBF8
:1048500002135910D317C91A0B469B000B44D11AE7
:10486000CAB2014B1A70E0E7780500206C02002004
:104870006766666684B001AB83E8070000BF04B0DA
:104880007047000030B58BB00190019B002B01D127
:10489000124B0193124B03AC1D460FCD0FC495E88C
:1048A000030084E803001F2306931E2303931D23A4
:1048B00004931A23059303AB019A19460948FEF79E
:1048C00023FB0990099B002B04D0074A1921099862
:1048D000FCF7B2FA00BF0BB030BD00BF7548000056
:1048E000F4550000B0550000B855000000B589B07F
:1048F000059003921A460B468DF8133013468DF837
:1049000012309DF813209DF812300093039B0599F7
:104910000748FEF72BFE0790079B002B04D0054AA3
:104920001F210798FCF788FA00BF09B05DF804FB67
:10493000B0550000B8550000194BD3F85036184A4E
:1049400023F00103C2F85036154B164AC3F8182558
:10495000134B0022C3F83425114B0022C3F82C2539
:104960000F4B0122C3F830250D4B4FF0CC32C3F86A
:1049700024250B4B4FF0CC32C3F81C25084B0A4AB8
:10498000C3F81425064B7F22C3F81825044BD3F82F
:104990005036034A43F00103C2F8503600BF704757
:1049A000001000407E000403080000020B4B0022B0
:1049B000C3F80022094B0022C3F81021074B012243
:1049C0001A6100BF054BD3F81031002BFAD0034B0E
:1049D0000022C3F8102100BF704700BF0010004044
:1049E00000B583B003468DF807309DF807300A2BD9
:1049F00012D99DF807301A2B0ED89DF80730A3F175
:104A00000A0213469B001A44074BC3F80825074ABD
:104A10009DF80730137003E00B20FFF7E1FF00BFA4
:104A200000BF03B05DF804FB001000400900002047
:104A3000024B1B78DBB21846704700BF090000200C
:104A400000B583B001900B468DF80330FFF7AEFF41
:104A5000FFF772FF134B0F22C3F81025114B0122F1
:104A6000C3F800220F4A019BC2F804350E4B1B7895
:104A7000DBB21846FFF7B4FF0A4B01225A609DF8DB
:104A80000330002B0AD100BF064BD3F86C31002B4A
:104A9000FAD0044B0022C3F86C2100E000BF03B041
:104AA0005DF804FB001000400900002084B0019074
:104AB000009100238DF80F300023029314E0019A37
:104AC000029B13441B781A46D200D21A11460901E0
:104AD0008A1A52001344DAB29DF80F3013448DF84D
:104AE0000F30029B01330293029A009B9A42E6D355
:104AF0009DF80F30184604B0704710B582B0019091
:104B00000091019A009BD41800990198FFF7CEFFFD
:104B10000346237000BF02B010BD00B583B0019002
:104B20000091009B013B19460198FFF7BFFF034628
:104B30001946009B013B019A13441B7899420CBF14
:104B400001230023DBB2184603B05DF804FB00002C
:104B5000BFF34F8F00BF074BDB6803F4E0620549EA
:104B6000054B1343CB60BFF34F8F00BF00BF00BFA7
:104B7000FCE700BF00ED00E00400FA05024B034A29
:104B80001A6000BF704700BF0C0000200090D003E7
:104B900008B500F027F90346002B0ED04FF08043F4
:104BA0000022C3F80C214FF080430022C3F81021EB
:104BB0004FF080430022C3F8382500F037F9034650
:104BC000002B76D04FF080537D4AD3F80434C2F8DE
:104BD00020354FF080537A4AD3F80834C2F8243590
:104BE0004FF08053764AD3F80C34C2F828354FF092
:104BF0008053734AD3F81034C2F82C354FF08053E9
:104C00006F4AD3F81434C2F830354FF080536C4AF1
:104C1000D3F81834C2F834354FF08053684AD3F8CB
:104C20001C34C2F840354FF08053654AD3F8203425
:104C3000C2F844354FF08053614AD3F82434C2F8A7
:104C400048354FF080535E4AD3F82834C2F84C35CB
:104C50004FF080535A4AD3F82C34C2F850354FF0F5
:104C60008053574AD3F83034C2F854354FF080534C
:104C7000534AD3F83434C2F860354FF08053504A69
:104C8000D3F83834C2F864354FF080534C4AD3F827
:104C90003C34C2F868354FF08053494AD3F8403469
:104CA000C2F86C354FF08053454AD3F84434C2F80B
:104CB000703500F0DFF80346002B02D0414B424A2A
:104CC0001A6000F0E9F80346002B03D03F4BFB22AB
:104CD000C3F8182500F0F2F80346002B0AD03C4B2D
:104CE0001B6823F00F023B4B1B6803F00F0338498E
:104CF00013430B6000F0F4F80346002B03D0364B4F
:104D00004FF400721A6000F0FDF80346002B0DD03E
:104D10004FF08043D3F8003403F00103002B05D09B
:104D20004FF080436FF00102C3F800242B4BD3F8FF
:104D300088302A4A43F47003C2F88830BFF34F8F9B
:104D400000BFBFF36F8F00BF4FF01023D3F80032C6
:104D5000002B05DB4FF01023D3F80432002B2BDAA5
:104D60001F4B0122C3F8042500BF1D4BD3F80034AC
:104D7000002BFAD04FF010231222C3F8002200BFFC
:104D8000174BD3F80034002BFAD04FF01023122227
:104D9000C3F8042200BF124BD3F80034002BFAD022
:104DA0000F4B0022C3F8042500BF0D4BD3F800348D
:104DB000002BFAD0FFF7CCFEFFF7E0FE00BF08BDE6
:104DC00000C000408C5600404881030000F00040C5
:104DD000E40E0040580200104096024000ED00E052
:104DE00000E001400F4B1B68082B17D10E4B1B68CE
:104DF000002B01D1012312E00B4B1B68012B01D1C9
:104E000001230CE0084B1B68022B01D1012306E0B3
:104E1000054B1B68032B01D1012300E00123184639
:104E2000704700BF30010010340100100F4B1B68A9
:104E3000082B17D10E4B1B68002B01D1012312E068
:104E40000B4B1B68012B01D101230CE0084B1B68A5
:104E5000022B01D1012306E0054B1B68032B01D176
:104E6000012300E001231846704700BF3001001005
:104E700034010010064B1B68082B05D1054B1B683D
:104E8000002B01D1012300E000231846704700BF2A
:104E90003001001034010010064B1B68082B05D1AF
:104EA000054B1B68002B01D1012300E000231846AD
:104EB000704700BF3001001034010010064B1B6822
:104EC000082B05D1054B1B68002B01D1012300E005
:104ED00000231846704700BF300100103401001055
:104EE000064B1B68082B05D1054B1B68002B01D115
:104EF000012300E000231846704700BF3001001076
:104F0000340100100F4B1B68082B17D10E4B1B6888
:104F1000002B01D1012312E00B4B1B68012B01D1A7
:104F200001230CE0084B1B68022B01D1012306E092
:104F3000054B1B68032B01D1012300E00123184618
:104F4000704700BF300100103401001053EA020C1A
:104F500061D02DE9F04BB3FA83F51E0007BFB2FA1A
:104F600082F502FA05F403FA05F41646C5F12005A8
:104F70001EBF22FA05F73C43203556EA044C4FEA9F
:104F8000144418BF0134A3464FF00009C8469042AC
:104F900071EB030C39D3094207BFB0FA80F700FA6E
:104FA00007F6B1FA81F701FA07F6C7F120071EBF2D
:104FB00020FA07FC46EA0C062037B6FBFBFC7F1BF9
:104FC000103F07F01F04C4F120060CFA04F42CFA79
:104FD00006F644BF34460026202FA4BF26460024F0
:104FE00054EA060C08BF012418EB040849EB060933
:104FF000A4FB027CC01B06FB02CC04FB03CC71EBC0
:105000000C01904271EB030CC5D20B460246494697
:105010004046BDE8F08BB2FBF3F28446002A2DD067
:1050200010F0030F04D000F8011B013A26D0F7E777
:10503000C9B241EA012141EA0141202A12D3A2F179
:1050400020022DE9F0030B460C460D460E460F4696
:1050500088468946A0E8FA03203AFBD2BDE8F0036F
:1050600020320BD0042A05D340F8041B043A05D0A3
:10507000042AF9D200F8011B013AFBD160467047BF
:105080002E2E5C6C69625C6D6F64756C65735C6E12
:105090007266785C68616C2F6E72665F6770696FAC
:1050A0002E680000443A5C50726F6772616D6D69E2
:1050B0006E675C6E726635323834305C526164699A
:1050C0006F5465737465725C6C69625C636F6D705C
:1050D0006F6E656E74735C626F617264735C626F35
:1050E000617264732E6300000D0E0F100B0C181903
:1050F00020000020443A5C50726F6772616D6D69E8
:105100006E675C6E726635323834305C5261646949
:105110006F5465737465725C6C69625C636F6D700B
:105120006F6E656E74735C6C6962726172696573CF
:105130005C627574746F6E5C6170705F62757474BC
:105140006F6E2E63000000000000000008010020C8
:10515000050F0000443A5C50726F6772616D6D69B3
:105160006E675C6E726635323834305C52616469E9
:105170006F5465737465725C6C69625C636F6D70AB
:105180006F6E656E74735C6C69627261726965736F
:105190005C74696D65725C6170705F74696D657275
:1051A000322E630001000600443A5C50726F677251
:1051B000616D6D696E675C6E726635323834305C75
:1051C000526164696F5465737465725C6C69625C8A
:1051D000636F6D706F6E656E74735C6C6962726123
:1051E000726965735C7574696C5C6170705F75740D
:1051F000696C5F706C6174666F726D2E6300000085
:105200002E2E5C6C69625C696E746567726174698C
:105210006F6E5C6E7266782F6E7266785F676C7503
:10522000652E68002E2E5C6C69625C6D6F64756C17
:1052300065735C6E7266782F68616C2F6E72665F44
:105240007274632E68000000443A5C50726F67729B
:10525000616D6D696E675C6E726635323834305CD4
:10526000526164696F5465737465725C6C69625CE9
:10527000636F6D706F6E656E74735C6C6962726182
:10528000726965735C74696D65725C6472765F7275
:1052900074632E63000000000000000000000000A6
:1052A0000338FDD870470000443A5C50726F677253
:1052B000616D6D696E675C6E726635323834305C74
:1052C000526164696F5465737465725C6C69625C89
:1052D000636F6D706F6E656E74735C6C6962726122
:1052E000726965735C736F72746C6973745C6E72EF
:1052F000665F736F72746C6973742E6300000000D4
:105300002E2E5C6C69625C696E746567726174698B
:105310006F6E5C6E7266782F6E7266785F676C7502
:10532000652E68002E2E5C6C69625C6D6F64756C16
:1053300065735C6E7266782F68616C2F6E72665F43
:105340006770696F2E680000000000500003005075
:10535000443A5C50726F6772616D6D696E675C6E26
:10536000726635323834305C526164696F546573EB
:105370007465725C6C69625C6D6F64756C65735C9E
:105380006E7266785C647269766572735C73726360
:105390005C6E7266785F6770696F74652E6300007B
:1053A000443A5C50726F6772616D6D696E675C6ED6
:1053B000726635323834305C526164696F5465739B
:1053C0007465725C6C69625C6D6F64756C65735C4E
:1053D0006E7266785C647269766572735C73726310
:1053E0005C7072735C6E7266785F7072732E6300AD
:1053F0002E2E5C6C69625C696E746567726174699B
:105400006F6E5C6E7266782F6E7266785F676C7511
:10541000652E68002E2E5C6C69625C6D6F64756C25
:1054200065735C6E7266782F68616C2F6E72665F52
:105430006770696F2E680000443A5C50726F677243
:10544000616D6D696E675C6E726635323834305CE2
:10545000526164696F5465737465725C6C69625CF7
:105460006D6F64756C65735C6E7266785C6472698E
:10547000766572735C7372635C6E7266785F73706C
:1054800069732E630000000015370000443A5C5039
:10549000726F6772616D6D696E675C6E72663532D0
:1054A0003834305C526164696F5465737465725C42
:1054B0006C69625C696E746567726174696F6E5C59
:1054C0006E7266785C6C65676163795C6E72665F4C
:1054D0006472765F636C6F636B2E63002E2E5C6C60
:1054E00069625C696E746567726174696F6E5C6E27
:1054F0007266782F6E7266785F676C75652E6800CD
:10550000443A5C50726F6772616D6D696E675C6E74
:10551000726635323834305C526164696F54657339
:105520007465725C6C69625C6D6F64756C65735CEC
:105530006E7266785C647269766572735C737263AE
:105540005C6E7266785F636C6F636B2E6300000045
:10555000F001002010020020400200200B00030098
:10556000793D00000C000300793D000018000300A5
:10557000793D000019000300793D0000443A5C5079
:10558000726F6772616D6D696E675C6E72663532DF
:105590003834305C526164696F5465737465725C51
:1055A00052656365697665725C6D61696E2E630034
:1055B0000030004000000000443A5C50726F677297
:1055C000616D6D696E675C6E726635323834305C61
:1055D000526164696F5465737465725C636F6D6D5D
:1055E0006F6E5C737069735C616C6C737069732E41
:1055F00063000000FF000000FF000000FF0000004B
:0C560000FF00000000000000FFFF06009B
:10560C000010014011000400010B00000090D003B9
:040000030000037581
:00000001FF
