:1000000000000420750300005D0300005F03000092
:1000100061030000630300006503000000000000AE
:100020000000000000000000000000006703000066
:1000300069030000000000006B0300006D03000076
:100040001D5500006F030000E13400005D5000000A
:100050006F0300006F030000F93100006F03000020
:100060006F0300006F0300006F0300006F030000C8
:100070006F0300006F0300006F0300006F030000B8
:100080006F030000B51D00006F0300006F03000048
:100090006F0300006F0300006F0300006F03000098
:1000A0006F0300006F0300006F0300006F03000088
:1000B0006F0300006F03000000000000000000005C
:1000C0006F0300006F0300006F0300006F03000068
:1000D0006F0300006F0300006F0300006F03000058
:1000E0006F0300006F0300006F03000000000000BA
:1000F000000000006F030000000000006F0300001C
:1001000000000000000000000000000000000000EF
:1001100000000000000000000000000000000000DF
:1001200000000000000000000000000000000000CF
:1001300000000000000000000000000000000000BF
:1001400000000000000000000000000000000000AF
:10015000000000000000000000000000000000009F
:10016000000000000000000000000000000000008F
:10017000000000000000000000000000000000007F
:10018000000000000000000000000000000000006F
:10019000000000000000000000000000000000005F
:1001A000000000000000000000000000000000004F
:1001B000000000000000000000000000000000003F
:1001C000000000000000000000000000000000002F
:1001D000000000000000000000000000000000001F
:1001E000000000000000000000000000000000000F
:1001F00000000000000000000000000000000000FF
:10020000354936480A1A02D0072291438D463449AF
:1002100034480A1A06D00722914381F30988022242
:1002200082F3148830483149314A00F044F83148AB
:100230003149324A00F03FF831483249324A00F041
:100240003AF832483249334A00F035F832483349F7
:10025000334A00F030F833483349344A00F02BF881
:1002600033483449344A00F026F8344834490022EF
:1002700000F02CF833483449002200F027F83348C6
:100280003349091A082902DB002202604160314A21
:1002900090471F481F49884205D00268043003B4C4
:1002A000904703BCF7E700208646EC46002000217B
:1002B000294A9047FEE7884207D0521A05D00378B2
:1002C00001300B700131013AF9D17047884202D0F8
:1002D00002700130FAE770470000042000E00320BC
:1002E00000000420000004200C7500000000002025
:1002F00020000020D0030000D0030000606D00004B
:100300000C7500000000002000000020606D00005F
:10031000606D0000606D0000606D0000606D0000A9
:10032000606D0000606D0000606D00000B750000E6
:100330002C7500002000002020000020200000205C
:100340007405002074050020740500207405002049
:10035000742500209D030000255E0000FEE7FEE7F7
:10036000FEE7FEE7FEE7FEE7FEE7FEE7FEE7FEE765
:1003700000F002B8FFF7FCBF0F484FF007018843B9
:1003800085460E4880470E48016841F470010160BF
:10039000BFF34F8FBFF36F8FFFF732BF09480A4992
:1003A0000A4A884207D0521A05D0037801300B70F0
:1003B0000131013AF9D17047000004200D610000BD
:1003C00088ED00E0606D00000000002000000020CB
:1003D00000B583B00190019B1B682F2B04D90B49FA
:1003E00040F2CD1001F0F4FC019B1B681F2B02D8DA
:1003F0004FF0A04306E0019B1B6803F01F02019B26
:100400001A60034B184603B05DF804FB606D0000F2
:100410000003005000B585B00190084611461A4609
:1004200003468DF803300B468DF8023013468DF8E5
:10043000013001AB1846FFF7CBFF03909DF8032076
:100440009DF802305B001A439DF801309B001A436F
:100450009DF818301B0242EA03019DF81C301B0472
:10046000019A1943039B02F5E07243F8221000BF82
:1004700005B05DF804FB00B585B00390002301933F
:10048000002300930023012201210398FFF7C2FFFC
:1004900000BF05B05DF804FB00B585B003900B46C6
:1004A0008DF80B309DF80B30002201920022009253
:1004B000002200210398FFF7ADFF00BF05B05DF8F3
:1004C00004FB00B585B0019001AB1846FFF780FF33
:1004D0000390019B012202FA03F31946039800F0EE
:1004E00069F800BF05B05DF804FB00B585B0019068
:1004F00001AB1846FFF76CFF0390019B012202FA43
:1005000003F31946039800F05FF800BF05B05DF8EB
:1005100004FB00B585B0019001AB1846FFF758FF0A
:100520000390039BD3F804350293029BDA43019BAB
:10053000012101FA03F31A40039BC3F80825019B2C
:1005400001229A40029B1A40039BC3F80C2500BF6E
:1005500005B05DF804FB00B583B001900091009BED
:10056000002B03D10198FFF7C0FF02E00198FFF7CD
:10057000A8FF00BF03B05DF804FB00B585B0019093
:1005800001AB1846FFF724FF0390039800F00AF828
:100590000246019B22FA03F303F00103184605B05B
:1005A0005DF804FB82B00190019BD3F80435184636
:1005B00002B0704782B001900091019B009AC3F88D
:1005C000082500BF02B0704782B001900091019BE6
:1005D000009AC3F80C2500BF02B0704700B585B083
:1005E0000190019B032B03D911493A2001F0F0FB44
:1005F000104A019B13441B781846FFF7BEFF0346C1
:10060000002B14BF012300238DF80F309DF80F300D
:10061000002B14BF01230023DBB283F00103DBB204
:1006200003F00103DBB2184605B05DF804FB00BF20
:10063000846D0000C86D000000B583B00190019B7F
:10064000032B03D90749412001F0C2FB064A019B55
:1006500013441B7800211846FFF77DFF00BF03B04D
:100660005DF804FB846D0000C86D000000B583B028
:100670000190019B032B03D90749472001F0A8FBF8
:10068000064A019B13441B7801211846FFF763FFBC
:1006900000BF03B05DF804FB846D0000C86D00006E
:1006A00000B583B00023019305E00198FFF7DEFF5A
:1006B000019B01330193019B032BF6D900BF00BFBF
:1006C00003B05DF804FB00B583B00023019305E09F
:1006D0000198FFF7B1FF019B01330193019B032BAD
:1006E000F6D900BF00BF03B05DF804FB00B583B0CE
:1006F0000190019B032B03D907495F2001F068FBA0
:10070000064A019B13441B781846FFF702FF00BFFF
:1007100003B05DF804FB00BF846D0000C86D0000ED
:1007200000B583B00023019309E0094A019B1344FB
:100730001B781846FFF79FFE019B01330193019B35
:10074000032BF2D9FFF7ACFF00BF03B05DF804FB49
:10075000C86D000000B583B0002301930AE0094A88
:10076000019B13441B7803211846FFF795FE019B5C
:1007700001330193019B032BF1D900BF00BF03B0EC
:100780005DF804FBCC6D000084B001904FF0FF33A6
:100790000293002303930DE00A4A039B13441B7842
:1007A0001A46019B934202D1039B029305E0039BEF
:1007B00001330393039B032BEED9029B184604B02D
:1007C000704700BFCC6D000000B583B00190019B65
:1007D00003F00103002B01D0FFF7A2FF019B03F000
:1007E0000203002B01D0FFF7B5FF00BF03B05DF897
:1007F00004FB000084B003468DF807309DF80730F5
:100800005B08DBB21A460D4B9B5C8DF80F309DF8F0
:10081000073003F00103002B04D09DF80F301B09B3
:10082000DBB204E09DF80F3003F00F03DBB28DF86C
:100830000E309DF80E30184604B070475800002066
:1008400084B003460A468DF8073013468DF806300B
:100850009DF8073003F00103002B01D00F2300E0C7
:10086000F0238DF80F309DF8073003F00103002BC3
:1008700004D09DF806301B01DBB201E09DF8063084
:100880008DF80E309DF807305B08DBB21A46114B2D
:100890009A5C9DF807305B08DBB219469DF80F3073
:1008A0001340DAB20B4B5A549DF807305B08DBB2A9
:1008B0001A46084B9A5C9DF807305B08DBB2194674
:1008C0009DF80E301343DAB2024B5A5400BF04B005
:1008D000704700BF5800002000B585B003468DF872
:1008E00007300023039310E00F4B1A68039BDB00D3
:1008F00013440293029B1B789DF807209A4201D172
:10090000029B0DE0039B01330393084B1B781A46AF
:10091000039B9342E8DB0649882001F059FA002343
:10092000184605B05DF804FB2000002024000020DC
:10093000D46D000000B585B003460A468DF8073037
:1009400013468DF806309DF807301846FFF7C4FFB0
:100950000390039B002B0BD0039B5B68002B07D0FD
:10096000039B5B689DF806109DF80720104698478A
:1009700000BF05B05DF804FB2DE9F04F85B00346DC
:100980000A468DF80F3013468DF80E309DF80F3063
:100990001846FFF72FFF0346042B00F2B48001A294
:1009A00052F823F0B90900001F0A00003B0A0000BA
:1009B0006B0A0000810A00009DF80E30002B00F049
:1009C0009F809DF80F3001211846FFF739FF002066
:1009D00000F00CFE9DF80F104FF001024FF00003E5
:1009E000A1F12004C1F1200003FA01F702FA04F496
:1009F000274322FA00F0074302FA01F6444BD3E9F9
:100A0000002346EA020100913B430193404BDDE99C
:100A10000012C3E90012002000F0FCFD70E09DF818
:100A20000E30002B01D0022200E000229DF80F3092
:100A300011461846FFF704FF65E09DF80E30002BC5
:100A40000CD09DF80F3003211846FFF7F9FE9DF8F2
:100A50000F3001211846FFF76DFF54E09DF80F306D
:100A600001211846FFF7ECFE4DE09DF80E30002BFB
:100A700048D19DF80F3004211846FFF7E1FE41E010
:100A80009DF80E30002B06D09DF80F30032118463C
:100A9000FFF7D6FE37E09DF80F3000211846FFF72C
:100AA000CFFE9DF80F3000211846FFF743FF0020CE
:100AB00000F09CFD9DF80F104FF001024FF0000375
:100AC000A1F12006C1F1200003FA01F502FA06F6B1
:100AD000354322FA00F0054302FA01F46FEA0408F4
:100AE0006FEA05090A4BD3E9002308EA020A09EA7A
:100AF000030B074BC3E900AB002000F08BFD02E0C5
:100B000000BF00E000BF00BF05B0BDE8F08F00BF30
:100B10005000002000B583B00648074B1B685B08F7
:100B20000022194600F0DEFC019000BF03B05DF822
:100B300004FB00BF300000202800002000B587B073
:100B400001900023059328E01C4B1A68059BDB00ED
:100B500013440493049B1B78184602F033FB0346AE
:100B60008DF80F30049B5B78012B0CBF0123002311
:100B7000DBB21A469DF80F309A420CBF01230023C6
:100B80008DF80E30049B1B789DF80E2011461846F8
:100B9000FFF7F2FE059B01330593094B1B781A46BC
:100BA000059B9342D0DB074BD3E90023134301D0CD
:100BB000FFF7B0FF00BF07B05DF804FB2000002086
:100BC000240000205000002000B585B001900B46A5
:100BD0008DF80330019BDBB21846FFF77DFE0390D2
:100BE000039B1B78184602F0EDFA03468DF80B3094
:100BF000039B5B78012B0CBF01230023DBB21A4659
:100C00009DF80B309A420CBF012300238DF80A3067
:100C10009DF80A30002B06D0054BD3E9002313437F
:100C200001D1FFF777FF00BF05B05DF804FB00BFFF
:100C30005000002000B58BB003900B4601928DF858
:100C40000B30019B092B01D8072367E002F0ACF9B8
:100C5000034683F00103DBB2002B09D002F052F906
:100C60000990099B0893089B002B01D0089B55E035
:100C70002C4A039B13602C4A9DF80B3013702B4AAF
:100C8000019B136020220021294805F0EAFC294934
:100C90004FF000024FF00003C1E9002331E09DF85E
:100CA0000B30DB00039A1344079303238DF81430B1
:100CB00000238DF815309DF816306FF300038DF882
:100CC00016309DF816306FF341038DF816309DF8FD
:100CD00016306FF382038DF81630079B9B788DF8E2
:100CE0001530079B1B78184605AB134A194602F0CE
:100CF00067F90990099B0693069B002B01D0069B80
:100D00000CE09DF80B305A1E8DF80B20002BC6D13D
:100D10000A4A00210A4800F0B1FB034618460BB00E
:100D20005DF804FB200000202400002028000020A3
:100D30005800002050000020C90B00003D0B0000AF
:100D4000D06D000000B583B0114B1B68002B04D19F
:100D5000104940F2351001F03BF8002301930CE0FC
:100D60000B4B1A68019BDB0013441B7801211846CA
:100D700002F0A0F9019B01330193074B1B781A463F
:100D8000019B9342ECD30023184603B05DF804FBAB
:100D900020000020D46D00002400002086B00390C5
:100DA0000291019201238DF817309DF81730214AE6
:100DB000039B13601F4A029B53601E4A019B936072
:100DC000039B44F20102934213D0039B44F20202BC
:100DD000934221D1019B174AD360164BDB681B88D5
:100DE0001A46144B9A61134BDB685B68114AD36156
:100DF00012E0019B0F4A13610E4B1B699B680D4A61
:100E000053610C4B1B691B680A4A9361094B1B69B0
:100E10005B68084AD36100BF72B600BF00BF9DF88F
:100E20001730DBB2002BFAD162B600BF00BF06B0AC
:100E3000704700BF7800002000B583B00290009199
:100E4000019244F2010071466A4600F003F803B0D3
:100E500000BD00BF00B587B003900291019272B649
:100E600000BF039B44F20102934207D0039B44F26C
:100E70000202934205D1019B059303E0019B049379
:100E800000E000BF074B1B6803F00103002B00D0FC
:100E900000BE019A02990398FFF780FF00BF07B0D8
:100EA0005DF804FBF0ED00E0F0B583B0124800F00F
:100EB00067FF034618464FF00001104BD3E90023AB
:100EC000861841EB0307CDE900670D4BD3E90023FA
:100ED000DDE90001994208BF904207D2DDE9002315
:100EE00012F1807443F10005CDE90045DDE90023EE
:100EF0001046194603B0F0BD00000020A0000020FD
:100F0000A800002088B001900091019B0793009BEE
:100F10000693079BD3E90223CDE90423069BD3E97B
:100F20000223CDE90223DDE90423DDE90201994230
:100F300008BF90422CBF01230023DBB2184608B043
:100F40007047000030B585B00190019B5B69002BB4
:100F500003D12B49A22000F03BFF00238DF80F3076
:100F6000284B1B78002B45D0019B002B42D0019BC6
:100F70001B7FDBB2002B3DD0FFF796FF019BD3E92F
:100F80000223994208BF90422CD3019B1B69002B7E
:100F900002D1019B00221A77019B5B69019A926939
:100FA00010469847019B1B69002B23D0019B1B7F98
:100FB000DBB2002B1ED0019BD3E90201019B1B6910
:100FC0001A464FF00003841841EB0305019BC3E967
:100FD0000245019B19460C4801F014F801238DF8D5
:100FE0000F3007E0019B1946074801F00BF8012379
:100FF0008DF80F309DF80F30184605B030BD00BF9A
:10100000346E00009C000020286E0000F0B589B00E
:10101000019000910D230793009B00221A70019B01
:10102000D3E90245FFF740FF02460B46A61A65EBDF
:101030000307CDE90467DDE90423012A73F1000306
:101040001BDB049BB3F5350F05D300F0A9FA02466C
:10105000154B134403E0019BD3E90223134603938A
:101060004FF49603039A0021104800F08BFD07907F
:10107000079B002B05D1012313E000210B4800F052
:1010800059FE079B0D2B07D10198FFF75BFF034625
:101090001A46009B1A7003E00549F52000F098FEFF
:1010A0000023184609B0F0BDFFFFB4000000002087
:1010B000346E000000B583B0044800F0DDFF0190FD
:1010C000019B184603B05DF804FB00BF286E0000CA
:1010D00000B583B0044800F0F1FF0190019B184671
:1010E00003B05DF804FB00BF286E000000B583B0BC
:1010F000FFF7E0FF0190019B002B02D0019B002233
:101100001A77019B002BF3D100BF00BF03B05DF83D
:1011100004FB0000054BD3E9002312F1807043F17A
:101120000001024BC3E9000100BF7047A00000208E
:1011300000B583B00190134B1B68002B1DD00198A4
:1011400000F01EFE0F4B1B68D3E90223134623F069
:101150007F43194600F018FA0346B3F5960F04D3FF
:1011600009494FF4957000F033FE064B1B68184692
:10117000FFF7E8FE034B00221A6000BF03B05DF8E2
:1011800004FB00BF98000020346E000000B583B05F
:101190000190FFF789FE02460B460349C1E900238F
:1011A00000BF03B05DF804FBA800002000B587B0C5
:1011B0000190FFF78DFF049000238DF81730049BFA
:1011C000002B48D02B4B1B68002B03D101238DF83B
:1011D000173019E0049BD3E90201264B1B68D3E9C1
:1011E0000223994208BF90420ED201238DF8173096
:1011F000204B1B681B7FDBB2002B05D01D4B1B68EF
:1012000019461D4800F0FEFE9DF81730002B2AD02D
:10121000FFF750FF04900DF10F0319460498FFF7F4
:10122000F5FE0346002B12D0124B1B68002B02D197
:10123000019800F0B3FB0F4A049B13609DF80F3038
:1012400083F00103DBB2002BB3D000BF0EE0094BEB
:1012500000221A60ADE7074B1B68002B05D10198EF
:1012600000F0B2FB01E000BF00E000BF00BF07B02C
:101270005DF804FB98000020286E000000B587B0E0
:1012800001902C4A03AB1946104600F08DFE0590E4
:1012900048E0059B1B78022B2ED0022B32DC002B62
:1012A00002D0012B14D02DE0059B5B681B7FDBB2C5
:1012B00083F00103DBB2002B26D0059B5B68012283
:1012C0001A77059B5B6819461B4800F09BFE1BE0E4
:1012D000059B5A68194B1B689A4203D1174B002291
:1012E0001A6012E0059B5B681946134800F0FAFE8D
:1012F00003468DF8133008E0FFF7F8FE104B01228B
:101300001A7002E000BF00E000BF0A4A03AB1946B2
:10131000104600F062FE074A03AB1946104600F083
:1013200043FE0590059B002BB3D100BF00BF07B063
:101330005DF804FB08010020286E000098000020E2
:101340009C00002000B583B00190019800F0E5FCFE
:101350000346002B01D0FFF7DDFE0021019800F0CD
:10136000FAFC0346002B02D00198FFF7E1FE0121B1
:10137000019800F0F0FC0346002B02D00198FFF723
:1013800005FF0198FFF77AFF0198FFF70FFF00BFF5
:1013900003B05DF804FB000008B5024800F0FDFC56
:1013A00000BF08BD0000002000B585B003460091D5
:1013B0008DF80730114A02AB1946104600F0C7FD00
:1013C0000390039B002B13D0039B9DF807201A70FA
:1013D000039B009A5A60094A02AB1946104600F076
:1013E000CFFD0346002B01D0FFF7D6FF002300E01E
:1013F0000423184605B05DF804FB00BF0801002077
:1014000000B583B0164B1B6800931648082358227A
:10141000154900F069FD0190019B002B01D0019B53
:1014200019E06B46114A1946114800F057FA01902D
:10143000019B002B01D0019B0DE001210C4800F025
:101440005BFC01230B4A0121094800F0D3FA0A4B47
:1014500001221A70019B184603B05DF804FB00BF1F
:10146000846E000008010020B00000204513000039
:1014700000000020FFFF7F009C00002000B587B027
:1014800003900B4601928DF80B30039B002B04D187
:10149000134940F22E2000F09BFC019B002B04D14D
:1014A0000F4940F22F2000F093FC019B002B01D14B
:1014B000072310E0039B1B680593059B019A5A6163
:1014C0009DF80B30012B0CBF01230023DBB21A4621
:1014D000059B1A610023184607B05DF804FB00BFA6
:1014E000346E000030B587B0039002910192039BE7
:1014F000002B04D1154940F23E2000F069FC039B0B
:101500000593059B1B7FDBB2002B01D000231AE063
:10151000059B019A9A61FFF7C7FC029B1A464FF0A0
:101520000003841841EB0305059BC3E90245059BB5
:101530001B69002B02D0059B029A1A6105990020B5
:10154000FFF732FF0346184607B030BD346E000087
:1015500000B585B00190019B002B04D109494FF4DF
:10156000157000F035FC019B0393039B00221A7752
:1015700003990120FFF718FF0346184605B05DF8F0
:1015800004FB00BF346E000082B001900091019A0C
:10159000009BD31A23F07F43184602B07047000027
:1015A00008B5034800F0ECFB0346184608BD00BF31
:1015B0000000002072B600BF034B1B680133024AD3
:1015C000136000BF704700BF1C010020064B1B6862
:1015D000013B054A1360044B1B68002B01D162B626
:1015E00000BF00BF704700BF1C01002000B583B0E2
:1015F000019000F025F80346012B03D00449432055
:1016000000F0E6FBFFF7D6FF00BF03B05DF804FB78
:10161000886E000000B583B003468DF8073000F0F7
:101620000FF80346012B03D00449512000F0D0FBF2
:10163000FFF7CCFF00BF03B05DF804FB886E00002D
:1016400084B0EFF305830193019BC3F30803039375
:10165000039B002B0DD1EFF314830093009B0293A7
:10166000029B03F00103002B0CBF01230023DBB21C
:1016700000E00123184604B07047000082B0034622
:101680008DF807309DF8073003F01F0205499DF9DA
:1016900007305B09012000FA02F241F8232000BF65
:1016A00002B0704700E100E082B003468DF80730D9
:1016B0009DF8073003F01F0206499DF907305B09CA
:1016C000012000FA02F2403341F8232000BF02B0AB
:1016D000704700BF00E100E082B0034600918DF842
:1016E00007309DF90730002B0CDA009BDAB20C4969
:1016F0009DF8073003F00F03043B5201D2B20B44B4
:101700001A7609E0009BDAB206499DF907305201CA
:10171000D2B20B4483F8002300BF02B0704700BF71
:1017200000ED00E000E100E000B583B003460A46AA
:101730008DF8073013468DF806309DF80630072BDC
:1017400003D908496B2000F043FB9DF806209DF962
:10175000073011461846FFF7BFFF00BF03B05DF822
:1017600004FB00BFE06E000000B583B003468DF8B7
:1017700007309DF907301846FFF780FF00BF03B020
:101780005DF804FB00B585B00190019B002B0AD0E9
:10179000074B43F001030393019B9B010293039BBF
:1017A0000298984700E000BF05B05DF804FB00BF59
:1017B000806F000084B0039002910192039B029A13
:1017C00002F5A872019943F8221000BF04B07047D7
:1017D00082B001900091019B009A02F5A87253F823
:1017E0002230184602B0704782B001900091019BF0
:1017F000009AC3F8042300BF02B0704782B0019082
:101800000091019B009AC3F8082300BF02B0704703
:1018100082B001900B46ADF80230BDF80230019A5B
:1018200013441B68184602B0704784B001900B4601
:10183000ADF80230BDF80230019A134400221A605C
:10184000BDF80230019A13441B680393039B00BF49
:1018500004B0704782B00190019BD3F8043518465C
:1018600002B0704700B583B001900091009BB3F5C2
:10187000805F04D306494FF4BE7000F0A9FA019BC3
:10188000009AC3F8082500BF03B05DF804FB00BF51
:10189000046F000082B001900B468DF803309DF874
:1018A0000320019B13441A460123136000BF02B0BA
:1018B000704782B001900091019B009AC3F84423C5
:1018C00000BF02B0704782B001900091019B009A66
:1018D000C3F8482300BF02B07047000000B587B0CE
:1018E000039002910192039B002B03D128495520BC
:1018F00000F06EFA029B002B03D12549562000F020
:1019000067FA019B002B03D12149572000F060FAB0
:10191000039B5B7919461F4A019B42F82130039BC8
:101920005B791D4ADB0013441B79002B03D008238D
:101930000593059B27E0039B1A68029B1B881946A9
:101940001046FFF78FFF039B93F90420029B9B78BF
:1019500019461046FFF7E8FE039B93F9043018463A
:10196000FFF702FF039B5B790B4ADB001344012264
:101970001A71039B5B791946074A039B42F8313081
:1019800000230593059B184607B05DF804FB00BFD4
:10199000286F0000200100202401002000B583B042
:1019A0000190019B002B03D10649872000F010FA1B
:1019B000019B1B6800211846FFF76CFF00BF03B0B6
:1019C0005DF804FB286F000000B583B00190019B17
:1019D000002B03D106498D2000F0FAF9019B1B680A
:1019E00004211846FFF756FF00BF03B05DF804FB63
:1019F000286F000000B587B00390029101928DF826
:101A00000330039B002B03D12149962000F0E0F91D
:101A10004FF48032029B02FA03F30593029B50338A
:101A20009BB29B00ADF81230019B23F07F430193E2
:101A3000039B1B6805991846FFF7E0FE039B1B6894
:101A400005991846FFF73FFF039B1B68BDF812205E
:101A500011461846FFF7E9FE039B1B68019A02999D
:101A60001846FFF7A7FE039B1B6805991846FFF76A
:101A700020FF9DF80330002B05D0039B1B680599C0
:101A80001846FFF7B1FE00BF07B05DF804FB00BFCA
:101A9000286F000000B585B00390029113468DF8C1
:101AA0000730039B002B03D10B49A92000F090F9CC
:101AB000039B1B6802991846FFF7FBFE9DF8073051
:101AC000002B05D0039B1B6802991846FFF78CFE7C
:101AD00000BF05B05DF804FB286F000000B583B0BF
:101AE00001900091019B002B03D10A49B32000F023
:101AF0006FF9019B1B6800991846FFF7E4FE019BF4
:101B00001B6800991846FFF779FE00BF03B05DF827
:101B100004FB00BF286F000000B583B001900B46A6
:101B2000ADF80230019B002B03D10F49BA2000F021
:101B30004FF9019B1B68BDF8022011461846FFF7BC
:101B400067FE0346002B09D0019B1B68BDF80220ED
:101B500011461846FFF769FE012300E000231846EE
:101B600003B05DF804FB00BF286F000082B0019055
:101B70000091019A009BD31A23F07F43184602B0CC
:101B80007047000000B58BB0039002910192009362
:101B9000039B002B03D15749CD2000F019F94FF4D6
:101BA0008032029B02FA03F30993029B50339BB2EB
:101BB0009B00ADF82230019B23F07F4301930999EC
:101BC0000398FFF78BFF039B1B681846FFF742FE45
:101BD0000790039B1B6802991846FFF7F9FD0690D2
:101BE000039B1B68079A02991846FFF7E3FD039BC6
:101BF0001B68BDF8222011461846FFF716FE07990C
:101C00000698FFF7B3FF0346012B0AD11020FFF718
:101C1000B9FD039B1B68BDF8222011461846FFF74B
:101C200004FE039B1B681846FFF714FE07900799F4
:101C30000198FFF79BFF0590039B1B6809991846C5
:101C4000FFF737FE059B012B15D1039B1868019BFD
:101C500001331A460299FFF7ADFD1020FFF792FD00
:101C6000039B1B681846FFF7F5FD0246079B93424E
:101C700035D00D2339E0039B1B68019A0299184661
:101C8000FFF798FD039B1B681846FFF7E3FD0790DD
:101C9000019B013B07991846FFF768FF0590009BE1
:101CA000C3F1FF1303F57F43059A9A4201D90D232F
:101CB0001BE0059B002B12D1039B1868019B01338D
:101CC0001A460299FFF776FD039B1B681846FFF73B
:101CD000C1FD0246079B934201D00D2305E001227E
:101CE00009990398FFF7D6FE002318460BB05DF85C
:101CF00004FB00BF286F000000B583B001900B46C5
:101D00008DF803309DF803301A4602210198FFF741
:101D1000C1FE00BF03B05DF804FB00B583B00190C5
:101D20004FF482710198FFF7F7FE0346184603B09F
:101D30005DF804FB00B583B0019000914FF4803250
:101D4000009B02FA03F319460198FFF7C7FE00BF94
:101D500003B05DF804FB00B585B001900091009BD5
:101D600050339BB29B00ADF80E30BDF80E301946D3
:101D70000198FFF7D1FE0346184605B05DF804FB55
:101D800000B583B00190019B1B681846FFF762FD08
:101D90000346184603B05DF804FB00B583B001901C
:101DA000019B93F904301846FFF77EFC00BF03B097
:101DB0005DF804FB08B5044B1B68044A1268104622
:101DC000984700BF08BD00BF20010020240100206B
:101DD00000B585B003460091ADF80630BDF8063079
:101DE000ADF80830009B039302AB1A46002144F281
:101DF0000200FFF72FF800BF05B05DF804FB86B0C6
:101E000001900091019B53E8011F8AB2D8890244D6
:101E10009889824228BF121A1889824202BFBFF3F2
:101E20002F8F002307E0C2EA010243E801200028C7
:101E3000E9D14FF001038DF80F3005900291049223
:101E4000029A009B1A609DF80F30DBB2184606B06C
:101E5000704784B00190019951E8013FC3EA034300
:101E600041E80132002AF7D10392029300BF04B087
:101E7000704786B001900091019B53E8021F1FFA42
:101E8000A1F2D888824202BFBFF32F8F00230DE05A
:101E9000D88902449889824228BF121AC1EA0242B4
:101EA00043E802200028E8D14FF001038DF80F30FD
:101EB000059002910492029A009B1A609DF80F30DF
:101EC000DBB2184606B0704784B00190019951E822
:101ED000023FC3EA234341E80232002AF7D10392CA
:101EE000029300BF04B0704784B003900291114682
:101EF0001A460B46ADF806301346ADF80430029B87
:101F0000002B01D10E231FE0BDF80630BDF80420E0
:101F1000B3FBF2F102FB01F29B1A9BB2002B01D042
:101F2000092311E0039B029A1A60039B00225A6066
:101F3000039B00229A60039BBDF806209A81039BB5
:101F4000BDF80420DA810023184604B0704700B5BC
:101F500085B001900091009B19460198FFF74FFF53
:101F60000346002B07D0019B1B68009A128813447C
:101F70000393039B00E00023184605B05DF804FBC3
:101F800000B583B001900091009B1A88009B5B888C
:101F90009A4204D10198FFF75CFF012300E000237F
:101FA000184603B05DF804FB00B585B001900091C0
:101FB000009B19460198FFF75CFF0346002B07D0F2
:101FC000019B1B68009A528813440393039B00E013
:101FD0000023184605B05DF804FB00B583B00190FE
:101FE0000091009B1A88009B5B889A4204D101985B
:101FF000FFF76AFF012300E00023184603B05DF8F5
:1020000004FB000000B585B001900091019B002BFE
:1020100003D118493A20FFF7DBFE009B002B03D1C8
:1020200014493B20FFF7D4FE019B5B6803930FE04C
:10203000019B9B68039A12680099104698470346D3
:1020400083F00103DBB2002B07D1039B1B680393D2
:10205000039B1B68002BEBD100E000BF039B1A68B9
:10206000009B1A60039B009A1A6000BF05B05DF8E0
:1020700004FB00BF886F000000B585B00190019B94
:10208000002B03D10C495120FFF7A2FE019B5B6896
:102090001B680393019B5B681B68002B06D0019BA8
:1020A0005B681A68019B5B6812681A60039B18469C
:1020B00005B05DF804FB00BF886F000000B583B079
:1020C0000190019B002B03D105495D20FFF780FEA5
:1020D000019B5B681B68184603B05DF804FB00BFFA
:1020E000886F000000B585B001900091019B002B26
:1020F00003D116496920FFF76BFE009B002B03D12B
:1021000012496A20FFF764FE00238DF80F30019B0F
:102110005B6802930FE0029B1B68009A9A4207D10A
:10212000009B1A68029B1A6001238DF80F3006E0AD
:10213000029B1B680293029B1B68002BEBD19DF84E
:102140000F30184605B05DF804FB00BF886F000033
:1021500000B583B001900091019BDBB2184600F0FE
:1021600065FA019B184603B05DF804FB84B001904A
:10217000019B9B680393019BDA68039BD31A184663
:1021800004B0704782B001900B468DF80330019B7C
:102190001A68019BDB68019989880B4013449DF8FC
:1021A00003201A70019BDB685A1C019BDA6000BF98
:1021B00002B0704784B003900B460192ADF80A302C
:1021C000039B1A68039B9968BDF80A300B44039976
:1021D00089880B4013441A78019B1A7000BF04B021
:1021E000704700B583B001900091009A00210198DA
:1021F000FFF7E0FF019B9B685A1C019B9A6000BFA0
:1022000003B05DF804FB84B0039002911346ADF86F
:102210000630029B002B01D10E231DE0BDF80630D5
:10222000002B07D0BDF806305A1EBDF8063013400B
:10223000002B01D009230FE0039B029A1A60BDF81E
:102240000630013B9AB2039B9A80039B00229A605E
:10225000039B0022DA600023184604B0704700B5E3
:1022600083B001900B468DF803300198FFF77EFF95
:102270000246019B9B889A4207D89DF80330194675
:102280000198FFF77FFF002300E00423184603B006
:102290005DF804FB00B583B0019000910198FFF751
:1022A00065FF0346002B05D000990198FFF799FFC1
:1022B000002300E00523184603B05DF804FB00008E
:1022C00000B587B00390029113468DF807300023C4
:1022D0000593039B1B781A46114B9B5C002B09D07E
:1022E000039B04339DF807200299184602F0A0FAD8
:1022F00005900FE0039B1B781A46094B9B5C002B53
:1023000008D1039B0C339DF807200299184601F071
:102310005FFC0590059B184607B05DF804FB00BF05
:102320006801002000B585B0019000238DF80F30C2
:10233000019B1B781A46114B9B5C002B08D0019B1C
:102340000433184602F034FB03468DF80F300EE0DC
:10235000019B1B781A46094B9B5C002B07D1019B04
:102360000C33184601F0BCFC03468DF80F309DF885
:102370000F30184605B05DF804FB00BF680100206F
:1023800000B587B00390029113468DF80730002303
:102390000593039B1B781A46114B9B5C002B09D0BD
:1023A000039B04339DF807200299184602F018FB9E
:1023B00005900FE0039B1B781A46094B9B5C002B92
:1023C00008D1039B0C339DF807200299184601F0B1
:1023D000DFFC0590059B184607B05DF804FB00BFC5
:1023E0006801002084B00190019B9B680393019BCE
:1023F000DA68039BD31A184604B0704700B587B05B
:1024000001900091019B1B78022B45D0022B6ADCC6
:10241000002B52D0012B66D1019B1B7A002B05D1DA
:10242000012233493348FFF7ABFF5DE0019B5B6856
:102430001B7819463048FFF712FF0590059B002BCB
:102440000AD001238DF80C30059B04932B4B1B689D
:1024500003AA104698470DE02748FFF7C3FF03463D
:10246000002B07D000238DF80C30244B1B6803AAE7
:10247000104698472048FFF7B5FF03461E4A92884A
:10248000934205D801221A491A48FFF779FF2BE039
:102490001B4B01221A7027E002238DF80C30019BA0
:1024A000DB680493012212491248FFF769FF134BBE
:1024B0001B6803AA1046984716E012491248FFF716
:1024C000E9FE0346002B05D101220E490948FFF71A
:1024D000F7FE09E003238DF80C30084B1B6803AAB4
:1024E0001046984700E000BF00BF07B05DF804FB4E
:1024F0003401002008000020380100202C010020B9
:1025000035010020300100204801002030B591B095
:102510000390029101928DF803303C4A019B1360B5
:10252000029B002B01D107236DE0029B1968029BDF
:102530005B689BB21A463648FFF765FE0F900F9B0B
:102540000E930E9B002B01D00E9B5CE0029B9968C2
:10255000029BDB689BB21A462E48FFF754FE0F9091
:102560000F9B0D930D9B002B01D00D9B4BE02A4B35
:1025700004AC1D460FCD0FC495E80F0084E80F0092
:10258000039B5B690A93039B1B7C002B14BF0123F5
:102590000023DBB28DF824309DF803308DF82C3009
:1025A000039B5B7C002B01D00E2300E000238DF801
:1025B0002530039BDB680693039B9B680793039B73
:1025C0001B680593039B5B68049304AB134A19468D
:1025D000134800F0ABF80F900F9B0C930C9B002B53
:1025E00001D00C9B0FE00F4B00221A70039B1B685D
:1025F000B3F1FF3F06D001220B490948FFF7C0FEA7
:10260000034600E00023184611B030BD2C01002025
:102610003801002048010020E06F0000FD23000089
:1026200008000020350100203401002000B585B0ED
:1026300003468DF807309DF8073019461048FFF71C
:102640000EFE0390039B002B15D10E48FFF76AFE88
:10265000034683F00103DBB2002B0CD00A49084883
:10266000FFF718FE0346002B05D101220649054855
:10267000FFF726FE0390039B184605B05DF804FBA8
:1026800048010020080000203001002000B589B07A
:1026900001900091009B0793019B1B788DF80C30F3
:1026A000019B5B680493019B9B68DBB28DF814303F
:1026B000019BDB680693074A079B52F823300649C3
:1026C000079A51F8221003AA1046984700BF09B094
:1026D0005DF804FB580100206001002000B589B0BE
:1026E00001900091009B0793019B1B788DF80C30A3
:1026F000019B5B680493019B9B68DBB28DF81430EF
:10270000019BDB680693074A079B52F82330064972
:10271000079A51F8221003AA1046984700BF09B043
:102720005DF804FB580100206001002030B58FB037
:10273000039002910192039B1B780C932C490C9BF4
:10274000019A41F82320029B1A692A490C9B41F8FF
:1027500023200C9B012B07D1029B5B7F002B03D115
:1027600025497620FFF734FB029B5B7F1946234AFD
:102770000C9B13440A461A70029B04AC1D460FCDF5
:102780000FC495E80F0084E80F000C9B089300230A
:102790000D93039B1B781A46184B9B5C002B0DD0A6
:1027A000039B181D019B002B01D0154A00E000225D
:1027B00004AB194601F0D6FF0D9014E0039B1B7883
:1027C0001A460E4B9B5C002B0DD1039B03F10C00B2
:1027D000019B002B01D00B4A00E0002204AB1946FC
:1027E00001F042F90D900D9B18460FB030BD00BFAF
:1027F0005801002060010020547000006801002092
:102800008D260000DD26000082B003468DF80730DB
:102810009DF8073003F01F0205499DF907305B0959
:10282000012000FA02F241F8232000BF02B07047F5
:1028300000E100E082B0034600918DF807309DF979
:102840000730002B0CDA009BDAB20C499DF80730F8
:1028500003F00F03043B5201D2B20B441A7609E095
:10286000009BDAB206499DF907305201D2B20B44FF
:1028700083F8002300BF02B0704700BF00ED00E006
:1028800000E100E000B583B003460A468DF807304A
:1028900013468DF806309DF80630072B03D90849FA
:1028A0006B20FFF795FA9DF806209DF90730114639
:1028B0001846FFF7BFFF00BF03B05DF804FB00BF81
:1028C000A470000000B583B003468DF807309DF971
:1028D00007301846FFF798FF00BF03B05DF804FB10
:1028E00000B583B00346ADF80630BDF80630184693
:1028F00000F026F803461B68012B0CBF01230023C0
:10290000DBB2184603B05DF804FB00B585B00346A2
:10291000ADF80630BDF80630184600F011F8034651
:102920001A4600231360BDF80630184600F008F878
:1029300003461B680393039B00BF05B05DF804FBCF
:1029400082B00346ADF80630BDF8063003F180438F
:1029500003F5C043184602B07047000082B00190F2
:10296000034A019BC2F8043300BF02B0704700BFA6
:102970000060004082B00190034BD3F80423019B18
:102980001340184602B070470060004082B00190CA
:10299000084A019B03F5A27352F82330054943F01E
:1029A0000102019B03F5A27341F8232000BF02B08E
:1029B000704700BF0060004084B00390029113464E
:1029C0008DF80730144A039B03F5A27352F82330A5
:1029D000114923F44F3323F44073039A02F5A27292
:1029E00041F822300C4A039B03F5A27352F82320CE
:1029F000029B1B0203F47C519DF807301B0403F477
:102A000040330B4304491A43039B03F5A27341F877
:102A1000232000BF04B070470060004082B00190E6
:102A2000054A019B03F5A27352F823301B0A03F0F9
:102A30003F03184602B070470060004082B001902A
:102A4000064A019B03F5A27352F823301B0C03F0D6
:102A50000303DBB2184602B0704700BF00600040BD
:102A600000B583B00190019B1B682F2B04D90B4943
:102A700040F2CD10FFF7ACF9019B1B681F2B02D869
:102A80004FF0A04306E0019B1B6803F01F02019B6F
:102A90001A60034B184603B05DF804FBC8700000D1
:102AA0000003005000B585B00190084611461A4653
:102AB00003468DF803300B468DF8023013468DF82F
:102AC000013001AB1846FFF7CBFF03909DF80320C0
:102AD0009DF802305B001A439DF801309B001A43B9
:102AE0009DF818301B0242EA03019DF81C301B04BC
:102AF000019A1943039B02F5E07243F8221000BFCC
:102B000005B05DF804FB00B585B003900B468DF869
:102B10000B309DF80B30002201920022009200221F
:102B200000210398FFF7BEFF00BF05B05DF804FB6E
:102B300000B585B0019001AB1846FFF791FF0390F7
:102B4000019A039B02F5E07253F8223023F002034E
:102B50000293019A039B02F5E072029943F8221056
:102B600000BF05B05DF804FB00B585B001900B46D1
:102B70008DF8033001AB1846FFF772FF0390019AFE
:102B8000039B02F5E07253F82230019A23F440319E
:102B9000039B02F5E07243F82210019A039B02F5B1
:102BA000E07253F822309DF8032012041146019A76
:102BB0001943039B02F5E07243F8221000BF05B0F1
:102BC0005DF804FB00B585B0019001AB1846FFF736
:102BD00047FF0390039800F020F80246019B22FA79
:102BE00003F303F00103184605B05DF804FB00B5DC
:102BF00085B0019001AB1846FFF732FF0390019AB0
:102C0000039B02F5E07253F822301B0C03F0030320
:102C1000DBB2184605B05DF804FB82B00190019B61
:102C2000D3F81035184602B07047000000B589B0DF
:102C3000039002910192184A05AB92E8030083E8E1
:102C40000300039A029B1344022B04D9134940F258
:102C5000FD20FFF7BDF8039B079311E0079B9B0046
:102C600008AA134453F80C3C1846FFF7D6FF024657
:102C7000019B1A60019B04330193079B0133079367
:102C8000039A029B1344079A9A42E7D300BF00BFFE
:102C900009B05DF804FB00BFEC700000C8700000D4
:102CA00084B001900091009B0393019BDB08029389
:102CB000019B03F0070301930122019B02FA03F336
:102CC0000399029A0A4412781340184604B07047D8
:102CD00084B001900091009B0393019BDB08029359
:102CE000019B03F007030193039A029B13441B7893
:102CF0005AB20121019B01FA03F35BB2134359B2AB
:102D0000039A029B1344CAB21A7000BF04B0704702
:102D100082B001900C4A019B1344303393F9003088
:102D2000002B09DB084A019B1344303393F9003030
:102D3000072B01DC012300E0002303F00103DBB2D9
:102D4000184602B0704700BF6C01002082B00190AD
:102D5000064A019B1344303393F90030072BCCBF54
:102D600001230023DBB2184602B070476C0100203B
:102D700082B00190064A019B1344303393F900302E
:102D8000DB43DBB2DB09DBB2184602B0704700BFA1
:102D90006C01002084B00390029101928DF8033001
:102DA000029B59B20E4A039B134430330A461A70F1
:102DB0000B49029B019A41F823209DF8033083F0D0
:102DC0000103DBB2002B08D0029B083B039A51B2EF
:102DD000034A13440A4683F8602000BF04B07047DA
:102DE0006C01002082B00190044A019B13443033EF
:102DF000FF221A7000BF02B0704700BF6C010020B4
:102E000000B583B0019004490198FFF761FF00BF4E
:102E100003B05DF804FB00BFD001002082B0019038
:102E2000044A019B1344303393F90030184602B032
:102E3000704700BF6C01002082B00190034A019BE3
:102E400052F82330184602B0704700BF6C010020D2
:102E500000B589B00390029113468DF80730FF2327
:102E60008DF81F309DF80730002B01D0002300E0C3
:102E7000082305939DF80730002B01D0082300E0BC
:102E80000C230493059B069314E00F4A069B52F80B
:102E90002330B3F1FF3F0AD19DF80730029A06991B
:102EA0000398FFF777FF069B8DF81F3006E0069B1F
:102EB00001330693069A049B9A42E6D39DF91F308C
:102EC000184609B05DF804FB6C01002082B003468F
:102ED0008DF807309DF80730094A4FF0FF3142F86E
:102EE00023109DF80730072B07D99DF80730083BC2
:102EF000034A1344FF2283F8602000BF02B07047EA
:102F00006C01002000B583B0254B93F86A30002B8C
:102F100003D008230093009B3EE000238DF8073088
:102F200009E09DF807301846FFF75CFF9DF8073071
:102F300001338DF807309DF807302F2BF1D900238E
:102F40008DF8073009E09DF807301846FFF7BEFFFF
:102F50009DF8073001338DF807309DF807300B2BB3
:102F6000F1D9062200210F4803F07BFB0621062041
:102F7000FFF788FC0620FFF7A5FC4FF4BE70FFF7B3
:102F8000C4FC4FF00040FFF7E9FC054B012283F839
:102F90006A2000230093009B184603B05DF804FBF1
:102FA0006C010020D0010020044B93F86A30002B04
:102FB00014BF01230023DBB2184670476C010020C8
:102FC00000B587B0039002910192039B2F2B04D987
:102FD000364940F20720FEF7FBFE002305930398D5
:102FE000FFF7C6FE0346002B02D00823059357E0E7
:102FF000029B9B78C3F34003DBB21A460199039806
:10300000FFF726FF03468DF813309DF91330B3F117
:10301000FF3F43D0029B9B78C3F38003DBB283F076
:103020000103DBB2002B13D0029B9B7803F001035A
:10303000DBB2002B03D00398FFF77AFD05E0029B7B
:103040005B7819460398FFF75EFD0398FFF7D8FEFB
:10305000029B9B7803F00203DBB2002B08D09DF9A2
:103060001300029B1B781A460399FFF7A5FC17E093
:103070009DF91330083B0E4A134493F96010029BEC
:103080001B789B015AB29DF91330083B0A4351B299
:10309000074A13440A4683F8602001E0042305939D
:1030A000059B184607B05DF804FB00BFF4700000F4
:1030B0006C01002000B589B001900B468DF80330FB
:1030C000019B2F2B04D93D4940F23720FEF780FEAB
:1030D0000198FFF74DFE0346002B04D137494FF40A
:1030E0000E70FEF775FE0198FFF730FE0346002BC9
:1030F0002FD00198FFF792FE0346083B304A134455
:1031000093F960308DF80F309DF80F309B098DF8E2
:103110000E309DF80E30032B0BD10198FFF752FDB6
:103120000346002B01D0032300E002238DF81F305B
:1031300008E09DF80E30012B01D1022300E00323AB
:103140008DF81F309DF81F3019460198FFF70CFDD0
:1031500030E00198FFF7DCFD0346002B2AD00198F0
:10316000FFF75CFE03460693069B9BB240339BB27F
:103170009B00ADF81630069B1846FFF707FCBDF81C
:1031800016301846FFF7C1FB9DF80330002B11D015
:103190000198FFF743FE03461846FFF74DFE0490E3
:1031A000049B002B06D00122069B02FA03F318466B
:1031B000FFF7D4FB00BF09B05DF804FBF47000001A
:1031C0006C01002000B583B00190019B2F2B04D926
:1031D00008494FF42270FEF7FBFD0198FFF7F2FC5F
:1031E0000346002B14BF01230023DBB2184603B0B3
:1031F0005DF804FBF470000000B599B0002317934C
:1032000006AB00221A605A604FF48073ADF8563056
:10321000012314930023169321E0BDF8563018467D
:10322000FFF75EFB0346002B0ED01498FFF7A2FBBE
:103230000346002B08D0BDF856301846FFF765FB53
:10324000179A149B13431793149B5B001493BDF8B8
:1032500056300433ADF85630169B01331693169B47
:10326000072BDAD94FF4BE70FFF73AFB0346002B69
:103270000DD04FF4BE70FFF748FB179B43F000439F
:10328000179306AB1A4602210020FFF7CFFC179BCD
:10329000DBB2002B29D0012314930023169321E0E5
:1032A000149A179B1340002B16D01698FFF7B6FB05
:1032B00011901698FFF7C2FB03468DF8433016981D
:1032C000FFF7BAFD0F900F9B002B05D09DF8432010
:1032D0000F9B114611989847149B5B001493169B03
:1032E00001331693169B072BDAD9179B002B80F21C
:1032F000F08000238DF84B3004AB00221A605A6036
:10330000002313930AE0139B9B0018AA13444FF069
:10331000FF3243F8582C139B01331393139B012B5B
:10332000F1D900238DF84B300023169378E06B4AD7
:10333000169B1344603393F900308DF83B309DF8B1
:103340003B3023F0C0030D93644A169B1344603353
:1033500093F90030B3F1FF3F5FD002AB19460D98EF
:10336000FFF79EFC0346002B57D09DF83B309B098E
:103370008DF833300D98FFF751FD03461846FFF7DF
:103380005BFD0B900B9B002B03D19DF83330032B7F
:1033900043D19DF83330032B04D104AB19460D986B
:1033A000FFF796FC0D98FFF722FC03468DF82B30B3
:1033B00006AB19460D98FFF773FC0990099B002B8B
:1033C00003D09DF82B30022B06D0099B002B24D173
:1033D0009DF82B30032B20D19DF83330032B13D1D4
:1033E0009DF82B30022B01D1032300E002238DF83E
:1033F00023309DF8233019460D98FFF7B5FB9DF853
:103400004B3001338DF84B300B9B002B05D09DF8D2
:1034100033200B9B11460D989847169B013316934A
:10342000169B032B83D99DF84B30002B4CD00123E6
:103430008DF84A306B461A4602210020FFF7F6FB52
:103440000023139314E0139B9B0018AA134453F812
:10345000602C139B9B0018A90B4453F8483C9A42DC
:1034600003D000238DF84A3005E0139B01331393FA
:10347000139B012BE7D99DF84A30002B03D0002382
:103480008DF84B3020E0002313931AE0139B9B0030
:1034900018AA134453F8602C139B9B0018A90B44E3
:1034A00043F8482C139B9B0018AA134453F8502C44
:1034B000139B9B0018A90B4443F8582C139B013312
:1034C0001393139B012BE1D99DF84B30002B7FF414
:1034D00028AF00BF19B05DF804FB00BF6C010020ED
:1034E00008B5064B1B68002B03D105495120FEF798
:1034F0006FFC024B1B68984700BF08BDD801002035
:103500004471000082B00190019B044A934201D1B2
:10351000034B00E00023184602B070470020004033
:10352000D801002000B587B001900091019B002BCD
:1035300003D118497720FEF74BFC0198FFF7E2FF13
:103540000490049B002B1ED000238DF81730002020
:10355000FEF74CF8049B1B79002B03D001238DF858
:10356000173005E0049B009A1A60049B01221A712F
:103570000020FEF74FF89DF81730002B03D01123E1
:103580000393039B02E000230393039B184607B0B9
:103590005DF804FB4471000082B003468DF80730EB
:1035A0009DF8073003F01F0205499DF907305B09BC
:1035B000012000FA02F241F8232000BF02B0704758
:1035C00000E100E082B0034600918DF807309DF9DC
:1035D0000730002B0CDA009BDAB20C499DF807305B
:1035E00003F00F03043B5201D2B20B441A7609E0F8
:1035F000009BDAB206499DF907305201D2B20B4462
:1036000083F8002300BF02B0704700BF00ED00E068
:1036100000E100E082B00190019B1B0B5BB21846F9
:1036200002B0704700B583B003460A468DF80730F4
:1036300013468DF806309DF80630072B03D908494C
:103640006B20FEF7C5FB9DF806209DF9073011465B
:103650001846FFF7B7FF00BF03B05DF804FB00BFDB
:103660009471000000B583B003468DF807309DF9D2
:1036700007301846FFF790FF00BF03B05DF804FB6A
:1036800084B001900B46ADF80230BDF80230019ACB
:10369000134400221A60BDF80230019A13441B68DB
:1036A0000393039B00BF04B0704782B001900B46A8
:1036B000ADF80230BDF80230019A13441B68002BAC
:1036C00014BF01230023DBB2184602B0704782B05A
:1036D00001900091019B009AC3F8042300BF02B03F
:1036E000704782B001900091019BD3F80423009BA6
:1036F0001340002B14BF01230023DBB2184602B095
:10370000704782B001900091019B009AC3F8082392
:1037100000BF02B0704784B00190019BD3F88034A1
:103720000393019B039AC3F88024039B184604B0BB
:10373000704782B00190019B0422C3F8002500BFAE
:1037400002B0704784B0039002910192039B019AEA
:10375000C3F81425039B029AC3F80C2500BF04B0DC
:10376000704784B0039002910192039B029AC3F8C0
:103770000825039B019AC3F8102500BF04B07047C9
:1037800082B00190019BD3F81835DBB2184602B025
:10379000704782B001900B468DF803309DF80320EE
:1037A000019BC3F81C2500BF02B0704782B0019096
:1037B0000B468DF803309DF80330019A1344012223
:1037C0001A6000BF02B0704782B001900B468DF8BE
:1037D000033013468DF802309DF803209DF8023027
:1037E0001343DBB21A46019BC3F86C2500BF02B03D
:1037F000704782B001900091019B009AC3F8242584
:1038000000BF02B07047000000B583B00190019B7B
:103810001B682F2B04D90B4940F2CD10FEF7D8FAC4
:10382000019B1B681F2B02D84FF0A04306E0019BB1
:103830001B6803F01F02019B1A60034B184603B07C
:103840005DF804FBB87100000003005000B585B0BE
:103850000190084611461A4603468DF803300B4680
:103860008DF8023013468DF8013001AB1846FFF792
:10387000CBFF03909DF803209DF802305B001A43B4
:103880009DF801309B001A439DF818301B0242EA54
:1038900003019DF81C301B04019A1943039B02F598
:1038A000E07243F8221000BF05B05DF804FB00B5DC
:1038B00085B003900023019300230093002301228D
:1038C00001210398FFF7C2FF00BF05B05DF804FBBC
:1038D00000B585B003900B468DF80B309DF80B308A
:1038E0000022019200220092002200210398FFF79B
:1038F000ADFF00BF05B05DF804FB00B585B00190D9
:1039000001AB1846FFF780FF0390019B012202FAEA
:1039100003F31946039800F004F800BF05B05DF802
:1039200004FB82B001900091019B009AC3F8082526
:1039300000BF02B0704700B583B001900091009BBA
:103940001B68B3F1FF3F09D0009B1B681846FFF7C7
:10395000D4FF009B1B681846FFF7A9FF009B5B681C
:10396000B3F1FF3F05D0009B5B6800211846FFF7CD
:10397000AFFF019B1A68009B9B6919461046FFF731
:1039800038FF019B1868009B597D009B1B7D1A46E0
:10399000FFF71AFF019B1868009B1968009B5B6882
:1039A0001A46FFF7CFFE009B1B7D012B22D1009B07
:1039B0009B68B3F1FF3F05D0009B9B680021184630
:1039C000FFF786FF009BDB68B3F1FF3F09D0009B48
:1039D000DB681846FFF791FF009BDB681846FFF78E
:1039E00066FF019B1868009BD968009B9B681A467C
:1039F000FFF7B7FE00BF03B05DF804FB00B583B06E
:103A000001900B468DF80330019B1B684FF48E71BB
:103A10001846FFF735FE019B1B684FF4A27118464C
:103A2000FFF72EFE019B1B680E491846FFF74FFE5D
:103A3000019B1B681846FFF7EDFD03461A469DF8EB
:103A4000033019461046FFF7EDFD019B1B68184631
:103A5000FFF7E0FD03461846FFF704FE00BF03B082
:103A60005DF804FB8000020000B587B0039002916E
:103A70000192029B002B03D12D49AA20FEF7A8F941
:103A8000039B1B791A462C2303FB02F3294A134498
:103A9000059300230493059B93F82A30002B03D051
:103AA00008230493049B3EE0039B1A68039B1B7945
:103AB0001946214B53F8213019461046FFF732FDC5
:103AC0000346002B03D011230493049B2BE002999F
:103AD0000398FFF730FF059B019A5A60029B1A6911
:103AE000059B1A60059B5B68002B05D0029B1B7F22
:103AF00019460398FFF782FF039B1B681846FFF7E0
:103B000018FE059B00229A61059B0022DA61059B45
:103B1000002283F82920059B00225A61059B01227F
:103B200083F82A20049B184607B05DF804FB00BF09
:103B3000DC710000E00100202C72000000B585B0AF
:103B4000019000914FF48E710198FFF799FD009B51
:103B50009A68009B1B6A13441B788DF80F30009BFA
:103B60001B6A5A1C009B1A629DF80F301946019877
:103B7000FFF70FFE00BF05B05DF804FB00B585B090
:103B800001900091009B5B69039316E0009B93F802
:103B90002830DBB2002B01D0002314E04FF48E71EB
:103BA0000198FFF782FD034683F00103DBB2002B8F
:103BB000ECD100990198FFF7C1FF009B1B6A039AA3
:103BC0009A42EBD80123184605B05DF804FB0000CB
:103BD00000B587B0039002910192039B1B791A46AE
:103BE0002C2303FB02F33C4A13440493049B93F8F5
:103BF0002A30012B04D039494FF48C70FEF7E8F8D5
:103C0000029B002B04D1354940F21910FEF7E0F871
:103C1000019B002B04D131494FF48D70FEF7D8F889
:103C2000039800F05DF80346002B03D011230593A1
:103C3000059B4CE0049B019A5A61049B029A9A608E
:103C4000049B00221A62049B002283F82820002390
:103C50000593039B1B684FF48E711846FFF710FD08
:103C6000039B1B6808211846FFF7A0FD039B1B68F8
:103C700004991846FFF762FF049B5B68002B25D16F
:103C8000039B1B6804991846FFF778FF034683F0EF
:103C90000103DBB2002B02D00F23059313E000BF1A
:103CA000039B1B684FF48E711846FFF7FEFC03461A
:103CB00083F00103DBB2002BF2D1039B1B680C21C4
:103CC0001846FFF773FD049B00225A61059B1846B6
:103CD00007B05DF804FB00BFE0010020DC710000CC
:103CE00082B00190019B1B791946074A2C2303FBE4
:103CF00001F3134414331B68002B14BF012300236A
:103D0000DBB2184602B07047E001002000B583B076
:103D10000190019B1B684FF492711846FFF7B0FCAD
:103D2000019B1B684FF484711846FFF7A9FC019BA7
:103D30001B6800211846FFF739FD00BF03B05DF88E
:103D400004FB10B582B001900091009B9B69002B91
:103D500008D14FF484710198FFF792FC0198FFF7A6
:103D60000FFD13E04FF484710198FFF789FC009B6D
:103D7000DA68009B5B6AD4180198FFF701FD0346DF
:103D80002370009B5B6A5A1C009B5A6202B010BDF4
:103D900000B589B0039002910192039B1B791A46EA
:103DA0002C2303FB02F37F4A13440693039B1B79E6
:103DB00019467C4A2C2303FB01F313442A331B7856
:103DC000012B04D078494FF4B670FEF701F8029B3E
:103DD000002B04D1744940F26D10FDF7F9FF019BEF
:103DE000002B04D170494FF4B770FDF7F1FF0023A9
:103DF0008DF81F30069B5B68002B06D0039B1B6869
:103E00004FF401711846FFF77CFC069B9B69002B61
:103E100015D0069BDB69002B0ED0069B5B68002B40
:103E200006D0039B1B684FF401711846FFF74FFC47
:103E300011230593059BB0E001238DF81F309DF8F9
:103E40001F3083F00103DBB2002B0CD0069B019ADC
:103E50009A61069B029ADA60069B00225A62069BD0
:103E60000022DA6105E0069B029A1A61069B019A1C
:103E7000DA61069B93F8293083F00103DBB2002B53
:103E800009D09DF81F3083F00103DBB2002B02D074
:103E90000398FFF73BFF069B5B68002B73D1039BE6
:103EA0001B684FF4A2711846FFF7EAFB039B1B68DF
:103EB0004FF492711846FFF7F8FB03468DF8133064
:103EC000039B1B684FF484711846FFF7EEFB034613
:103ED0008DF81230039B1B684FF4A2711846FFF750
:103EE000E4FB03468DF811309DF8123083F0010396
:103EF000DBB2002B0DD09DF8113083F00103DBB253
:103F0000002B06D09DF8133083F00103DBB2002BA9
:103F1000CCD19DF81330002B0FD19DF81130002B20
:103F20000BD1039B1B6806991846FFF70AFF069BF7
:103F30009A69069B5B6A9A42B8D8069B00229A61EE
:103F40009DF81330002B03D003230593059B24E039
:103F50009DF81130002B03D00F230593059B1CE027
:103F6000069B93F82930002B06D0039B1B68002189
:103F70001846FFF71BFC0DE0039B1B680421184645
:103F8000FFF714FC06E0039B1B684FF40171184611
:103F9000FFF79DFB00230593059B184609B05DF8CC
:103FA00004FB00BFE0010020DC71000000B589B017
:103FB00003900291019201238DF81030029B069329
:103FC000019B0593039B5B68039A116804AA104642
:103FD000984700BF09B05DF804FB00B587B00190B9
:103FE000009100238DF80830009B0493019B9B688F
:103FF0000393019B00225A61019B5B68019A11683F
:1040000002AA1046984700BF07B05DF804FB00B550
:104010008BB0019000914FF400710198FFF761FBA4
:104020000346002B39D04FF492710198FFF73DFB06
:104030000346002B31D04FF492710198FFF720FB1B
:104040004FF401710198FFF75CFB009B93F8293056
:1040500083F00103DBB2002B03D004210198FFF7AA
:10406000A5FB02238DF80C300198FFF754FB0346A3
:104070000693009B9B690593009BDB680493009B60
:1040800000229A61009B0022DA61009B5B68009A23
:10409000116803AA1046984752E004210198FFF7DF
:1040A00020FB0346002B4BD04FF484710198FFF79F
:1040B000FCFA0346002B43D000990198FFF741FE1C
:1040C000009B9A69009B5B6A9A4239D1009BDB692D
:1040D000002B19D0009BDB680993009B5B6A089357
:1040E000009BDA69009B9A61009B1A69009BDA6069
:1040F000009B0022DA61009B00225A62099A08990B
:104100000098FFF753FF1BE0009B93F8293083F0E2
:104110000103DBB2002B03D004210198FFF746FB1B
:104120004FF401710198FFF7ECFA009B00229A61AD
:10413000009B596A009BDB681A460098FFF736FF20
:104140004FF48E710198FFF7B0FA0346002B24D08C
:10415000009B5B690793009B1B6A079A9A420DD9E3
:10416000009B93F82830DBB283F00103DBB2002B15
:1041700004D000990198FFF7E1FC0EE04FF48E7136
:104180000198FFF77DFA009B5B69002B05D0009B2F
:104190005B6919460098FFF720FF4FF4A271019860
:1041A000FFF783FA0346002B1CD04FF4A27101984D
:1041B000FFF766FA009B93F82930002B03D000210B
:1041C0000198FFF7F3FA009B9B69002B0AD0009B34
:1041D00000229A61009B596A009BDB681A4600988E
:1041E000FFF7E4FE00BF0BB05DF804FB08B5034920
:1041F0000348FFF70CFF00BF08BD00BFE00100202F
:104200000020004082B003468DF807309DF807304B
:1042100003F01F0205499DF907305B09012000FAF0
:1042200002F241F8232000BF02B0704700E100E035
:1042300082B0034600918DF807309DF90730002BBE
:104240000CDA009BDAB20C499DF8073003F00F033B
:10425000043B5201D2B20B441A7609E0009BDAB259
:1042600006499DF907305201D2B20B4483F800236E
:1042700000BF02B0704700BF00ED00E000E100E0C9
:1042800082B00190019B03F06043B3F1005F0CBF6B
:1042900001230023DBB2184602B0704782B00190C0
:1042A000019B1B0B5BB2184602B0704700B583B090
:1042B00003460A468DF8073013468DF806309DF800
:1042C0000630072B03D908496B20FDF781FD9DF8C7
:1042D00006209DF9073011461846FFF7A9FF00BFD9
:1042E00003B05DF804FB00BF3072000000B583B07E
:1042F00003468DF807309DF907301846FFF782FF17
:1043000000BF03B05DF804FB84B001900B46ADF82C
:104310000230BDF80230019A134400221A60BDF841
:104320000230019A13441B680393039B00BF04B03F
:10433000704782B001900B46ADF80230BDF80230F4
:10434000019A13441B68002B14BF01230023DBB226
:10435000184602B0704782B001900091019BD3F8DB
:104360000022009B1A43019BC3F8002200BF02B049
:10437000704782B001900091019BD3F80022009B0E
:10438000DB431A40019BC3F8002200BF02B0704714
:1043900082B001900091019B009AC3F8042300BFF2
:1043A00002B0704782B001900091019B009AC3F85F
:1043B000082300BF02B0704784B00190019BD3F87E
:1043C00080340393019B039AC3F88024039B18460F
:1043D00004B0704782B00190019B0822C3F8002509
:1043E00000BF02B0704784B0039002910192039B1A
:1043F000029AC3F80C25039B019AC3F8142500BF49
:1044000004B0704784B0039002910192039B029A1A
:10441000C3F80825039B019AC3F8102500BF04B018
:10442000704782B001900B468DF803309DF8033041
:10443000019A134401221A6000BF02B0704782B093
:1044400001900B468DF8033013468DF802309DF82D
:1044500003209DF802301343DBB21A46019BC3F8D8
:104460006C2500BF02B0704782B001900091019BA3
:10447000009AC3F8242500BF02B0704784B00390AF
:1044800002910192029A039BC3F84425039B019A6F
:10449000C3F8482500BF04B0704782B00190019B6B
:1044A000D3F84C35184602B0704784B0039002919F
:1044B0000192029A039BC3F83425039B019AC3F827
:1044C000382500BF04B0704782B00190019BD3F83B
:1044D0003C35184602B0704700B583B00190019B8F
:1044E0001B682F2B04D90B4940F2CD10FDF770FC4F
:1044F000019B1B681F2B02D84FF0A04306E0019BD5
:104500001B6803F01F02019B1A60034B184603B09F
:104510005DF804FB547200000003005000B585B044
:104520000190084611461A4603468DF803300B46A3
:104530008DF8023013468DF8013001AB1846FFF7B5
:10454000CBFF03909DF803209DF802305B001A43D7
:104550009DF801309B001A439DF818301B0242EA77
:1045600003019DF81C301B04019A1943039B02F5BB
:10457000E07243F8221000BF05B05DF804FB00B5FF
:1045800085B00390002301930023009300230122B0
:1045900001210398FFF7C2FF00BF05B05DF804FBDF
:1045A00000B585B003900B468DF80B309DF80B30AD
:1045B0000022019200220092002200210398FFF7BE
:1045C000ADFF00BF05B05DF804FB00B585B00190FC
:1045D00001AB1846FFF780FF0390019B012202FA0E
:1045E00003F31946039800F004F800BF05B05DF826
:1045F00004FB82B001900091019B009AC3F808254A
:1046000000BF02B0704700B583B001900091009BDD
:104610001B68B3F1FF3F09D0009B1B681846FFF7EA
:10462000D4FF009B1B681846FFF7A9FF009B5B683F
:10463000B3F1FF3F05D0009B5B6800211846FFF7F0
:10464000AFFF019B1A68009B9B6919461046FFF754
:104650000BFF019B1868009B597D009B1B7D1A4630
:10466000FFF7EDFE019B1868009B1968009B5B68D3
:104670001A46FFF7B8FE009B1B7D012B22D1009B41
:104680009B68B3F1FF3F05D0009B9B680021184653
:10469000FFF786FF009BDB68B3F1FF3F09D0009B6B
:1046A000DB681846FFF791FF009BDB681846FFF7B1
:1046B00066FF019B1868009BD968009B9B681A469F
:1046C000FFF7A0FE00BF03B05DF804FB00B583B0A8
:1046D00001900B468DF80330019B1B684FF48871E5
:1046E0001846FFF711FE019B1B684FF490711846A6
:1046F000FFF70AFE019B1B684FF492711846FFF703
:1047000003FE019B1B684FF4A2711846FFF7FCFDE6
:10471000019B1B684FF4AC711846FFF7F5FD019B38
:104720001B680F491846FFF733FE019B1B681846AC
:10473000FFF7B4FD03461A469DF8033019461046AC
:10474000FFF7B4FD019B1B681846FFF7A7FD034662
:104750001846FFF7CBFD00BF03B05DF804FB00BFB8
:104760001003420000B587B0039002910192029BB2
:10477000002B03D12B49CF20FDF72AFB039B1B798C
:104780001A461346DB0013449B00274A1344059343
:1047900000230493059B93F82030002B03D00823BB
:1047A0000493049B3AE0039B1A68039B1B79194608
:1047B0001E4B53F8213019461046FEF7B3FE034650
:1047C000002B03D011230493049B27E00299039844
:1047D000FFF719FF059B019A5A60029B1A69059B16
:1047E0001A60059B5B68002B05D0029B1B7F194656
:1047F0000398FFF76BFF039B1B681846FFF7EAFD62
:10480000059B00229A61059B0022DA61059B00222C
:104810005A61059B012283F82020049B184607B0AB
:104820005DF804FB787200000C020020C8720000E2
:1048300000B589B0039002910192039B1B791A463F
:104840001346DB0013449B00574A13440693069B10
:1048500093F82030012B04D0544940F22D10FDF77D
:10486000B7FA029B002B04D150494FF49770FDF723
:10487000AFFA019B002B04D14C4940F22F10FDF7F9
:10488000A7FA039B1B79002B03D1019BB3F5803F53
:1048900004D346494FF49870FDF79AFA0298FFF74F
:1048A000EFFC034683F00103DBB2002B03D010239F
:1048B0000793079B73E0039800F07AF80346002BF8
:1048C00003D011230793079B69E0069B019A5A6165
:1048D000069B029A9A6000230793039B1B684FF480
:1048E00090711846FFF710FD039B1B684FF4AC71E5
:1048F0001846FFF709FD039B1868069B9968069BFD
:104900005B691A46FFF7BAFD039B1B68082118462E
:10491000FFF787FD069B5B68002B3FD1039B1B685D
:104920004FF490711846FFF704FD03468DF81730D9
:10493000039B1B684FF4AC711846FFF7FAFC034663
:104940008DF816309DF8173083F00103DBB2002B91
:1049500006D09DF8163083F00103DBB2002BDDD1C9
:104960009DF81630002B02D00F23079313E0039B12
:104970001B680C211846FFF754FD00BF039B1B6802
:104980004FF4AC711846FFF7D4FC034683F00103E3
:10499000DBB2002BF2D1069B00225A61079B18461E
:1049A00009B05DF804FB00BF0C0200207872000023
:1049B00082B00190019B1B791946084A0B46DB0027
:1049C0000B449B00134414331B68002B14BF0123BA
:1049D0000023DBB2184602B0704700BF0C02002073
:1049E00000B589B0039002910192039B1B791A468E
:1049F0001346DB0013449B00864A13440593039B34
:104A00001B791946834A0B46DB000B449B00134479
:104A100020331B78012B04D07F494FF4C070FDF781
:104A2000D7F9029B002B04D17B4940F28110FDF79E
:104A3000CFF9019B002B04D177494FF4C170FDF7EA
:104A4000C7F9039B1B79002B03D1019BB3F5803F72
:104A500004D3714940F28310FDF7BAF90298FFF7C9
:104A60000FFC034683F00103DBB2002B03D01023BD
:104A70000793079BCAE000238DF81B30059B5B68FA
:104A8000002B06D0039B1B684FF404711846FFF7F8
:104A900089FC059B9B69002B15D0059BDB69002BCE
:104AA0000ED0059B5B68002B06D0039B1B684FF460
:104AB00004711846FFF76CFC11230793079BA5E0D0
:104AC00001238DF81B309DF81B3083F00103DBB20E
:104AD000002B09D0059B019A9A61059B029ADA6026
:104AE000059B0022DA6105E0059B029A1A61059B8D
:104AF000019ADA6100230793039B1B684FF48871C6
:104B00001846FFF701FC039B1B684FF4A27118467F
:104B1000FFF7FAFB039B1B68019A02991846FFF7FF
:104B2000C4FC9DF81B3083F00103DBB2002B06D0E0
:104B3000039B1B6800211846FFF773FC05E0039BED
:104B40001B6820211846FFF706FC039B1B791946BA
:104B5000304A0B46DB000B449B00134404331B68B4
:104B6000002B4BD1039B1B684FF488711846FFF74D
:104B7000E0FB03468DF81330039B1B684FF4A271D2
:104B80001846FFF7D6FB03468DF81230039B1B68CF
:104B90004FF492711846FFF7CCFB03468DF81130A5
:104BA0009DF8133083F00103DBB2002B0DD09DF88C
:104BB000123083F00103DBB2002B06D09DF81130D8
:104BC00083F00103DBB2002BCCD1039B1B79194688
:104BD000104A0B46DB000B449B00134418330022A1
:104BE0001A609DF81130002B01D0032307939DF824
:104BF0001230002B09D00F23079306E0039B1B689C
:104C00004FF404711846FFF7C3FB079B184609B021
:104C10005DF804FB0C0200207872000000B589B03A
:104C200003900291019201238DF81030029B0693AC
:104C3000019B0593039B5B68039A116804AA1046C5
:104C4000984700BF09B05DF804FB00B587B001903C
:104C5000009100238DF80830009B0493019B9B6812
:104C60000393019B00225A61019B5B68019A1168C2
:104C700002AA1046984700BF07B05DF804FB00B5D4
:104C800089B0019000914FF492710198FFF751FBA8
:104C90000346002B22D04FF492710198FFF734FBAA
:104CA00002238DF808300198FFF786FB0346059331
:104CB0000198FFF709FC03460493009BDB6803930C
:104CC000009B00229A61009B0022DA61009B5B68D6
:104CD000009A116802AA104698473BE04FF4887189
:104CE0000198FFF726FB0346002B33D04FF4887161
:104CF0000198FFF709FB0198FFF7E6FB0790009B7F
:104D00009B69079A9A4225D1009BDB69002B17D03B
:104D1000009BDB68069320210198FFF72AFB009B8C
:104D2000DA69009B9A61009B1A69009BDA60009B1C
:104D30000022DA61069A07990098FFF76FFF09E0F1
:104D4000009B00229A61009BDB681A460799009835
:104D5000FFF764FF4FF4A2710198FFF7EAFA0346E8
:104D6000002B18D04FF4A2710198FFF7CDFA009BE9
:104D70009B69002B0FD0009B00229A61009B0022B0
:104D8000DA610198FFF7A0FB0146009BDB681A4639
:104D90000098FFF743FF4FF490710198FFF7C9FAAD
:104DA0000346002B14D04FF490710198FFF7ACFA32
:104DB0000C210198FFF735FB009B5B69002B07D0A6
:104DC0000198FFF76AFB034619460098FFF73DFF7D
:104DD0004FF4AC710198FFF7ACFA0346002B10D0EA
:104DE0004FF4AC710198FFF78FFA009B5B69002BC1
:104DF00007D00198FFF751FB034619460098FFF7CB
:104E000024FF00BF09B05DF804FB000008B50349AA
:104E10000348FFF734FF00BF08BD00BF0C020020AD
:104E20000020004082B001900B468DF803309DF8C1
:104E30000330019A134401221A6000BF02B0704788
:104E400084B001900B46ADF80230BDF80230019AF3
:104E5000134400221A60BDF80230019A13441B6803
:104E60000393039B00BF04B0704782B001900B46D0
:104E7000ADF80230BDF80230019A13441B68002BD4
:104E800014BF01230023DBB2184602B0704784B080
:104E9000039002910192029A039BC3F84425039B5D
:104EA000019AC3F8482500BF04B0704784B003904E
:104EB00002910192029A039BC3F83425039B019A45
:104EC000C3F8382500BF04B0704782B00190019B41
:104ED000D3F84C35184602B0704782B00190019B60
:104EE000D3F83C35184602B07047000000B587B0D3
:104EF00001900091009B5B7DDBB2032B23D0032B41
:104F00003FDC012B02D0022B05D03AE0242101988E
:104F1000FFF788FF36E000238DF80C300023049360
:104F200000230593009B9B68002B04D1174940F296
:104F30005510FCF74DFF009B9B68009A916903AAEE
:104F4000104698471EE001238DF80C300198FFF7BA
:104F5000C4FF034604930198FFF7B7FF0346059388
:104F6000009B9B68002B04D1084940F26110FCF7BC
:104F70002FFF009B9B68009A916903AA10469847EF
:104F800000E000BF00BF07B05DF804FB1473000031
:104F900000B585B00390029113468DF80730029B4F
:104FA0009DF807205A7502990398FFF79FFF00BFED
:104FB00005B05DF804FB00B583B0019000914FF49B
:104FC00094710198FFF751FF0346002B23D04FF453
:104FD00094710198FFF734FF009B5B7DDBB2012BDE
:104FE0001BD1009BD968009B1B681A460198FFF7EC
:104FF0004EFF009B1969009B5B681A460198FFF7FA
:1050000055FF28210198FFF70DFF02220099019812
:10501000FFF7BEFF02E000BF00E000BF4FF4827167
:105020000198FFF722FF0346002B0FD04FF4827147
:105030000198FFF705FF009B5B7DDBB2022B07D1D8
:10504000032200990198FFF7A3FF02E000BF00E0F0
:1050500000BF00BF03B05DF804FB000008B50349C2
:105060000348FFF7A8FF00BF08BD00BF30020020C3
:105070000030004000B583B000230193104B1B7833
:10508000002B02D08523019314E00D4B00229A607F
:105090000B4B00225A600A4B00221A61084B002277
:1050A000DA60084800F0E6F9019000F009FA044BD4
:1050B00001221A70019B184603B05DF804FB00BF83
:1050C0004C0200200952000084B001900091019B25
:1050D0001B68039306E0039A009B9A420DD0039B42
:1050E0001B680393039B002BF5D1019B1A68009B5F
:1050F0001A60019B009A1A6000E000BF04B070477C
:1051000084B00190019B1B680393039B002B03D089
:10511000039B1A68019B1A60039B184604B07047F2
:1051200000B583B00190224B1B78002B03D121499D
:10513000E920FCF74DFE1E4B9B78DBB2002B12D012
:10514000019B002B03D0019B5B6801209847002046
:10515000FCF74CFA164BDB680133154AD36000208C
:10516000FCF758FA17E00020FCF740FA019B002BEF
:1051700003D001991048FFF7A7FF0D4BDB68002B08
:1051800001D100F0B1F90A4BDB680133084AD36062
:105190000020FCF73FFA064BDB68002B04D10549E1
:1051A00040F20510FCF714FE00BF03B05DF804FBED
:1051B0004C020020647300005C02002000B585B042
:1051C00003468DF807309DF80730002B02D10C4BB9
:1051D000039301E00B4B03930398FFF791FF0290B9
:1051E000029B002B06D0029B5B689DF807201046AF
:1051F0009847F1E700BF00BF05B05DF804FB00BFB2
:10520000540200205C02002000B583B003468DF8F4
:1052100007309DF80730002B05D10A4B01225A7048
:105220000020FFF7CBFF9DF80730012B05D1054B80
:1052300001229A700120FFF7C1FF00BF03B05DF8A3
:1052400004FB00BF4C02002082B003468DF80730FB
:105250009DF8073003F01F0205499DF907305B09EF
:10526000012000FA02F241F8232000BF02B070478B
:1052700000E100E082B0034600918DF807309DF90F
:105280000730002B0CDA009BDAB20C499DF807308E
:1052900003F00F03043B5201D2B20B441A7609E02B
:1052A000009BDAB206499DF907305201D2B20B4495
:1052B00083F8002300BF02B0704700BF00ED00E09C
:1052C00000E100E082B00190019B1B0B5BB218462D
:1052D00002B0704700B583B003460A468DF8073028
:1052E00013468DF806309DF80630072B03D9084980
:1052F0006B20FCF76DFD9DF806209DF907301146E7
:105300001846FFF7B7FF00BF03B05DF804FB00BF0E
:10531000B473000000B583B003468DF807309DF9E3
:1053200007301846FFF790FF00BF03B05DF804FB9D
:1053300082B003468DF807300F4A9DF90730002BE5
:1053400000DA1F335B115BB252F823209DF907305E
:10535000594203F01F0301F01F0158BF4B425BB2DB
:1053600022FA03F303F00103002B14BF01230023EF
:10537000DBB2184602B0704700E100E082B0019055
:105380004FF08042019BC2F8043300BF02B0704767
:1053900082B001904FF08042019BC2F8083300BFF9
:1053A00002B0704782B003468DF807309DF8073091
:1053B00003F1804301221A6000BF02B0704784B03D
:1053C0000346ADF80630BDF8063003F180430022F5
:1053D0001A60BDF8063003F180431B680393039BFA
:1053E00000BF04B0704782B00346ADF80630BDF888
:1053F000063003F180431B68002B14BF01230023F8
:10540000DBB2184602B0704782B001904FF0804284
:10541000019BC2F8183500BF02B0704700B583B0D9
:1054200006238DF807304FF08040FFF74BFF03460F
:105430001846FFF77DFF034683F00103DBB2002B24
:1054400013D04FF08040FFF73DFF03461A469DF80A
:10545000073019461046FFF73DFF4FF08040FFF739
:1054600031FF03461846FFF755FF00BF03B05DF854
:1054700004FB000000B585B00190019B002B03D117
:105480000D49A420FCF7A4FC002303930B4B1B79CC
:10549000002B02D08523039308E0084A019B136088
:1054A000064B01221A71054B00225A71039B1846C4
:1054B00005B05DF804FB00BFD87300006002002057
:1054C00008B5074B1B79002B03D10649BD20FCF71B
:1054D0007FFCFFF7A3FF0120FFF796FF00BF08BD89
:1054E00060020020D873000008B50A4B1B79002B1E
:1054F00003D10949EA20FCF76BFC4FF48270FFF7F7
:105500005EFF0220FFF73AFF0820FFF74BFF00BFC6
:1055100008BD00BF60020020D873000008B54FF43A
:105520008070FFF760FF0346002B14D04FF48070AB
:10553000FFF745FF0120FFF72BFF114B5B7983F04D
:105540000103DBB2002B06D00D4B01225A710C4B2C
:105550001B68002098474FF48270FFF744FF034612
:10556000002B0AD04FF48270FFF729FF0220FFF7CB
:105570000FFF034B1B680120984700BF08BD00BF09
:105580006002002000B587B003460A468DF8073058
:1055900013468DF8063000238DF81730002304934E
:1055A0009DF807301846FBF7EFF80490049B032B97
:1055B00061D89DF80630022B52D0022B5EDC002B06
:1055C00031D0012B5AD13649049A13465B0013445B
:1055D0000B441B788DF817303149049A13465B0051
:1055E00013440B4401331B78002B0ED02D4B2E4A55
:1055F0004FF480411846FBF775FF0390039B002B87
:1056000003D1294A9DF8073013702549049A13469F
:105610005B0013440B4402331978244A049B13445F
:105620000A461A702AE01F4B1846FBF791FF1F4AE3
:10563000049B134419781A48049A13465B001344D8
:10564000034402331B78994217D11549049A134633
:105650005B0013440B4402331B788DF817300CE0C9
:105660000F49049A13465B0013440B4401331B7823
:105670008DF8173002E000BF00E000BF9DF8173042
:10568000002B09D00A4B1B68002B05D0084B1B6868
:105690009DF817201046984700BF07B05DF804FB3F
:1056A000BC020020C8020020E8020020EC0200201A
:1056B000B802002000B583B00190019B1B78022145
:1056C0001846FFF75FFF00BF03B05DF804FB000062
:1056D00000B583B00C4B1B78002B0FD00023019337
:1056E00008E0019B022B02D00198FAF7BFFF019B53
:1056F00001330193019B032BF3D901E0FAF7D0FFAB
:1057000000BF03B05DF804FB700200202DE9F04FEC
:1057100087B003468DF80F300023059300230493D0
:10572000D14B1B78002B04D0CF4B00221A70FFF70F
:10573000CFFF9DF80F30172B00F2298201A252F8FB
:1057400023F000BFA5570000BD570000BD57000063
:105750004F580000DD58000051590000DD5900008D
:10576000FD5900000D5A00002B5A0000495A000054
:10577000755A0000935A0000A15A0000A15A000077
:10578000A15A0000A15A0000A15A0000315B00009C
:105790003F5B0000535B0000675B0000815B000023
:1057A000815B0000FFF794FFB04B1846FBF7D0FE7B
:1057B0000590AF4A9DF80F301370E9E10020FAF729
:1057C0000DFF0346002B0DD00020FAF74FFF9DF888
:1057D0000F30022B02D14FF4E16301E04FF47A6302
:1057E00004930BE00020FAF727FF9DF80F30022BFF
:1057F00001D1C82301E04FF4C87304939C4A9DF87B
:105800000F301370994C049B18464FF000014FF075
:1058100000024FF00003CB0343EA5043C20312F5EA
:105820007A71009143F1000301934FF4FA624FF053
:105830000003DDE9000100F047FE02460B46134677
:10584000002219462046FBF74DFE0590A0E10020FE
:10585000FAF7C4FE0346002B0DD00020FAF706FF2E
:105860009DF80F30032B02D14FF4487301E04FF441
:105870007A6304930BE00020FAF7DEFE9DF80F3008
:10588000032B01D1C82301E04FF4C8730493784A75
:105890009DF80F301370754C049B18464FF00001B3
:1058A0004FF000024FF00003CB0343EA5043C20322
:1058B00012F57A7A43F1000B4FF4FA624FF00003CD
:1058C0005046594600F000FE02460B4613460022A1
:1058D00019462046FBF706FE059059E10020FAF72D
:1058E0007DFE0346002B06D00020FAF7BFFE4FF4E2
:1058F0007A63049305E00020FAF79EFE4FF4C87324
:1059000004935B4A9DF80F301370584C049B184663
:105910004FF000014FF000024FF00003CB0343EAC9
:105920005043C20312F57A7843F100094FF4FA624A
:105930004FF000034046494600F0C6FD02460B46C4
:105940001346002219462046FBF7CCFD05901FE1C7
:105950000020FAF743FE0346002B0CD00020FAF794
:1059600085FE9DF80F30052B01D1C82301E04FF4CF
:105970007A6304930BE00020FAF75EFE9DF80F3087
:10598000052B01D1C82301E04FF4C8730493384AB2
:105990009DF80F301370354C049B18464FF00001F2
:1059A0004FF000024FF00003CB0343EA5043C20321
:1059B00012F57A7643F100074FF4FA624FF00003D4
:1059C0003046394600F080FD02460B461346002261
:1059D00019462046FBF786FD0590D9E00020FAF72E
:1059E00085FE234A9DF80F301370204B002240F2B1
:1059F00066611846FBF776FD0590C9E00020FAF7CE
:105A00001BFE1B4A9DF80F301370C1E0164B01229C
:105A10001A700120FAF76AFE144B002240F2666108
:105A20001846FBF75FFD0590B2E00F4B01221A709C
:105A30000120FAF75BFE0D4B00224FF4005118468F
:105A4000FBF750FD0590A3E0074B01221A700120DF
:105A5000FAF74CFE054B002240F266611846FBF750
:105A600041FD059094E000BF69020020780200200B
:105A700068020020494B01221A700120FAF736FE15
:105A8000474B00224FF400511846FBF72BFD0590C1
:105A90007EE0FAF718FE434A9DF80F30137077E066
:105AA000414B1846FBF754FD05909DF80F30C3F1AC
:105AB00011030493049B002B33D0059B002B30D1A2
:105AC000049B012B26D9384E049B9BB21A46C8234F
:105AD00003FB02F318464FEAE0714FF000024FF06B
