:1000000000000420750300005D0300005F03000092
:1000100061030000630300006503000000000000AE
:100020000000000000000000000000006703000066
:1000300069030000000000006B0300006D03000076
:100040006F0300006F030000313000007D3A0000B4
:100050006F0300006F030000492D00006F030000D4
:100060006F0300006F0300006F0300006F030000C8
:100070006F0300006F0300006F0300006F030000B8
:100080006F030000091A00006F0300006F030000F7
:100090006F0300006F0300006F0300006F03000098
:1000A0006F0300006F0300006F0300006F03000088
:1000B0006F0300006F03000000000000000000005C
:1000C0006F0300006F0300006F0300006F03000068
:1000D0006F0300006F0300006F0300006F03000058
:1000E0006F0300006F0300006F03000000000000BA
:1000F000000000006F030000000000006F0300001C
:1001000000000000000000000000000000000000EF
:1001100000000000000000000000000000000000DF
:1001200000000000000000000000000000000000CF
:1001300000000000000000000000000000000000BF
:1001400000000000000000000000000000000000AF
:10015000000000000000000000000000000000009F
:10016000000000000000000000000000000000008F
:10017000000000000000000000000000000000007F
:10018000000000000000000000000000000000006F
:10019000000000000000000000000000000000005F
:1001A000000000000000000000000000000000004F
:1001B000000000000000000000000000000000003F
:1001C000000000000000000000000000000000002F
:1001D000000000000000000000000000000000001F
:1001E000000000000000000000000000000000000F
:1001F00000000000000000000000000000000000FF
:10020000354936480A1A02D0072291438D463449AF
:1002100034480A1A06D00722914381F30988022242
:1002200082F3148830483149314A00F044F83148AB
:100230003149324A00F03FF831483249324A00F041
:100240003AF832483249334A00F035F832483349F7
:10025000334A00F030F833483349344A00F02BF881
:1002600033483449344A00F026F8344834490022EF
:1002700000F02CF833483449002200F027F83348C6
:100280003349091A082902DB002202604160314A21
:1002900090471F481F49884205D00268043003B4C4
:1002A000904703BCF7E700208646EC46002000217B
:1002B000294A9047FEE7884207D0521A05D00378B2
:1002C00001300B700131013AF9D17047884202D0F8
:1002D00002700130FAE770470000042000E00320BC
:1002E0000000042000000420C46A00000000002078
:1002F000BC000020D0030000D0030000A25A000080
:10030000C46A00000000002000000020105B000014
:10031000105B0000105B0000105B0000105B000031
:10032000105B0000105B0000105B0000C26A000060
:10033000806B0000BC000020BC000020BC0000203E
:1003400098070020980700209807002098070020B1
:10035000982700209D03000039530000FEE7FEE7C8
:10036000FEE7FEE7FEE7FEE7FEE7FEE7FEE7FEE765
:1003700000F002B8FFF7FCBF0F484FF007018843B9
:1003800085460E4880470E48016841F470010160BF
:10039000BFF34F8FBFF36F8FFFF732BF09480A4992
:1003A0000A4A884207D0521A05D0037801300B70F0
:1003B0000131013AF9D170470000042015550000C1
:1003C00088ED00E0105B000000000020000000202D
:1003D00000B5A1B00590049103920293049802F035
:1003E000CAF8039B1593029B1693002317930023CF
:1003F0008DF8603000231993229B1A9300231F93DA
:100400000FA91F9B0822049802F08EF908231F935E
:10041000119B1293BDF84030ADF84C30BDF842301E
:10042000ADF84E3000238DF851309DF83C3003F08C
:100430000303DBB2012B26D10F9BC3F395231C933F
:100440009DF83C30C3F3C203DBB28DF85030BDF8E9
:100450003C30C3F38313DBB21B931B9B9A0009A9A7
:100460001F9B049802F060F91B9B9B001F9A13448A
:100470001F9312AA09A915AB009313461B9A1C9847
:1004800000F0EAFE2FE09DF83C3003F00303DBB2FE
:10049000022B28D1BDF83E30C3F389139BB21E93C3
:1004A0009DF83C30C3F3C203DBB28DF850301E9B85
:1004B000082B28BF08231D9307A91F9B1D9A04988A
:1004C00002F032F91F9A1D9B13441F931E9A1D9B25
:1004D000D31A1E9315AB12AA07A81D9900F05EFF50
:1004E0001E9B002BE3D1049802F054F800BF21B00A
:1004F0005DF804FB00B583B00190019B1B781A46A0
:100500000C4B9B5C002B05D0019B0433184604F078
:10051000ABFC0BE0019B1B781A46064B9B5C002B47
:1005200004D1019B0C33184603F060FE00BF03B0FA
:100530005DF804FB5406002000B587B003900291DB
:1005400013468DF8073000230593039B1B781A464A
:10055000114B9B5C002B09D0039B04339DF80720B3
:100560000299184604F0D6FC05900FE0039B1B7817
:100570001A46094B9B5C002B08D1039B0C339DF85A
:1005800007200299184603F0A9FE0590059B18461E
:1005900007B05DF804FB00BF5406002082B0019054
:1005A0000091034B01221A7000BF02B0704700BFD8
:1005B000FC00002030B58DB003468DF807301A4B93
:1005C00002AC1D460FCD0FC495E80F0084E80F0064
:1005D000062302934FF0FF3303934FF0FF3304934E
:1005E0004FF0FF3305934FF0EB7308939DF80730FE
:1005F000002B01D00D4A00E0002202AB19460C4846
:1006000002F0CEF90B900B9B0A930A9B002B04D0AF
:10061000084A43210A9801F003F9074A9DF8073078
:10062000137000BF0DB030BD605B00009D05000081
:1006300000000020105B0000FD00002000B589B024
:10064000039002910192019B8DF81F30124B002202
:100650001A709DF81F301A4602991048FFF76CFF78
:100660000690069B0593059B002B04D00C4A532152
:10067000059801F0D5F800BF0A4B1B78002B07D076
:10068000054B1B78DBB283F00103DBB2002BF3D107
:1006900000BF09B05DF804FBFC0000200000002052
:1006A000105B0000FD00002000B585B003900291B2
:1006B000054B00934023054A02990398FFF788FEF3
:1006C00000BF05B05DF804FB3D060000BC00002043
:1006D00082B0019000BF02B07047000000B583B047
:1006E00001900548FFF706FF0020FFF763FF00BFFA
:1006F00003B05DF804FB00BF0000002000B583B02C
:1007000001900091019B1B681B6800990198984714
:1007100000BF03B05DF804FB00B583B00190019BFE
:100720001B685B680198984700BF03B05DF804FB45
:1007300000B583B00190019B1B689B6801989847A6
:1007400000BF03B05DF804FB82B00190019BDB6841
:1007500001225A7100BF02B0704782B00190019B24
:10076000DB685B79184602B070470000024A034B11
:10077000D31ADB0818467047EC5A0000A45A000050
:1007800000B587B001900B468DF803309DF803301B
:10079000002B1FD0FFF7EAFF04900023059313E01E
:1007A000059B9B000E4A13440393039B1B881A4628
:1007B000019B1B689A4204D1019B059A1A60002391
:1007C00009E0059B01330593059A049B9A42E7D300
:1007D000052300E00023184607B05DF804FB00BFC6
:1007E0000000002000B585B001900B468DF8033065
:1007F0009DF8032001AB11461846FFF7C1FF0346E1
:10080000002B07D1019BDB00054A13440393039B94
:100810001B6800E00023184605B05DF804FB00BF2C
:10082000A45A000084B001900B468DF80330019B60
:10083000DB00174A134402939DF80330013B032B5E
:100840001CD801A252F823F05908000061080000EA
:10085000690800007308000002238DF80F3011E0D2
:1008600004238DF80F300DE0029B1B798DF80F30BB
:1008700008E0029B5B798DF80F3003E000238DF8D0
:100880000F3000BF9DF80F30184604B0704700BF0E
:10089000A45A000084B00190009100238DF80F301D
:1008A000019B1B7803F00403DBB2002B24D0019BD7
:1008B0001B78C3F30103DBB2012B02D0022B0CD057
:1008C00017E0009B1B68019A1288C2F38312D2B210
:1008D00013449A1C009B1A600BE0009B1B68019A52
:1008E0005288C2F3891292B213449A1C009B1A6078
:1008F00000BF01238DF80F309DF80F30184604B06B
:100900007047000000B58BB00023ADF826303E489C
:1009100001F016F93D4801F013F93D4B5B68049373
:100920003B4B9B680693049A069B134002339B0043
:10093000374A13440433089304AB19460898FFF769
:10094000A9FF0346002B09D0049A069B13400233EB
:100950009B002F4A134404330893EDE700BF0023A4
:10096000079311E0049B5A1C0492069A1340079ABD
:10097000920001A90A44264902339B000B445B689C
:100980001360079B01330793079B012BEAD99DF85E
:100990000430C3F30103DBB2012B10D0022B1CD1B6
:1009A000BDF80A30ADF82630BDF80630C3F3891320
:1009B0009BB203339A08049B1344049313E0BDF8DD
:1009C0000A30ADF82630BDF80430C3F38313DBB230
:1009D0001A46049B1344049305E00E494FF4BF707C
:1009E00001F020F800BF094801F0B6F80590059B1A
:1009F000002B02D0049B064A5360BDF826301846EF
:100A00000BB05DF804FB00BFE8050020E405002002
:100A1000D0010020F85B000000B585B00021074838
:100A200001F017F80390039B0293029B83F31003DA
:100A30000193019B184605B05DF804FBEC0500200E
:100A400000B589B00390029101920093039B1B0CA7
:100A50000793FFF7E1FF0690FFF788FE0246079B2A
:100A6000934204D3214940F2A31000F0DBFF069B20
:100A70001904009B5A1C0A9B1340079A0A431C49FD
:100A800002339B000B445A60009A0A9B13400233C6
:100A90009B00174A134404330593039B03F0070399
:100AA000D9B2059A137861F3C5031370019B03F063
:100AB0000F03D9B2059A138861F389131380029B3F
:100AC000C3F31501059A136861F39F231360059A18
:100AD0001378012161F301031370059A13786FF302
:100AE0008203137000BF09B05DF804FBF85B0000DF
:100AF000D001002000B58BB00390029113468DF811
:100B00000730039B0233089301238DF81F30002028
:100B100000F032FF3E4B1A68029B1A603C4B9A6809
:100B20003B4B59683A4B1B68CB1A1344013309936A
:100B300014E00121374800F0D3FFFFF7E3FE0590F2
:100B40000599344800F0CCFF314B9A68304B596816
:100B50002F4B1B68CB1A134401330993089A099B46
:100B60009A42E6D89DF81F30002B48D0002304930A
:100B70009DF80730002B17D09DF81030012262F34A
:100B800001038DF810309DF8103043F004038DF808
:100B90001030039B03F00F03DAB2BDF8103062F39C
:100BA0008913ADF8103016E09DF81030022262F380
:100BB00001038DF810309DF8103043F004038DF8D8
:100BC0001030039BC3F309039AB2BDF8123062F3ED
:100BD0008F13ADF812300E4B1A680D4B9B68134003
:100BE00002339B000A4A134404330693049A069B7B
:100BF0001A60074B1A68089B1344054A13600020CB
:100C000000F0CEFE9DF81F3018460BB05DF804FBD7
:100C1000D0010020EC05002000B58BB005900491B8
:100C2000039202931F4B9B68079306AB0122194660
:100C30000298FFF75FFF0346002B24D0069B023388
:100C400009930023089311E0089B9B00039A1A4420
:100C5000099B591C099107990B40126811490233ED
:100C60009B000B445A60089B01330893089A029B2F
:100C70009A42E9D3069A079B00931346029A049975
:100C80000598FFF7DDFE074B93F82034002B05D0C5
:100C900000BF00F065F80346002BFAD100BF0BB08F
:100CA0005DF804FBD001002000B583B001900091F5
:100CB0000023002200990198FFF7AEFF00BF03B0A8
:100CC0005DF804FB00B587B0039002910192019B8F
:100CD000059305AA012302990398FFF79DFF00BF22
:100CE00007B05DF804FB00B587B003900291019254
:100CF0000093019B0493009B059304AA022302998D
:100D00000398FFF789FF00BF07B05DF804FB00B54B
:100D10008BB00390029101920093019B0593009B7D
:100D200006930C9B07930D9B08930E9B099305AAB2
:100D3000052302990398FFF76FFF00BF0BB05DF822
:100D400004FB0000054B5A68044B1B689A420CBF19
:100D500001230023DBB21846704700BFD0010020FA
:100D600000B599B0FFF7EEFF0346002B01D000233A
:100D7000B7E19B4B0022C3F81824BFF34F8F00BF8D
:100D8000974B5B680493964B9B681093049A109B57
:100D9000134002339B00924A1344043311930023FF
:100DA00017930023169300230F9304AB1946119851
:100DB000FFF770FD0346002B19D0894BD3F8183488
:100DC000002B14D1864B1A68049B9A4205D8844B99
:100DD0001B68834A5360002383E1049A109B1340ED
:100DE00002339B007E4A134404331193DDE7002352
:100DF000159311E0049B5A1C0492109A1340159A03
:100E0000920001A90A44764902339B000B445B68B7
:100E10001360159B01331593159B012BEAD99DF89F
:100E2000043003F00303DBB2022B40F09C80BDF8DA
:100E30000630C3F389139BB20D93BDF80630C3F39C
:100E400089139BB2502B28BF50239BB20C930C9B51
:100E5000C3F309039AB2BDF8063062F38F13ADF8FD
:100E600006300C9B08330B939DF80430C3F3C20388
:100E7000DBB20F930B995B4801F0ECFA1790179BCC
:100E8000002B00F0D180179801F075FB01A9169B8B
:100E90000822179801F02AFC169B08331693049B2E
:100EA000DA43109B134001339B000A930C9A0A9B70
:100EB0009A4242D90A9B002B08D0049A109B1340F7
:100EC00002339B00464A1344043300E0464B089328
:100ED0000A9B002B02D00A9BDBB201E00C9BDBB229
:100EE0008DF81F300A9B002B01D03F4B00E0002300
:100EF00006930A9B002B06D00C9BDAB20A9BDBB24E
:100F0000D31ADBB200E000238DF817309DF81F20C4
:100F1000169B0899179801F0E9FB9DF81F30169A67
:100F200013441693069B002B16D09DF81720169B92
:100F30000699179801F0DAFB0EE0049A109B134013
:100F400002339B00264A134404330993169B0C9AE0
:100F50000999179801F0CAFB0D9B03339A08049B6B
:100F60001344049360E09DF8043003F00303DBB204
:100F7000012B59D1BDF80430C3F38313DBB2062B28
:100F800028BF0623DAB2BDF8043062F38913ADF846
:100F90000430BDF80430C3F38313DBB202330E9385
:100FA0009DF80430C3F3C203DBB20F930E9B9B008A
:100FB00019460C4801F04EFA1790179B002B33D0BE
:100FC000179801F0D8FA01A9169B0822179801F08A
:100FD0008DFB169B08331693002315931BE000BF6F
:100FE000D0010020FC5A0000DC010020049B5A1CA8
:100FF0000492109A134002339B003C4A1344191D7B
:10100000169B0422179801F071FB169B043316936C
:10101000159B01331593BDF80430C3F38313DBB282
:101020001A46159B9342E1D3179B002B39D02F4BC7
:10103000D3F8103414932D4BD3F81834002B1BD055
:10104000179801F0A7FA46E000238DF84F30149866
:10105000FFF783FB0346002B02D001238DF84F30AE
:101060009DF84F30002B03D017991498FFF746FBDB
:10107000149BDB681B681493149B002BE4D1179816
:1010800001F088FA002000F077FC184BD3F81834F0
:10109000002B02D1049B154A5360002000F080FC15
:1010A00019E0124BD3F81034129306E01298FFF7B0
:1010B0003FFB129BDB681B681293129B002BF5D140
:1010C0000B4A0C4BD31ADB081B0443F002030A49FA
:1010D0001846FFF7E9FDFFF735FE034683F00103ED
:1010E000DBB2184619B05DF804FB00BFD001002048
:1010F000CC5A0000A45A0000445C000000B583B044
:101100000D4BD3F8103401930B4B012283F82024AC
:1011100009E00198FFF718FB0198FFF7FDFA019B22
:10112000DB681B680193019B002BF2D100BF00BF5D
:1011300003B05DF804FB00BFD001002082B0019035
:10114000009100BF02B0704710B584B003900291C7
:10115000039BDB88002B0AD0039BDB881A461F4BBE
:10116000009313461E4A1F49029800F0C7FD039BD7
:101170001B7A052B2ED0039B5B7A002B12D0039B8E
:101180009B881A46039B1B7A19461046FFF74AFBB9
:1011900003461A46144B53F822301A461349029854
:1011A00000F0ACFD039B1B6819460298FFF7C6FFD1
:1011B000039B1B7A1A460E4B53F82240039B9B88D5
:1011C00000211846FFF70EFB034622460949029804
:1011D00000F094FD00BF04B010BD00BF785C0000BB
:1011E000885C0000C05C000030000020D85C00007B
:1011F0001C000020DC5C000000B585B0039002916B
:1012000013468DF80730039B1B7A052B0FD0039BE9
:101210005B7A002B06D00D4B1B681A460C490298CE
:1012200000F06CFD0B49029800F068FD07E09DF8A6
:101230000730002B03D00749029800F05FFD0298A9
:1012400000F03AFD00BF05B05DF804FB300000205F
:10125000D85C0000E85C000030B58BB007900691C8
:10126000059204930E9B1B7B8DF827300E9B00226A
:101270001A730E990498FFF767FF059B062B7FD81A
:1012800001A252F823F000BFA5120000AF12000027
:10129000BF120000D3120000F11200001913000069
:1012A0004913000007990E9800F028FD69E0069B9D
:1012B0001B681A4607990E9800F020FD61E0069B16
:1012C0001A68069B04331B6807990E9800F016FDF8
:1012D00057E0069B1A68069B04331968069B08337F
:1012E0001B6800930B4607990E9800F007FD48E035
:1012F000069B1968069B04331868069B08331B6815
:10130000069A0C3212680192009303460A46079926
:101310000E9800F0F3FC34E0069B1868069B04333B
:101320001C68069B08331B68069A0C3212680699E3
:1013300010310968029101920093234602460799F1
:101340000E9800F0DBFC1CE0069B1C68069B043337
:101350001D68069B08331B68069A0C3212680699B2
:1013600010310968069814300068039002910192C8
:1013700000932B46224607990E9800F0BFFC00E030
:1013800000BF00220E990498FFF736FF0E9B9DF8D0
:1013900027201A7300BF0BB030BD00BF00B587B067
:1013A0000390029101920093029B082B60D8009B4E
:1013B0001B7B8DF81330009B00221A730099019853
:1013C000FFF7C2FE0023059314E0059A029B9A42A0
:1013D00009D2039A059B13441B781A4626490098A4
:1013E00000F08CFC03E02549009800F087FC059B89
:1013F00001330593059B072BE7D92149009800F09D
:101400007DFC0023059326E0059A029B9A421BD29D
:10141000039A059B13441B788DF812309DF8123007
:101420007E2B0AD89DF81230184604F0A9FA03461C
:10143000002B02D09DF8123000E02E231A461149ED
:10144000009800F05BFC03E00F49009800F056FCA8
:10145000059B01330593059B072BD5D901220099E4
:101460000198FFF7C9FE009B9DF813201A7300E056
:1014700000BF07B05DF804FBEC5C0000F45C00000A
:10148000F85C0000FC5C0000005D000000B583B06B
:101490000190019B1B682F2B04D90B4940F2CD1002
:1014A00000F0C0FA019B1B681F2B02D84FF0A0432D
:1014B00006E0019B1B6803F01F02019B1A60034BAF
:1014C000184603B05DF804FB045D00000003005003
:1014D00000B585B00190084611461A4603468DF8BE
:1014E00003300B468DF8023013468DF8013001AB06
:1014F0001846FFF7CBFF03909DF803209DF80230BC
:101500005B001A439DF801309B001A439DF8183088
:101510001B0242EA03019DF81C301B04019A194387
:10152000039B02F5E07243F8221000BF05B05DF89E
:1015300004FB00B585B003900023019300230093C2
:101540000023012201210398FFF7C2FF00BF05B06D
:101550005DF804FB00B585B003900B468DF80B30A9
:101560009DF80B30002201920022009200220021FF
:101570000398FFF7ADFF00BF05B05DF804FB00B5B1
:1015800085B0019001AB1846FFF780FF0390019BE7
:10159000012202FA03F31946039800F04CF800BF49
:1015A00005B05DF804FB00B585B0019001AB1846AD
:1015B000FFF76CFF0390019B012202FA03F3194627
:1015C000039800F042F800BF05B05DF804FB00B5D9
:1015D00085B0019001AB1846FFF758FF0390039BBD
:1015E000D3F804350293029BDA43019B012101FAEF
:1015F00003F31A40039BC3F80825019B01229A407C
:10160000029B1A40039BC3F80C2500BF05B05DF890
:1016100004FB00B583B001900091009B002B03D127
:101620000198FFF7C0FF02E00198FFF7A8FF00BF95
:1016300003B05DF804FB82B001900091019B009A19
:10164000C3F8082500BF02B0704782B00190009136
:10165000019B009AC3F80C2500BF02B07047000040
:1016600000B583B00190019B032B03D907494720A4
:1016700000F0D8F9064A019B13441B780121184653
:10168000FFF7C7FF00BF03B05DF804FB285D000053
:10169000605D000000B583B00023019305E0019870
:1016A000FFF7DEFF019B01330193019B032BF6D96A
:1016B00000BF00BF03B05DF804FB000000B583B0BD
:1016C0000190019B032B03D907495F2000F0AAF981
:1016D000064A019B13441B781846FFF778FF00BFAA
:1016E00003B05DF804FB00BF285D0000605D0000F2
:1016F00000B583B00023019309E0094A019B13441C
:101700001B781846FFF715FF019B01330193019BDE
:10171000032BF2D9FFF7BEFF00BF03B05DF804FB57
:10172000605D000000B583B0002301930AE0094A20
:10173000019B13441B7803211846FFF70BFF019B05
:1017400001330193019B032BF1D900BF00BF03B00C
:101750005DF804FB645D000000B583B00190019B5F
:1017600003F00103002B01D0FFF7C2FF019B03F040
:101770000203002B01D0FFF7D5FF00BF03B05DF8D7
:1017800004FB000086B003900291019201238DF8C2
:1017900017309DF81730214A039B13601F4A029BA4
:1017A00053601E4A019B9360039B44F201029342E3
:1017B00013D0039B44F20202934221D1019B174AAA
:1017C000D360164BDB681B881A46144B9A61134B87
:1017D000DB685B68114AD36112E0019B0F4A136119
:1017E0000E4B1B699B680D4A53610C4B1B691B68B0
:1017F0000A4A9361094B1B695B68084AD36100BFC1
:1018000072B600BF00BF9DF81730DBB2002BFAD1D3
:1018100062B600BF00BF06B0704700BFF4050020ED
:1018200000B583B002900091019244F2010071462C
:101830006A4600F003F803B000BD00BF30B58BB0BE
:1018400007900691059272B600BFFFF757FC00BFE4
:10185000FFF786FA0346002BFAD1079B44F20102F8
:10186000934216D0079B44F2020293423ED1059B5D
:1018700009932C4A2C4BD31ADB081B0443F00100BC
:10188000099B5B681A46099B1B882849FFF72BFABE
:1018900039E0059B0893234A234BD31ADB081B042A
:1018A00043F00104089B9D68089B9B68184600F064
:1018B0005BFF03461846089B5B681946089B1B683C
:1018C000069A02920193009103462A46184920463F
:1018D000FFF71DFA134A144BD31ADB081B0443F01D
:1018E000010314491846FFF7DFF90CE00D4A0E4BCF
:1018F000D31ADB081B0443F00103069A0E4918466D
:10190000FFF7E0F900BF0D4B1B6803F00103002B4C
:1019100000D000BE059A06990798FFF733FF00BF75
:101920000BB030BDCC5A0000A45A0000BC5D0000D2
:10193000D85D0000005E0000145E0000F0ED00E0E5
:1019400072B600BF034B1B680133024A136000BF2D
:10195000704700BF14060020064B1B68013B054A78
:101960001360044B1B68002B01D162B600BF00BF9F
:10197000704700BF1406002000B583B0019000F04E
:1019800025F80346012B03D00449432000F04AF810
:10199000FFF7D6FF00BF03B05DF804FB805E0000D8
:1019A00000B583B003468DF8073000F00FF803460A
:1019B000012B03D00449512000F034F8FFF7CCFF8D
:1019C00000BF03B05DF804FB805E000084B0EFF35D
:1019D00005830193019BC3F308030393039B002B2F
:1019E0000DD1EFF314830093009B0293029B03F04D
:1019F0000103002B0CBF01230023DBB200E0012315
:101A0000184604B07047000008B5044B1B68044A30
:101A100012681046984700BF08BD00BF1806002096
:101A20001C06002000B585B003460091ADF80630D5
:101A3000BDF80630ADF80830009B039302AB1A46A0
:101A4000002144F20200FFF7F9FE00BF05B05DF887
:101A500004FB10B487B001900091019B009A53E8F9
:101A6000004F104643E8000191F0000FF7D10594B4
:101A700004900391059B184607B05DF8044B70472E
:101A800010B487B001900091019B009A53E8004F79
:101A900044EA020043E8000191F0000FF6D10594FA
:101AA00004900391049B184607B05DF8044B7047FF
:101AB00010B487B001900091019B009A53E8004F49
:101AC00004EA020043E8000191F0000FF6D105940A
:101AD00004900391059B184607B05DF8044B7047CE
:101AE00010B487B001900091019B009A53E8004F19
:101AF00004EB020043E8000191F0000FF6D10594D9
:101B000004900391049B184607B05DF8044B70479E
:101B100010B487B001900091019B009A53E8004FE8
:101B2000A4EB020043E8000191F0000FF6D1059408
:101B300004900391049B184607B05DF8044B70476E
:101B400000B583B0019001210198FFF799FF03468A
:101B5000184603B05DF804FB00B583B00190002186
:101B60000198FFF7A5FF0346184603B05DF804FB94
:101B700000B583B001900B468DF80330019B002B1C
:101B800003D10849E820FFF74DFF019BDA689DF873
:101B900003300199098A01FB03F31344184603B08B
:101BA0005DF804FBCC5E000000B583B001900091AD
:101BB000019B002B03D10849F520FFF733FF009B61
:101BC000019AD2689B1A019A128AB3FBF2F3DBB234
:101BD000184603B05DF804FBCC5E000000B585B08C
:101BE0000190019B002B04D11C494FF49270FFF728
:101BF00019FF002303930020FFF7BEFE019B1B6823
:101C00001A68019B5B689A421FD9019B1B681A687E
:101C1000013A1A601B681B7819460198FFF7A8FF64
:101C20000390019B9A68019B1B681B68D31A8DF86F
:101C30000B30019B1B681B799DF80B209A4204D93D
:101C4000019B1B689DF80B201A710020FFF7A8FE6E
:101C5000039B184605B05DF804FB00BFCC5E000096
:101C600010B584B001900091019B002B04D1114963
:101C700040F24710FFF7D6FE009B002B04D10D4920
:101C80004FF4A470FFF7CEFE009B03930020FFF7F4
:101C900073FE019B1B681C68621C1A600399019803
:101CA000FFF782FF034623700020FFF779FE00BF95
:101CB00004B010BDCC5E000000B583B00190019B64
:101CC000002B03D10C493120FFF7ACFE019B9B6830
:101CD000002B0CD0019B5B69019A1069019A116875
:101CE000019A92689847019B00229A6000E000BF29
:101CF00003B05DF804FB00BF145F00000EB400B534
:101D000084B00190019B002B03D118494220FFF7BA
:101D100089FE019B5B69002B03D114494320FFF727
:101D200081FE019B1B68002B03D110494420FFF763
:101D300079FE019B5B68002B03D10C494520FFF71E
:101D400071FE059B002B0AD00023039306AB03937F
:101D500003AB1A460599019800F0B8F900E000BFFE
:101D600004B05DF804EB03B0704700BF145F0000DF
:101D700000B583B001900B468DF803309DF8033019
:101D80000A2B03D10D210198FFF7F2FF019B1A687E
:101D9000019B9B68581C0199886013449DF803209F
:101DA0001A70019B9A68019B5B689A4202D3019862
:101DB000FFF782FF00BF03B05DF804FB00B587B0FA
:101DC000039002910192009300230593009B03F07E
:101DD0000103002B24D00BE0029B01330293059BEF
:101DE000013305939DF8133019460398FFF7C0FFA0
:101DF000029B1B788DF813309DF81330002BEBD12C
:101E000006E0019B013B019320210398FFF7B0FFFF
:101E1000019A059B9A422ED9019B002BF1D12AE011
:101E2000029B002B0BD0029803F00BFE059006E0FE
:101E3000019B013B019320210398FFF799FF019A31
:101E4000059B9A420FD9019B002BF1D10BE0029B1D
:101E500001330293059B013305939DF81330194616
:101E60000398FFF785FF029B1B788DF813309DF8D0
:101E70001330002BEBD100BF07B05DF804FB00006E
:101E800000B589B00390029101920093029B0793E1
:101E90000123069307E0079A019BB2FBF3F3079334
:101EA000069B01330693079A019B9A42F3D2009A4C
:101EB000069B9A4201D9009B06930B9B03F00103FA
:101EC000002B22D10A9B002B1FD00B9B03F0020397
:101ED000002B06D0009B002B03D130238DF8173048
:101EE00002E020238DF8173008E00A9B013B0A939B
:101EF0009DF8173019460398FFF73AFF0A9B002B0D
:101F000003D0069A0A9B9A42EFD301230793009BC2
:101F1000012B03D9009B013B009309E0029A079B28
:101F2000B2FBF3F30493049A019B9A4200D205E0BA
:101F3000079B019A02FB03F30793E8E7029A079BCA
:101F4000B2FBF3F30493049B079A02FB03F3029A98
:101F5000D31A0293154A049B13441B78194603981D
:101F6000FFF706FF079A019BB2FBF3F30793079B6A
:101F7000002BE3D10B9B03F00103002B11D00A9B34
:101F8000002B0ED006E00A9B013B0A932021039808
:101F9000FFF7EEFE0A9B002B03D0069A0A9B9A429B
:101FA000F1D300BF09B05DF804FB00BF945F0000EF
:101FB00000B589B00590049103920293049B002B15
:101FC000B8BF5B4206930123079307E0039B069A81
:101FD00092FBF3F30693079B01330793039B069A47
:101FE0009A42F3DA029A079B9A4201D9029B07931D
:101FF0000A9B002B0AD0049B002B04DB0B9B03F0F5
:102000000403002B02D00A9B013B0A930B9B03F0B5
:102010000203002B02D0029B002B16D00B9B03F077
:102020000103002B11D10A9B002B0ED006E00A9B66
:10203000013B0A9320210598FFF79AFE0A9B002B8B
:1020400003D0079A0A9B9A42F1D3049B002B07DA2C
:10205000049B5B4204932D210598FFF789FE08E05D
:102060000B9B03F00403002B03D02B210598FFF7F3
:102070007FFE0B9B03F00203002B19D00B9B03F098
:102080000103002B14D1029B002B11D10A9B002BC2
:102090000ED006E00A9B013B0A9330210598FFF71A
:1020A00067FE0A9B002B03D0079A0A9B9A42F1D342
:1020B00004990B9B01930A9B0093029B039A05983A
:1020C000FFF7DEFE00BF09B05DF804FB00B58FB07E
:1020D000059004910392059B002B04D1B64940F270
:1020E0005220FFF79FFC059B5B69002B04D1B2498E
:1020F0004FF41570FFF796FC059B1B68002B04D16D
:10210000AD4940F25520FFF78DFC059B5B68002B25
:1021100004D1A94940F25620FFF784FC049B002B10
:1021200000F09381049B1B788DF83730049B0133BA
:1021300004939DF83730002B00F07E819DF83730F6
:10214000252B40F06D8100230A9301230C93049BFF
:102150001B788DF837309DF83730302B0DD0302B71
:102160001BDC2B2B11D02D2B17D10A9B43F0010325
:102170000A93049B0133049312E00A9B43F0020389
:102180000A93049B013304930AE00A9B43F004037F
:102190000A93049B0133049302E000230C9300BFD5
:1021A0000C9B002BD3D1002309939DF837302A2BA9
:1021B0000CD1039B1B68191D039A11601B68099AB7
:1021C00013440993049B013304931AE0049B1B7886
:1021D0008DF837309DF837302F2B12D99DF83730D6
:1021E000392B0ED8049B01330493099A13469B00A4
:1021F00013445B001A469DF837301344303B099373
:10220000D3E700230B93049B1B788DF837309DF8A0
:1022100037302E2B1DD1049B01330493049B1B7874
:102220008DF837309DF837302F2B12D99DF8373085
:10223000392B0ED8049B013304930B9A13469B0051
:1022400013445B001A469DF837301344303B0B9320
:10225000E4E7049B1B788DF837309DF837306C2B02
:1022600003D09DF83730682B07D1049B01330493CA
:10227000049B1B788DF83730EFE79DF83730252B1E
:1022800000F0C480252BC0F2C680782B00F3C380F9
:10229000582BC0F2C080583B202B00F2BC8001A21A
:1022A00052F823F0932300001724000017240000A5
:1022B0001724000017240000172400001724000032
:1022C0001724000017240000172400001724000022
:1022D000292300004B2300001724000017240000CE
:1022E00017240000172400004B23000017240000CF
:1022F00017240000172400001724000017240000F2
:1023000017240000D9230000172400001724000020
:10231000BD230000172400006F23000017240000D5
:102320001724000093230000039B1B68191D039AC8
:1023300011601B680C930C9B8DF81F309DF81F30AB
:1023400019460598FFF714FD66E0039B1B68191DED
:10235000039A11601B680C930A9B0193099B0093DD
:102360000B9B0A220C990598FFF722FE54E0039B71
:102370001B68191D039A11601B680C930C990A9B2A
:102380000193099B00930B9B0A220598FFF778FDA8
:1023900042E0039B1B68191D039A11601B680C9394
:1023A0000C990A9B0193099B00930B9B10220598A3
:1023B000FFF766FD30E000BF505F0000039B1B6825
:1023C000191D039A11601B6808930A9B099A0899C2
:1023D0000598FFF7F3FC1FE0039B1B68191D039A88
:1023E00011601B680C9330210598FFF7C1FC782120
:1023F0000598FFF7BDFC0C99002301930823009377
:10240000082310220598FFF73BFD05E025210598DC
:10241000FFF7AEFC00E000BF049B0133049305E02E
:102420009DF8373019460598FFF7A2FC049B1B78EE
:10243000002B7FF477AE00E000BF059B1B7B002BD9
:1024400004D00598FFF738FC00E000BF0FB05DF83E
:1024500004FB00BF00B58BB001900091019B1B8A6B
:10246000043B0793009A079B1344DA1C079BB2FBBB
:10247000F3F38DF81B300198FFF7B0FB0590059B37
:10248000002B01D1002338E0059B00221A71059B27
:1024900001225A71079B9AB2059BDA80059B09932A
:1024A0009DF81B30013B0493099B019A1A6000239D
:1024B00008931DE00198FFF791FB0390039B002B0D
:1024C0000ED0059B5B790133DAB2059B5A71099BEB
:1024D000039A1A60039B019A1A60039B099304E014
:1024E000059800F00EF8002307E0089B01330893DD
:1024F000089A049B9A42DDD3059B18460BB05DF801
:1025000004FB00B58BB00190019B0793079B5B799F
:102510008DF81B30019B08939DF81B30013B059300
:102520000023099305E0089B1B680893099B01336E
:102530000993099A059B9A42F5D3089B1B6804935B
:10254000019B0893002309930BE0089B1B680393EE
:1025500008990498FFF784FB039B0893099B0133B8
:1025600009939DF81B30099A9A42EED300BF00BF31
:102570000BB05DF804FB00B585B00190019B03939F
:10258000039B043301211846FFF7AAFA00BF05B0E8
:102590005DF804FB00B587B00190019B0593059B96
:1025A000043301211846FFF7B3FA0346039303AB44
:1025B0000493049B1B78002B02D10198FFF7A1FF25
:1025C00000BF07B05DF804FB00B591B00390029125
:1025D00001920093039B002B03D14349B620FFF7E0
:1025E00021FA039B0993039B0F93099BDB881A46EF
:1025F000099B5B7903FB02F3043B0893009A089B59
:102600009A4203D33849C420FFF70CFA099BDB88B0
:102610000793009B1A1D079BB2FBF3F30E93009BDD
:102620000433079AB3FBF2F2079901FB02F29B1AFB
:102630000D93019B1A68009B1344089A9A4203D297
:10264000089A009BD31A01E0019B1B680C93019B25
:102650000C9A1A6005E00F9B1B680F930E9B013BC1
:102660000E930E9B002BF6D100230B93079A0D9B24
:10267000D31A0A930A9A0C9B934228BF13460A93D3
:102680002AE0029A0B9B134406930F9A0D9B134466
:10269000043305939DF84830002B05D00A9A05991C
:1026A000069803F072F904E00A9A0699059803F077
:1026B0006CF900230D930F9B1B680F930C9A0A9BD8
:1026C000D31A0C930B9A0A9B13440B93079A0C9BF7
:1026D000934228BF13460A930C9B002BD1D100BF15
:1026E00000BF11B05DF804FBA45F000000B589B025
:1026F0000590049103920293039B079307AA00237A
:102700000093029B04990598FFF75EFF079B039ACD
:102710009A4203D00349F620FFF784F900BF09B0BD
:102720005DF804FBA45F000000B589B0059004913A
:1027300003920293039B079307AA01230093029B32
:1027400004990598FFF740FF079B039A9A4204D02B
:1027500004494FF48070FFF765F900BF09B05DF8D8
:1027600004FB00BFA45F000000B585B00190019894
:1027700000F00EF80390039B002B01D0039B00E0B8
:10278000024B184605B05DF804FB00BF4460000032
:1027900086B00190164B0593164B04931FE0049AE4
:1027A000059BD31ADB10DA0F13445B10DB00059A8C
:1027B00013440393039B1B680293029A019B9A4262
:1027C00002D9039B04930AE0029A019B9A4203D226
:1027D000039B0833059302E0039B5B6804E0059AC2
:1027E000049B9A42DBD30023184606B0704700BF13
:1027F000186400003065000000B589B001900091B8
:10280000009B0793019B1B788DF80830019B5B6848
:102810000393019B9B68DBB28DF81030019BDB6852
:102820000593019B1B69DBB28DF81830074A079BA3
:1028300052F823300649079A51F8221002AA10468E
:10284000984700BF09B05DF804FB00BF24060020D4
:102850003406002010B58AB00390029101920093D3
:10286000039B1B7809932249099B019A41F8232075
:102870002049099B009A41F82320002308931E4B0E
:1028800004AC0FCB84E80F00029B1B788DF810304E
:10289000029B5B788DF81130029B9B788DF812308B
:1028A000029BDB788DF81330029B1B798DF8153075
:1028B000029B5B798DF81630029B9B680693029B06
:1028C0001B7B8DF81C30029B5B7B8DF81D30039BBE
:1028D000181D019B002B01D0084A00E00022099B33
:1028E00004A900F049FE0890089B18460AB010BDE4
:1028F000240600203406002030650000F92700007F
:1029000000B589B001900091009B0793019B1B7853
:102910008DF80C30019B5B680493019B9B68DBB2D4
:102920008DF81430019BDB680693074A079B52F829
:1029300023300649079A51F8221003AA10469847F7
:1029400000BF09B05DF804FB440600204C060020DF
:1029500000B589B001900091009B0793019B1B7803
:102960008DF80C30019B5B680493019B9B68DBB284
:102970008DF81430019BDB680693074A079B52F8D9
:1029800023300649079A51F8221003AA10469847A7
:1029900000BF09B05DF804FB440600204C0600208F
:1029A00030B58FB0039002910192039B1B780C937A
:1029B0002C490C9B019A41F82320029B1A692A4951
:1029C0000C9B41F823200C9B012B07D1029B5B7FC2
:1029D000002B03D125497620FFF724F8029B5B7F6B
:1029E0001946234A0C9B13440A461A70029B04ACF6
:1029F0001D460FCD0FC495E80F0084E80F000C9B17
:102A0000089300230D93039B1B781A46184B9B5C7D
:102A1000002B0DD0039B181D019B002B01D0154AE4
:102A200000E0002204AB194602F0B8F90D9014E062
:102A3000039B1B781A460E4B9B5C002B0DD1039B0E
:102A400003F10C00019B002B01D00B4A00E0002297
:102A500004AB194601F060FB0D900D9B18460FB0BA
:102A600030BD00BF440600204C0600204065000039
:102A700054060020012900005129000000B583B050
:102A80000346ADF80630BDF80630184600F026F8CB
:102A900003461B68012B0CBF01230023DBB2184641
:102AA00003B05DF804FB00B585B00346ADF8063011
:102AB000BDF80630184600F011F803461A46002308
:102AC0001360BDF80630184600F008F803461B688E
:102AD0000393039B00BF05B05DF804FB82B003467F
:102AE000ADF80630BDF8063003F1804303F5C0436E
:102AF000184602B07047000082B00190034BD3F833
:102B00000423019B1340184602B070470060004048
:102B100082B00190054A019B03F5A27352F823305D
:102B20001B0A03F03F03184602B0704700600040E4
:102B300082B00190064A019B03F5A27352F823303C
:102B40001B0C03F00303DBB2184602B0704700BF52
:102B50000060004000B583B00190019B1B682F2BE3
:102B600004D90B4940F2CD10FEF75CFF019B1B68B6
:102B70001F2B02D84FF0A04306E0019B1B6803F017
:102B80001F02019B1A60034B184603B05DF804FB5B
:102B9000A86500000003005000B585B001900B4609
:102BA0008DF8033001AB1846FFF7D4FF0390019A6C
:102BB000039B02F5E07253F82230019A23F440316E
:102BC000039B02F5E07243F82210019A039B02F581
:102BD000E07253F822309DF8032012041146019A46
:102BE0001943039B02F5E07243F8221000BF05B0C1
:102BF0005DF804FB00B585B0019001AB1846FFF706
:102C0000A9FF0390019A039B02F5E07253F822306A
:102C10001B0C03F00303DBB2184605B05DF804FBA0
:102C200082B00190019BD3F81035184602B070476E
:102C300000B589B0039002910192184A05AB92E861
:102C4000030083E80300039A029B1344022B04D978
:102C5000134940F2FD20FEF7E5FE039B079311E0C8
:102C6000079B9B0008AA134453F80C3C1846FFF737
:102C7000D7FF0246019B1A60019B04330193079B17
:102C800001330793039A029B1344079A9A42E7D3AE
:102C900000BF00BF09B05DF804FB00BFCC650000B9
:102CA000A865000084B001900091009B0393019BF4
:102CB000DB080293019B03F0070301930122019BB0
:102CC00002FA03F30399029A0A4412781340184651
:102CD00004B0704784B001900091009B0393019B66
:102CE000DB080293019B03F007030193039A029B05
:102CF00013441B785AB20121019B01FA03F35BB222
:102D0000134359B2039A029B1344CAB21A7000BF0C
:102D100004B0704782B00190044A019B13443033E1
:102D200093F90030184602B0704700BF58060020E3
:102D300082B00190034A019B52F82330184602B03A
:102D4000704700BF5806002000B599B000231493C7
:102D500006AB00221A605A604FF48073ADF84A3017
:102D6000012316930023139321E0BDF84A3018463F
:102D7000FFF784FE0346002B0ED01698FFF7BCFE2B
:102D80000346002B08D0BDF84A301846FFF78BFEEB
:102D9000149A169B13431493169B5B001693BDF86D
:102DA0004A300433ADF84A30139B01331393139B1D
:102DB000072BDAD94FF4BE70FFF760FE0346002BF5
:102DC0000DD04FF4BE70FFF76EFE149B43F000432E
:102DD000149306AB1A4602210020FFF729FF149B2B
:102DE000DBB2002B29D0012316930023139321E09B
:102DF000169A149B1340002B16D01398FFF788FEE9
:102E000011901398FFF794FE03468DF84330139802
:102E1000FFF78EFF0F900F9B002B05D09DF84320EE
:102E20000F9B114611989847169B5B001693139BB6
:102E300001331393139B072BDAD9149B002B80F2D9
:102E4000F08000238DF85F3004AB00221A605A60D6
:102E5000002315930AE0159B9B0018AA13444FF01A
:102E6000FF3243F8582C159B01331593159B012B0A
:102E7000F1D900238DF85F300023139378E06B4A7B
:102E8000139B1344603393F900308DF83B309DF869
:102E90003B3023F0C0030D93644A139B134460330B
:102EA00093F90030B3F1FF3F5FD002AB19460D98A4
:102EB000FFF7F8FE0346002B57D09DF83B309B09E7
:102EC0008DF833300D98FFF725FF03461846FFF7BE
:102ED0002FFF0B900B9B002B03D19DF83330032B5E
:102EE00043D19DF83330032B04D104AB19460D9820
:102EF000FFF7F0FE0D98FFF77DFE03468DF82B30AF
:102F000006AB19460D98FFF7CDFE0990099B002BE3
:102F100003D09DF82B30022B06D0099B002B24D127
:102F20009DF82B30032B20D19DF83330032B13D188
:102F30009DF82B30022B01D1032300E002238DF8F2
:102F400023309DF8233019460D98FFF725FE9DF894
:102F50005F3001338DF85F300B9B002B05D09DF85F
:102F600033200B9B11460D989847139B0133139305
:102F7000139B032B83D99DF85F30002B4CD001238A
:102F80008DF85E306B461A4602210020FFF750FE96
:102F90000023159314E0159B9B0018AA134453F8C3
:102FA000602C159B9B0018A90B4453F8483C9A428F
:102FB00003D000238DF85E3005E0159B0133159397
:102FC000159B012BE7D99DF85E30002B03D0002321
:102FD0008DF85F3020E0002315931AE0159B9B00CD
:102FE00018AA134453F8602C159B9B0018A90B4496
:102FF00043F8482C159B9B0018AA134453F8502CF7
:10300000159B9B0018A90B4443F8582C159B0133C2
:103010001593159B012BE1D99DF85F30002B7FF4B0
:1030200028AF00BF19B05DF804FB00BF58060020B0
:1030300008B5064B1B68002B03D105495120FEF74C
:10304000F1FC024B1B68984700BF08BDC406002076
:103050002466000082B00190019B044A934201D192
:10306000034B00E00023184602B0704700200040E8
:10307000C406002000B587B001900091019B002B91
:1030800003D118497720FEF7CDFC0198FFF7E2FF46
:103090000590059B002B1ED000238DF813300020D7
:1030A000FEF76AFC059B1B79002B03D001238DF8EA
:1030B000133005E0059B009A1A60059B01221A71E6
:1030C0000020FEF76DFC9DF81330002B03D0112378
:1030D0000393039B02E000230393039B184607B06E
:1030E0005DF804FB2466000000B585B00190019BEB
:1030F000002B03D10A499B20FEF794FC0198FFF7AF
:10310000A9FF0390039B002B05D0039B00221A60AC
:10311000039B00221A7100BF05B05DF804FB00BFDD
:103120002466000082B003468DF807309DF8073012
:1031300003F01F0205499DF907305B09012000FAE1
:1031400002F241F8232000BF02B0704700E100E026
:1031500082B0034600918DF807309DF90730002BAF
:103160000CDA009BDAB20C499DF8073003F00F032C
:10317000043B5201D2B20B441A7609E0009BDAB24A
:1031800006499DF907305201D2B20B4483F800235F
:1031900000BF02B0704700BF00ED00E000E100E0BA
:1031A00082B00190019B03F06043B3F1005F0CBF5C
:1031B00001230023DBB2184602B0704782B00190B1
:1031C000019B1B0B5BB2184602B0704700B583B081
:1031D00003460A468DF8073013468DF806309DF8F1
:1031E0000630072B03D908496B20FEF71BFC9DF81E
:1031F00006209DF9073011461846FFF7A9FF00BFCA
:1032000003B05DF804FB00BF6866000000B583B042
:1032100003468DF807309DF907301846FFF782FF07
:1032200000BF03B05DF804FB82B001900B468DF83F
:1032300003309DF80330019A134401221A6000BF45
:1032400002B0704784B001900B46ADF80230BDF873
:103250000230019A134400221A60BDF80230019A2C
:1032600013441B680393039B00BF04B0704782B0F4
:1032700001900B46ADF80230BDF80230019A1344BC
:103280001B68002B14BF01230023DBB2184602B0D9
:10329000704782B001900091019B009AC3F804230B
:1032A00000BF02B0704782B001900091019B009A6C
:1032B000C3F8082300BF02B0704782B00190019BA1
:1032C0000722C3F8002500BF02B0704784B0039006
:1032D000029101920093039B029AC3F80825039B75
:1032E000019AC3F80C25039B009AC3F8102500BF70
:1032F00004B0704782B001900091009A019BC3F81E
:10330000242500BF02B0704784B00390029101925F
:10331000029A039BC3F84425039B019AC3F84825EE
:1033200000BF04B0704784B0039002910192029AEA
:10333000039BC3F83425039B019AC3F8382500BFCB
:1033400004B0704784B001900B468DF803301346EB
:103350008DF802309DF80230002B14BF01230023AA
:10336000DBB203939DF80330032B10D0032B13DC47
:10337000012B02D0022B05D00EE0039B43F0020389
:1033800003930AE0039B43F00403039305E0039BCC
:1033900043F00603039300E000BF019B039AC3F8C8
:1033A000542500BF04B0704782B001900B468DF8E1
:1033B00003309DF80320019BC3F8C02500BF02B075
:1033C000704782B00190019B0122C3F8502500BFD5
:1033D00002B0704782B00190019B0022C3F85025D3
:1033E00000BF02B0704782B00190019B0122C3F878
:1033F000402500BF02B0704782B00190019B0022BF
:10340000C3F8402500BF02B07047000000B583B08C
:103410000190019B1B682F2B04D90B4940F2CD1062
:10342000FEF700FB019B1B681F2B02D84FF0A04347
:1034300006E0019B1B6803F01F02019B1A60034B0F
:10344000184603B05DF804FB8C66000000030050D2
:1034500000B585B00190084611461A4603468DF81E
:1034600003300B468DF8023013468DF8013001AB66
:103470001846FFF7CBFF03909DF803209DF802301C
:103480005B001A439DF801309B001A439DF81830E9
:103490001B0242EA03019DF81C301B04019A1943E8
:1034A000039B02F5E07243F8221000BF05B05DF8FF
:1034B00004FB00B585B00390002301930023009323
:1034C0000023012201210398FFF7C2FF00BF05B0CE
:1034D0005DF804FB00B585B003900B468DF80B300A
:1034E0009DF80B3000220192002200920022002160
:1034F0000398FFF7ADFF00BF05B05DF804FB00B512
:1035000085B0019001AB1846FFF780FF0390019B47
:10351000012202FA03F31946039800F018F800BFDD
:1035200005B05DF804FB00B585B0019001AB18460D
:10353000FFF76CFF0390019B012202FA03F3194687
:10354000039800F00EF800BF05B05DF804FB82B0F0
:1035500001900091019B009AC3F8082500BF02B0BA
:10356000704782B001900091019B009AC3F80C252E
:1035700000BF02B07047000000B58DB00590049107
:1035800003920293049B002B03D17049AD20FEF7F8
:1035900049FA059B1B791A461346DB0013449B002E
:1035A0006B4A13440A930A9B1B7F002B03D008230A
:1035B0000793079BC5E0059B1B680993059B1A6849
:1035C000059B1B791946634B53F821301946104669
:1035D000FFF750FD0346002B03D011230793079BF1
:1035E000AFE00A9B039A1A600A9B029A5A60049BF6
:1035F0001B7B012B05D8049B1B781846FFF793FF14
:1036000004E0049B1B781846FFF779FF049B1B78A6
:103610001846002301930023009300230022012178
:10362000FFF716FF049B5B78FF2B09D0049B5B78A8
:103630000B930B98FFF777FF0B98FFF73AFF02E029
:103640004FF0FF330B93049B9B78FF2B07D0049B19
:103650009B78089301210898FFF73CFF02E04FF0A8
:10366000FF330893049B9A780A9B83F82020049BDD
:10367000DA780A9BDA77049BDB78FF2B17D0049B60
:103680001B79002B05D0049BDB781846FFF74BFF16
:1036900004E0049BDB781846FFF731FF049BDB78DE
:1036A0001846FFF706FF049B1A790A9B9A77049B3A
:1036B0001B781946089B0B9A0998FFF707FE049B95
:1036C0009B6819460998FFF715FE049B197B049B1C
:1036D0005B7B1A460998FFF735FE049B9B791946D8
:1036E0000998FFF761FE0A9B1B68002B03D040215D
:1036F0000998FFF7CEFD0998FFF7DFFD0A9B1B68CD
:10370000002B15D0059B1B681846FFF757FD034695
:103710001A46049B5B7919461046FFF757FD059B37
:103720001B681846FFF74AFD03461846FFF76EFD73
:103730000A9B00225A770A9B01221A7700230793DB
:10374000079B18460DB05DF804FB00BFB86600008B
:10375000CC060020FC66000000B583B00190019B00
:10376000DB7FFF2B0ED0019B9B7F002B05D0019BA5
:10377000DB7F1846FFF7D7FE04E0019BDB7F18468E
:10378000FFF7BDFE019B00225A77019B00221A72AF
:10379000019B1B68019A02F10800019A52681146C8
:1037A000984700BF03B05DF804FB00B583B00190FB
:1037B0000B468DF803309DF8033083F00103DBB234
:1037C000002B04D040210198FFF76DFD03E040215C
:1037D0000198FFF75EFD00BF03B05DF804FB00B584
:1037E00083B001900091009B03F00103002B03D0F4
:1037F0000198FFF7E6FD02E00198FFF7EBFD009B63
:1038000003F00203002B03D00198FFF7ECFD02E068
:103810000198FFF7F1FD00BF03B05DF804FB00B5B0
:1038200087B00390029101920093019B1B68002BCB
:103830000AD0019B1B681846FFF7B2FC034683F0D1
:103840000103DBB2002B0ED1019B9B68002B11D032
:10385000019B9B681846FFF7A3FC034683F0010316
:10386000DBB2002B06D0029B00225A77102305936F
:10387000059B54E0019B1968019B5B681A460398FD
:10388000FFF742FD019B9968019BDB681A4603988C
:10389000FFF749FD4FF48C710398FFF7D3FC0099B3
:1038A0000398FFF79CFF009B03F00803002B03D154
:1038B00010210398FFF7B8FC029B1B68002B1FD157
:1038C00000BF4FF48C710398FFF7D1FC034683F0DF
:1038D0000103DBB2002BF4D1029BDB7FFF2B1BD05B
:1038E000029B9B7F002B05D0029BDB7F1846FFF7D6
:1038F0001AFE11E0029BDB7F1846FFF700FE0BE08B
:10390000009B03F00403002B0CBF01230023DBB258
:1039100019460398FFF749FF00230593059B1846B6
:1039200007B05DF804FB000010B586B0039002916B
:103930000192039B1B791A461346DB0013449B003C
:103940003A4A13440593059B1B7F002B04D1384949
:1039500040F23220FEF766F8029B1B68002B08D16C
:10396000029B5B68002B04D0314940F23320FEF704
:1039700059F8029B9B68002B08D1029BDB68002B47
:1039800004D02B494FF40D70FEF74CF8039B1B79C4
:10399000002B09D1029BDB68B3F5803F04D2029B68
:1039A0005B68B3F5803F04D3214940F23520FEF730
:1039B00039F800230493059B5B7FDBB2002B03D017
:1039C00011230493049B2EE0059B1B68002B07D05A
:1039D000019B03F01403002B02D1059B01225A77AF
:1039E000059B029A03F10C0413460FCB84E80F00E9
:1039F000059BDB7FFF2B0ED0059B9B7F002B05D00B
:103A0000059BDB7F1846FFF77AFD04E0059BDB7F13
:103A10001846FFF788FD039B1868019B029A0599D9
:103A2000FFF7FDFE0346184606B010BDCC06002089
:103A3000B866000000B583B0019000914FF48C711E
:103A40000198FFF714FC0346002B10D04FF48C7143
:103A50000198FFF7F7FB009B1B68002B04D1064978
:103A60004FF42770FDF7DEFF0098FFF775FE00BFEB
:103A700003B05DF804FB00BFB866000008B5034959
:103A80000348FFF7D7FF00BF08BD00BFCC060020EA
:103A90000030004082B003468DF807309DF80730B3
:103AA00003F01F0205499DF907305B09012000FA68
:103AB00002F241F8232000BF02B0704700E100E0AD
:103AC00082B003468DF807309DF8073003F01F02DF
:103AD00006499DF907305B09012000FA02F2203304
:103AE00041F8232000BF02B0704700BF00E100E0B2
:103AF00082B0034600918DF807309DF90730002B06
:103B00000CDA009BDAB20C499DF8073003F00F0382
:103B1000043B5201D2B20B441A7609E0009BDAB2A0
:103B200006499DF907305201D2B20B4483F80023B5
:103B300000BF02B0704700BF00ED00E000E100E010
:103B400082B00190019B1B0B5BB2184602B070471C
:103B500000B583B003460A468DF8073013468DF84A
:103B600006309DF80630072B03D908496B20FDF776
:103B700059FF9DF806209DF9073011461846FFF7BA
:103B8000B7FF00BF03B05DF804FB00BF0067000093
:103B900000B583B003468DF807309DF9073018460D
:103BA000FFF778FF00BF03B05DF804FB00B583B0FA
:103BB00003468DF807309DF907301846FFF780FF60
:103BC00000BF03B05DF804FB84B001900B46ADF874
:103BD0000230BDF80230019A134400221A60BDF889
:103BE0000230019A13441B680393039B00BF04B087
:103BF000704782B001900B46ADF80230BDF802303C
:103C0000019A13441B68002B14BF01230023DBB26D
:103C1000184602B0704782B001900091019B009A53
:103C2000C3F8042300BF02B0704782B00190009136
:103C3000019BD3F80423009B1340002B14BF0123E6
:103C40000023DBB2184602B0704782B001900091A9
:103C5000019B009AC3F8082300BF02B0704784B0EC
:103C60000190019BD3F880340393019B039AC3F81E
:103C70008024039B184604B0704782B00190019BDA
:103C80000422C3F8002500BF02B0704782B0019043
:103C9000019B0022C3F8002500BF02B0704784B02A
:103CA000039002910192039B019AC3F81425039B90
:103CB000029AC3F80C2500BF04B0704700B583B06A
:103CC00001904FF0FF324FF0FF310198FFF7E7FF0F
:103CD00000BF03B05DF804FB82B00190019BD3F8F4
:103CE0000C35184602B0704782B00190019BD3F8A2
:103CF0001435184602B0704782B00190019BD3F88A
:103D00000835184602B0704782B00190019BD3F885
:103D10001035184602B0704784B0039002910192AA
:103D2000039B029AC3F80825039B019AC3F8102548
:103D300000BF04B0704700B583B001904FF0FF3270
:103D40004FF0FF310198FFF7E7FF00BF03B05DF8C8
:103D500004FB82B00190019BD3F81835DBB2184602
:103D600002B0704782B001900B468DF803309DF889
:103D70000320019BC3F81C2500BF02B0704782B02E
:103D800001900B468DF803309DF80330019A1344DF
:103D900001221A6000BF02B0704782B001900B464A
:103DA0008DF8033013468DF802309DF803209DF8FE
:103DB00002301343DBB21A46019BC3F86C2500BFE7
:103DC00002B0704782B001900091019B009AC3F845
:103DD000242500BF02B0704700B583B00190019B5D
:103DE0001B682F2B04D90B4940F2CD10FDF71AFEAA
:103DF000019B1B681F2B02D84FF0A04306E0019BDC
:103E00001B6803F01F02019B1A60034B184603B0A6
:103E10005DF804FB246700000003005000B585B086
:103E20000190084611461A4603468DF803300B46AA
:103E30008DF8023013468DF8013001AB1846FFF7BC
:103E4000CBFF03909DF803209DF802305B001A43DE
:103E50009DF801309B001A439DF818301B0242EA7E
:103E600003019DF81C301B04019A1943039B02F5C2
:103E7000E07243F8221000BF05B05DF804FB00B506
:103E800085B00390002301930023009300230122B7
:103E900001210398FFF7C2FF00BF05B05DF804FBE6
:103EA00000B585B003900B468DF80B309DF80B30B4
:103EB0000022019200220092002200210398FFF7C5
:103EC000ADFF00BF05B05DF804FB00B585B0039001
:103ED0000023019300230093002301220021039873
:103EE000FFF79CFF00BF05B05DF804FB00B585B08F
:103EF000019001AB1846FFF76FFF0390019B012271
:103F000002FA03F31946039800F004F800BF05B065
:103F10005DF804FB82B001900091019B009AC3F808
:103F2000082500BF02B0704700B583B00190009132
:103F3000009B1B68B3F1FF3F09D0009B1B6818462C
:103F4000FFF7D4FF009B1B681846FFF798FF009B04
:103F50005B68B3F1FF3F05D0009B5B68002118460A
:103F6000FFF79EFF019B1A68009B9B69194610464C
:103F7000FFF728FF019B1868009B597D009B1B7D64
:103F80001A46FFF70AFF019B1868009B1968009BFF
:103F90005B681A46FFF783FE009B1B7D012B22D135
:103FA000009B9B68B3F1FF3F05D0009B9B680021FD
:103FB0001846FFF775FF009BDB68B3F1FF3F09D0A0
:103FC000009BDB681846FFF791FF009BDB681846F3
:103FD000FFF755FF019B1868009BD968009B9B6801
:103FE0001A46FFF799FE00BF03B05DF804FB00001E
:103FF00000B583B001900B468DF80330019B1B6820
:104000004FF48E711846FFF7DFFD019B1B684FF4DC
:10401000A2711846FFF7D8FD019B1B680E49184690
:10402000FFF7F9FD019B1B681846FFF789FD034662
:104030001A469DF8033019461046FFF789FD019B8B
:104040001B681846FFF77CFD03461846FFF7A0FDE6
:1040500000BF03B05DF804FB8000020000B583B030
:104060000190019B1B6808491846FFF7EEFD019B74
:104070001B681846FFF764FD03461846FFF796FDD8
:1040800000BF03B05DF804FB8402020000B587B0F6
:104090000190019B1B681846FFF71EFE0590019BCF
:1040A0001B681846FFF720FE0490019B1B6818460A
:1040B000FFF722FE0390019B1B681846FFF724FEC2
:1040C0000290019B1B681846FFF7F8FD019B1B68D7
:1040D0001846FFF730FE059BB3F1FF3F02D005986D
:1040E000FFF7F3FE049BB3F1FF3F02D00498FFF704
:1040F000ECFE029BB3F1FF3F02D00298FFF7E5FE12
:10410000039BB3F1FF3F02D00398FFF7DEFE00BF31
:1041100007B05DF804FB000000B587B00390029182
:104120000192029B002B03D12D49AA20FDF77AFCB6
:10413000039B1B791A462C2303FB02F3294A1344E1
:10414000049300230593049B93F82A30002B03D09B
:1041500008230593059B3EE0039B1A68039B1B798C
:104160001946214B53F8213019461046FEF782FFBD
:104170000346002B03D011230593059B2BE00299E6
:104180000398FFF7D1FE049B019A5A60029B1A69BB
:10419000049B1A60049B5B68002B05D0029B1B7F6D
:1041A00019460398FFF724FF039B1B681846FFF787
:1041B00064FD049B00229A61049B0022DA61049B47
:1041C000002283F82920049B00225A61049B0122CB
:1041D00083F82A20059B184607B05DF804FB00BF52
:1041E00050670000F00600209467000000B585B01D
:1041F0000190019B1B791A462C2303FB02F3114A01
:1042000013440393019B1B681846FFF73FFD039B74
:104210005B68002B02D00198FFF720FF0198FFF7A1
:1042200035FF019B1B681846FEF75EFF039B0022CB
:1042300083F82A20039B00225A6000BF05B05DF876
:1042400004FB00BFF006002000B585B0019000918E
:104250004FF48E710198FFF7B7FC009B9A68009BA2
:104260001B6A13441B788DF80F30009B1B6A5A1C85
:10427000009B1A629DF80F3019460198FFF772FDF6
:1042800000BF05B05DF804FB00B585B0019000915A
:10429000009B5B69039316E0009B93F82830DBB228
:1042A000002B01D0002314E04FF48E710198FFF72A
:1042B000A0FC034683F00103DBB2002BECD1009994
:1042C0000198FFF7C1FF009B1B6A039A9A42EBD843
:1042D0000123184605B05DF804FB000000B587B067
:1042E000039002910192039B1B791A462C2303FB36
:1042F00002F33C4A13440493049B93F82A30012BA5
:1043000004D039494FF48C70FDF78CFB029B002BD5
:1043100004D1354940F21910FDF784FB019B002BB5
:1043200004D131494FF48D70FDF77CFB039800F008
:104330005DF80346002B03D011230593059B4CE049
:10434000049B019A5A61049B029A9A60049B002282
:104350001A62049B002283F8282000230593039B04
:104360001B684FF48E711846FFF72EFC039B1B68E9
:1043700008211846FFF703FD039B1B6804991846A4
:10438000FFF762FF049B5B68002B25D1039B1B6832
:1043900004991846FFF778FF034683F00103DBB268
:1043A000002B02D00F23059313E000BF039B1B6873
:1043B0004FF48E711846FFF71CFC034683F001038F
:1043C000DBB2002BF2D1039B1B680C211846FFF7D0
:1043D000D6FC049B00225A61059B184607B05DF885
:1043E00004FB00BFF00600205067000082B001907F
:1043F000019B1B791946074A2C2303FB01F3134445
:1044000014331B68002B14BF01230023DBB21846B2
:1044100002B07047F006002010B582B00190009104
:10442000009B9B69002B08D14FF484710198FFF722
:10443000CBFB0198FFF78DFC13E04FF484710198DA
:10444000FFF7C2FB009BDA68009B5B6AD4180198F7
:10445000FFF77FFC03462370009B5B6A5A1C009B9E
:104460005A6202B010BD00B589B00390029101926A
:1044700001238DF81030029B0693019B0593039B4B
:104480005B68039A116804AA1046984700BF09B0F8
:104490005DF804FB00B587B00190009100238DF812
:1044A0000830009B0493019B9B680393019B0022AF
:1044B0005A61019B5B68019A116802AA10469847ED
:1044C00000BF07B05DF804FB00B58BB00190009110
:1044D0004FF400710198FFF7A8FB0346002B39D079
:1044E0004FF492710198FFF784FB0346002B31D003
:1044F0004FF492710198FFF767FB4FF40171019837
:10450000FFF7A3FB009B93F8293083F00103DBB294
:10451000002B03D004210198FFF731FC02238DF812
:104520000C300198FFF79BFB03460693009B9B69A9
:104530000593009BDB680493009B00229A61009B1B
:104540000022DA61009B5B68009A116803AA10469A
:10455000984752E004210198FFF767FB0346002BC0
:104560004BD04FF484710198FFF743FB0346002BB7
:1045700043D000990198FFF74FFF009B9A69009B79
:104580005B6A9A4239D1009BDB69002B19D0009BF2
:10459000DB680993009B5B6A0893009BDA69009BC8
:1045A0009A61009B1A69009BDA60009B0022DA6125
:1045B000009B00225A62099A08990098FFF753FF5E
:1045C0001BE0009B93F8293083F00103DBB2002B42
:1045D00003D004210198FFF7D2FB4FF40171019839
:1045E000FFF733FB009B00229A61009B596A009BF6
:1045F000DB681A460098FFF736FF4FF48E7101987A
:10460000FFF7F7FA0346002B24D0009B5B69079362
:10461000009B1B6A079A9A420DD9009B93F8283099
:10462000DBB283F00103DBB2002B04D000990198C8
:10463000FFF70AFE0EE04FF48E710198FFF7C4FAFF
:10464000009B5B69002B05D0009B5B6919460098B5
:10465000FFF720FF4FF4A2710198FFF7CAFA034653
:10466000002B1CD04FF4A2710198FFF7ADFA009B0C
:1046700093F82930002B03D000210198FFF77FFB2E
:10468000009B9B69002B0AD0009B00229A61009B33
:10469000596A009BDB681A460098FFF7E4FE00BFEA
:1046A0000BB05DF804FB000008B503490348FFF7B1
:1046B0000BFF00BF08BD00BFF00600200020004037
:1046C00082B003468DF807309DF8073003F01F02D3
:1046D00005499DF907305B09012000FA02F241F813
:1046E000232000BF02B0704700E100E082B0034623
:1046F0008DF807309DF8073003F01F0206499DF939
:1047000007305B09012000FA02F2203341F8232030
:1047100000BF02B0704700BF00E100E082B0034676
:1047200000918DF807309DF90730002B0CDA009BC3
:10473000DAB20C499DF8073003F00F03043B520135
:10474000D2B20B441A7609E0009BDAB206499DF911
:1047500007305201D2B20B4483F8002300BF02B0ED
:10476000704700BF00ED00E000E100E082B0019082
:10477000019B03F06043B3F1005F0CBF01230023F2
:10478000DBB2184602B0704782B00190019B1B0B50
:104790005BB2184602B0704700B583B003460A46C4
:1047A0008DF8073013468DF806309DF80630072B3C
:1047B00003D908496B20FDF735F99DF806209DF9CE
:1047C000073011461846FFF7A9FF00BF03B05DF898
:1047D00004FB00BF9867000000B583B003468DF866
:1047E00007309DF907301846FFF76AFF00BF03B096
:1047F0005DF804FB00B583B003468DF807309DF9E2
:1048000007301846FFF772FF00BF03B05DF804FBE6
:1048100084B001900B46ADF80230BDF80230019A29
:10482000134400221A60BDF80230019A13441B6839
:104830000393039B00BF04B0704782B001900B4606
:10484000ADF80230BDF80230019A13441B68002B0A
:1048500014BF01230023DBB2184602B0704782B0B8
:1048600001900091019BD3F80022009BDB431A408A
:10487000019BC3F8002200BF02B0704782B00190D4
:104880000091019B009AC3F8042300BF02B0704757
:1048900082B001900091019B009AC3F8082300BFE9
:1048A00002B0704784B00190019BD3F88034039329
:1048B000019B039AC3F88024039B184604B07047F9
:1048C00082B00190019B0822C3F8002500BF02B00E
:1048D000704782B00190019B0022C3F8002500BF01
:1048E00002B0704784B0039002910192039B029A38
:1048F000C3F80C25039B019AC3F8142500BF04B02C
:10490000704700B583B001904FF0FF324FF0FF3198
:104910000198FFF7E7FF00BF03B05DF804FB82B02A
:104920000190019BD3F80C35184602B0704782B055
:104930000190019BD3F81435184602B0704782B03D
:104940000190019BD3F80835184602B0704782B039
:104950000190019BD3F81035184602B0704784B01F
:10496000039002910192039B029AC3F80825039BCE
:10497000019AC3F8102500BF04B0704700B583B09A
:1049800001904FF0FF324FF0FF310198FFF7E7FF42
:1049900000BF03B05DF804FB82B001900B468DF8B8
:1049A00003309DF80330019A134401221A6000BFBE
:1049B00002B0704782B001900B468DF80330134669
:1049C0008DF802309DF803209DF802301343DBB2CE
:1049D0001A46019BC3F86C2500BF02B0704782B035
:1049E00001900091019B009AC3F8242500BF02B0FA
:1049F000704784B0039002910192029A039BC3F81E
:104A00004425039B019AC3F8482500BF04B07047B2
:104A100082B00190019BD3F84C35184602B0704724
:104A200082B00190019BD3F83C35184602B0704724
:104A300000B583B00190019B1B682F2B04D90B4953
:104A400040F2CD10FCF7EEFF019B1B681F2B02D834
:104A50004FF0A04306E0019B1B6803F01F02019B7F
:104A60001A60034B184603B05DF804FBBC670000F6
:104A70000003005000B585B00190084611461A4663
:104A800003468DF803300B468DF8023013468DF83F
:104A9000013001AB1846FFF7CBFF03909DF80320D0
:104AA0009DF802305B001A439DF801309B001A43C9
:104AB0009DF818301B0242EA03019DF81C301B04CC
:104AC000019A1943039B02F5E07243F8221000BFDC
:104AD00005B05DF804FB00B585B003900023019399
:104AE000002300930023012201210398FFF7C2FF56
:104AF00000BF05B05DF804FB00B585B003900B4620
:104B00008DF80B309DF80B300022019200220092AC
:104B1000002200210398FFF7ADFF00BF05B05DF84C
:104B200004FB00B585B0039000230193002300939C
:104B30000023012200210398FFF79CFF00BF05B06E
:104B40005DF804FB00B585B0019001AB1846FFF796
:104B50006FFF0390019B012202FA03F319460398A9
:104B600000F004F800BF05B05DF804FB82B00190CE
:104B70000091019B009AC3F8082500BF02B070475E
:104B800000B583B001900091009B1B68B3F1FF3F1B
:104B900009D0009B1B681846FFF7D4FF009B1B68D9
:104BA0001846FFF798FF009B5B68B3F1FF3F05D005
:104BB000009B5B6800211846FFF79EFF019B1A6867
:104BC000009B9B6919461046FFF709FF019B186877
:104BD000009B597D009B1B7D1A46FFF7EBFE019B56
:104BE0001868009B1968009B5B681A46FFF77AFEFD
:104BF000009B1B7D012B22D1009B9B68B3F1FF3FE3
:104C000005D0009B9B6800211846FFF775FF009BAD
:104C1000DB68B3F1FF3F09D0009BDB681846FFF764
:104C200091FF009BDB681846FFF755FF019B186852
:104C3000009BD968009B9B681A46FFF790FE00BF57
:104C400003B05DF804FB000000B583B001900B4693
:104C50008DF80330019B1B684FF488711846FFF7ED
:104C6000D7FD019B1B684FF490711846FFF7D0FDEC
:104C7000019B1B684FF492711846FFF7C9FD019B19
:104C80001B684FF4A2711846FFF7C2FD019B1B6819
:104C90004FF4AC711846FFF7BBFD019B1B680F4931
:104CA0001846FFF7EBFD019B1B681846FFF76CFDEC
:104CB00003461A469DF8033019461046FFF76CFD6F
:104CC000019B1B681846FFF75FFD03461846FFF778
:104CD00083FD00BF03B05DF804FB00BF100342007A
:104CE00000B583B00190019B1B6808491846FFF787
:104CF000CFFD019B1B681846FFF746FD034618468B
:104D0000FFF778FD00BF03B05DF804FB100342001D
:104D100000B587B00190019B1B681846FFF7FFFDA7
:104D20000590019B1B681846FFF701FE0490019B4C
:104D30001B681846FFF703FE0390019B1B6818468B
:104D4000FFF705FE0290019B1B681846FFF7D9FD8F
:104D5000019B1B681846FFF711FE059BB3F1FF3F4F
:104D600002D00598FFF7DDFE049BB3F1FF3F02D0B0
:104D70000498FFF7D6FE029BB3F1FF3F02D00298E2
:104D8000FFF7CFFE039BB3F1FF3F02D00398FFF77D
:104D9000C8FE00BF07B05DF804FB000000B587B097
:104DA000039002910192029B002B03D12B49CF204B
:104DB000FCF738FE039B1B791A461346DB001344AD
:104DC0009B00274A1344049300230593049B93F804
:104DD0002030002B03D008230593059B3AE0039B6A
:104DE0001A68039B1B7919461E4B53F8213019464C
:104DF0001046FEF73FF90346002B03D0112305931D
:104E0000059B27E002990398FFF7BAFE049B019ADD
:104E10005A60029B1A69049B1A60049B5B68002B12
:104E200005D0029B1B7F19460398FFF70DFF039BDC
:104E30001B681846FFF744FD049B00229A61049BFF
:104E40000022DA61049B00225A61049B012283F84C
:104E50002020059B184607B05DF804FBE8670000BA
:104E60001C0700202C68000000B585B00190019B54
:104E70001B791A461346DB0013449B00244A134453
:104E80000393039B5B68002B02D00198FFF728FF78
:104E9000019B1B6820211846FFF7E1FC019B1B6862
:104EA00004211846FFF778FD019B1B684FF4AC7195
:104EB0001846FFF7ADFC019B1B680C211846FFF755
:104EC0006BFD00BF019B1B684FF4AC711846FFF7E8
:104ED000B4FC034683F00103DBB2002BF2D1019B4B
:104EE0001B681846FFF7F5FC0198FFF711FF019BBF
:104EF0001B681846FEF7F8F8039B002283F8202071
:104F0000039B00225A6000BF05B05DF804FB00BFA0
:104F10001C07002000B589B0039002910192039B09
:104F20001B791A461346DB0013449B00574A13446F
:104F30000593059B93F82030012B04D0544940F28F
:104F40002D10FCF76FFD029B002B04D150494FF44C
:104F50009770FCF767FD019B002B04D14C4940F290
:104F60002F10FCF75FFD039B1B79002B03D1019BE6
:104F7000B3F5803F04D346494FF49870FCF752FDD7
:104F80000298FFF7F3FB034683F00103DBB2002B2B
:104F900003D010230793079B73E0039800F07AF87F
:104FA0000346002B03D011230793079B69E0059B61
:104FB000019A5A61059B029A9A6000230793039B0A
:104FC0001B684FF490711846FFF722FC039B1B6887
:104FD0004FF4AC711846FFF71BFC039B1868059B48
:104FE0009968059B5B691A46FFF703FD039B1B68E5
:104FF00008211846FFF7D0FC059B5B68002B3FD1CA
:10500000039B1B684FF490711846FFF716FC03468C
:105010008DF81B30039B1B684FF4AC711846FFF7EB
:105020000CFC03468DF81A309DF81B3083F0010309
:10503000DBB2002B06D09DF81A3083F00103DBB2FF
:10504000002BDDD19DF81A30002B02D00F230793DF
:1050500013E0039B1B680C211846FFF79DFC00BF63
:10506000039B1B684FF4AC711846FFF7E6FB034641
:1050700083F00103DBB2002BF2D1059B00225A61C1
:10508000079B184609B05DF804FB00BF1C07002011
:10509000E867000082B00190019B1B791946084A1D
:1050A0000B46DB000B449B00134414331B68002B9E
:1050B00014BF01230023DBB2184602B0704700BFC3
:1050C0001C07002000B589B00390029101920123D2
:1050D0008DF81030029B0693019B0593039B5B6840
:1050E000039A116804AA1046984700BF09B05DF8FA
:1050F00004FB00B587B00190009100238DF80830C3
:10510000009B0493019B9B680393019B00225A61BF
:10511000019B5B68019A116802AA1046984700BF7C
:1051200007B05DF804FB00B589B0019000914FF421
:1051300092710198FFF781FB0346002B22D04FF4B8
:1051400092710198FFF764FB02238DF808300198F3
:10515000FFF7A8FB034605930198FFF761FC0346A0
:105160000493009BDB680393009B00229A61009BE1
:105170000022DA61009B5B68009A116802AA10465F
:1051800098473BE04FF488710198FFF756FB0346C0
:10519000002B33D04FF488710198FFF739FB019849
:1051A000FFF73EFC0790009B9B69079A9A4225D126
:1051B000009BDB69002B17D0009BDB680693202146
:1051C0000198FFF74CFB009BDA69009B9A61009BFA
:1051D0001A69009BDA60009B0022DA61069A07993F
:1051E0000098FFF76FFF09E0009B00229A61009B87
:1051F000DB681A4607990098FFF764FF4FF4A27125
:105200000198FFF71AFB0346002B18D04FF4A27148
:105210000198FFF7FDFA009B9B69002B0FD0009BC4
:1052200000229A61009B0022DA610198FFF7F8FBE7
:105230000146009BDB681A460098FFF743FF4FF4D6
:1052400090710198FFF7F9FA0346002B14D04FF440
:1052500090710198FFF7DCFA0C210198FFF79CFB95
:10526000009B5B69002B07D00198FFF7D1FB034639
:1052700019460098FFF73DFF4FF4AC710198FFF716
:10528000DCFA0346002B10D04FF4AC710198FFF705
:10529000BFFA009B5B69002B07D00198FFF7B8FBB2
:1052A000034619460098FFF724FF00BF09B05DF8D8
:1052B00004FB000008B503490348FFF734FF00BFB3
:1052C00008BD00BF1C0700200020004000B585B0CD
:1052D0000190019B002B0AD0074B43F0010303937D
:1052E000019B9B010293039B0298984700E000BF3B
:1052F00005B05DF804FB00BF3068000000B583B066
:105300000190019B002B0AD04FF47A70FFF7DEFF6B
:10531000019B013B0193019B002BF5D100E000BFF5
:1053200003B05DF804FB0000024B01221A7000BFBD
:10533000704700BF9007002000B583B00120FCF744
:105340000BFA1B4800F06CF800238DF807304F2350
:105350001A460021174800F041FB9DF80730164A15
:1053600098189DF80730134A1A440123012100F0D0
:105370008BF801E020BF00BF104B1B78DBB283F03D
:105380000103DBB2002BF5D19DF8073001334F222A
:10539000013A93FBF2F102FB01F29B1A8DF8073000
:1053A0000020FCF78BF94FF4FA70FFF7A7FFCEE768
:1053B00029530000400700205400002090070020DF
:1053C00000B58FB003900291009313468DF807301B
:1053D00000230D93029B09939DF807300A93009BCD
:1053E0000B939DF840300C93039B043309A90022D2
:1053F0001846FEF799FA0D900D9B18460FB05DF810
:1054000004FB000000B583B001900091034B1B68C2
:10541000984700BF03B05DF804FB00BF940700206D
:1054200010B588B00190134A019B1360124B03AC76
:105430000FCB84E80F001F238DF80F301E238DF84B
:105440000E301D238DF80D301A238DF80C3003A972
:1054500000230A4A0A48FDF7FDF90790079B002B35
:1054600004D0084A1B210798FCF7DAF900BF08B0FE
:1054700010BD00BF940700207468000005540000B0
:10548000386800004868000000B589B005900392B4
:105490001A460B468DF8133013468DF812309DF8DE
:1054A00013209DF812300093039B05990748FFF7DE
:1054B00087FF0790079B002B04D0054A21210798FE
:1054C000FCF7AEF900BF09B05DF804FB38680000D6
:1054D00048680000BFF34F8F00BF074BDB6803F441
:1054E000E0620549054B1343CB60BFF34F8F00BF0C
:1054F00000BF00BFFCE700BF00ED00E00400FA05BC
:10550000024B034A1A6000BF704700BFA40000208E
:105510000090D00308B500F027F90346002B0ED009
:105520004FF080430022C3F80C214FF0804300224B
:10553000C3F810214FF080430022C3F8382500F053
:1055400037F90346002B76D04FF080537D4AD3F8CD
:105550000434C2F820354FF080537A4AD3F8083427
:10556000C2F824354FF08053764AD3F80C34C2F891
:1055700028354FF08053734AD3F81034C2F82C35D5
:105580004FF080536F4AD3F81434C2F830354FF0DF
:1055900080536C4AD3F81834C2F834354FF0805336
:1055A000684AD3F81C34C2F840354FF08053654A3E
:1055B000D3F82034C2F844354FF08053614AD3F811
:1055C0002434C2F848354FF080535E4AD3F828346B
:1055D000C2F84C354FF080535A4AD3F82C34C2F8F5
:1055E00050354FF08053574AD3F83034C2F8543511
:1055F0004FF08053534AD3F83434C2F860354FF03B
:105600008053504AD3F83834C2F864354FF0805391
:105610004C4AD3F83C34C2F868354FF08053494ABD
:10562000D3F84034C2F86C354FF08053454AD3F874
:105630004434C2F8703500F0DFF80346002B02D086
:10564000414B424A1A6000F0E9F80346002B03D0B0
:105650003F4BFB22C3F8182500F0F2F80346002B5D
:105660000AD03C4B1B6823F00F023B4B1B6803F036
:105670000F03384913430B6000F0F4F80346002B86
:1056800003D0364B4FF400721A6000F0FDF8034669
:10569000002B0DD04FF08043D3F8003403F001030A
:1056A000002B05D04FF080436FF00102C3F80024B7
:1056B0002B4BD3F888302A4A43F47003C2F8883061
:1056C000BFF34F8F00BFBFF36F8F00BF4FF01023AA
:1056D000D3F80032002B05DB4FF01023D3F804324F
:1056E000002B2BDA1F4B0122C3F8042500BF1D4BF2
:1056F000D3F80034002BFAD04FF010231222C3F855
:10570000002200BF174BD3F80034002BFAD04FF023
:1057100010231222C3F8042200BF124BD3F8003426
:10572000002BFAD00F4B0022C3F8042500BF0D4B0D
:10573000D3F80034002BFAD0FFF7CCFEFFF7E0FEE1
:1057400000BF08BD00C000408C56004048810300E7
:1057500000F00040E40E0040580200104096024065
:1057600000ED00E000E001400F4B1B68082B17D153
:105770000E4B1B68002B01D1012312E00B4B1B6861
:10578000012B01D101230CE0084B1B68022B01D136
:10579000012306E0054B1B68032B01D1012300E028
:1057A00001231846704700BF30010010340100107B
:1057B0000F4B1B68082B17D10E4B1B68002B01D118
:1057C000012312E00B4B1B68012B01D101230CE0DC
:1057D000084B1B68022B01D1012306E0054B1B6817
:1057E000032B01D1012300E001231846704700BFBD
:1057F0003001001034010010064B1B68082B05D146
:10580000054B1B68002B01D1012300E00023184643
:10581000704700BF3001001034010010064B1B68B8
:10582000082B05D1054B1B68002B01D1012300E09B
:1058300000231846704700BF3001001034010010EB
:10584000064B1B68082B05D1054B1B68002B01D1AB
:10585000012300E000231846704700BF300100100C
:1058600034010010064B1B68082B05D1054B1B6843
:10587000002B01D1012300E000231846704700BF30
:1058800030010010340100100F4B1B68082B17D19A
:105890000E4B1B68002B01D1012312E00B4B1B6840
:1058A000012B01D101230CE0084B1B68022B01D115
:1058B000012306E0054B1B68032B01D1012300E007
:1058C00001231846704700BF30010010340100105A
:1058D0007F2805D8034B185C034B5B5C184070476E
:1058E000002070479068000010690000A0F161037B
:1058F000192B98BF20387047A0F14103192B98BF8E
:10590000203070477F2805D8034B185C034B5B5C45
:105910001840704700207047906800001069000030
:10592000A0F16103192B98BF20387047A0F1410303
:10593000192B98BF203070477F299ABF0170012032
:105940006FF02E0070475AB10A787F2A0AD800B14A
:105950000260002119605960501A18BF0120704779
:10596000002070476FF02E007047000008B5034B11
:105970005B689B681B68984708BD00BFA8000020B3
:1059800008B50921FFF7F2FF08BD844640EA01038C
:1059900013F0030F18D18446202A0BD32DE9F0070A
:1059A000B1E8F807A0E8F807A2F12002202AF7D210
:1059B000BDE8F007042A07D351F8043B40F8043B44
:1059C000A2F10402042AF7D2002A05D011F8013B03
:1059D00000F8013B013AF9D1604670478446002A3D
:1059E0002DD010F0030F04D000F8011B013A26D08F
:1059F000F7E7C9B241EA012141EA0141202A12D365
:105A0000A2F120022DE9F0030B460C460D460E468E
:105A10000F4688468946A0E8FA03203AFBD2BDE843
:105A2000F00320320BD0042A05D340F8041B043ABB
:105A300005D0042AF9D200F8011B013AFBD16046D7
:105A4000704700F1010110F0030F11D010F8012B85
:105A5000002A23D010F0030F0AD010F8012B002ADF
:105A60001CD010F0030F03D010F8012B002A15D022
:105A70002DE970004FF001324FF0803350F8044BA5
:105A8000A4EB020525EA04051D4000D1F6E7A0F1CC
:105A9000040070BC10F8012B002AFBD1A0EB010020
:025AA00070474D
:105AA400D465000000000000206600000000000033
:105AB400B06600000000000048670000000000001D
:105AC400E067000000000000F45B00000000030336
:105AD400685D0000000000002C5E00000000000073
