:1000000000000420750300005D0300005F03000092
:1000100061030000630300006503000000000000AE
:100020000000000000000000000000006703000066
:1000300069030000000000006B0300006D03000076
:1000400089B600006F030000398F00002D96000074
:100050006F0300006F030000518C00006F0300006D
:1000600015BF00006F0300006F0300006F03000066
:100070006F0300006F0300006F0300006F030000B8
:100080006F030000E91600006F0300006F0300001B
:100090006F0300006F0300006F0300006F03000098
:1000A0006F0300006F0300006F0300006F03000088
:1000B0006F0300006F03000000000000000000005C
:1000C0006F0300006F0300006F0300006F03000068
:1000D0006F0300006F0300006F0300006F03000058
:1000E0006F0300006F0300006F03000000000000BA
:1000F000000000006F030000000000006F0300001C
:1001000000000000000000000000000000000000EF
:1001100000000000000000000000000000000000DF
:1001200000000000000000000000000000000000CF
:1001300000000000000000000000000000000000BF
:1001400000000000000000000000000000000000AF
:10015000000000000000000000000000000000009F
:10016000000000000000000000000000000000008F
:10017000000000000000000000000000000000007F
:10018000000000000000000000000000000000006F
:10019000000000000000000000000000000000005F
:1001A000000000000000000000000000000000004F
:1001B000000000000000000000000000000000003F
:1001C000000000000000000000000000000000002F
:1001D000000000000000000000000000000000001F
:1001E000000000000000000000000000000000000F
:1001F00000000000000000000000000000000000FF
:10020000354936480A1A02D0072291438D463449AF
:1002100034480A1A06D00722914381F30988022242
:1002200082F3148830483149314A00F044F83148AB
:100230003149324A00F03FF831483249324A00F041
:100240003AF832483249334A00F035F832483349F7
:10025000334A00F030F833483349344A00F02BF881
:1002600033483449344A00F026F8344834490022EF
:1002700000F02CF833483449002200F027F83348C6
:100280003349091A082902DB002202604160314A21
:1002900090471F481F49884205D00268043003B4C4
:1002A000904703BCF7E700208646EC46002000217B
:1002B000294A9047FEE7884207D0521A05D00378B2
:1002C00001300B700131013AF9D17047884202D0F8
:1002D00002700130FAE770470000042000E00320BC
:1002E00000000420000004201CE80000280000207A
:1002F00074000020D0030000D00300008AC7000073
:100300001CE8000028000020280000201CC8000075
:100310001CC800001CC800001CC800001CC800004D
:100320001CC800001CC800001CC800001AE800001F
:1003300068E80000740000207400002074000020B1
:1003400054070020540700205807002058070020B9
:10035000582700209D030000AD710000FEE7FEE776
:10036000FEE7FEE7FEE7FEE7FEE7FEE7FEE7FEE765
:1003700000F002B8FFF7FCBF0F484FF007018843B9
:1003800085460E4880470E48016841F470010160BF
:10039000BFF34F8FBFF36F8FFFF732BF09480A4992
:1003A0000A4A884207D0521A05D0037801300B70F0
:1003B0000131013AF9D17047000004204583000063
:1003C00088ED00E01CC8000000000020280000208C
:1003D000004870474C07002000B583B00190019B96
:1003E0001B682F2B04D90B4940F2CD1001F08AF97C
:1003F000019B1B681F2B02D84FF0A04306E0019B16
:100400001B6803F01F02019B1A60034B184603B0E0
:100410005DF804FB1CC800000003005000B585B067
:100420000190084611461A4603468DF803300B46E4
:100430008DF8023013468DF8013001AB1846FFF7F6
:10044000CBFF03909DF803209DF802305B001A4318
:100450009DF801309B001A439DF818301B0242EAB8
:1004600003019DF81C301B04019A1943039B02F5FC
:10047000E07243F8221000BF05B05DF804FB00B540
:1004800085B00390002301930023009300230122F1
:1004900001210398FFF7C2FF00BF05B05DF804FB20
:1004A00000B585B003900B468DF80B309DF80B30EE
:1004B0000022019200220092002200210398FFF7FF
:1004C000ADFF00BF05B05DF804FB00B585B001903D
:1004D00001AB1846FFF780FF0390019B012202FA4F
:1004E00003F31946039800F04CF800BF05B05DF81F
:1004F00004FB00B585B0019001AB1846FFF76CFF17
:100500000390019B012202FA03F31946039800F0BD
:1005100042F800BF05B05DF804FB00B585B001905E
:1005200001AB1846FFF758FF0390039BD3F804353F
:100530000293029BDA43019B012101FA03F31A4063
:10054000039BC3F80825019B01229A40029B1A4095
:10055000039BC3F80C2500BF05B05DF804FB00B594
:1005600083B001900091009B002B03D10198FFF70D
:10057000C0FF02E00198FFF7A8FF00BF03B05DF8DD
:1005800004FB82B001900091019B009AC3F80825FA
:1005900000BF02B0704782B001900091019B009AA9
:1005A000C3F80C2500BF02B07047000000B583B04F
:1005B0000190019B032B03D90749472001F0A2F8C2
:1005C000064A019B13441B7801211846FFF7C7FF19
:1005D00000BF03B05DF804FB40C8000084C8000001
:1005E00000B583B00023019305E00198FFF7DEFF1B
:1005F000019B01330193019B032BF6D900BF00BF80
:1006000003B05DF804FB000000B583B00190019BCE
:10061000032B03D907495F2001F074F8064A019BB8
:1006200013441B781846FFF778FF00BF03B05DF84E
:1006300004FB00BF40C8000084C8000000B583B0C0
:100640000023019309E0094A019B13441B781846D3
:10065000FFF715FF019B01330193019B032BF2D997
:10066000FFF7BEFF00BF03B05DF804FB84C80000C5
:1006700000B583B0002301930AE0094A019B1344AB
:100680001B7803211846FFF70BFF019B01330193F1
:10069000019B032BF1D900BF00BF03B05DF804FB41
:1006A00088C8000000B583B00190019B03F00103EE
:1006B000002B01D0FFF7C2FF019B03F00203002BC8
:1006C00001D0FFF7D5FF00BF03B05DF804FB0000C9
:1006D00086B003900291019201238DF817309DF8A6
:1006E0001730214A039B13601F4A029B53601E4A26
:1006F000019B9360039B44F20102934213D0039B3E
:1007000044F20202934221D1019B174AD360164B57
:10071000DB681B881A46144B9A61134BDB685B68D5
:10072000114AD36112E0019B0F4A13610E4B1B6902
:100730009B680D4A53610C4B1B691B680A4A936105
:10074000094B1B695B68084AD36100BF72B600BFE2
:1007500000BF9DF81730DBB2002BFAD162B600BFA4
:1007600000BF06B0704700BF7400002000B583B022
:1007700002900091019244F2010071466A4600F035
:1007800003F803B000BD00BF00B587B0039002912D
:10079000019272B600BF039B44F20102934207D05C
:1007A000039B44F20202934205D1019B059303E0AF
:1007B000019B049300E000BF074B1B6803F001039B
:1007C000002B00D000BE019A02990398FFF780FF2A
:1007D00000BF07B05DF804FBF0ED00E0F0B583B0BA
:1007E000124800F067FF034618464FF00001104B17
:1007F000D3E90023861841EB0307CDE900670D4BD1
:10080000D3E90023DDE90001994208BF904207D2F5
:10081000DDE9002312F1807443F10005CDE90045C4
:10082000DDE900231046194603B0F0BD2800002082
:10083000A0000020A800002088B001900091019B3A
:100840000793009B0693079BD3E90223CDE904237A
:10085000069BD3E90223CDE90223DDE90423DDE988
:100860000201994208BF90422CBF01230023DBB252
:10087000184608B07047000030B585B00190019B64
:100880005B69002B03D12B49A22000F03BFF002322
:100890008DF80F30284B1B78002B45D0019B002B87
:1008A00042D0019B1B7FDBB2002B3DD0FFF796FFB0
:1008B000019BD3E90223994208BF90422CD3019BAC
:1008C0001B69002B02D1019B00221A77019B5B69F7
:1008D000019A926910469847019B1B69002B23D00F
:1008E000019B1B7FDBB2002B1ED0019BD3E90201D1
:1008F000019B1B691A464FF00003841841EB030566
:10090000019BC3E90245019B19460C4802F00AFA13
:1009100001238DF80F3007E0019B1946074802F0CC
:1009200001FA01238DF80F309DF80F30184605B0FD
:1009300030BD00BF98C80000980000208CC800009F
:10094000F0B589B0019000910D230793009B002220
:100950001A70019BD3E90245FFF740FF02460B46A0
:10096000A61A65EB0307CDE90467DDE90423012A34
:1009700073F100031BDB049BB3F5350F05D300F0C7
:10098000A9FA0246154B134403E0019BD3E9022365
:10099000134603934FF49603039A0021104800F086
:1009A0008BFD0790079B002B05D1012313E000214D
:1009B0000B4800F059FE079B0D2B07D10198FFF75C
:1009C0005BFF03461A46009B1A7003E00549F520B9
:1009D00000F098FE0023184609B0F0BDFFFFB400F8
:1009E0002800002098C8000000B583B0044802F039
:1009F000D3F90190019B184603B05DF804FB00BFDA
:100A00008CC8000000B583B0044802F0E7F90190FB
:100A1000019B184603B05DF804FB00BF8CC80000C2
:100A200000B583B0FFF7E0FF0190019B002B02D0DF
:100A3000019B00221A77019B002BF3D100BF00BF5E
:100A400003B05DF804FB0000054BD3E9002312F16D
:100A5000807043F10001024BC3E9000100BF704701
:100A6000A000002000B583B00190134B1B68002B41
:100A70001DD0019800F01EFE0F4B1B68D3E9022326
:100A8000134623F07F43194600F018FA0346B3F5E6
:100A9000960F04D309494FF4957000F033FE064BCE
:100AA0001B681846FFF7E8FE034B00221A6000BFE0
:100AB00003B05DF804FB00BF9400002098C800005C
:100AC00000B583B00190FFF789FE02460B4603494B
:100AD000C1E9002300BF03B05DF804FBA8000020BB
:100AE00000B587B00190FFF78DFF049000238DF8CB
:100AF0001730049B002B48D02B4B1B68002B03D1D5
:100B000001238DF8173019E0049BD3E90201264B2D
:100B10001B68D3E90223994208BF90420ED20123F9
:100B20008DF81730204B1B681B7FDBB2002B05D0E4
:100B30001D4B1B6819461D4802F0F4F89DF817304C
:100B4000002B2AD0FFF750FF04900DF10F03194638
:100B50000498FFF7F5FE0346002B12D0124B1B68DA
:100B6000002B02D1019800F0B3FB0F4A049B1360E5
:100B70009DF80F3083F00103DBB2002BB3D000BF30
:100B80000EE0094B00221A60ADE7074B1B68002BF3
:100B900005D1019800F0B2FB01E000BF00E000BF0A
:100BA00000BF07B05DF804FB940000208CC8000073
:100BB00000B587B001902C4A03AB1946104600F0EF
:100BC0008DFE059048E0059B1B78022B2ED0022B52
:100BD00032DC002B02D0012B14D02DE0059B5B688A
:100BE0001B7FDBB283F00103DBB2002B26D0059B19
:100BF0005B6801221A77059B5B6819461B4802F067
:100C000091F81BE0059B5A68194B1B689A4203D167
:100C1000174B00221A6012E0059B5B6819461348C7
:100C200002F0F0F803468DF8133008E0FFF7F8FE05
:100C3000104B01221A7002E000BF00E000BF0A4A18
:100C400003AB1946104600F062FE074A03AB194693
:100C5000104600F043FE0590059B002BB3D100BF6A
:100C600000BF07B05DF804FB080100208CC800003D
:100C7000940000209800002000B583B001900198F6
:100C800000F0E5FC0346002B01D0FFF7DDFE00215C
:100C9000019800F0FAFC0346002B02D00198FFF700
:100CA000E1FE0121019800F0F0FC0346002B02D088
:100CB0000198FFF705FF0198FFF77AFF0198FFF70A
:100CC0000FFF00BF03B05DF804FB000008B5024849
:100CD00000F0FDFC00BF08BD2800002000B585B075
:100CE000034600918DF80730114A02AB19461046B1
:100CF00000F0C7FD0390039B002B13D0039B9DF8CE
:100D000007201A70039B009A5A60094A02AB1946E1
:100D1000104600F0CFFD0346002B01D0FFF7D6FFB1
:100D2000002300E00423184605B05DF804FB00BF73
:100D30000801002000B583B0164B1B6800931648CD
:100D400008235822154900F069FD0190019B002BF2
:100D500001D0019B19E06B46114A1946114800F079
:100D600057FA0190019B002B01D0019B0DE001215E
:100D70000C4800F05BFC01230B4A0121094800F0FC
:100D8000D3FA0A4B01221A70019B184603B05DF892
:100D900004FB00BFE8C8000008010020B0000020EC
:100DA000790C000028000020FFFF7F009800002041
:100DB00000B587B003900B4601928DF80B30039B72
:100DC000002B04D1134940F22E2000F09BFC019B24
:100DD000002B04D10F4940F22F2000F093FC019B1F
:100DE000002B01D1072310E0039B1B680593059B93
:100DF000019A5A619DF80B30012B0CBF012300238F
:100E0000DBB21A46059B1A610023184607B05DF84D
:100E100004FB00BF98C8000030B587B00390029172
:100E20000192039B002B04D1154940F23E2000F0B3
:100E300069FC039B0593059B1B7FDBB2002B01D054
:100E400000231AE0059B019A9A61FFF7C7FC029BF9
:100E50001A464FF00003841841EB0305059BC3E9D4
:100E60000245059B1B69002B02D0059B029A1A6163
:100E700005990020FFF732FF0346184607B030BD42
:100E800098C8000000B585B00190019B002B04D1EB
:100E900009494FF4157000F035FC019B0393039B47
:100EA00000221A7703990120FFF718FF034618461E
:100EB00005B05DF804FB00BF98C8000082B0019047
:100EC0000091019A009BD31A23F07F43184602B089
:100ED0007047000008B5034800F0ECFB03461846D5
:100EE00008BD00BF2800002072B600BF034B1B687E
:100EF0000133024A136000BF704700BF1C0100208D
:100F0000064B1B68013B054A1360044B1B68002B12
:100F100001D162B600BF00BF704700BF1C010020B6
:100F200000B583B0019000F025F80346012B03D0F3
:100F30000449432000F0E6FBFFF7D6FF00BF03B0F3
:100F40005DF804FBECC8000000B583B003468DF8E3
:100F5000073000F00FF80346012B03D0044951205D
:100F600000F0D0FBFFF7CCFF00BF03B05DF804FB3F
:100F7000ECC8000084B0EFF305830193019BC3F339
:100F800008030393039B002B0DD1EFF3148300930D
:100F9000009B0293029B03F00103002B0CBF012373
:100FA0000023DBB200E00123184604B070470000C4
:100FB00082B003468DF807309DF8073003F01F021A
:100FC00005499DF907305B09012000FA02F241F85A
:100FD000232000BF02B0704700E100E082B003466A
:100FE0008DF807309DF8073003F01F0206499DF980
:100FF00007305B09012000FA02F2403341F8232058
:1010000000BF02B0704700BF00E100E082B00346BD
:1010100000918DF807309DF90730002B0CDA009B0A
:10102000DAB20C499DF8073003F00F03043B52017C
:10103000D2B20B441A7609E0009BDAB206499DF958
:1010400007305201D2B20B4483F8002300BF02B034
:10105000704700BF00ED00E000E100E000B583B0A4
:1010600003460A468DF8073013468DF806309DF882
:101070000630072B03D908496B2000F043FB9DF88D
:1010800006209DF9073011461846FFF7BFFF00BF45
:1010900003B05DF804FB00BF44C9000000B583B095
:1010A00003468DF807309DF907301846FFF780FF9B
:1010B00000BF03B05DF804FB00B585B00190019B53
:1010C000002B0AD0074B43F001030393019B9B01C4
:1010D0000293039B0298984700E000BF05B05DF8BB
:1010E00004FB00BFE0C9000084B0039002910192AC
:1010F000039B029A02F5A872019943F8221000BFDF
:1011000004B0704782B001900091019B009A02F5F3
:10111000A87253F82230184602B0704782B001908E
:101120000091019B009AC3F8042300BF02B07047EE
:1011300082B001900091019B009AC3F8082300BF80
:1011400002B0704782B001900B46ADF80230BDF896
:101150000230019A13441B68184602B0704784B0ED
:1011600001900B46ADF80230BDF80230019A1344ED
:1011700000221A60BDF80230019A13441B680393E1
:10118000039B00BF04B0704782B00190019BD3F86D
:101190000435184602B0704700B583B00190009145
:1011A000009BB3F5805F04D306494FF4BE7000F096
:1011B000A9FA019B009AC3F8082500BF03B05DF8A7
:1011C00004FB00BF68C9000082B001900B468DF897
:1011D00003309DF80320019B13441A46012313603A
:1011E00000BF02B0704782B001900091019B009A4D
:1011F000C3F8442300BF02B0704782B00190009151
:10120000019B009AC3F8482300BF02B0704700005A
:1012100000B587B0039002910192039B002B03D18C
:101220002849552000F06EFA029B002B03D1254976
:10123000562000F067FA019B002B03D1214957206B
:1012400000F060FA039B5B7919461F4A019B42F844
:101250002130039B5B791D4ADB0013441B79002B73
:1012600003D008230593059B27E0039B1A68029B84
:101270001B8819461046FFF78FFF039B93F9042044
:10128000029B9B7819461046FFF7E8FE039B93F9F3
:1012900004301846FFF702FF039B5B790B4ADB0023
:1012A000134401221A71039B5B791946074A039B79
:1012B00042F8313000230593059B184607B05DF8CE
:1012C00004FB00BF8CC90000200100202401002085
:1012D00000B583B00190019B002B03D10649872004
:1012E00000F010FA019B1B6800211846FFF76CFF05
:1012F00000BF03B05DF804FB8CC9000000B583B0EB
:101300000190019B002B03D106498D2000F0FAF9D2
:10131000019B1B6804211846FFF756FF00BF03B06E
:101320005DF804FB8CC9000000B587B00390029102
:1013300001928DF80330039B002B03D121499620A5
:1013400000F0E0F94FF48032029B02FA03F30593B8
:10135000029B50339BB29B00ADF81230019B23F0EF
:101360007F430193039B1B6805991846FFF7E0FE36
:10137000039B1B6805991846FFF73FFF039B1B68FB
:10138000BDF8122011461846FFF7E9FE039B1B68C3
:10139000019A02991846FFF7A7FE039B1B6805995F
:1013A0001846FFF720FF9DF80330002B05D0039B64
:1013B0001B6805991846FFF7B1FE00BF07B05DF83E
:1013C00004FB00BF8CC9000000B585B003900291FA
:1013D00013468DF80730039B002B03D10B49A9203E
:1013E00000F090F9039B1B6802991846FFF7FBFE7B
:1013F0009DF80730002B05D0039B1B680299184607
:10140000FFF78CFE00BF05B05DF804FB8CC900003F
:1014100000B583B001900091019B002B03D10A49D4
:10142000B32000F06FF9019B1B6800991846FFF785
:10143000E4FE019B1B6800991846FFF779FE00BF88
:1014400003B05DF804FB00BF8CC9000000B583B099
:1014500001900B46ADF80230019B002B03D10F49E0
:10146000BA2000F04FF9019B1B68BDF8022011461D
:101470001846FFF767FE0346002B09D0019B1B6847
:10148000BDF8022011461846FFF769FE012300E06F
:101490000023184603B05DF804FB00BF8CC90000B0
:1014A00082B001900091019A009BD31A23F07F43F0
:1014B000184602B07047000000B58BB0039002914F
:1014C00001920093039B002B03D15749CD2000F0DC
:1014D00019F94FF48032029B02FA03F30993029B3D
:1014E00050339BB29B00ADF82230019B23F07F4329
:1014F000019309990398FFF78BFF039B1B6818461C
:10150000FFF742FE0790039B1B6802991846FFF7FE
:10151000F9FD0690039B1B68079A02991846FFF78E
:10152000E3FD039B1B68BDF8222011461846FFF718
:1015300016FE07990698FFF7B3FF0346012B0AD161
:101540001020FFF7B9FD039B1B68BDF82220114650
:101550001846FFF704FE039B1B681846FFF714FEAE
:10156000079007990198FFF79BFF0590039B1B6865
:1015700009991846FFF737FE059B012B15D1039BF0
:101580001868019B01331A460299FFF7ADFD102040
:10159000FFF792FD039B1B681846FFF7F5FD024617
:1015A000079B934235D00D2339E0039B1B68019ABA
:1015B00002991846FFF798FD039B1B681846FFF732
:1015C000E3FD0790019B013B07991846FFF768FF71
:1015D0000590009BC3F1FF1303F57F43059A9A42E0
:1015E00001D90D231BE0059B002B12D1039B18682A
:1015F000019B01331A460299FFF776FD039B1B6896
:101600001846FFF7C1FD0246079B934201D00D2308
:1016100005E0012209990398FFF7D6FE002318463A
:101620000BB05DF804FB00BF8CC9000000B583B0AF
:1016300001900B468DF803309DF803301A460221C5
:101640000198FFF7C1FE00BF03B05DF804FB00B5D1
:1016500083B001904FF482710198FFF7F7FE0346C3
:10166000184603B05DF804FB00B583B0019000910B
:101670004FF48032009B02FA03F319460198FFF7FA
:10168000C7FE00BF03B05DF804FB00B585B0019054
:101690000091009B50339BB29B00ADF80E30BDF81B
:1016A0000E3019460198FFF7D1FE0346184605B0E3
:1016B0005DF804FB00B583B00190019B1B681846E0
:1016C000FFF762FD0346184603B05DF804FB00B562
:1016D00083B00190019B93F904301846FFF77EFC1C
:1016E00000BF03B05DF804FB08B5044B1B68044A57
:1016F00012681046984700BF08BD00BF20010020B7
:101700002401002000B585B003460091ADF80630F5
:10171000BDF80630ADF80830009B039302AB1A46C3
:10172000002144F20200FFF72FF800BF05B05DF87A
:1017300004FB86B001900091019B53E8011F8AB21F
:10174000D88902449889824228BF121A1889824295
:1017500002BFBFF32F8F002307E0C2EA010243E874
:1017600001200028E9D14FF001038DF80F300590DA
:1017700002910492029A009B1A609DF80F30DBB22E
:10178000184606B0704784B00190019951E8013FB6
:10179000C3EA034341E80132002AF7D103920293DE
:1017A00000BF04B0704786B001900091019B53E8E0
:1017B000021F1FFAA1F2D888824202BFBFF32F8F07
:1017C00000230DE0D88902449889824228BF121A6A
:1017D000C1EA024243E802200028E8D14FF00103A9
:1017E0008DF80F30059002910492029A009B1A60C6
:1017F0009DF80F30DBB2184606B0704784B00190F8
:10180000019951E8023FC3EA234341E80232002A2A
:10181000F7D10392029300BF04B0704784B00390E5
:10182000029111461A460B46ADF806301346ADF844
:101830000430029B002B01D10E231FE0BDF80630BF
:10184000BDF80420B3FBF2F102FB01F29B1A9BB23C
:10185000002B01D0092311E0039B029A1A60039B1D
:1018600000225A60039B00229A60039BBDF8062069
:101870009A81039BBDF80420DA810023184604B046
:10188000704700B585B001900091009B1946019802
:10189000FFF74FFF0346002B07D0019B1B68009A00
:1018A000128813440393039B00E00023184605B0FD
:1018B0005DF804FB00B583B001900091009B1A888D
:1018C000009B5B889A4204D10198FFF75CFF0123DB
:1018D00000E00023184603B05DF804FB00B585B0B6
:1018E00001900091009B19460198FFF75CFF0346A9
:1018F000002B07D0019B1B68009A52881344039366
:10190000039B00E00023184605B05DF804FB00B51A
:1019100083B001900091009B1A88009B5B889A42DB
:1019200004D10198FFF76AFF012300E00023184665
:1019300003B05DF804FB10B487B001900091019BE7
:10194000009A53E8004F44EA020043E8000191F096
:10195000000FF6D1059404900391059B184607B03B
:101960005DF8044B704710B487B001900091019B63
:10197000009A53E8004F44EA020043E8000191F066
:10198000000FF6D1059404900391049B184607B00C
:101990005DF8044B704710B487B001900091019B33
:1019A000009A53E8004F04EA020043E8000191F076
:1019B000000FF6D1059404900391059B184607B0DB
:1019C0005DF8044B704710B487B001900091019B03
:1019D000009A53E8004F04EA020043E8000191F046
:1019E000000FF6D1059404900391049B184607B0AC
:1019F0005DF8044B704700B583B001900121019858
:101A0000FFF799FF0346184603B05DF804FB00B5E5
:101A100083B0019000210198FFF7BDFF03461846EF
:101A200003B05DF804FB00B583B00190002101987C
:101A3000FFF7C9FF0346184603B05DF804FB00003A
:101A400000B583B00190019B002B04D1054940F201
:101A50004510FFF757FE019B1B681B79184603B022
:101A60005DF804FBE8C9000000B583B00190019B5C
:101A7000002B04D1074940F25510FFF743FE019BAC
:101A80009A68019B1B681B68D31ADBB2184603B027
:101A90005DF804FBE8C9000082B00190019B9B68DF
:101AA000D3F86431C3F34003DBB2002B14BF01232E
:101AB0000023DBB2184602B07047000000B597B0B3
:101AC0000B900A9109920B98FFF7E6FF0346002B53
:101AD00005D0002200210B9804F04AF961E00A9B2E
:101AE000012B05D9304A02210B9804F015F858E073
:101AF0002E4A2F4BD31A2F4AA2FB03231B09149300
:101B00000023159349E0159A13465B001344DB004C
:101B10001A46274B13441393139B9B8A1293139BD0
:101B20009B8A1A46129BD31A1193139B9A68139B94
:101B30005B68D31A10931398FFF782FF03460F9345
:101B40001398FFF791FF03460E93139B1B690D93A8
:101B50000E9B642202FB03F2109BB2FBF3F30F9A7D
:101B6000642101FB02F1109AB1FBF2F21099079186
:101B70000F9906910592109A04920E9A039202937D
:101B8000119B0193129B00930D9B0B4A08210B980C
:101B900003F0C2FF159B01331593159A149B9A42CB
:101BA000B1D317B05DF804FB3CCA00001CC80000AC
:101BB00004C80000ABAAAAAA50CA000000B583B0AE
:101BC00001900B468DF80330019B002B03D108498F
:101BD000E820FFF797FD019BDA689DF80330019933
:101BE000898A01FB03F31344184603B05DF804FB34
:101BF00034CB000000B583B001900091019B002B15
:101C000003D10849F520FFF77DFD009B019AD268BA
:101C10009B1A019A928AB3FBF2F3DBB2184603B027
:101C20005DF804FB34CB000000B585B00190019B4A
:101C3000002B01D10E234CE0019B1B68002B03D12C
:101C40002649FF20FFF75EFD019B5B68002B04D156
:101C500022494FF48070FFF755FD019B9B68002BD4
:101C600004D11E4940F20110FFF74CFD019BDB68D7
:101C7000002B04D119494FF48170FFF743FD019BFC
:101C80009B8A002B04D1154940F20310FFF73AFD5F
:101C9000019B9A68019B5B68D31A8DF80F30019BFA
:101CA0001B68019A52681A6007E0019B1A68136862
:101CB000591C11609DF80F201A709DF80F305A1EA4
:101CC0008DF80F20002BF0D1019B1B6800221A71A8
:101CD0000023184605B05DF804FB00BF34CB0000BC
:101CE00000B585B00190019B002B04D11C494FF435
:101CF0009270FFF707FD002303930020FFF710F910
:101D0000019B1B681A68019B5B689A421FD9019B63
:101D10001B681A68013A1A601B681B7819460198FB
:101D2000FFF74CFF0390019B9A68019B1B681B689F
:101D3000D31A8DF80B30019B1B681B799DF80B2083
:101D40009A4204D9019B1B689DF80B201A71002050
:101D5000FFF7FAF8039B184605B05DF804FB00BFD7
:101D600034CB000010B584B001900091019B002B92
:101D700004D1114940F24710FFF7C4FC009B002B2F
:101D800004D10D494FF4A470FFF7BCFC009B0393F2
:101D90000020FFF7C5F8019B1B681C68621C1A60D5
:101DA00003990198FFF726FF034623700020FFF7F1
:101DB000CBF800BF04B010BD34CB000000B583B039
:101DC0000190019B002B03D10C493120FFF79AFCB5
:101DD000019B9B68002B0CD0019B5B69019A1069E9
:101DE000019A1168019A92689847019B00229A60B3
:101DF00000E000BF03B05DF804FB00BFC0CB0000F3
:101E00000EB400B584B00190019B002B03D118499A
:101E10004220FFF777FC019B5B69002B03D114493B
:101E20004320FFF76FFC019B1B68002B03D1104977
:101E30004420FFF767FC019B5B68002B03D10C4932
:101E40004520FFF75FFC059B002B0AD0002303937E
:101E500006AB039303AB1A460599019800F0B8F955
:101E600000E000BF04B05DF804EB03B0704700BFB2
:101E7000C0CB000000B583B001900B468DF8033055
:101E80009DF803300A2B03D10D210198FFF7F2FFD3
:101E9000019B1A68019B9B68581C01998860134438
:101EA0009DF803201A70019B9A68019B5B689A4217
:101EB00002D30198FFF782FF00BF03B05DF804FB77
:101EC00000B587B00390029101920093002305931F
:101ED000009B03F00103002B24D00BE0029B013395
:101EE0000293059B013305939DF81330194603981F
:101EF000FFF7C0FF029B1B788DF813309DF813305D
:101F0000002BEBD106E0019B013B019320210398BC
:101F1000FFF7B0FF019A059B9A422ED9019B002B37
:101F2000F1D12AE0029B002B0BD002980AF0FBFBB8
:101F3000059006E0019B013B019320210398FFF7E8
:101F400099FF019A059B9A420FD9019B002BF1D171
:101F50000BE0029B01330293059B013305939DF82F
:101F6000133019460398FFF785FF029B1B788DF805
:101F700013309DF81330002BEBD100BF07B05DF894
:101F800004FB000000B589B0039002910192009318
:101F9000029B07930123069307E0079A019BB2FB7C
:101FA000F3F30793069B01330693079A019B9A422A
:101FB000F3D2009A069B9A4201D9009B06930B9B91
:101FC00003F00103002B22D10A9B002B1FD00B9B97
:101FD00003F00203002B06D0009B002B03D130231B
:101FE0008DF8173002E020238DF8173008E00A9BA7
:101FF000013B0A939DF8173019460398FFF73AFF03
:102000000A9B002B03D0069A0A9B9A42EFD3012326
:102010000793009B012B03D9009B013B009309E030
:10202000029A079BB2FBF3F30493049A019B9A4232
:1020300000D205E0079B019A02FB03F30793E8E750
:10204000029A079BB2FBF3F30493049B079A02FBEB
:1020500003F3029AD31A0293154A049B13441B7884
:1020600019460398FFF706FF079A019BB2FBF3F3AB
:102070000793079B002BE3D10B9B03F00103002B7D
:1020800011D00A9B002B0ED006E00A9B013B0A935D
:1020900020210398FFF7EEFE0A9B002B03D0069A3F
:1020A0000A9B9A42F1D300BF09B05DF804FB00BF60
:1020B00058CC000000B589B00590049103920293BA
:1020C000049B002BB8BF5B4206930123079307E0F4
:1020D000039B069A92FBF3F30693079B0133079346
:1020E000039B069A9A42F3DA029A079B9A4201D915
:1020F000029B07930A9B002B0AD0049B002B04DB56
:102100000B9B03F00403002B02D00A9B013B0A93B4
:102110000B9B03F00203002B02D0029B002B16D076
:102120000B9B03F00103002B11D10A9B002B0ED057
:1021300006E00A9B013B0A9320210598FFF79AFECF
:102140000A9B002B03D0079A0A9B9A42F1D3049B67
:10215000002B07DA049B5B4204932D210598FFF7BF
:1021600089FE08E00B9B03F00403002B03D02B2116
:102170000598FFF77FFE0B9B03F00203002B19D09D
:102180000B9B03F00103002B14D1029B002B11D1F8
:102190000A9B002B0ED006E00A9B013B0A933021DC
:1021A0000598FFF767FE0A9B002B03D0079A0A9B4E
:1021B0009A42F1D304990B9B01930A9B0093029BD3
:1021C000039A0598FFF7DEFE00BF09B05DF804FB37
:1021D00000B58FB0059004910392059B002B04D1AC
:1021E000B64940F25220FFF78DFA059B5B69002B40
:1021F00004D1B2494FF41570FFF784FA059B1B68B0
:10220000002B04D1AD4940F25520FFF77BFA059B26
:102210005B68002B04D1A94940F25620FFF772FAFF
:10222000049B002B00F09381049B1B788DF83730C2
:10223000049B013304939DF83730002B00F07E811E
:102240009DF83730252B40F06D8100230A93012340
:102250000C93049B1B788DF837309DF83730302B6A
:102260000DD0302B1BDC2B2B11D02D2B17D10A9B23
:1022700043F001030A93049B0133049312E00A9B89
:1022800043F002030A93049B013304930AE00A9B80
:1022900043F004030A93049B0133049302E00023F8
:1022A0000C9300BF0C9B002BD3D1002309939DF806
:1022B00037302A2B0CD1039B1B68191D039A116020
:1022C0001B68099A13440993049B013304931AE091
:1022D000049B1B788DF837309DF837302F2B12D99F
:1022E0009DF83730392B0ED8049B01330493099A9B
:1022F00013469B0013445B001A469DF83730134485
:10230000303B0993D3E700230B93049B1B788DF894
:1023100037309DF837302E2B1DD1049B01330493A9
:10232000049B1B788DF837309DF837302F2B12D94E
:102330009DF83730392B0ED8049B013304930B9A48
:1023400013469B0013445B001A469DF83730134434
:10235000303B0B93E4E7049B1B788DF837309DF8F6
:1023600037306C2B03D09DF83730682B07D1049B96
:1023700001330493049B1B788DF83730EFE79DF809
:102380003730252B00F0C480252BC0F2C680782B77
:1023900000F3C380582BC0F2C080583B202B00F2C2
:1023A000BC8001A252F823F0972400001B250000F6
:1023B0001B2500001B2500001B2500001B2500001D
:1023C0001B2500001B2500001B2500001B2500000D
:1023D0001B2500002D2400004F2400001B250000B9
:1023E0001B2500001B2500001B2500004F240000BA
:1023F0001B2500001B2500001B2500001B250000DD
:102400001B2500001B250000DD2400001B2500000B
:102410001B250000C12400001B25000073240000C0
:102420001B2500001B25000097240000039B1B6850
:10243000191D039A11601B680C930C9B8DF81F30BB
:102440009DF81F3019460598FFF714FD66E0039BC1
:102450001B68191D039A11601B680C930A9B01935A
:10246000099B00930B9B0A220C990598FFF722FE0B
:1024700054E0039B1B68191D039A11601B680C93A1
:102480000C990A9B0193099B00930B9B0A220598C8
:10249000FFF778FD42E0039B1B68191D039A11604A
:1024A0001B680C930C990A9B0193099B00930B9B4F
:1024B00010220598FFF766FD30E000BF08CC000051
:1024C000039B1B68191D039A11601B6808930A9BE4
:1024D000099A08990598FFF7F3FC1FE0039B1B6816
:1024E000191D039A11601B680C9330210598FFF7A2
:1024F000C1FC78210598FFF7BDFC0C9900230193DE
:1025000008230093082310220598FFF73BFD05E000
:1025100025210598FFF7AEFC00E000BF049B0133C6
:10252000049305E09DF8373019460598FFF7A2FCA3
:10253000049B1B78002B7FF477AE00E000BF059B67
:102540001B7B002B04D00598FFF738FC00E000BF90
:102550000FB05DF804FB00BF00B583B00190019897
:10256000FFF762FB0346184603B05DF804FB00B5B5
:102570008BB001900091019B9B8A043B0793009ACA
:10258000079B1344DA1C079BB2FBF3F38DF81B3057
:102590000198FFF7A5FB0590059B002B01D10023B7
:1025A00038E0059B00221A71059B01225A71079B96
:1025B0009AB2059BDA80059B09939DF81B30013B7D
:1025C0000493099B019A1A60002308931DE0019867
:1025D000FFF786FB0390039B002B0ED0059B5B79D6
:1025E0000133DAB2059B5A71099B039A1A60039B67
:1025F000019A1A60039B099304E0059800F00EF815
:10260000002307E0089B01330893089A049B9A4231
:10261000DDD3059B18460BB05DF804FB00B58BB00D
:102620000190019B0793079B5B798DF81B30019B01
:1026300008939DF81B30013B05930023099305E0A7
:10264000089B1B680893099B01330993099A059B12
:102650009A42F5D3089B1B680493019B08930023BF
:1026600009930BE0089B1B68039308990498FFF7F4
:1026700079FB039B0893099B013309939DF81B3059
:10268000099A9A42EED300BF00BF0BB05DF804FB7D
:1026900000B591B00390029101920093039B002B2F
:1026A00003D14349B620FFF72DF8039B0993039B01
:1026B0000F93099BDB881A46099B5B7903FB02F3A6
:1026C000043B0893009A089B9A4203D33849C420DC
:1026D000FFF718F8099BDB880793009B1A1D079BDF
:1026E000B2FBF3F30E93009B0433079AB3FBF2F2B1
:1026F000079901FB02F29B1A0D93019B1A68009B3C
:102700001344089A9A4203D2089A009BD31A01E014
:10271000019B1B680C93019B0C9A1A6005E00F9BB0
:102720001B680F930E9B013B0E930E9B002BF6D163
:1027300000230B93079A0D9BD31A0A930A9A0C9BBA
:10274000934228BF13460A932AE0029A0B9B134434
:1027500006930F9A0D9B1344043305939DF848305C
:10276000002B05D00A9A0599069809F037FF04E076
:102770000A9A0699059809F031FF00230D930F9BE3
:102780001B680F930C9A0A9BD31A0C930B9A0A9B03
:1027900013440B93079A0C9B934228BF13460A934A
:1027A0000C9B002BD1D100BF00BF11B05DF804FB22
:1027B00068CC000000B589B00590049103920293A3
:1027C000039B079307AA00230093029B0499059893
:1027D000FFF75EFF079B039A9A4203D00349F62056
:1027E000FEF790FF00BF09B05DF804FB68CC000065
:1027F00000B589B00590049103920293039B07935F
:1028000007AA01230093029B04990598FFF740FF54
:10281000079B039A9A4204D004494FF48070FEF754
:1028200071FF00BF09B05DF804FB00BF68CC000079
:1028300082B00190019B9B6800229A60019B9B687B
:1028400000221A61019B9B6800225A61019B9B68D0
:102850000022DA60019B9B6800225A60019B9B6802
:1028600000221A6000BF02B07047000000B589B0B6
:102870000390029101928DF80330029B002B03D14B
:1028800039493B20FEF73EFF019B002B03D136491F
:102890003C20FEF737FF9DF80330002B09D0039B47
:1028A0009B681846FFF7A7F80346002B01D01123B9
:1028B00055E0039B9B68DA68039B9B681B69D21AEF
:1028C000039B5B6801339A420DD1019B00221A6081
:1028D0009DF80330002B04D0039B9B681846FFF73C
:1028E000A2F800233BE0039B9B68DA68039B5B68CC
:1028F00013400793039B9B681A69039B5B68134013
:102900000693079A069B9A4205D3039B5A68079B36
:10291000D31A01330AE0039B9B681A69039B596829
:10292000039B9B68DB68CB1A134401330593019B1F
:102930001A68059B9A4228BF1A46019B1A60039B9E
:102940001A68079B1A44029B1A60039B9B68D9680C
:10295000019B1A68039B9B680A44DA6000231846AF
:1029600009B05DF804FB00BFBCCC000000B585B029
:1029700001900091019B5A68019B9B681969019B1A
:102980009B689B68CB1A134401330393009A039B03
:102990009A4201D9042318E0019B9B689968019B26
:1029A0009B68009A0A449A60019B9A68019B9B6805
:1029B0009268DA60019B9B681846FFF728F8034687
:1029C000002B01D1082300E00023184605B05DF874
:1029D00004FB000000B589B0039002910192029BB4
:1029E000002B03D135497220FEF78CFE019B002B92
:1029F00003D132497320FEF785FE039B9B6818467E
:102A0000FEF7F9FF0346002B01D0112352E0039B90
:102A10005A68039B9B681969039B9B689B68CB1A48
:102A2000134401330593019B1A68059B9A4228BF02
:102A30001A46019B1A60019B1B680793039B9B68C6
:102A40009A68039B5B6813400693039B5A68069B36
:102A5000D31A01330493079A049B9A4212D9039B19
:102A60001A68069B1344049A0299184609F0B6FDA9
:102A7000079A049BD31A079300230693029A049B98
:102A800013440293039B1A68069B1344079A029906
:102A9000184609F0A3FD039B9B689968019B1A687F
:102AA000039B9B680A449A60039B9B681846FEF749
:102AB000BAFF0023184609B05DF804FBBCCC000047
:102AC00000B589B00390029101928DF80330029B0A
:102AD000002B03D13A499220FEF714FE019B002BF4
:102AE00003D137499320FEF70DFE9DF80330002BEC
:102AF0000AD0039B9B6804331846FEF77CFF03460D
:102B0000002B01D0112356E0039B9B689A68039B1E
:102B10009B685B69D31A0793079B002B0ED1019B1F
:102B200000221A609DF80330002B05D0039B9B68A0
:102B300004331846FEF777FF00233CE0039B9B68B5
:102B40005A69039B5B6813400693039B9B689A68D2
:102B5000039B5B6813400593059A069B9A4208D92C
:102B6000019B1B68079A9A4203D2019B079A1A603D
:102B700011E0059A069B9A420DD8039B5A68069B62
:102B8000D31A01330493019B1B68049A9A4202D220
:102B9000019B049A1A60039B1A68069B1A44029BC5
:102BA0001A60039B9B685969019B1A68039B9B6889
:102BB0000A445A610023184609B05DF804FB00BFBF
:102BC000BCCC000000B58BB0039002910192029B37
:102BD000002B03D13C49C120FEF794FD019B002B43
:102BE00003D13949C220FEF78DFD039B9B68043356
:102BF0001846FEF700FF0346002B01D011235EE0CC
:102C0000039B9B689A68039B9B681B69D31A079375
:102C1000019B1A68079B9A4228BF1A46019B1A60BB
:102C2000019B1B680993039B9B681A69039B5B6864
:102C300013400893039B9B689A68039B5B6813404F
:102C40000693069A089B9A4203D9069A089BD31AC0
:102C500004E0039B5A68089BD31A01330593099A31
:102C6000059B9A4212D9039B1A68089B1344059A44
:102C70001946029809F0B2FC099A059BD31A0993E8
:102C800000230893029A059B13440293039B1A683E
:102C9000089B1344099A1946029809F09FFC039B6C
:102CA0009B681969019B1A68039B9B680A441A6117
:102CB000039B9B6804331846FEF7B5FE00231846B5
:102CC0000BB05DF804FB00BFBCCC000000B585B0C4
:102CD00001900091019B9B689A68019B9B681B690E
:102CE000D31A0393009A039B9A4201D9042314E058
:102CF000019B9B681969019B9B68009A0A441A61B1
:102D0000019B9A68019B9B6812695A61019B9B68B1
:102D100004331846FEF787FE0023184605B05DF819
:102D200004FB000000B585B001900091019B002BD1
:102D300003D118493A20FEF7E5FC009B002B03D194
:102D400014493B20FEF7DEFC019B5B6803930FE018
:102D5000019B9B68039A12680099104698470346A6
:102D600083F00103DBB2002B07D1039B1B680393A5
:102D7000039B1B68002BEBD100E000BF039B1A688C
:102D8000009B1A60039B009A1A6000BF05B05DF8B3
:102D900004FB00BF10CD000000B585B00190019B81
:102DA000002B03D10C495120FEF7ACFC019B5B6862
:102DB0001B680393019B5B681B68002B06D0019B7B
:102DC0005B681A68019B5B6812681A60039B18466F
:102DD00005B05DF804FB00BF10CD000000B583B066
:102DE0000190019B002B03D105495D20FEF78AFC71
:102DF000019B5B681B68184603B05DF804FB00BFCD
:102E000010CD000000B585B001900091019B002B12
:102E100003D116496920FEF775FC009B002B03D1F6
:102E200012496A20FEF76EFC00238DF80F30019BDB
:102E30005B6802930FE0029B1B68009A9A4207D1DD
:102E4000009B1A68029B1A6001238DF80F3006E080
:102E5000029B1B680293029B1B68002BEBD19DF821
:102E60000F30184605B05DF804FB00BF10CD000020
:102E700082B00190019B9B68D3F86431C3F3400397
:102E8000DBB2002B14BF01230023DBB2184602B0D3
:102E90007047000000B585B00190019B002B0AD05F
:102EA000074B43F001030393019B9B010293039B98
:102EB0000298984700E000BF05B05DF804FB00BF32
:102EC000B0D3000000B583B00190019B1B69184688
:102ED000FEF774FF00BF03B05DF804FB82B0019001
:102EE000019B9A68B2F8643143F00203A2F864319E
:102EF00000BF02B0704782B00190019B9A68B2F89F
:102F000064316FF34103A2F8643100BF02B070472F
:102F100082B00190019B9A68B2F8643143F00803D3
:102F2000A2F8643100BF02B0704782B00190019BEB
:102F30009A68B2F864316FF3C303A2F8643100BF3A
:102F400002B0704782B00190019B9B68D3F8643156
:102F5000C3F3C003DBB2184602B0704782B00190E1
:102F6000019B9B68D3F86431C3F38713DBB2184627
:102F700002B0704782B001900B468DF80330019B80
:102F80009A689DF80310B2F8643161F38D13A2F8CA
:102F9000643100BF02B0704782B001900B468DF8DB
:102FA0000330019B9B689DF803205A7000BF02B05C
:102FB000704700B583B00190019B002B04D00198AD
:102FC00009F0B1FB034600E00023184603B05DF8AA
:102FD00004FB82B00190019B9B68002283F82020B3
:102FE000019B9B680022DA77019B9B6800229A77FD
:102FF00000BF02B0704710B582B00190019B9B6882
:10300000DB7F1C46019B1B681846FFF7D2FF034677
:103010002344019A9268527EB3FBF2F102FB01F263
:103020009B1A002B0CBF01230023DBB2184602B011
:1030300010BD10B582B00190019B9B689B7F1C4620
:10304000019B1B681846FFF7B4FF03462344019A0F
:103050009268527EB3FBF2F102FB01F29B1A002B45
:103060000CBF01230023DBB2184602B010BD0000E4
:1030700010B588B00390029101920093039B002B3E
:1030800002D0029B002B03D12D49F420FEF73AFB1E
:10309000039B5B681B68002B03D12949F520FEF7D1
:1030A00031FB002307933EE0039B5B681B68DC68F1
:1030B000039B5868029A079BD11805AB019AA04759
:1030C0000690069B002B03D01D49FF20FEF71AFB3C
:1030D000059B019A9A4204D219494FF48070FEF779
:1030E00011FB059B079A13440793059B019AD31A7A
:1030F0000193059B002B16D1039B9B681B78032B28
:1031000011D000BF039B9B68D3F86431C3F3401315
:10311000DBB2002BF6D0039B9A68B2F864316FF3F0
:103120004513A2F86431019B002BBDD1009B002BFD
:1031300002D0059A009B1A6000BF08B010BD00BF06
:1031400068CD000000B583B001900B468DF80330C8
:10315000019B1B699DF8032003491846FEF750FEAA
:1031600000BF03B05DF804FBB4CD000010B586B01D
:103170000390029101920093039B002B02D0029BCB
:10318000002B04D10D4940F22310FEF7BBFA039B3C
:103190005B68002B04D109494FF49270FEF7B2FA34
:1031A000039B5B681B681C69039B5868009B019A22
:1031B0000299A047059000BF06B010BD68CD000081
:1031C00000B589B00390029101920093009B002BFF
:1031D00004D13B494FF49C70FEF794FA0A9B002BF4
:1031E00004D1374940F23910FEF78CFA029B002BCC
:1031F00034D1344A344BD31ADB08019A9A4229D28B
:1032000000230693314B0593002307931BE0079B94
:10321000DB002D4A13440693019B9B00059A13443F
:103220001A68069B5B681B681946104609F054FA39
:103230000346002B04D1069B5A68009B1A603CE0B1
:10324000079B013307931F4A1F4BD31ADB08079ACA
:103250009A42DCD3009B00221A602EE0039B002BD5
:1032600003D1009B00221A6027E0039B1B78002BF0
:1032700010D0039B5B680A99019898470A9B1B68CA
:10328000002B03D1009B00221A6016E0009B0A9AD3
:103290001A6012E0039B5A68019B1B0113441B68D0
:1032A000002B07D0039B5A68019B1B011A44009B0B
:1032B0001A6002E0009B00221A6009B05DF804FB6E
:1032C00068CD0000DCC700008CC7000000000020B3
:1032D00000B585B00190019B9B680393019B9B689F
:1032E00014330293019B1B681846FFF762FE0346E6
:1032F000DAB2029B9A71039BDB7F1A46029B9B7991
:103300001344029A527993FBF2F102FB01F29B1AE9
:10331000DBB20133DAB2029B1A70039BDB7F1A46E1
:10332000029B9B791344029A527993FBF2F3DBB22E
:103330000133DAB2029B9A70039B9B7F1A46029B71
:103340009B791344029A527993FBF2F3DBB2013377
:10335000DAB2029BDA70039B9B7F1A46029B9B7931
:103360001344029A527993FBF2F102FB01F29B1A89
:10337000DBB20133DAB2029B5A70029B184605B0E9
:103380005DF804FB00B583B00190019B002B04D1D4
:103390000C494FF4EA70FEF7B5F9019B1B69002B4D
:1033A00004D108494FF4EA70FEF7ACF9019B1B69A0
:1033B000054A06491846FEF723FD00BF03B05DF835
:1033C00004FB00BF68CD0000C8D30000B8CD0000EA
:1033D00000B583B00190019B002B04D10C494FF440
:1033E000ED70FEF78FF9019B1B69002B04D1084992
:1033F0004FF4ED70FEF786F9019B1B69054A0649FB
:103400001846FEF7FDFC00BF03B05DF804FB00BFEB
:1034100068CD0000BCD30000B8CD000000B583B07B
:103420000190019B002B04D10C494FF4F070FEF782
:1034300069F9019B1B69002B04D108494FF4F07016
:10344000FEF760F9019B1B69054A06491846FEF71D
:10345000D7FC00BF03B05DF804FB00BF68CD0000DF
:10346000C0D30000B8CD000000B583B00190019B2F
:103470001B6904491846FEF7C3FC00BF03B05DF8A2
:1034800004FB00BFBCCD000000B583B001900B462B
:103490008DF803309DF80330002B07D0019B1B698A
:1034A0009DF8032003491846FEF7AAFC00BF03B0AD
:1034B0005DF804FBC0CD000000B583B001900B4661
:1034C0008DF803309DF80330002B07D0019B1B695A
:1034D0009DF8032003491846FEF792FC00BF03B095
:1034E0005DF804FBC8CD000000B583B001900B4629
:1034F0008DF803309DF80330002B07D0019B1B692A
:103500009DF8032003491846FEF77AFC00BF03B07C
:103510005DF804FBD0CD000000B583B001900B46F0
:103520008DF803309DF80330002B07D0019B1B69F9
:103530009DF8032003491846FEF762FC00BF03B064
:103540005DF804FBD8CD000000B585B00190019B6B
:103550009B68DA7F019B9B689B7F9A4220D20198EF
:10356000FFF7B6FE0390039B9B788DF80B30019B11
:103570009B68DA7F0132D2B2DA770198FFF7A8FEB2
:103580000390039B9B789DF80B209A4204D1012164
:103590000198FFF791FF04E00198FFF765FF00E055
:1035A00000BF05B05DF804FB00B585B0019001983F
:1035B000FFF78EFE0390039B9A78039BDB789A4279
:1035C0000CBF012300238DF80B300198FFF713FD8A
:1035D0000346002B05D10198FFF72BFD0346002B76
:1035E00002D00198FFF740FF9DF80B30002B0AD066
:1035F000039B5A78039B1B78D31ADBB219460198B8
:10360000FFF742FF24E0039BDA78039B9B78D31AF1
:10361000DBB219460198FFF767FF039B1A78039BFB
:103620005B789A420AD9039B1A78039B5B78D31A7A
:10363000DBB219460198FFF73FFF09E0039B5A7878
:10364000039B1B78D31ADBB219460198FFF71CFFC6
:1036500000BF05B05DF804FB00B585B0019001988E
:10366000FFF736FE0390039B1B781A46039B9B795A
:1036700001339A4203D1039B9B78012B2FD0039BEC
:103680009B78012B07D9039B9B78013BDBB2194642
:103690000198FFF729FF039B1A78039B9B799A42B5
:1036A0000CD9039B1A78039B9B79D31ADBB2013B9D
:1036B000DBB219460198FFF7E7FE0BE0039B9A790E
:1036C000039B1B78D31ADBB20133DBB21946019896
:1036D000FFF7F2FE019B9B680022DA7700E000BF53
:1036E00005B05DF804FB00B585B001900198FFF7C7
:1036F000EFFD0390039B1A78039B5B789A4205D1F8
:10370000039B9A78039BDB789A4231D0039BDA784B
:10371000039B9B789A4209D9039BDA78039B9B7899
:10372000D31ADBB219460198FFF7F6FE039B1A780D
:10373000039B5B789A420AD9039B1A78039B5B78B8
:10374000D31ADBB219460198FFF79EFE09E0039BEE
:103750005A78039B1B78D31ADBB219460198FFF7FE
:10376000ABFE019B9A68019B9B68927FDA7700E031
:1037700000BF05B05DF804FB00B587B001900023E1
:10378000ADF816300023ADF8143000238DF80B305F
:1037900000238DF81330019B9B68A0338022002109
:1037A000184608F044FF019B1B6977491846FEF74D
:1037B00027FB0198FFF786FB0023ADF81030D7E018
:1037C00003AB0DF10B0101220198FFF7CFFC039B26
:1037D000002B04D140F2E730FFF75CFBBFE09DF81F
:1037E0000B301B2B06D0019B9B6893F8A0301B2B42
:1037F00040F0B4809DF80B30522B40F09580019B37
:103800009A689DF813301344002283F8A020019B8E
:103810009B6893F8A1305B2B06D0019B9B6800222C
:1038200083F8A0200B23AAE002238DF813301CE0BC
:10383000BDF814301A46920013445B009AB2019B03
:1038400099689DF81330581C8DF813000B4493F8B9
:10385000A0309BB213449BB2303BADF814309DF9BD
:103860001330002B01DA0C2389E0019B9A689DF844
:103870001330134493F8A0303B2BD9D19DF813306B
:1038800001338DF813309DF91330002B1EDA0C2311
:1038900075E0BDF816301A46920013445B009AB2E8
:1038A000019B99689DF81330581C8DF813000B4448
:1038B00093F8A0309BB213449BB2303BADF8163066
:1038C0009DF91330002B01DA0C2358E0019B9A6814
:1038D0009DF81330134493F8A030002BD9D1BDF8D4
:1038E0001630FA2B04D9019B9B68FA221A7505E061
:1038F000019B9B68BDF81620D2B21A75BDF8143032
:10390000FA2B04D9019B9B68FA229A7505E0019B6A
:103910009B68BDF81420D2B29A75019B9B68002267
:1039200083F8A02000232AE0019B9A689DF81330B9
:103930009DF80B1013440A4683F8A0209DF813301D
:1039400001338DF813309DF81330092B07D9019BF3
:103950009B68002283F8A020042310E000BF039B93
:10396000002B7FF42DAFBDF810300133ADF81030CF
:10397000BDF81030B3F57A7FFFF422AF0D2318465F
:1039800007B05DF804FB00BFA8D3000000B587B006
:10399000039002910192029B002B04D12A4940F22C
:1039A0004930FDF7AFFE019B002B04D1264940F2C0
:1039B0004A30FDF7A7FE0398FFF7DEFE0346002B13
:1039C00018D1039B9B681B7DADF81630039B9B6849
:1039D0009B7DADF81430FA210398FFF76DFDFA21B5
:1039E0000398FFF799FD0398FFF7C6FE0346002BE7
:1039F00024D101E0062322E0039B9B681A7D029BF1
:103A00001A70039B9B689A7D019B1A70029B1A781F
:103A1000BDF81630DBB2D31ADBB219460398FFF7B4
:103A200033FD019B1A78BDF81430DBB2D31ADBB238
:103A300019460398FFF758FD002300E006231846B7
:103A400007B05DF804FB00BF68CD000000B585B08D
:103A500001900B468DF803309DF80330002B2ED0DB
:103A6000019B9B68DB7E9DF803209A4234D01B2388
:103A70008DF808305B238DF8093031238DF80A303A
:103A80003B238DF80B3033238DF80C309DF8033039
:103A90002F33DBB28DF80D306D238DF80E300023FF
:103AA0008DF80F30019B9B689DF80320DA76019B0F
:103AB0001B6902AA0A491846FEF7A2F90DE0019B0C
:103AC0009B689DF80320DA76019B1B69054A04492F
:103AD0001846FEF795F900E000BF05B05DF804FB5D
:103AE000B8CD0000B8D3000000B585B001900B46FA
:103AF0008DF803309DF80330002B29D0019B9B6883
:103B00001B7F9DF803209A4221D01B238DF808309B
:103B10005B238DF8093034238DF80A309DF803308B
:103B20002F33DBB28DF80B306D238DF80C30002372
:103B30008DF80D30019B9B689DF803201A77019B3F
:103B40001B6902AA04491846FEF75AF900E000BFB3
:103B500005B05DF804FB00BFB8CD000000B583B030
:103B600001900091019B9B681B330222194600982B
:103B700008F034FD00BF03B05DF804FB00B583B06E
:103B800001900091009B1B7819460198FFF75EFF9A
:103B9000009B5B7819460198FFF7A6FF00BF03B0B2
:103BA0005DF804FB00B585B001900198FFF790FB2C
:103BB0000390039B1B781A46039B9B7901339A421F
:103BC00003D1039B9B78012B1FD0039B1B78012BF8
:103BD00010D101210198FFF787FC039B5B791946FF
:103BE0000198FFF769FC019B9B68DA7F013AD2B22A
:103BF000DA770BE001210198FFF746FC019B9B68F7
:103C0000DA7F013AD2B2DA7700E000BF05B05DF8A2
:103C100004FB00B585B001900198FFF759FB0390B4
:103C2000039B1A78039B5B789A4205D1039B9A7891
:103C3000039BDB789A4221D0039B1A78039B5B7924
:103C40009A4210D101210198FFF766FC039B5B7932
:103C500019460198FFF718FC019B9B68DA7F013237
:103C6000D2B2DA770BE001210198FFF725FC019B26
:103C70009B68DA7F0132D2B2DA7700E000BF05B08C
:103C80005DF804FB82B001900B468DF80330019B78
:103C90009B689B7F7E2B1DD8019B9968019B9B682D
:103CA000DA7F501CC0B2D87713460B449DF803202E
:103CB00083F82020019B9B68019A9268D27F13446D
:103CC000002283F82020019B9B689A7F0132D2B2A8
:103CD0009A7700E000BF02B07047000000B587B0DF
:103CE00001900B468DF80330019B9B68D3F864313B
:103CF000C3F30003DBB28DF81730019B9B689A7FFA
:103D0000019B9B68DB7FD31A8DF816309DF8173026
:103D100083F00103DBB2002B1ED0019B9B689B7FCD
:103D20007E2B00F2D8809DF81630002B1ED0019B10
:103D30009A68019B9B68DB7F01332033D018019B7D
:103D40009A68019B9B68DB7F203313449DF8162003
:103D5000194608F095FA09E0019B9B689B7F7E2B32
:103D600004D99DF81630002B00F0B780019B9B68AA
:103D7000019A9268D27F13449DF8032083F8202093
:103D80009DF8173083F00103DBB2002B0CD0019BB0
:103D90009A68019B9B68997F0131C9B299779B7F93
:103DA0001344002283F820209DF81630002B3FD0CA
:103DB0000198FFF78DFA0490049B9A78049BDB78B6
:103DC0009A420CBF012300238DF80F309DF80F306D
:103DD000002B16D0019B9A68019B9B68DB7F2033E8
:103DE0001344404A0821019801F096FE9DF81730CF
:103DF0009DF81620D31ADBB219460198FFF744FB51
:103E00002DE00198FFF7E4FA019B9A68019B9B68FB
:103E1000DB7F20331344334A0821019801F07CFEF4
:103E20000198FFF7FBFA01210198FFF745FB16E027
:103E30009DF81730002B0CD0019B9A68019B9B6862
:103E4000997F0131C9B299779B7F1344002283F88F
:103E500020209DF8033019460198FFF773F9019B64
:103E60009B68DA7F0132D2B2DA770198FFF7C3F8A4
:103E70000346002B03D00198FFF7F6FA2EE00198D5
:103E8000FFF7D7F80346002B28D00198FFF720FA58
:103E90000290029BDA78029B9B78D31ADBB2013B3B
:103EA000DBB219460198FFF737FB0198FFF7DCFA00
:103EB000029BDA78029B9B78D31ADBB219460198F1
:103EC000FFF712FB029B1B78013BDBB219460198FE
:103ED000FFF7F2FA02E000BF00E000BF07B05DF8B4
:103EE00004FB00BFB8CD000000B587B00190019B76
:103EF0009B689B7F002B7CD0019B9B68DB7F002B0A
:103F000077D0019B9B689A7F019B9B68DB7FD31ACC
:103F10008DF81730019B9A68019B9B68DB7F013B02
:103F20002033D018019B9A68019B9B68DB7F20336C
:103F3000D1189DF8173001331A4608F0A1F9019BFA
:103F40009B68DA7F013AD2B2DA77019B9B689A7F4D
:103F5000013AD2B29A779DF81730002B41D0082150
:103F60000198FFF7EFF80198FFF7B2F90490049B6E
:103F70009A78049BDB789A420CBF012300238DF8CA
:103F80000F309DF80F30002B15D0019B9A68019BD4
:103F90009B68DB7F20331344184A0821019801F005
:103FA000BBFD0198FFF7EEF99DF81730194601980F
:103FB000FFF76AFA1EE00198FFF70AFA0198FFF787
:103FC000E1F9019B9A68019B9B68DB7F20331344D6
:103FD0000A4A0821019801F09FFD0198FFF71EFA97
:103FE00008E0019B1B69064A04491846FDF708FFD3
:103FF00000E000BF07B05DF804FB00BFB8CD0000D3
:10400000C4D3000000B587B00190019B9B689A7FE4
:10401000019B9B68DB7FD31A8DF817309DF8173012
:10402000002B71D0019B9A68019B9B68DB7F20333A
:10403000D018019B9A68019B9B68DB7F013320337A
:1040400013449DF81720194608F01AF9019B9B6844
:104050009A7F013AD2B29A770198FFF739F9049022
:10406000049B9A78049BDB789A420CBF01230023BF
:104070008DF80F309DF80F30002B2FD0019B9A68E0
:10408000019B9B68DB7F20331344214A0821019860
:1040900001F042FD019B002B04D11E4940F28F40EC
:1040A000FDF730FB019B1B69002B04D1194940F23D
:1040B0008F40FDF727FB019B1B69174A14491846DF
:1040C000FDF79EFE9DF81730013B8DF817309DF8E7
:1040D000173019460198FFF7D7F916E00198FFF756
:1040E00077F90198FFF74EF9019B9A68019B9B684D
:1040F000DB7F20331344064A0821019801F00CFDB0
:104100000198FFF78BF900E000BF07B05DF804FBF2
:10411000B8CD000068CD0000CCD3000010B586B04B
:104120000390029101928DF8033000238DF817302F
:10413000039B00221A60019B1B788DF811309DF8BB
:104140001130002B00F06E819DF81130184607F0F9
:1041500076FF0346002B05D0019B5A1C01920022DA
:104160001A7057E1039B1B68591C039A11609B004E
:10417000029A1344019A1A6000238DF81730019BAC
:104180001B788DF811309DF81130002B00F03F8125
:104190009DF81730002B29D19DF811305C2B06D0EB
:1041A0005C2B25DC222B11D0272B0FD020E0019B8C
:1041B0005C1C0198FEF7FDFE03461A462146019855
:1041C00008F05EF8019B013301931FE1019B5C1C29
:1041D0000198FEF7EEFE03461A462146019808F0C4
:1041E0004FF89DF811308DF817300FE100BF00E057
:1041F00000BF9DF817209DF811309A420ED1019B07
:104200005C1C0198FEF7D5FE03461A46214601982C
:1042100008F036F800238DF81730F7E09DF81730D6
:10422000002B00F0E4809DF811305C2B40F0DF8023
:10423000019B5B788DF816309DF816209DF817309D
:104240009A420ED1019B5C1C0198FEF7B2FE034618
:104250001A462146019808F013F8019B0133019397
:10426000D4E09DF81630302B48D100238DF814305F
:1042700002238DF8153020E09DF81530019A134483
:104280001B788DF816309DF816302F2B19D99DF814
:104290001630372B15D89DF81430DB005AB29DF834
:1042A0001630303BDBB25BB213435BB28DF8143097
:1042B0009DF8153001338DF815309DF81530042B1D
:1042C000DAD99DF81530022B18D99DF81530013B2D
:1042D000019AD4180198FEF76CFE02469DF815303D
:1042E000D31A02331A462146019807F0C9FF019BF1
:1042F0005A1C01929DF814201A7087E09DF8163020
:10430000782B74D100238DF8123002238DF81330EE
:104310004CE09DF81330019A13441B788DF8163049
:104320009DF816302F2B11D99DF81630392B0DD84A
:104330009DF812301B015AB29DF81630303BDBB2AB
:104340005BB213435BB28DF812302AE09DF8163051
:10435000602B11D99DF81630662B0DD89DF81230C0
:104360001B015AB29DF81630573BDBB25BB21343C8
:104370005BB28DF8123014E09DF81630402B19D93D
:104380009DF81630462B15D89DF812301B015AB2F5
:104390009DF81630373BDBB25BB213435BB28DF84E
:1043A00012309DF8133001338DF813309DF813301F
:1043B000032BAED99DF81330022B18D99DF813307A
:1043C000013B019AD4180198FEF7F3FD02469DF8CF
:1043D0001330D31A02331A462146019807F050FFD2
:1043E000019B5A1C01929DF812201A700EE09DF854
:1043F0001730002B07D19DF81130184607F01FFE2B
:104400000346002B05D1019B01330193B7E600BFA2
:1044100000E000BF039B1A689DF803309A42FFF446
:104420008AAE00E000BF039B1B680C2B04D908492F
:1044300040F22A50FDF766F9039B1B689B00029A25
:10444000134400221A609DF81730184606B010BDBC
:1044500068CD000000B583B001900B468DF80330A5
:10446000019B9B689DF803201A709DF80330022B76
:1044700009D10198FEF7ADFD019B1B68044A032199
:10448000019801F049FB00BF03B05DF804FB00BFD9
:10449000B8CD000082B00190019B9B680022C3F858
:1044A000602100BF02B0704700B587B001900B4695
:1044B0008DF80330002303930023049300238DF829
:1044C000143000238DF816309DF8033083F001037B
:1044D000DBB2002B4AD0019B9B68D3F86031002BE4
:1044E00000F0E2800198FFF7B7F8019B9B68D3F8D2
:1044F000600103A900230922FEF77AF9019B9B685A
:10450000049AC3F86021019B9B689B7F8DF817304C
:10451000019B9B68D3F86031002B7BD1019B9B688A
:10452000A0331846FEF745FD0346002B0BD0019B38
:104530009B6803F12002019B9B68A033194610463B
:1045400008F0A8F804E0019B9B68002283F8202073
:10455000019B9B6820331846FEF72BFD0346DBB218
:104560008DF8143001238DF8163053E0019B9B68C1
:10457000D3F86021019B9B68D3F85C319A4200F02C
:104580009580019B9B68D3F85831002B00F08E80FA
:104590000198FFF761F8019B9B68D3F86031002B0D
:1045A00026D1019B9B6820331846FEF702FD034687
:1045B0008DF81730019B9A68019B9B68D2F85821AF
:1045C000C3F860219DF81730002B0BD0019B9B682E
:1045D00003F1A002019B9B6820331946104608F0A6
:1045E00059F817E0019B9B68002283F8A02011E096
:1045F000019B9B68D3F8600103A900230922FEF701
:10460000F7F89DF814308DF81730019B9B68039ADA
:10461000C3F860219DF8163083F00103DBB2002B54
:1046200017D0019B9B68D3F8600103A900230922DE
:10463000FEF7DEF8019B9B68D3F86001019B9B6845
:1046400003F120019DF8143001331A460923FEF7C7
:10465000CFF8019B9B689DF81420DA77019B9B683B
:104660009DF814209A779DF814309DF817209A42EF
:1046700002D90198FEF786FE019B9B6820330D4A04
:104680000821019801F048FA0198FEF7B4FC0346AE
:10469000002B05D10198FEF7CCFC0346002B06D079
:1046A0000198FEF7E1FE02E000BF00E000BF07B0A6
:1046B0005DF804FBB8CD000000B587B00190009113
:1046C000009B002B04D12D4940F2AA50FDF71AF8A7
:1046D000019B9B68D3F85831002B13D1019B9B6839
:1046E000009AC3F85821019B9B68009AC3F85C218B
:1046F0000023039300230493019B9B689B7F8DF809
:10470000143024E0019B9B68D3F8580103A90023CF
:104710000922FEF76DF8009B0493019B9B68D3F878
:10472000580103A900230922FEF744F8002304934B
:10473000019B9B68D3F858310393019B9B689B7F37
:104740008DF81430019B9B68009AC3F8582103A987
:10475000002309220098FEF72DF8019B9B6803F1C6
:104760002001019B9B689B7F01331A460923009817
:10477000FEF720F800BF07B05DF804FB68CD00002D
:1047800000B587B00190019B9B68D3F85C31002B8A
:104790003FD0019B9B68D3F85C31059302A90023AD
:1047A00009220598FEF724F8019B9B68039AC3F839
:1047B0005C2102AB09220021184607F038FF02A94C
:1047C000002309220598FDF7F5FF0598FDF726FF60
:1047D000019B9B68D3F85C31002B05D1019B9B6842
:1047E0000022C3F8582115E0019B9B68D3F85C01B7
:1047F00002A900230922FDF7FBFF00230293019B7E
:104800009B68D3F85C0102A900230922FDF7D2FFBF
:1048100000E000BF07B05DF804FB00B589B001906F
:10482000019B9B6820331846FEF7C3FB03468DF8B7
:104830001B300198FFF72EFE9DF81B30002B5BD03C
:10484000019B9B68D3F85831002B36D0019B9B68A5
:10485000D3F8580102A900230922FDF7C9FF9DF8EA
:1048600010309DF81B209A4227D1019B9B68D3F8FA
:104870005801019B9B6803F1A0019DF810300133A2
:104880001A460923FDF7B4FF019B9B6803F1200240
:10489000019B9B68A0331946104607F01DFF034695
:1048A000002B05D1019B9B68002283F8A02024E007
:1048B000019B9B68002283F8A0200023079317E048
:1048C000019B5A699DF81B300A3319461046FDF7C3
:1048D0004EFE0590059B002B04D005990198FFF72B
:1048E000EBFE0AE00198FFF74BFF079B01330793AC
:1048F000079B072BE4D900E000BF09B05DF804FB7B
:1049000084B00190009100238DF80F301FE09DF8D6
:104910000F30019A13441A789DF80F3000990B4418
:104920001B789A4202D09DF80F3019E09DF80F30A5
:1049300001338DF80F309DF80F30002B07D19DF813
:104940000F30013B8DF80F309DF80F3008E09DF8D7
:104950000F30019A13441B78002BD8D19DF80F30EB
:10496000184604B07047000000B587B0039002916C
:1049700013468DF80730029B002B04D13D4940F2CD
:104980005360FCF7BFFE039B9B689A7F039B9B6869
:10499000DB7FD31A8DF81730039B9B689B7F1A46E9
:1049A0009DF8073013447F2B60DC9DF80730002B07
:1049B0005CD0039B9A68039B9B68DB7F19469DF83C
:1049C00007300B442033D018039B9A68039B9B68E5
:1049D000DB7F2033D1189DF8173001331A4607F0DA
:1049E0004FFC039B9A68039B9B68DB7F2033134437
:1049F0009DF807200299184607F042FC039B9B682C
:104A000020331846FEF7D5FA0246039B9B68D2B2C4
:104A10009A77039B9A68039B9B68DB7F2033134440
:104A2000154A0821039801F077F8039B9B68D97F0A
:104A3000039B9B689DF807200A44D2B2DA7703985B
:104A4000FEF7D9FA0346002B05D10398FEF7F1FAD9
:104A50000346002B02D00398FEF706FD9DF81730A1
:104A6000002B04D00398FEF79FFD00E000BF07B0C5
:104A70005DF804FB68CD0000B8CD000010B588B02B
:104A80000590049113468DF80F30049B002B04D140
:104A9000059B9B6800225A774DE0284B1B681846FF
:104AA000FEF787FA0346DAB29DF80F3013448DF80B
:104AB0000F30059B9B685B7E1C46204B1B6818468D
:104AC000FEF777FA0346E21A9DF80F30B2FBF3F3D4
:104AD0008DF81F300498FEF76CFA0346DBB29DF8A0
:104AE0000F20D31A8DF81E30059B9A68537F591CEE
:104AF000C9B251779DF81F20B3FBF2F102FB01F21E
:104B00009B1ADBB2002B0AD10C4B1A68049B009352
:104B100013460B4A0721059800F0FEFF05E0049BB1
:104B2000084A0721059800F0F7FF9DF81E30194646
:104B30000598FEF7C1FC08B010BD00BF3000002092
:104B4000E0CD0000B8CD000000B585B00390029123
:104B50000192019A0299039807F0C0FC0346002BCA
:104B60000CBF01230023DBB2184605B05DF804FB3F
:104B700000B5A5B0039000232293002321930023C6
:104B8000209300238DF87F3000238DF87E30039B27
:104B90009B689B7FC3F17F038DF87D309DF87D304E
:104BA000002B00F0F881039B9B6803F1A000039B9E
:104BB0009B6803F12001039B9B68DB7F1A4607F08B
:104BC0000DFD039B9B68039A9268D27F13440022D9
:104BD00083F8A020039B9A68039B9B68DB7F013BC3
:104BE000134493F82030184607F029FA0346002BA7
:104BF00014BF012300238DF877300398FFF74AFC98
:104C0000039B9B6803F1A0020FA91CA80C23FFF7CC
:104C100085FA9DF87F309B0024AA134453F8543C36
:104C20001846FEF7C6F903468DF87C3000231E9324
:104C300000230A93002309931C9B002B09D09DF8A5
:104C40007F209DF877101C9B0B44013B9A42C0F0DB
:104C5000AA809DF87730002B03D000238DF87C309C
:104C60000CE09DF87F309B0024AA134453F8543C79
:104C70001846FEF79EF903468DF87C3000232393F7
:104C80009DF87F10239A531C23930AA80BAB009323
:104C900003461E98FEF794FA0A9B002B00F08180D1
:104CA0009DF87F309B0024AA134453F8540C0A9BB0
:104CB0001B689DF87C201946FFF746FF034683F0EA
:104CC0000103DBB2002B6AD1209B01332093099BA7
:104CD000002B1BD1239B013B21930A9B1B68184689
:104CE000FEF767F903468DF87E309DF87D209DF82C
:104CF0007E109DF87C30CB1A9A4241DD9DF87E20D3
:104D00009DF87C30D31A8DF87D3039E00A9B1B6802
:104D10001846FEF74EF903468DF876309DF876205A
:104D20009DF87E309A4203D99DF876308DF87E301A
:104D30009DF87D30002B23D09DF87F1009AA05AB8C
:104D400000931346229A1E98FEF73AFA0A9B1A68B5
:104D50009DF87C30D018099B1A689DF87C3013446C
:104D60001946FFF7CDFD03468DF876309DF87D207E
:104D70009DF876309A4203D99DF876308DF87D30D3
:104D8000239B013B22930A9B0993239B002B7FF4D7
:104D900077AF854A0421039800F0BEFE02E000BF11
:104DA0006EE700BF2DE0002323939DF87F10239A28
:104DB000531C23930AA80BAB009303461E98FEF7DF
:104DC000FFF9239B002B05D1774A0421039800F0BB
:104DD000A3FEE5E00A9B002B00F0DF809DF87F300A
:104DE0009B0024AA134453F8542C0A9B1B681946B1
:104DF000104607F071FC0346002BD6D10A9B9B6836
:104E00001E931E9B002B10D00A9B002B0DD09DF8EB
:104E10007F3001338DF87F309DF87F209DF877102B
:104E20001C9B0B449A42FFF407AF209B002B00F021
:104E3000B680209B012B57D11E9B1B78002B09D0DD
:104E40009DF87F1009AA0BAB00931346229A1E9877
:104E5000FEF7B6F9099B1B681846FEF7AAF802464A
:104E60009DF87C309A420AD0099B1A689DF87C30E4
:104E700013449DF87D2019460398FFF775FD039BA9
:104E80009B68039A9268D27F134493F820301846A7
:104E900007F0D5F80346002B22D1039B9B68D3F87B
:104EA0006431C3F30003DBB2002B14D0039B9A6878
:104EB000B2F864316FF30003A2F864312021039843
:104EC000FEF70CFF039B9A68B2F8643143F00103CC
:104ED000A2F8643164E020210398FEF7FFFE5FE052
:104EE0000398FEF731FB5BE09DF87E301A46002107
:104EF0000398FFF7C3FD219B23932BE09DF87F10C0
:104F0000239A531C23930AA80BAB009303461E98C5
:104F1000FEF756F99DF87F309B0024AA134453F8FE
:104F2000540C0A9B1B689DF87C201946FFF70CFE69
:104F3000034683F00103DBB2002B00D00AE0209B84
:104F4000013B20930A9B1B689DF87E20194603981D
:104F5000FFF794FD209B002BD0D1039B1B68134AC5
:104F60000321039800F0D8FD039B9B682033104A6F
:104F70000821039800F0D0FD0398FEF715FB099B6C
:104F80001A689DF87C3013449DF87D2019460398DB
:104F9000FFF7EAFC04E000BF02E000BF00E000BF52
:104FA00025B05DF804FB00BFE8CD000014CE000082
:104FB000B8CD000000B583B001900B468DF80330EA
:104FC0009DF803300D2B09D09DF803300A2B05D036
:104FD00000210198FDF7CEFF002317E00198FDF7AF
:104FE000BDFF0346002B08D00198FDF7B7FF03462D
:104FF0001A469DF80330934207D19DF803301946B5
:105000000198FDF7B7FF012300E00023184603B025
:105010005DF804FB82B003468DF807309DF9073038
:10502000002B01DA0B2300E00023184602B0704782
:1050300000B585B001900023039303AB0DF10B0184
:1050400001220198FEF792F8039B002B00F07D816E
:105050009DF80B301846FFF7DDFF0346002B40F0AC
:10506000728101F065FF019B9B685B78032B00F266
:10507000658101A252F823F089500000E15100003F
:10508000FD510000335300009DF80B301946019884
:10509000FFF790FF0346002B13D0019B9B689B7F7B
:1050A000002B06D10198FFF7F5F90198FEF7DCF91E
:1050B00002E0019800F0F0F902210198FFF7CAF927
:1050C00046E19DF80B301B2B3EDC002B62DB1B2BDB
:1050D00060D801A252F823F0CD5100009551000094
:1050E0009551000095510000955100009551000028
:1050F00095510000955100006D510000595100007C
:105100009551000095510000955100009551000007
:1051100095510000955100009551000095510000F7
:1051200095510000955100009551000095510000E7
:1051300095510000955100009551000095510000D7
:10514000955100004F5100007F2B19D022E0012122
:105150000198FDF721FF42E00198FDF7F3FE0346B9
:10516000002B35D00198FFF703FD31E00198FDF7E2
:10517000E9FE0346002B2DD00198FEF7B5FE29E08D
:105180000198FDF7DFFE0346002B25D00198FEF7BE
:1051900039FF21E09DF80B30184606F055FF034615
:1051A000002B1BD00198FDF7CDFE0346002B06D047
:1051B0009DF80B3019460198FEF790FD0EE09DF822
:1051C0000B3019460198FEF75DFD07E000BFBBE01C
:1051D00000BFB9E000BFB7E000BFB5E000BFB3E07B
:1051E0009DF80B305B2B04D102210198FDF7D4FE12
:1051F000AAE000210198FDF7CFFEA5E0002101986B
:10520000FDF7CAFE0198FDF79DFE034683F00103FA
:10521000DBB2002B40F09B809DF80B30313B1B2B09
:1052200000F2838001A252F823F000BFD1520000A7
:10523000E15200000F530000C15200002B53000048
:105240002B5300002B5300002B5300002B53000066
:105250002B5300002B5300002B5300002B53000056
:105260002B5300002B5300002B5300009D520000D5
:10527000A7520000B1520000B95200002B530000A9
:10528000C95200002B530000D95200002B530000DC
:105290002B5300002B530000E9520000012101981C
:1052A000FFF702F944E000210198FFF7FDF83FE025
:1052B0000198FEF7AEFC3BE00198FEF773FC37E087
:1052C00003210198FDF768FE0198FEF70CFA2FE024
:1052D00003210198FDF760FE0198FEF7BDF927E074
:1052E00003210198FDF758FE019B9B68D3F86431B8
:1052F000C3F30003DBB2019A926883F00103D9B2D1
:10530000B2F8643161F30003A2F8643110E00321C4
:105310000198FDF741FE0198FDF714FE0346002BAE
:1053200005D00198FEF76EFE01E000BF0CE000BF63
:105330000AE000210198FDF72FFE05E00021019809
:10534000FDF72AFE00E000BF77E600BF00E000BFE7
:1053500005B05DF804FB00BF00B585B001900023E7
:105360008DF80F30019B9B6893F82030002B00F0E4
:105370008F8009E09DF80F30002B05D1019B9B68C1
:10538000002283F8202084E0019B9A689DF80F306A
:10539000591C8DF80F10134493F82030184606F06E
:1053A0004EFE0346002BE5D19DF80F30013B8DF8F2
:1053B0000F309DF80F30002B24D0019B9B6803F128
:1053C0002000019B9B6803F120029DF80F30D1184B
:1053D000019B9B689B7F5A1C9DF80F30D31A1A467D
:1053E00006F04EFF019B9B68997F019B9B689DF88F
:1053F0000F208A1AD2B29A77019B9A68019B9B6808
:10540000927FDA77019B9A68019B9B689B7F013BA7
:1054100020331344029300238DF80F3007E09DF8EA
:105420000F3001338DF80F30029B013B0293029B3A
:105430001B78184606F003FE0346002BEFD1019BB4
:105440009A68019B9B689B7F013B20331344029A1F
:105450009A421ED0019B9A68019B9B689B7F1946CC
:105460009DF80F30CB1A1344002283F82020019BB3
:105470009B68997F019B9B689DF80F208A1AD2B286
:105480009A77019B9A68019B9B68927FDA7700E08C
:1054900000BF05B05DF804FB10B59CB0039000237D
:1054A0001A9300231993002318930398FFF754FFCE
:1054B0000398FFF7B2F90398FEF715F90398FDF783
:1054C0009AFD034683F00103DBB2002B02D0039860
:1054D000FDF7CAFF039B9B6803F1200209A916A8E8
:1054E0000C23FEF71BFE03468DF85F30169B002B46
:1054F00003D10398FDF7B8FFE1E09DF85F30002B82
:1055000007D09DF85F306F4A0221039800F004FB3A
:10551000D5E000231B9327E06B4A6C4BD31ADB08C2
:105520001B9A9A4208D3099B694A0092694A022150
:10553000039800F0F1FAC2E01B9BDB00634A1344BE
:1055400018931A9B9B001CAA134453F84C2C189BCD
:105550005B681B681946104607F0BEF80346002B2F
:105560000AD01B9B01331B93574A584BD31ADB08B5
:105570001B9A9A42D0D900E000BF189B1B7883F099
:105580000103DBB2002B04D1534940F6A310FCF712
:10559000B9F800230493039B9B6804331022002175
:1055A000184607F044F8189B5B68DB68002B08D0AE
:1055B000189B5A68039B9B681C1D13460FCB84E8FD
:1055C0000F00189B5B689B6818931A9B01331A9312
:1055D00000231B93169B1A9A9A4254D21A9B9B0043
:1055E0001CAA134453F84C3C3C49184607F074F885
:1055F0000346002B0CD01A9B9B001CAA134453F8A3
:105600004C3C3749184607F067F80346002B03D196
:105610000398FDF763FC37E01B9A531C1B9304A906
:1056200005AB00930B461A991898FDF7C9FD1B9B13
:10563000002B29D0049B002B26D01A9B9B001CAA70
:10564000134453F84C2C049B1B681946104607F072
:1056500043F80346002BBDD1049BDB68002B09D027
:105660001A9B1993049A039B9B681C1D13460FCB2E
:1056700084E80F001A9B01331A9300231B93049BA9
:105680009B681893A6E700BF039B9B681B69002BD0
:105690000DD0039B9B681B691699199A881A09A952
:1056A000199A92000A4401460398984704E00D4A6B
:1056B0000221039800F030FA0398FDF71CFC1CB09F
:1056C00010BD00BF18CE0000DCC700008CC7000072
:1056D00034CE00002CCE000068CD000048CE000083
:1056E0004CCE000054CE000000B585B00190009172
:1056F000019B002B04D10F4940F62320FCF702F850
:10570000009B002B04D10B4940F62420FBF7FAFF45
:10571000019B0393009B0293039B1A68029B1B68E7
:105720001946104606F0D8FF0346184605B05DF846
:1057300004FB00BF68CD000000B585B003460091B2
:105740008DF80730009B0393039B002B04D10A497B
:1057500040F62F20FBF7D6FF9DF80730002B07D02F
:10576000039B9A68B2F8643143F02003A2F86431D5
:1057700000BF05B05DF804FB68CD000010B588B02F
:105780000390029113468DF80730039B002B04D140
:105790005B4940F64520FBF7B5FF039B9B68002B58
:1057A00007D0039B5B68002B03D0039B1B68002B77
:1057B00004D1534940F64620FBF7A4FF039BDB6866
:1057C0005B68039A9A60039B5B681B681C68039B79
:1057D0005868039B4B4A0299A0470690069B002BF2
:1057E00001D0069B88E0039B5B69002B04D14449F0
:1057F00040F65520FBF786FF039B5B691846FCF7D4
:10580000ABFE0690069B002B01D0069B74E0039B29
:105810009B680022C3F85821039B9B680022C3F8B1
:105820005C21039B9B684FF4B4720021184606F07C
:10583000FEFE039B9A68B2F8643143F02003A2F89D
:105840006431039B9A689DF80710B2F8643161F3E4
:105850008203A2F86431039B9A68B2F8643143F082
:105860000803A2F86431039B9B6801221A70039B12
:105870009B6850225A76039B9B6818221A76224B0B
:1058800005930023079321E0079BDB001F4A134485
:105890000493049B002B04D1194940F67120FBF7B7
:1058A00031FF049B5B681B68002B04D1144940F650
:1058B0007220FBF727FF049B5A68079B9B00059902
:1058C0000B4412681A60079B01330793104A0F4B71
:1058D000D31ADB08079A9A42D6D30D4A0B4BD31A38
:1058E000072B08D90A4A094BD31AD908094B0422B5
:1058F000059806F0E2FC0023184608B010BD00BF72
:1059000068CD000039570000000000208CC700005F
:10591000DCC70000E956000000B587B00390029193
:1059200011461A460B468DF8073013468DF806309F
:10593000039B002B04D1094940F6A220FBF7E2FEAD
:105940009DF807301A4602990398FFF717FF059054
:10595000059B184607B05DF804FB00BF68CD00004A
:1059600000B585B00190019B002B04D1204940F681
:10597000F820FBF7C7FE019B9B68002B07D0019B1B
:105980005B68002B03D0019B1B68002B04D11849D6
:1059900040F6F920FBF7B6FE019B9B681B78012BB4
:1059A00001D008231FE0019B5B681B689B68019A7C
:1059B00052680021104698470390039B002B11D199
:1059C00008210198FEF742F801210198FEF78CF8B2
:1059D000019B1B6907491846FCF712FA022101983E
:1059E000FEF738FD039B184605B05DF804FB00BFC9
:1059F00068CD000074CE000000B585B00190019B19
:105A0000002B04D13A4940F62930FBF77BFE019B7D
:105A10009B68002B07D0019B5B68002B03D0019B88
:105A20001B68002B04D1324940F62A30FBF76AFE8E
:105A3000002302939DF8083043F010038DF80830DE
:105A4000019B9B6803F5B273029A11461846FBF757
:105A50008AFF019B9B681B78012B02DC002B2ADA52
:105A60002CE0022B00D029E00198FFF7E1FA002199
:105A7000019800F0D7FB03468DF80F309DF80F30EA
:105A8000002B1AD0019B1B681A4A0321019800F0D1
:105A900043F80198FDF756FA0346002B0DD0019B01
:105AA0009B682033134A0821019800F035F80198CB
:105AB000FDF77AFD01E000BF00E000BF0198FDF7AF
:105AC00001FA4FF0FF3302939DF808306FF304138F
:105AD0008DF80830019B9B6803F5B273029A11465A
