:1000000000000420750300005D0300005F03000092
:1000100061030000630300006503000000000000AE
:100020000000000000000000000000006703000066
:1000300069030000000000006B0300006D03000076
:10004000997F00006F030000D96100007564000013
:100050006F0300006F030000F15E00006F030000FB
:100060006F0300006F0300006F0300006F030000C8
:100070006F0300006F0300006F0300006F030000B8
:100080006F0300002D2C00006F0300006F030000C1
:100090006F0300006F0300006F0300006F03000098
:1000A0006F0300006F0300006F0300006F03000088
:1000B0006F0300006F03000000000000000000005C
:1000C0006F0300006F0300006F0300006F03000068
:1000D0006F0300006F0300006F0300006F03000058
:1000E0006F0300006F0300006F03000000000000BA
:1000F000000000006F030000000000006F0300001C
:1001000000000000000000000000000000000000EF
:1001100000000000000000000000000000000000DF
:1001200000000000000000000000000000000000CF
:1001300000000000000000000000000000000000BF
:1001400000000000000000000000000000000000AF
:10015000000000000000000000000000000000009F
:10016000000000000000000000000000000000008F
:10017000000000000000000000000000000000007F
:10018000000000000000000000000000000000006F
:10019000000000000000000000000000000000005F
:1001A000000000000000000000000000000000004F
:1001B000000000000000000000000000000000003F
:1001C000000000000000000000000000000000002F
:1001D000000000000000000000000000000000001F
:1001E000000000000000000000000000000000000F
:1001F00000000000000000000000000000000000FF
:10020000354936480A1A02D0072291438D463449AF
:1002100034480A1A06D00722914381F30988022242
:1002200082F3148830483149314A00F044F83148AB
:100230003149324A00F03FF831483249324A00F041
:100240003AF832483249334A00F035F832483349F7
:10025000334A00F030F833483349344A00F02BF881
:1002600033483449344A00F026F8344834490022EF
:1002700000F02CF833483449002200F027F83348C6
:100280003349091A082902DB002202604160314A21
:1002900090471F481F49884205D00268043003B4C4
:1002A000904703BCF7E700208646EC46002000217B
:1002B000294A9047FEE7884207D0521A05D00378B2
:1002C00001300B700131013AF9D17047884202D0F8
:1002D00002700130FAE770470000042000E00320BC
:1002E0000000042000000420B0980000000000205E
:1002F00074000020D0030000D003000076840000CA
:10030000B0980000000000200000002004850000DC
:1003100004850000048500000485000004850000B9
:10032000048500000485000004850000AE980000EC
:100330002499000074000020740000207400002044
:100340007009002070090020700900207009002049
:10035000702900209D030000B54D0000FEE7FEE778
:10036000FEE7FEE7FEE7FEE7FEE7FEE7FEE7FEE765
:1003700000F002B8FFF7FCBF0F484FF007018843B9
:1003800085460E4880470E48016841F470010160BF
:10039000BFF34F8FBFF36F8FFFF732BF09480A4992
:1003A0000A4A884207D0521A05D0037801300B70F0
:1003B0000131013AF9D1704700000420C94F000013
:1003C00088ED00E00485000000000020000000200F
:1003D00000B5A1B00590049103920293049803F034
:1003E00045FB039B1593029B169300231793002351
:1003F0008DF8603000231993229B1A9300231F93DA
:100400000FA91F9B0822049803F00AFC08231F93DE
:10041000119B1293BDF84030ADF84C30BDF842301E
:10042000ADF84E3000238DF851309DF83C3003F08C
:100430000303DBB2012B26D10F9BC3F395231C933F
:100440009DF83C30C3F3C203DBB28DF85030BDF8E9
:100450003C30C3F38313DBB21B931B9B9A0009A9A7
:100460001F9B049803F0DCFB1B9B9B001F9A13440B
:100470001F9312AA09A915AB009313461B9A1C9847
:1004800000F0DAFF2FE09DF83C3003F00303DBB20D
:10049000022B28D1BDF83E30C3F389139BB21E93C3
:1004A0009DF83C30C3F3C203DBB28DF850301E9B85
:1004B000082B28BF08231D9307A91F9B1D9A04988A
:1004C00003F0AEFB1F9A1D9B13441F931E9A1D9BA6
:1004D000D31A1E9315AB12AA07A81D9901F04EF866
:1004E0001E9B002BE3D1049803F0CFFA00BF21B08C
:1004F0005DF804FB00B583B00190019B1B781A46A0
:100500000C4B9B5C002B05D0019B0433184607F075
:10051000A7F90BE0019B1B781A46064B9B5C002B4E
:1005200004D1019B0C33184606F05CFB00BF03B0FE
:100530005DF804FB6808002000B587B003900291C5
:1005400013468DF8073000230593039B1B781A464A
:10055000114B9B5C002B09D0039B04339DF80720B3
:100560000299184607F0D2F905900FE0039B1B781B
:100570001A46094B9B5C002B08D1039B0C339DF85A
:1005800007200299184606F0A5FB0590059B184622
:1005900007B05DF804FB00BF6808002082B001903E
:1005A0000091034B01221A7000BF02B0704700BFD8
:1005B000B400002030B58DB003468DF807301A4BDB
:1005C00002AC1D460FCD0FC495E80F0084E80F0064
:1005D000062302934FF0FF3303934FF0FF3304934E
:1005E0004FF0FF3305934FF0EB7308939DF80730FE
:1005F000002B01D00D4A00E0002202AB19460C4846
:1006000004F010FF0B900B9B0A930A9B002B04D065
:10061000084A43210A9801F0D5FA074A9DF80730A5
:10062000137000BF0DB030BD608500009D05000057
:100630000000002004850000B500002000B583B054
:1006400001238DF807309DF807301846FFF7B2FFF9
:1006500000BF03B05DF804FB00B589B003900291C0
:100660000192019B8DF81F30124B00221A709DF8E9
:100670001F301A4602991048FFF75EFF0690069B4E
:100680000593059B002B04D00C4A5321059801F0DB
:1006900099FA00BF0A4B1B78002B07D0054B1B783B
:1006A000DBB283F00103DBB2002BF3D100BF09B052
:1006B0005DF804FBB4000020000000200485000069
:1006C000B500002000B585B003900291054B009362
:1006D0004023054A02990398FFF77AFE00BF05B050
:1006E0005DF804FB590600007400002082B0019000
:1006F00000BF02B07047000000B583B0019005480C
:10070000FFF7F8FE0020FFF755FF00BF03B05DF8CC
:1007100004FB00BF0000002082B00190019BDB6859
:1007200001225A7100BF02B07047000000B583B0CB
:100730004FF0FF330193FFF781FF0421084800F0D9
:1007400095FD0190019B002B03DA0649482002F039
:100750007BFA0348FFF7E0FF00BF03B05DF804FB3E
:10076000E0840000A085000000B583B001900091F6
:10077000019B1B681B6800990198984700BF03B054
:100780005DF804FB00B583B00190019B1B685B68BA
:100790000198984700BF03B05DF804FB00B583B033
:1007A0000190019B1B689B680198984700BF03B0AC
:1007B0005DF804FB82B001900B468DF80330019B7D
:1007C000DB689DF803201A7100BF02B0704782B049
:1007D0000190019BDB681B79184602B0704782B01C
:1007E0000190019BDB6801225A7100BF02B0704783
:1007F00082B00190019BDB685B79184602B07047BC
:1008000000B585B001900091154BFF229A60144B02
:1008100000221A60124B00225A60114B0022C3F8CA
:1008200018240F4B0022C3F814240D4B002283F828
:1008300020240C4803F07EF80390039B002B01D08A
:10084000039B08E0084803F00BFA084A084BD31A48
:10085000DB0802930023184605B05DF804FB00BFD7
:1008600020020020F084000000860000E0840000E8
:1008700078840000024A034BD31ADB0818467047FD
:10088000E08400007884000000B587B001900B463A
:100890008DF803309DF80330002B1FD0FFF7EAFFDF
:1008A00004900023059313E0059B9B000E4A13441C
:1008B0000393039B1B881A46019B1B689A4204D131
:1008C000019B059A1A60002309E0059B01330593FB
:1008D000059A049B9A42E7D3052300E000231846BB
:1008E00007B05DF804FB00BF0000002000B585B034
:1008F00001900B468DF803309DF8032001AB1146A3
:100900001846FFF7C1FF0346002B07D1019BDB0010
:10091000054A13440393039B1B6800E00023184619
:1009200005B05DF804FB00BF7884000084B001903E
:100930000B468DF80330019BDB00174A13440293EA
:100940009DF80330013B032B1CD801A252F823F081
:100950006109000069090000710900007B090000BD
:1009600002238DF80F3011E004238DF80F300DE0D5
:10097000029B1B798DF80F3008E0029B5B798DF8A4
:100980000F3003E000238DF80F3000BF9DF80F30CB
:10099000184604B0704700BF7884000084B001900E
:1009A000009100238DF80F30019B1B7803F00403A6
:1009B000DBB2002B24D0019B1B78C3F30103DBB215
:1009C000012B02D0022B0CD017E0009B1B68019A70
:1009D0001288C2F38312D2B213449A1C009B1A608D
:1009E0000BE0009B1B68019A5288C2F3891292B2F5
:1009F00013449A1C009B1A6000BF01238DF80F302E
:100A00009DF80F30184604B07047000000B58BB059
:100A10000023ADF826303E4802F0A6FA3D4802F029
:100A2000A3FA3D4B5B6804933B4B9B680693049A87
:100A3000069B134002339B00374A13440433089348
:100A400004AB19460898FFF7A9FF0346002B09D00D
:100A5000049A069B134002339B002F4A134404332D
:100A60000893EDE700BF0023079311E0049B5A1C95
:100A70000492069A1340079A920001A90A44264953
:100A800002339B000B445B681360079B01330793A1
:100A9000079B012BEAD99DF80430C3F30103DBB2B5
:100AA000012B10D0022B1CD1BDF80A30ADF8263036
:100AB000BDF80630C3F389139BB203339A08049B35
:100AC0001344049313E0BDF80A30ADF82630BDF8A6
:100AD0000430C3F38313DBB21A46049B134404931C
:100AE00005E00E494FF4BF7002F0AEF800BF0948B0
:100AF00002F046FA0590059B002B02D0049B064AA3
:100B00005360BDF8263018460BB05DF804FB00BFFB
:100B10003806002034060020200200201086000045
:100B200000B585B00021074802F0A7F90390039BA8
:100B30000293029B83F310030193019B184605B0B7
:100B40005DF804FB3C06002000B589B003900291DB
:100B500001920093039B1B0C0793FFF7E1FF0690A4
:100B6000FFF788FE0246079B934204D3214940F2D7
:100B7000A31002F069F8069B1904009B5A1C0A9BFB
:100B80001340079A0A431C4902339B000B445A60E6
:100B9000009A0A9B134002339B00174A1344043304
:100BA0000593039B03F00703D9B2059A137861F309
:100BB000C5031370019B03F00F03D9B2059A138884
:100BC00061F389131380029BC3F31501059A13681F
:100BD00061F39F231360059A1378012161F30103E8
:100BE0001370059A13786FF38203137000BF09B076
:100BF0005DF804FB108600002002002000B58BB0D9
:100C00000390029113468DF80730039B023308933B
:100C100001238DF81F30002001F006FC3E4B1A68BE
:100C2000029B1A603C4B9A683B4B59683A4B1B68D5
:100C3000CB1A13440133099314E00121374802F021
:100C400063F9FFF7E3FE05900599344802F05CF97B
:100C5000314B9A68304B59682F4B1B68CB1A1344A1
:100C600001330993089A099B9A42E6D89DF81F30F0
:100C7000002B48D0002304939DF80730002B17D099
:100C80009DF81030012262F301038DF810309DF8B9
:100C9000103043F004038DF81030039B03F00F0372
:100CA000DAB2BDF8103062F38913ADF8103016E0F7
:100CB0009DF81030022262F301038DF810309DF888
:100CC000103043F004038DF81030039BC3F3090385
:100CD0009AB2BDF8123062F38F13ADF812300E4B9A
:100CE0001A680D4B9B68134002339B000A4A134459
:100CF00004330693049A069B1A60074B1A68089BF4
:100D00001344054A1360002001F0A2FB9DF81F3038
:100D100018460BB05DF804FB200200203C060020C2
:100D200000B58BB005900491039202931F4B9B6812
:100D3000079306AB012219460298FFF75FFF0346AF
:100D4000002B24D0069B023309930023089311E063
:100D5000089B9B00039A1A44099B591C0991079907
:100D60000B401268114902339B000B445A60089BE8
:100D700001330893089A029B9A42E9D3069A079B8B
:100D800000931346029A04990598FFF7DDFE074B7E
:100D900093F82034002B05D000BF00F065F803461F
:100DA000002BFAD100BF0BB05DF804FB200200203D
:100DB00000B583B0019000910023002200990198B2
:100DC000FFF7AEFF00BF03B05DF804FB00B587B0CE
:100DD000039002910192019B059305AA01230299B8
:100DE0000398FFF79DFF00BF07B05DF804FB00B557
:100DF00087B00390029101920093019B0493009BA2
:100E0000059304AA022302990398FFF789FF00BF04
:100E100007B05DF804FB00B58BB00390029101921E
:100E20000093019B0593009B06930C9B07930D9BDE
:100E300008930E9B099305AA052302990398FFF7CF
:100E40006FFF00BF0BB05DF804FB0000054B5A6854
:100E5000044B1B689A420CBF01230023DBB21846E7
:100E6000704700BF2002002000B599B0FFF7EEFFE9
:100E70000346002B01D00023B7E19B4B0022C3F8AF
:100E80001824BFF34F8F00BF974B5B680493964BBA
:100E90009B681093049A109B134002339B00924A64
:100EA0001344043311930023179300231693002354
:100EB0000F9304AB19461198FFF770FD0346002B02
:100EC00019D0894BD3F81834002B14D1864B1A68EB
:100ED000049B9A4205D8844B1B68834A53600023C5
:100EE00083E1049A109B134002339B007E4A134413
:100EF00004331193DDE70023159311E0049B5A1C82
:100F00000492109A1340159A920001A90A44764956
:100F100002339B000B445B681360159B01331593F0
:100F2000159B012BEAD99DF8043003F00303DBB2D3
:100F3000022B40F09C80BDF80630C3F389139BB2AE
:100F40000D93BDF80630C3F389139BB2502B28BF15
:100F500050239BB20C930C9BC3F309039AB2BDF8C8
:100F6000063062F38F13ADF806300C9B08330B93F9
:100F70009DF80430C3F3C203DBB20F930B995B48B7
:100F800002F0E3FC1790179B002B00F0D18017981C
:100F900002F06CFD01A9169B0822179802F022FEB0
:100FA000169B08331693049BDA43109B13400133BE
:100FB0009B000A930C9A0A9B9A4242D90A9B002BE7
:100FC00008D0049A109B134002339B00464A1344F6
:100FD000043300E0464B08930A9B002B02D00A9B87
:100FE000DBB201E00C9BDBB28DF81F300A9B002BBB
:100FF00001D03F4B00E0002306930A9B002B06D054
:101000000C9BDAB20A9BDBB2D31ADBB200E00023FE
:101010008DF817309DF81F20169B0899179802F03D
:10102000E1FD9DF81F30169A13441693069B002B82
:1010300016D09DF81720169B0699179802F0D2FD3E
:101040000EE0049A109B134002339B00264A13447F
:1010500004330993169B0C9A0999179802F0C2FD64
:101060000D9B03339A08049B1344049360E09DF89E
:10107000043003F00303DBB2012B59D1BDF8043077
:10108000C3F38313DBB2062B28BF0623DAB2BDF805
:10109000043062F38913ADF80430BDF80430C3F3B3
:1010A0008313DBB202330E939DF80430C3F3C20303
:1010B000DBB20F930E9B9B0019460C4802F045FCD7
:1010C0001790179B002B33D0179802F0CFFC01A983
:1010D000169B0822179802F085FD169B083316937D
:1010E000002315931BE000BF20020020F0840000C5
:1010F0002C020020049B5A1C0492109A13400233C5
:101100009B003C4A1344191D169B0422179802F0B9
:1011100069FD169B04331693159B01331593BDF897
:101120000430C3F38313DBB21A46159B9342E1D319
:10113000179B002B39D02F4BD3F8103414932D4B21
:10114000D3F81834002B1BD0179802F09EFC46E011
:1011500000238DF84F301498FFF74AFB0346002B0D
:1011600002D001238DF84F309DF84F30002B03D073
:1011700017991498FFF7F8FA149BDB681B6814930F
:10118000149B002BE4D1179802F07FFC002001F0A3
:101190004BF9184BD3F81834002B02D1049B154A95
:1011A0005360002001F054F919E0124BD3F81034C9
:1011B000129306E01298FFF7F1FA129BDB681B68A6
:1011C0001293129B002BF5D10B4A0C4BD31ADB0860
:1011D0001B0443F002030A491846FFF7E9FDFFF735
:1011E00035FE034683F00103DBB2184619B05DF803
:1011F00004FB00BF20020020A884000078840000C7
:101200006886000000B585B00023039323E0164BE9
:10121000D3F81034029301238DF807300FE00298C1
:10122000FFF7D5FA03461A46039B934203D10023E6
:101230008DF8073006E0029BDB681B680293029B77
:10124000002BECD19DF80730002B01D0039B07E069
:10125000039B01330393039B092BD8DD4FF0FF332E
:10126000184605B05DF804FB2002002000B585B0EB
:1012700001900B468DF80330FFF7C4FF0390039BEA
:10128000B3F1FF3F01D1039B22E0039BDBB2194680
:101290000198FFF78FFA104BD3F81034002B08D1C8
:1012A0000D4A019BC2F81034019BDB6800221A60D2
:1012B0000DE0094BD3F81034DA68019BDB68126843
:1012C0001A60054BD3F81034DB68019A1A60039B4F
:1012D000184605B05DF804FB2002002000B583B07D
:1012E0000D4BD3F8103401930B4B012283F82024CB
:1012F00009E00198FFF773FA0198FFF743FA019BA1
:10130000DB681B680193019B002BF2D100BF00BF7B
:1013100003B05DF804FB00BF2002002082B0019002
:10132000009100BF02B0704710B584B003900291E5
:10133000039BDB88002B0AD0039BDB881A461F4BDC
:10134000009313461E4A1F49029801F047FF039B72
:101350001B7A052B2ED0039B5B7A002B12D0039BAC
:101360009B881A46039B1B7A19461046FFF7DEFA44
:1013700003461A46144B53F822301A461349029872
:1013800001F02CFF039B1B6819460298FFF7C6FF6C
:10139000039B1B7A1A460E4B53F82240039B9B88F3
:1013A00000211846FFF7A2FA03462246094902988F
:1013B00001F014FF00BF04B010BD00BF9C86000008
:1013C000AC860000E486000030000020FC860000AF
:1013D0001C0000200087000000B585B0039002913A
:1013E00013468DF80730039B1B7A052B0FD0039B08
:1013F0005B7A002B06D00D4B1B681A460C490298ED
:1014000001F0ECFE0B49029801F0E8FE07E09DF8C0
:101410000730002B03D00749029801F0DFFE029845
:1014200001F0BAFE00BF05B05DF804FB30000020FB
:10143000FC8600000C87000030B58BB00790069149
:10144000059204930E9B1B7B8DF827300E9B002288
:101450001A730E990498FFF767FF059B062B7FD838
:1014600001A252F823F000BF851400008F14000081
:101470009F140000B3140000D1140000F914000000
:101480002915000007990E9801F0A8FE69E0069B57
:101490001B681A4607990E9801F0A0FE61E0069BB2
:1014A0001A68069B04331B6807990E9801F096FE94
:1014B00057E0069B1A68069B04331968069B08339D
:1014C0001B6800930B4607990E9801F087FE48E0D1
:1014D000069B1968069B04331868069B08331B6833
:1014E000069A0C3212680192009303460A46079945
:1014F0000E9801F073FE34E0069B1868069B0433D7
:101500001C68069B08331B68069A0C321268069901
:10151000103109680291019200932346024607990F
:101520000E9801F05BFE1CE0069B1C68069B0433D2
:101530001D68069B08331B68069A0C3212680699D0
:1015400010310968069814300068039002910192E6
:1015500000932B46224607990E9801F03FFE00E0CB
:1015600000BF00220E990498FFF736FF0E9B9DF8EE
:1015700027201A7300BF0BB030BD00BF00B587B085
:101580000390029101920093029B082B60D8009B6C
:101590001B7B8DF81330009B00221A730099019871
:1015A000FFF7C2FE0023059314E0059A029B9A42BE
:1015B00009D2039A059B13441B781A4626490098C2
:1015C00001F00CFE03E02549009801F007FE059BA1
:1015D00001330593059B072BE7D92149009801F0BA
:1015E000FDFD0023059326E0059A029B9A421BD23B
:1015F000039A059B13441B788DF812309DF8123026
:101600007E2B0AD89DF81230184606F0A3FE03463A
:10161000002B02D09DF8123000E02E231A4611490B
:10162000009801F0DBFD03E00F49009801F0D6FDC2
:10163000059B01330593059B072BD5D90122009902
:101640000198FFF7C9FE009B9DF813201A7300E074
:1016500000BF07B05DF804FB10870000188700008A
:101660001C870000208700002487000000B583B09D
:101670000190019B1B682F2B04D90B4940F2CD1020
:1016800001F0E2FA019B1B681F2B02D84FF0A04328
:1016900006E0019B1B6803F01F02019B1A60034BCD
:1016A000184603B05DF804FB2887000000030050D3
:1016B00000B585B00190084611461A4603468DF8DC
:1016C00003300B468DF8023013468DF8013001AB24
:1016D0001846FFF7CBFF03909DF803209DF80230DA
:1016E0005B001A439DF801309B001A439DF81830A7
:1016F0001B0242EA03019DF81C301B04019A1943A6
:10170000039B02F5E07243F8221000BF05B05DF8BC
:1017100004FB00B585B003900023019300230093E0
:101720000023012201210398FFF7C2FF00BF05B08B
:101730005DF804FB00B585B003900B468DF80B30C7
:101740009DF80B300022019200220092002200211D
:101750000398FFF7ADFF00BF05B05DF804FB00B5CF
:1017600085B0019001AB1846FFF780FF0390019B05
:10177000012202FA03F31946039800F086F800BF2D
:1017800005B05DF804FB00B585B0019001AB1846CB
:10179000FFF76CFF0390019B012202FA03F3194645
:1017A000039800F07CF800BF05B05DF804FB00B5BD
:1017B00085B0019001AB1846FFF758FF0390039BDB
:1017C000D3F804350293029BDA43019B012101FA0D
:1017D00003F31A40039BC3F80825019B01229A409A
:1017E000029B1A40039BC3F80C2500BF05B05DF8AF
:1017F00004FB00B583B001900091009B002B03D146
:101800000198FFF7C0FF02E00198FFF7A8FF00BFB3
:1018100003B05DF804FB00B585B0019001AB18463C
:10182000FFF724FF0390039800F01FF80246019B86
:1018300022FA03F303F00103184605B05DF804FB38
:1018400000B585B0019001AB1846FFF70FFF03907C
:10185000039800F012F80246019B22FA03F303F00A
:101860000103184605B05DF804FB82B00190019BAE
:10187000D3F81035184602B0704782B00190019B32
:10188000D3F80435184602B0704782B00190009139
:10189000019B009AC3F8082500BF02B0704782B0D0
:1018A00001900091019B009AC3F80C2500BF02B083
:1018B0007047000000B585B00190019B032B03D950
:1018C00011493A2001F0C0F9104A019B13441B78DA
:1018D0001846FFF7B5FF0346002B14BF0123002372
:1018E0008DF80F309DF80F30002B14BF012300231B
:1018F000DBB283F00103DBB203F00103DBB2184675
:1019000005B05DF804FB00BF4C8700009087000025
:1019100000B583B00190019B032B03D907494120F7
:1019200001F092F9064A019B13441B7800211846E6
:10193000FFF75FFF00BF03B05DF804FB4C870000BA
:101940009087000000B583B00190019B032B03D961
:101950000749472001F078F9064A019B13441B7898
:1019600001211846FFF745FF00BF03B05DF804FBF7
:101970004C8700009087000000B583B000230193DE
:1019800005E00198FFF7DEFF019B01330193019B06
:10199000032BF6D900BF00BF03B05DF804FB00B510
:1019A00083B00023019305E00198FFF7B1FF019B8D
:1019B00001330193019B032BF6D900BF00BF03B095
:1019C0005DF804FB00B583B00190019B032B03D9A4
:1019D00007495F2001F038F9064A019B13441B7840
:1019E0001846FFF7E4FE00BF03B05DF804FB00BF3C
:1019F0004C8700009087000000B583B0002301935E
:101A000009E0094A019B13441B781846FFF781FE41
:101A1000019B01330193019B032BF2D9FFF7ACFF2C
:101A200000BF03B05DF804FB9087000000B585B0EF
:101A30000190019B032B03D91149AC2001F004F95B
:101A4000104A019B13441B781846FFF7E4FE034637
:101A5000002B14BF012300238DF80F309DF80F30A9
:101A6000002B14BF01230023DBB283F00103DBB2A0
:101A700003F00103DBB2184605B05DF804FB00BFBC
:101A80004C8700009487000000B583B000230193C9
:101A90000AE0094A019B13441B7803211846FFF70B
:101AA00049FE019B01330193019B032BF1D900BF38
:101AB00000BF03B05DF804FB9487000084B0019080
:101AC0004FF0FF330293002303930DE00A4A039B78
:101AD00013441B781A46019B934202D1039B029345
:101AE00005E0039B01330393039B032BEED9029B79
:101AF000184604B0704700BF9487000000B583B05B
:101B00000190019B03F00103002B01D0FFF774FF4C
:101B1000019B03F00203002B01D0FFF7B5FF00BFCC
:101B200003B05DF804FB000086B0039002910192BF
:101B300001238DF817309DF81730214A039B13605D
:101B40001F4A029B53601E4A019B9360039B44F211
:101B50000102934213D0039B44F20202934221D12B
:101B6000019B174AD360164BDB681B881A46144B3F
:101B70009A61134BDB685B68114AD36112E0019BE9
:101B80000F4A13610E4B1B699B680D4A53610C4B46
:101B90001B691B680A4A9361094B1B695B68084A09
:101BA000D36100BF72B600BF00BF9DF81730DBB233
:101BB000002BFAD162B600BF00BF06B0704700BF6D
:101BC0004406002000B583B002900091019244F2D7
:101BD000010071466A4600F003F803B000BD00BF83
:101BE00030B58BB007900691059272B600BFFFF733
:101BF00075FB00BFFFF738F90346002BFAD1079BAE
:101C000044F20102934216D0079B44F2020293422F
:101C10003ED1059B09932C4A2C4BD31ADB081B049D
:101C200043F00100099B5B681A46099B1B88284901
:101C3000FFF7DDF839E0059B0893234A234BD31ABD
:101C4000DB081B0443F00104089B9D68089B9B680C
:101C5000184602F0C9F803461846089B5B68194607
:101C6000089B1B68069A02920193009103462A463C
:101C700018492046FFF7CFF8134A144BD31ADB0854
:101C80001B0443F0010314491846FFF791F80CE0D8
:101C90000D4A0E4BD31ADB081B0443F00103069ACE
:101CA0000E491846FFF792F800BF0D4B1B6803F072
:101CB0000103002B00D000BE059A06990798FFF794
:101CC00033FF00BF0BB030BDA88400007884000053
:101CD00098870000B4870000DC870000F0870000D0
:101CE000F0ED00E0F0B583B0124800F085FF034648
:101CF00018464FF00001104BD3E90023861841EB42
:101D00000307CDE900670D4BD3E90023DDE90001AE
:101D1000994208BF904207D2DDE9002312F1807496
:101D200043F10005CDE90045DDE9002310461946E1
:101D300003B0F0BD5400002070060020780600209B
:101D400088B001900091019B0793009B0693079B2D
:101D5000D3E90223CDE90423069BD3E90223CDE98D
:101D60000223DDE90423DDE90201994208BF904224
:101D70002CBF01230023DBB2184608B070470000D7
:101D800030B585B00190019B5B69002B03D12B49D5
:101D9000A22000F059FF00238DF80F30284B1B784C
:101DA000002B45D0019B002B42D0019B1B7FDBB257
:101DB000002B3DD0FFF796FF019BD3E90223994208
:101DC00008BF90422CD3019B1B69002B02D1019BC1
:101DD00000221A77019B5B69019A92691046984725
:101DE000019B1B69002B23D0019B1B7FDBB2002BC7
:101DF0001ED0019BD3E90201019B1B691A464FF0DB
:101E00000003841841EB0305019BC3E90245019BD4
:101E100019460C4801F042FF01238DF80F3007E00E
:101E2000019B1946074801F039FF01238DF80F3057
:101E30009DF80F30184605B030BD00BF1488000073
:101E40006806002068880000F0B589B00190009114
:101E50000D230793009B00221A70019BD3E90245D2
:101E6000FFF740FF02460B46A61A65EB0307CDE9D4
:101E70000467DDE90423012A73F100031BDB049BE3
:101E8000B3F5350F05D300F0A9FA0246154B1344FC
:101E900003E0019BD3E90223134603934FF4960317
:101EA000039A0021104800F0A9FD0790079B002B22
:101EB00005D1012313E000210B4800F077FE079BBA
:101EC0000D2B07D10198FFF75BFF03461A46009BD5
:101ED0001A7003E00549F52000F0B6FE002318460D
:101EE00009B0F0BDFFFFB4005400002014880000CA
:101EF00000B583B0044801F00BFF0190019B184628
:101F000003B05DF804FB00BF6888000000B583B033
:101F1000044801F01FFF0190019B184603B05DF8D3
:101F200004FB00BF6888000000B583B0FFF7E0FF46
:101F30000190019B002B02D0019B00221A77019B8C
:101F4000002BF3D100BF00BF03B05DF804FB00001D
:101F5000054BD3E9002312F1807043F10001024BDD
:101F6000C3E9000100BF70477006002000B583B0D0
:101F70000190134B1B68002B1DD0019800F03CFE14
:101F80000F4B1B68D3E90223134623F07F43194606
:101F900000F018FA0346B3F5960F04D309494FF43D
:101FA000957000F051FE064B1B681846FFF7E8FEDF
:101FB000034B00221A6000BF03B05DF804FB00BFB2
:101FC000640600201488000000B583B00190FFF77C
:101FD00089FE02460B460349C1E9002300BF03B056
:101FE0005DF804FB7806002000B585B00190FFF78E
:101FF0008DFF039000238DF80B30039B002B48D0FE
:102000002B4B1B68002B03D101238DF80B3019E0FB
:10201000039BD3E90201264B1B68D3E902239942B3
:1020200008BF90420ED201238DF80B30204B1B6865
:102030001B7FDBB2002B05D01D4B1B6819461D48CA
:1020400001F02CFE9DF80B30002B2AD0FFF750FF3B
:1020500003900DF10A0319460398FFF7F5FE0346B6
:10206000002B12D0124B1B68002B02D1019800F0FC
:10207000D1FB0F4A039B13609DF80A3083F00103E4
:10208000DBB2002BB3D000BF0EE0094B00221A6078
:10209000ADE7074B1B68002B05D1019800F0D0FB82
:1020A00001E000BF00E000BF00BF05B05DF804FB29
:1020B000640600206888000000B587B001902C4AB3
:1020C00003AB1946104600F0ABFE059048E0059BB7
:1020D0001B78022B2ED0022B32DC002B02D0012BDE
:1020E00014D02DE0059B5B681B7FDBB283F00103FE
:1020F000DBB2002B26D0059B5B6801221A77059B7B
:102100005B6819461B4801F0C9FD1BE0059B5A6836
:10211000194B1B689A4203D1174B00221A6012E038
:10212000059B5B681946134801F028FE03468DF8AD
:10213000133008E0FFF7F8FE104B01221A7002E09E
:1021400000BF00E000BF0A4A03AB1946104600F08A
:1021500080FE074A03AB1946104600F061FE059069
:10216000059B002BB3D100BF00BF07B05DF804FB97
:10217000D806002068880000640600206806002059
:1021800000B583B00190019800F003FD0346002BD9
:1021900001D0FFF7DDFE0021019800F018FD034695
:1021A000002B02D00198FFF7E1FE0121019800F019
:1021B0000EFD0346002B02D00198FFF705FF0198A2
:1021C000FFF77AFF0198FFF70FFF00BF03B05DF83C
:1021D00004FB000008B5024800F01BFD00BF08BD6D
:1021E0005400002000B585B0034600918DF80730FB
:1021F000114A02AB1946104600F0E5FD0390039B1F
:10220000002B13D0039B9DF807201A70039B009AA4
:102210005A60094A02AB1946104600F0EDFD03462C
:10222000002B01D0FFF7D6FF002300E0042318465F
:1022300005B05DF804FB00BFD806002000B583B0F0
:10224000164B1B680093164808235822154900F0C6
:1022500087FD0190019B002B01D0019B19E06B468B
:10226000114A1946114800F057FA0190019B002BC2
:1022700001D0019B0DE001210C4800F079FC012305
:102280000B4A0121094800F0F1FA0A4B01221A70A9
:10229000019B184603B05DF804FB00BF6488000092
:1022A000D806002080060020812100005400002074
:1022B000FFFF7F006806002000B587B003900B4643
:1022C00001928DF80B30039B002B04D1134940F28F
:1022D0002E2000F0B9FC019B002B04D10F4940F2E5
:1022E0002F2000F0B1FC019B002B01D1072310E04F
:1022F000039B1B680593059B019A5A619DF80B305F
:10230000012B0CBF01230023DBB21A46059B1A6187
:102310000023184607B05DF804FB00BF14880000D6
:1023200030B587B0039002910192039B002B04D13A
:10233000154940F23E2000F087FC039B0593059B66
:102340001B7FDBB2002B01D000231AE0059B019A12
:102350009A61FFF7C7FC029B1A464FF000038418EE
:1023600041EB0305059BC3E90245059B1B69002B57
:1023700002D0059B029A1A6105990020FFF732FFEF
:102380000346184607B030BD1488000000B585B07C
:102390000190019B002B04D109494FF4157000F006
:1023A00053FC019B0393039B00221A77039901209E
:1023B000FFF718FF0346184605B05DF804FB00BFA1
:1023C0001488000082B001900091019A009BD31AFA
:1023D00023F07F43184602B07047000008B5034859
:1023E00000F00AFC0346184608BD00BF5400002058
:1023F00072B600BF034B1B680133024A136000BF73
:10240000704700BFEC060020064B1B68013B054AE5
:102410001360044B1B68002B01D162B600BF00BFE4
:10242000704700BFEC06002000B583B0019000F0BB
:1024300025F80346012B03D00449432000F004FC97
:10244000FFF7D6FF00BF03B05DF804FB74880000FF
:1024500000B583B003468DF8073000F00FF803464F
:10246000012B03D00449512000F0EEFBFFF7CCFF15
:1024700000BF03B05DF804FB7488000084B0EFF384
:1024800005830193019BC3F308030393039B002B74
:102490000DD1EFF314830093009B0293029B03F092
:1024A0000103002B0CBF01230023DBB200E001235A
:1024B000184604B07047000082B003468DF807301C
:1024C0009DF8073003F01F0205499DF907305B09AD
:1024D000012000FA02F241F8232000BF02B0704749
:1024E00000E100E082B003468DF807309DF8073028
:1024F00003F01F0206499DF907305B09012000FA2D
:1025000002F2403341F8232000BF02B0704700BF01
:1025100000E100E082B0034600918DF807309DF99C
:102520000730002B0CDA009BDAB20C499DF807301B
:1025300003F00F03043B5201D2B20B441A7609E0B8
:10254000009BDAB206499DF907305201D2B20B4422
:1025500083F8002300BF02B0704700BF00ED00E029
:1025600000E100E000B583B003460A468DF807306D
:1025700013468DF806309DF80630072B03D908491D
:102580006B2000F061FB9DF806209DF90730114695
:102590001846FFF7BFFF00BF03B05DF804FB00BFA4
:1025A000CC88000000B583B003468DF807309DF954
:1025B00007301846FFF780FF00BF03B05DF804FB4B
:1025C00000B585B00190019B002B0AD0074B43F06A
:1025D00001030393019B9B010293039B029898477D
:1025E00000E000BF05B05DF804FB00BFB08900004B
:1025F00084B0039002910192039B029A02F5A872A3
:10260000019943F8221000BF04B0704782B00190D6
:102610000091019B009A02F5A87253F822301846E7
:1026200002B0704782B001900091019B009AC3F8FC
:10263000042300BF02B0704782B001900091019B5B
:10264000009AC3F8082300BF02B0704782B001901F
:102650000B46ADF80230BDF80230019A13441B68F6
:10266000184602B0704784B001900B46ADF80230B6
:10267000BDF80230019A134400221A60BDF80230FE
:10268000019A13441B680393039B00BF04B0704777
:1026900082B00190019BD3F80435184602B0704710
:1026A00000B583B001900091009BB3F5805F04D327
:1026B00006494FF4BE7000F0C7FA019B009AC3F8B8
:1026C000082500BF03B05DF804FB00BFF0880000E0
:1026D00082B001900B468DF803309DF80320019BDA
:1026E00013441A460123136000BF02B0704782B042
:1026F00001900091019B009AC3F8442300BF02B0EF
:10270000704782B001900091019B009AC3F8482362
:1027100000BF02B07047000000B587B0039002917F
:102720000192039B002B03D13349552000F08CFA12
:10273000029B002B03D13049562000F085FA019B03
:10274000002B03D12C49572000F07EFA039B5B79C4
:1027500019462A4A019B42F82130039B5B79284A9B
:10276000DB0013441B79002B0ED008230593254A68
:10277000254BD31ADB081B0443F0020323491846F8
:10278000FEF716FB059B32E0039B1A68029B1B8831
:1027900019461046FFF784FF039B93F90420029B20
:1027A0009B7819461046FFF7DDFE039B93F9043032
:1027B0001846FFF7F7FE039B5B79114ADB001344D1
:1027C00001221A71039B5B7919460D4A039B42F85B
:1027D0003130002305930B4A0B4BD31ADB081B0443
:1027E00043F003030A491846FEF7E2FA059B184630
:1027F00007B05DF804FB00BF14890000F00600205C
:10280000F4060020B8840000788400006489000089
:102810008889000000B583B00190019B002B03D193
:102820000649872000F010FA019B1B68002118461A
:10283000FFF74EFF00BF03B05DF804FB14890000F2
:1028400000B583B00190019B002B03D106498D2078
:1028500000F0FAF9019B1B6804211846FFF738FFC6
:1028600000BF03B05DF804FB1489000000B587B019
:102870000390029101928DF80330039B002B03D14A
:102880002149962000F0E0F94FF48032029B02FAD1
:1028900003F30593029B50339BB29B00ADF81230BB
:1028A000019B23F07F430193039B1B680599184606
:1028B000FFF7C2FE039B1B6805991846FFF721FF2F
:1028C000039B1B68BDF8122011461846FFF7CBFE8C
:1028D000039B1B68019A02991846FFF789FE039B28
:1028E0001B6805991846FFF702FF9DF80330002B7F
:1028F00005D0039B1B6805991846FFF793FE00BFA0
:1029000007B05DF804FB00BF1489000000B585B076
:102910000390029113468DF80730039B002B03D1DF
:102920000B49A92000F090F9039B1B6802991846F7
:10293000FFF7DDFE9DF80730002B05D0039B1B68D9
:1029400002991846FFF76EFE00BF05B05DF804FB64
:102950001489000000B583B001900091019B002B09
:1029600003D10A49B32000F06FF9019B1B6800995D
:102970001846FFF7C6FE019B1B6800991846FFF733
:102980005BFE00BF03B05DF804FB00BF14890000CC
:1029900000B583B001900B46ADF80230019B002BCF
:1029A00003D10F49BA2000F04FF9019B1B68BDF815
:1029B000022011461846FFF749FE0346002B09D0B6
:1029C000019B1B68BDF8022011461846FFF74BFE1D
:1029D000012300E00023184603B05DF804FB00BFAC
:1029E0001489000082B001900091019A009BD31AD3
:1029F00023F07F43184602B07047000000B58BB04B
:102A00000390029101920093039B002B03D157493D
:102A1000CD2000F019F94FF48032029B02FA03F343
:102A20000993029B50339BB29B00ADF82230019B6F
:102A300023F07F43019309990398FFF78BFF039BD2
:102A40001B681846FFF724FE0790039B1B6802993A
:102A50001846FFF7DBFD0690039B1B68079A029957
:102A60001846FFF7C5FD039B1B68BDF822201146E1
:102A70001846FFF7F8FD07990698FFF7B3FF0346DE
:102A8000012B0AD11020FFF79BFD039B1B68BDF8AB
:102A9000222011461846FFF7E6FD039B1B681846E7
:102AA000FFF7F6FD079007990198FFF79BFF059048
:102AB000039B1B6809991846FFF719FE059B012B1C
:102AC00015D1039B1868019B01331A460299FFF741
:102AD0008FFD1020FFF774FD039B1B681846FFF75E
:102AE000D7FD0246079B934235D00D2339E0039B67
:102AF0001B68019A02991846FFF77AFD039B1B6831
:102B00001846FFF7C5FD0790019B013B0799184642
:102B1000FFF768FF0590009BC3F1FF1303F57F43A8
:102B2000059A9A4201D90D231BE0059B002B12D177
:102B3000039B1868019B01331A460299FFF758FD61
:102B4000039B1B681846FFF7A3FD0246079B9342B1
:102B500001D00D2305E0012209990398FFF7D6FE65
:102B6000002318460BB05DF804FB00BF1489000079
:102B700000B583B001900B468DF803309DF803300B
:102B80001A4602210198FFF7C1FE00BF03B05DF8AD
:102B900004FB00B583B001904FF482710198FFF7F8
:102BA000F7FE0346184603B05DF804FB00B583B09A
:102BB000019000914FF48032009B02FA03F3194612
:102BC0000198FFF7C7FE00BF03B05DF804FB00B536
:102BD00085B001900091009B50339BB29B00ADF8F3
:102BE0000E30BDF80E3019460198FFF7D1FE0346AE
:102BF000184605B05DF804FB00B583B00190019B59
:102C00001B681846FFF744FD0346184603B05DF8FD
:102C100004FB00B583B00190019B93F90430184682
:102C2000FFF760FC00BF03B05DF804FB08B5044B80
:102C30001B68044A12681046984700BF08BD00BFD1
:102C4000F0060020F406002000B585B00346009190
:102C5000ADF80630BDF80630ADF80830009B0393A0
:102C600002AB1A46002144F20200FEF7B9FF00BF92
:102C700005B05DF804FB86B001900091019B53E81C
:102C8000011F8AB2D88902449889824228BF121A49
:102C90001889824202BFBFF32F8F002307E0C2EAE8
:102CA000010243E801200028E9D14FF001038DF82B
:102CB0000F30059002910492029A009B1A609DF8D1
:102CC0000F30DBB2184606B0704784B0019001990E
:102CD00051E8013FC3EA034341E80132002AF7D13A
:102CE0000392029300BF04B0704786B00190009138
:102CF000019B53E8021F1FFAA1F2D888824202BF4B
:102D0000BFF32F8F00230DE0D889024498898242B7
:102D100028BF121AC1EA024243E802200028E8D183
:102D20004FF001038DF80F30059002910492029A42
:102D3000009B1A609DF80F30DBB2184606B0704752
:102D400084B00190019951E8023FC3EA234341E86E
:102D50000232002AF7D10392029300BF04B07047F9
:102D600084B00390029111461A460B46ADF8063026
:102D70001346ADF80430029B002B01D10E231FE057
:102D8000BDF80630BDF80420B3FBF2F102FB01F2FE
:102D90009B1A9BB2002B01D0092311E0039B029ADE
:102DA0001A60039B00225A60039B00229A60039BD7
:102DB000BDF806209A81039BBDF80420DA81002328
:102DC000184604B0704700B585B001900091009B93
:102DD00019460198FFF74FFF0346002B07D0019BD0
:102DE0001B68009A128813440393039B00E000239E
:102DF000184605B05DF804FB00B583B00190009162
:102E0000009B1A88009B5B889A4204D10198FFF7C7
:102E10005CFF012300E00023184603B05DF804FBCB
:102E200000B585B001900091009B19460198FFF70D
:102E30005CFF0346002B07D0019B1B68009A528859
:102E400013440393039B00E00023184605B05DF88C
:102E500004FB00B583B001900091009B1A88009B91
:102E60005B889A4204D10198FFF76AFF012300E0D2
:102E70000023184603B05DF804FB10B487B001903E
:102E80000091019B009A53E8004F104643E800016F
:102E900091F0000FF7D1059404900391059B18461B
:102EA00007B05DF8044B704710B487B001900091F3
:102EB000019B009A53E8004F44EA020043E80001F6
:102EC00091F0000FF6D1059404900391049B1846ED
:102ED00007B05DF8044B704710B487B001900091C3
:102EE000019B009A53E8004F04EA020043E8000106
:102EF00091F0000FF6D1059404900391059B1846BC
:102F000007B05DF8044B704710B487B00190009192
:102F1000019B009A53E8004F04EB020043E80001D4
:102F200091F0000FF6D1059404900391049B18468C
:102F300007B05DF8044B704710B487B00190009162
:102F4000019B009A53E8004FA4EB020043E8000104
:102F500091F0000FF6D1059404900391049B18465C
:102F600007B05DF8044B704700B583B001900121B4
:102F70000198FFF799FF0346184603B05DF804FB7C
:102F800000B583B0019000210198FFF7A5FF03462B
:102F9000184603B05DF804FB00B583B001900B4602
:102FA0008DF80330019B002B03D10849E820FFF77F
:102FB0004BFE019BDA689DF803300199098A01FBF9
:102FC00003F31344184603B05DF804FBB88900000E
:102FD00000B583B001900091019B002B03D10849FB
:102FE000F520FFF731FE009B019AD2689B1A019AE7
:102FF000128AB3FBF2F3DBB2184603B05DF804FBB0
:10300000B889000000B585B00190019B002B01D16B
:103010000E234CE0019B1B68002B03D12649FF20A7
:10302000FFF712FE019B5B68002B04D122494FF48D
:103030008070FFF709FE019B9B68002B04D11E499D
:1030400040F20110FFF700FE019BDB68002B04D16A
:1030500019494FF48170FFF7F7FD019B1B8A002B84
:1030600004D1154940F20310FFF7EEFD019B9A6869
:10307000019B5B68D31A8DF80F30019B1B68019A86
:1030800052681A6007E0019B1A681368591C1160A6
:103090009DF80F201A709DF80F305A1E8DF80F20E2
:1030A000002BF0D1019B1B6800221A7100231846E7
:1030B00005B05DF804FB00BFB889000000B585B01D
:1030C0000190019B002B04D11C494FF49270FFF733
:1030D000BBFD002303930020FFF7A6F9019B1B68AB
:1030E0001A68019B5B689A421FD9019B1B681A688A
:1030F000013A1A601B681B7819460198FFF74CFFCC
:103100000390019B9A68019B1B681B68D31A8DF87A
:103110000B30019B1B681B799DF80B209A4204D948
:10312000019B1B689DF80B201A710020FFF790F996
:10313000039B184605B05DF804FB00BFB88900008A
:1031400010B584B001900091019B002B04D111496E
:1031500040F24710FFF778FD009B002B04D10D498A
:103160004FF4A470FFF770FD009B03930020FFF75E
:103170005BF9019B1B681C68621C1A60039901982B
:10318000FFF726FF034623700020FFF761F900BF19
:1031900004B010BDB889000000B583B00190019B58
:1031A000002B03D10C493120FFF74EFD019B9B689A
:1031B000002B0CD0019B5B69019A1069019A116880
:1031C000019A92689847019B00229A6000E000BF34
:1031D00003B05DF804FB00BF0C8A00000EB400B51C
:1031E00084B00190019B002B03D118494220FFF7C6
:1031F0002BFD019B5B69002B03D114494320FFF792
:1032000023FD019B1B68002B03D110494420FFF7CD
:103210001BFD019B5B68002B03D10C494520FFF788
:1032200013FD059B002B0AD00023039306AB0393E9
:1032300003AB1A460599019800F0B8F900E000BF09
:1032400004B05DF804EB03B0704700BF0C8A0000C7
:1032500000B583B001900B468DF803309DF8033024
:103260000A2B03D10D210198FFF7F2FF019B1A6889
:10327000019B9B68581C0199886013449DF80320AA
:103280001A70019B9A68019B5B689A4202D301986D
:10329000FFF782FF00BF03B05DF804FB00B587B005
:1032A000039002910192009300230593009B03F089
:1032B0000103002B24D00BE0029B01330293059BFA
:1032C000013305939DF8133019460398FFF7C0FFAB
:1032D000029B1B788DF813309DF81330002BEBD137
:1032E00006E0019B013B019320210398FFF7B0FF0B
:1032F000019A059B9A422ED9019B002BF1D12AE01D
:10330000029B002B0BD0029805F085F8059006E093
:10331000019B013B019320210398FFF799FF019A3C
:10332000059B9A420FD9019B002BF1D10BE0029B28
:1033300001330293059B013305939DF81330194621
:103340000398FFF785FF029B1B788DF813309DF8DB
:103350001330002BEBD100BF07B05DF804FB000079
:1033600000B589B00390029101920093029B0793EC
:103370000123069307E0079A019BB2FBF3F307933F
:10338000069B01330693079A019B9A42F3D2009A57
:10339000069B9A4201D9009B06930B9B03F0010305
:1033A000002B22D10A9B002B1FD00B9B03F00203A2
:1033B000002B06D0009B002B03D130238DF8173053
:1033C00002E020238DF8173008E00A9B013B0A93A6
:1033D0009DF8173019460398FFF73AFF0A9B002B18
:1033E00003D0069A0A9B9A42EFD301230793009BCE
:1033F000012B03D9009B013B009309E0029A079B34
:10340000B2FBF3F30493049A019B9A4200D205E0C5
:10341000079B019A02FB03F30793E8E7029A079BD5
:10342000B2FBF3F30493049B079A02FB03F3029AA3
:10343000D31A0293154A049B13441B781946039828
:10344000FFF706FF079A019BB2FBF3F30793079B75
:10345000002BE3D10B9B03F00103002B11D00A9B3F
:10346000002B0ED006E00A9B013B0A932021039813
:10347000FFF7EEFE0A9B002B03D0069A0A9B9A42A6
:10348000F1D300BF09B05DF804FB00BFA48A0000BF
:1034900000B589B00590049103920293049B002B20
:1034A000B8BF5B4206930123079307E0039B069A8C
:1034B00092FBF3F30693079B01330793039B069A52
:1034C0009A42F3DA029A079B9A4201D9029B079328
:1034D0000A9B002B0AD0049B002B04DB0B9B03F000
:1034E0000403002B02D00A9B013B0A930B9B03F0C1
:1034F0000203002B02D0029B002B16D00B9B03F083
:103500000103002B11D10A9B002B0ED006E00A9B71
:10351000013B0A9320210598FFF79AFE0A9B002B96
:1035200003D0079A0A9B9A42F1D3049B002B07DA37
:10353000049B5B4204932D210598FFF789FE08E068
:103540000B9B03F00403002B03D02B210598FFF7FE
:103550007FFE0B9B03F00203002B19D00B9B03F0A3
:103560000103002B14D1029B002B11D10A9B002BCD
:103570000ED006E00A9B013B0A9330210598FFF725
:1035800067FE0A9B002B03D0079A0A9B9A42F1D34D
:1035900004990B9B01930A9B0093029B039A059845
:1035A000FFF7DEFE00BF09B05DF804FB00B58FB089
:1035B000059004910392059B002B04D1B64940F27B
:1035C0005220FFF741FB059B5B69002B04D1B249F8
:1035D0004FF41570FFF738FB059B1B68002B04D1D7
:1035E000AD4940F25520FFF72FFB059B5B68002B90
:1035F00004D1A94940F25620FFF726FB049B002B7B
:1036000000F09381049B1B788DF83730049B0133C5
:1036100004939DF83730002B00F07E819DF8373001
:10362000252B40F06D8100230A9301230C93049B0A
:103630001B788DF837309DF83730302B0DD0302B7C
:103640001BDC2B2B11D02D2B17D10A9B43F0010330
:103650000A93049B0133049312E00A9B43F0020394
:103660000A93049B013304930AE00A9B43F004038A
:103670000A93049B0133049302E000230C9300BFE0
:103680000C9B002BD3D1002309939DF837302A2BB4
:103690000CD1039B1B68191D039A11601B68099AC2
:1036A00013440993049B013304931AE0049B1B7891
:1036B0008DF837309DF837302F2B12D99DF83730E1
:1036C000392B0ED8049B01330493099A13469B00AF
:1036D00013445B001A469DF837301344303B09937E
:1036E000D3E700230B93049B1B788DF837309DF8AC
:1036F00037302E2B1DD1049B01330493049B1B7880
:103700008DF837309DF837302F2B12D99DF8373090
:10371000392B0ED8049B013304930B9A13469B005C
:1037200013445B001A469DF837301344303B0B932B
:10373000E4E7049B1B788DF837309DF837306C2B0D
:1037400003D09DF83730682B07D1049B01330493D5
:10375000049B1B788DF83730EFE79DF83730252B29
:1037600000F0C480252BC0F2C680782B00F3C38004
:10377000582BC0F2C080583B202B00F2BC8001A225
:1037800052F823F073380000F7380000F7380000D3
:10379000F7380000F7380000F7380000F73800006D
:1037A000F7380000F7380000F7380000F73800005D
:1037B000093800002B380000F7380000F738000007
:1037C000F7380000F73800002B380000F738000009
:1037D000F7380000F7380000F7380000F73800002D
:1037E000F7380000B9380000F7380000F73800005B
:1037F0009D380000F73800004F380000F73800000F
:10380000F738000073380000039B1B68191D039AEA
:1038100011601B680C930C9B8DF81F309DF81F30B6
:1038200019460598FFF714FD66E0039B1B68191DF8
:10383000039A11601B680C930A9B0193099B0093E8
:103840000B9B0A220C990598FFF722FE54E0039B7C
:103850001B68191D039A11601B680C930C990A9B35
:103860000193099B00930B9B0A220598FFF778FDB3
:1038700042E0039B1B68191D039A11601B680C939F
:103880000C990A9B0193099B00930B9B10220598AE
:10389000FFF766FD30E000BF548A0000039B1B6801
:1038A000191D039A11601B6808930A9B099A0899CD
:1038B0000598FFF7F3FC1FE0039B1B68191D039A93
:1038C00011601B680C9330210598FFF7C1FC78212B
:1038D0000598FFF7BDFC0C99002301930823009382
:1038E000082310220598FFF73BFD05E025210598E8
:1038F000FFF7AEFC00E000BF049B0133049305E03A
:103900009DF8373019460598FFF7A2FC049B1B78F9
:10391000002B7FF477AE00E000BF059B1B7B002BE4
:1039200004D00598FFF738FC00E000BF0FB05DF849
:1039300004FB00BF00B583B001900198FFF762FB64
:103940000346184603B05DF804FB00B58BB0019048
:103950000091019B1B8A043B0793009A079B134429
:10396000DA1C079BB2FBF3F38DF81B300198FFF7CD
:10397000A5FB0590059B002B01D1002338E0059B9A
:1039800000221A71059B01225A71079B9AB2059B6E
:10399000DA80059B09939DF81B30013B0493099B3A
:1039A000019A1A60002308931DE00198FFF786FB37
:1039B0000390039B002B0ED0059B5B790133DAB299
:1039C000059B5A71099B039A1A60039B019A1A601E
:1039D000039B099304E0059800F00EF8002307E02C
:1039E000089B01330893089A049B9A42DDD3059BF8
:1039F00018460BB05DF804FB00B58BB00190019B3D
:103A00000793079B5B798DF81B30019B08939DF80A
:103A10001B30013B05930023099305E0089B1B68BD
:103A20000893099B01330993099A059B9A42F5D3A0
:103A3000089B1B680493019B0893002309930BE0E8
:103A4000089B1B68039308990498FFF779FB039B75
:103A50000893099B013309939DF81B30099A9A42F8
:103A6000EED300BF00BF0BB05DF804FB00B585B01E
:103A70000190019B0393039B043301211846FFF738
:103A800043FA00BF05B05DF804FB00B587B00190B4
:103A9000019B0593059B043301211846FFF74CFA5F
:103AA0000346039303AB0493049B1B78002B02D1C2
:103AB0000198FFF7A1FF00BF07B05DF804FB00000D
:103AC00000B591B00390029101920093039B002BEB
:103AD00003D14349B620FFF7B7F8039B0993039B33
:103AE0000F93099BDB881A46099B5B7903FB02F362
:103AF000043B0893009A089B9A4203D33849C42098
:103B0000FFF7A2F8099BDB880793009B1A1D079B10
:103B1000B2FBF3F30E93009B0433079AB3FBF2F26C
:103B2000079901FB02F29B1A0D93019B1A68009BF7
:103B30001344089A9A4203D2089A009BD31A01E0D0
:103B4000019B1B680C93019B0C9A1A6005E00F9B6C
:103B50001B680F930E9B013B0E930E9B002BF6D11F
:103B600000230B93079A0D9BD31A0A930A9A0C9B76
:103B7000934228BF13460A932AE0029A0B9B1344F0
:103B800006930F9A0D9B1344043305939DF8483018
:103B9000002B05D00A9A0599069804F0E0FB04E092
:103BA0000A9A0699059804F0DAFB00230D930F9BFF
:103BB0001B680F930C9A0A9BD31A0C930B9A0A9BBF
:103BC00013440B93079A0C9B934228BF13460A9306
:103BD0000C9B002BD1D100BF00BF11B05DF804FBDE
:103BE000B48A000000B589B0059004910392029355
:103BF000039B079307AA00230093029B049905984F
:103C0000FFF75EFF079B039A9A4203D00349F62011
:103C1000FFF71AF800BF09B05DF804FBB48A000092
:103C200000B589B00590049103920293039B07931A
:103C300007AA01230093029B04990598FFF740FF10
:103C4000079B039A9A4204D004494FF48070FEF710
:103C5000FBFF00BF09B05DF804FB00BFB48A0000A1
:103C600082B00190019B9B6800229A60019B9B6837
:103C700000221A61019B9B6800225A61019B9B688C
:103C80000022DA60019B9B6800225A60019B9B68BE
:103C900000221A6000BF02B07047000000B585B076
:103CA00001900091019B002B03D118493A20FEF7A7
:103CB000CBFF009B002B03D114493B20FEF7C4FF30
:103CC000019B5B6803930FE0019B9B68039A12685A
:103CD000009910469847034683F00103DBB2002B9E
:103CE00007D1039B1B680393039B1B68002BEBD13D
:103CF00000E000BF039B1A68009B1A60039B009AB8
:103D00001A6000BF05B05DF804FB00BF148B000013
:103D100000B585B00190019B002B03D10C495120C7
:103D2000FEF792FF019B5B681B680393019B5B6836
:103D30001B68002B06D0019B5B681A68019B5B68BF
:103D400012681A60039B184605B05DF804FB00BFBB
:103D5000148B000000B583B00190019B002B03D1B0
:103D600005495D20FEF770FF019B5B681B681846E4
:103D700003B05DF804FB00BF148B000000B585B0F4
:103D800001900091019B002B03D116496920FEF799
:103D90005BFF009B002B03D112496A20FEF754FF02
:103DA00000238DF80B30019B5B6803930FE0039BAE
:103DB0001B68009A9A4207D1009B1A68039B1A60FD
:103DC00001238DF80B3006E0039B1B680393039BD4
:103DD0001B68002BEBD19DF80B30184605B05DF841
:103DE00004FB00BF148B000000B585B00190019862
:103DF00000F00EF80390039B002B01D0039B00E022
:103E0000024B184605B05DF804FB00BF6C8B000048
:103E100086B00190164B0593164B04931FE0049A4D
:103E2000059BD31ADB10DA0F13445B10DB00059AF5
:103E300013440393039B1B680293029A019B9A42CB
:103E400002D9039B04930AE0029A019B9A4203D28F
:103E5000039B0833059302E0039B5B6804E0059A2B
:103E6000049B9A42DBD30023184606B0704700BF7C
:103E7000408F00005890000084B003468DF8073052
:103E80009DF807305B08DBB21A460D4B9B5C8DF842
:103E90000F309DF8073003F00103002B04D09DF88C
:103EA0000F301B09DBB204E09DF80F3003F00F0365
:103EB000DBB28DF80E309DF80E30184604B0704716
:103EC0003007002084B003460A468DF807301346B9
:103ED0008DF806309DF8073003F00103002B01D068
:103EE0000F2300E0F0238DF80F309DF8073003F02A
:103EF0000103002B04D09DF806301B01DBB201E06A
:103F00009DF806308DF80E309DF807305B08DBB267
:103F10001A46114B9A5C9DF807305B08DBB21946D4
:103F20009DF80F301340DAB20B4B5A549DF807300E
:103F30005B08DBB21A46084B9A5C9DF807305B08B9
:103F4000DBB219469DF80E301343DAB2024B5A54D5
:103F500000BF04B0704700BF3007002000B585B037
:103F600003468DF807300023039310E00F4B1A68C7
:103F7000039BDB0013440293029B1B789DF80720F0
:103F80009A4201D1029B0DE0039B01330393084B3E
:103F90001B781A46039B9342E8DB06498820FEF70C
:103FA00053FE0023184605B05DF804FBFC06002014
:103FB00000070020A491000000B585B003460A4622
:103FC0008DF8073013468DF806309DF807301846F7
:103FD000FFF7C4FF0390039B002B0BD0039B5B6890
:103FE000002B07D0039B5B689DF806109DF8072007
:103FF0001046984700BF05B05DF804FB2DE9F04F6F
:1040000085B003460A468DF80F3013468DF80E3002
:104010009DF80F301846FFF72FFF0346042B00F2E0
:10402000B48001A252F823F03D400000A3400000FC
:10403000BF400000EF400000054100009DF80E3039
:10404000002B00F09F809DF80F3001211846FFF7EC
:1040500039FF0020FEF7E8F99DF80F104FF001023C
:104060004FF00003A1F12004C1F1200003FA01F791
:1040700002FA04F4274322FA00F0074302FA01F699
:10408000444BD3E9002346EA020100913B430193EC
:10409000404BDDE90012C3E900120020FEF7D8F919
:1040A00070E09DF80E30002B01D0022200E00022CB
:1040B0009DF80F3011461846FFF704FF65E09DF8A4
:1040C0000E30002B0CD09DF80F3003211846FFF75F
:1040D000F9FE9DF80F3001211846FFF76DFF54E0FF
:1040E0009DF80F3001211846FFF7ECFE4DE09DF8DA
:1040F0000E30002B48D19DF80F3004211846FFF7F1
:10410000E1FE41E09DF80E30002B06D09DF80F3007
:1041100003211846FFF7D6FE37E09DF80F30002147
:104120001846FFF7CFFE9DF80F3000211846FFF725
:1041300043FF0020FEF778F99DF80F104FF00102C1
:104140004FF00003A1F12006C1F1200003FA01F5B0
:1041500002FA06F6354322FA00F0054302FA01F4AA
:104160006FEA04086FEA05090A4BD3E9002308EA5D
:10417000020A09EA030B074BC3E900AB0020FEF774
:1041800067F902E000BF00E000BF00BF05B0BDE876
:10419000F08F00BF2807002000B583B00648074B0A
:1041A0001B685B0800221946FEF7BAF8019000BFB1
:1041B00003B05DF804FB00BF0807002004070020DF
:1041C00000B587B001900023059328E01C4B1A68C6
:1041D000059BDB0013440493049B1B78184601F0F5
:1041E0006DFE03468DF80F30049B5B78012B0CBFEE
:1041F00001230023DBB21A469DF80F309A420CBF10
:10420000012300238DF80E30049B1B789DF80E20AF
:1042100011461846FFF7F2FE059B01330593094B43
:104220001B781A46059B9342D0DB074BD3E900234A
:10423000134301D0FFF7B0FF00BF07B05DF804FBE8
:10424000FC060020000700202807002000B585B0EC
:1042500001900B468DF80330019BDBB21846FFF747
:104260007DFE0390039B1B78184601F027FE034652
:104270008DF80B30039B5B78012B0CBF01230023CF
:10428000DBB21A469DF80B309A420CBF0123002383
:104290008DF80A309DF80A30002B06D0054BD3E983
:1042A0000023134301D1FFF777FF00BF05B05DF88E
:1042B00004FB00BF2807002000B58BB003900B461D
:1042C00001928DF80B30019B092B01D8072367E081
:1042D00001F0E6FC034683F00103DBB2002B09D0BA
:1042E00001F08CFC0990099B0893089B002B01D0DE
:1042F000089B55E02C4A039B13602C4A9DF80B3019
:1043000013702B4A019B136020220021294804F0DE
:104310004FF829494FF000024FF00003C1E9002394
:1043200031E09DF80B30DB00039A1344079303231D
:104330008DF8143000238DF815309DF816306FF38A
:1043400000038DF816309DF816306FF341038DF899
:1043500016309DF816306FF382038DF81630079BE8
:104360009B788DF81530079B1B78184605AB134AD0
:10437000194601F0A1FC0990099B0693069B002BAE
:1043800001D0069B0CE09DF80B305A1E8DF80B20D7
:10439000002BC6D10A4A00210A48FDF78DFF0346CB
:1043A00018460BB05DF804FBFC0600200007002057
:1043B0000407002030070020280700204D4200009D
:1043C000C1410000F891000000B583B0114B1B689B
:1043D000002B04D1104940F23510FEF735FC0023C4
:1043E00001930CE00B4B1A68019BDB0013441B7814
:1043F0000121184601F0DAFC019B01330193074BC0
:104400001B781A46019B9342ECD30023184603B055
:104410005DF804FBFC060020A491000000070020CA
:1044200000B587B003460A468DF8073013468DF86D
:10443000063000238DF81730002304939DF80730D1
:104440001846FDF73BFB0490049B032B61D89DF8B5
:104450000630022B52D0022B5EDC002B31D0012B18
:104460005AD13649049A13465B0013440B441B7817
:104470008DF817303149049A13465B0013440B44FE
:1044800001331B78002B0ED02D4B2E4A4FF4804168
:104490001846FDF745FF0390039B002B03D1294AE3
:1044A0009DF8073013702549049A13465B001344A6
:1044B0000B4402331978244A049B13440A461A70A9
:1044C0002AE01F4B1846FDF761FF1F4A049B134467
:1044D00019781A48049A13465B00134403440233C4
:1044E0001B78994217D11549049A13465B0013446F
:1044F0000B4402331B788DF817300CE00F49049AF7
:1045000013465B0013440B4401331B788DF81730BE
:1045100002E000BF00E000BF9DF81730002B09D07B
:104520000A4B1B68002B05D0084B1B689DF8172011
:104530001046984700BF07B05DF804FBA4070020B1
:10454000B0070020D0070020D4070020A0070020DB
:1045500000B583B00190019B1B7802211846FFF73C
:104560005FFF00BF03B05DF804FB000000B583B03F
:104570000C4B1B78002B0FD00023019308E0019B0C
:10458000022B02D00198FDF7DDF9019B0133019365
:10459000019B032BF3D901E0FDF7EEF900BF03B057
:1045A0005DF804FB580700202DE9F04F87B0034663
:1045B0008DF80F300023059300230493D14B1B7813
:1045C000002B04D0CF4B00221A70FFF7CFFF9DF8CD
:1045D0000F30172B00F2298201A252F823F000BFFE
:1045E000414600005946000059460000EB460000D5
:1045F00079470000ED470000794800009948000025
:10460000A9480000C7480000E54800001149000023
:104610002F4900003D4900003D4900003D49000090
:104620003D4900003D490000CD490000DB49000044
:10463000EF490000034A00001D4A00001D4A000027
:10464000FFF794FFB04B1846FDF7A0FE0590AF4A68
:104650009DF80F301370E9E10020FDF72BF90346B8
:10466000002B0DD00020FDF76DF99DF80F30022BC7
:1046700002D14FF4E16301E04FF47A6304930BE05D
:104680000020FDF745F99DF80F30022B01D1C8231A
:1046900001E04FF4C87304939C4A9DF80F301370E7
:1046A000994C049B18464FF000014FF000024FF068
:1046B0000003CB0343EA5043C20312F57A71009121
:1046C00043F1000301934FF4FA624FF00003DDE978
:1046D000000103F07FFD02460B46134600221946F7
:1046E0002046FDF71DFE0590A0E10020FDF7E2F851
:1046F0000346002B0DD00020FDF724F99DF80F3064
:10470000032B02D14FF4487301E04FF47A63049312
:104710000BE00020FDF7FCF89DF80F30032B01D1D2
:10472000C82301E04FF4C8730493784A9DF80F3012
:104730001370754C049B18464FF000014FF00002B7
:104740004FF00003CB0343EA5043C20312F57A7AD9
:1047500043F1000B4FF4FA624FF000035046594604
:1047600003F038FD02460B46134600221946204648
:10477000FDF7D6FD059059E10020FDF79BF80346B3
:10478000002B06D00020FDF7DDF84FF47A63049388
:1047900005E00020FDF7BCF84FF4C87304935B4AB2
:1047A0009DF80F301370584C049B18464FF00001D1
:1047B0004FF000024FF00003CB0343EA5043C20323
:1047C00012F57A7843F100094FF4FA624FF00003D2
:1047D0004046494603F0FEFC02460B4613460022C3
:1047E00019462046FDF79CFD05901FE10020FDF7CE
:1047F00061F80346002B0CD00020FDF7A3F89DF8CC
:104800000F30052B01D1C82301E04FF47A630493E4
:104810000BE00020FDF77CF89DF80F30052B01D14F
:10482000C82301E04FF4C8730493384A9DF80F3051
:104830001370354C049B18464FF000014FF00002F6
:104840004FF00003CB0343EA5043C20312F57A76DC
:1048500043F100074FF4FA624FF000033046394647
:1048600003F0B8FC02460B461346002219462046C8
:10487000FDF756FD0590D9E00020FDF7A3F8234A87
:104880009DF80F301370204B002240F266611846ED
:10489000FDF746FD0590C9E00020FDF739F81B4AF9
:1048A0009DF80F301370C1E0164B01221A700120E1
:1048B000FDF788F8144B002240F266611846FDF7B8
:1048C0002FFD0590B2E00F4B01221A700120FDF779
:1048D00079F80D4B00224FF400511846FDF720FDEA
:1048E0000590A3E0074B01221A700120FDF76AF83A
:1048F000054B002240F266611846FDF711FD059058
:1049000094E000BF510700206007002050070020FE
:10491000494B01221A700120FDF754F8474B002241
:104920004FF400511846FDF7FBFC05907EE0FDF7C3
:1049300036F8434A9DF80F30137077E0414B184624
:10494000FDF724FD05909DF80F30C3F1110304938A
:10495000049B002B33D0059B002B30D1049B012BF3
:1049600026D9384E049B9BB21A46C82303FB02F398
:1049700018464FEAE0714FF000024FF00003CB03FE
:1049800043EA5043C20312F57A7443F100054FF431
:10499000FA624FF000032046294603F01BFC024652
:1049A0000B461346002219463046FDF7B9FC059028
:1049B0000220FCF7ADFF244B01221A7036E00220E2
:1049C000FCF7C0FF204B00221A702FE0FFF7CEFD4E
:1049D0001B4A9DF80F30137028E0FFF7C7FD002039
:1049E000FCF796FF164A9DF80F3013701EE0FFF794
:1049F000BDFD0120FCF78CFF114A9DF80F301370AC
:104A000014E0FFF7B3FD0020FCF782FF0120FCF764
:104A10007FFF0B4A9DF80F30137007E0FCF7BFFFD4
:104A2000074A9DF80F30137000E000BF059B184641
:104A300007B0BDE8F08F00BF5107002060070020DD
:104A400050070020800700205807002000B583B0E1
:104A50000190074B1B6803F00103002B04D0054BAA
:104A60001B781846FFF7A0FD00BF03B05DF804FBFC
:104A7000540700205007002000B583B001900220A9
:104A8000FCF7A0FF00BF03B05DF804FB00B585B0E4
:104A900001900091002303932A4A019B13602A4A44
:104AA000009B1360019B03F00203002B2AD000231C
:104AB000029308E001220121029800F055F80390CA
:104AC000029B01330293029B032B02D8039B002B12
:104AD000F0D0039B002B06D140F2333204211B4857
:104AE000FFF7EAFB0390039B002B02D1FFF76CFC5E
:104AF0000390039B002B05D1154A00211548FDF7B3
:104B0000DBFB0390019B03F00103002B14D0012079
:104B1000FCF7F4FF039B002B05D10F4A00210F483F
:104B2000FDF7CAFB0390039B002B05D10C4A012122
:104B30000C48FDF7C1FB0390039B184605B05DF8D8
:104B400004FB00BF54070020A007002008920000CB
:104B500051450000049200004D4A0000FC91000005
:104B6000794A00000092000084B001900B468DF855
:104B7000033013468DF8023000230393019B032B6F
:104B80003CD89DF80230012B0BD19DF80330012B4E
:104B900004D1019BDBB20E33DBB200E000238DF8C1
:104BA00002309DF80330022B0FD0022B23DC002BA8
:104BB00016D0012B1FD11449019A13465B001344F0
:104BC0000B449DF802201A701AE00F49019A13460F
:104BD0005B0013440B4401339DF802201A700FE070
:104BE0000949019A13465B0013440B4402339DF8B4
:104BF00002201A7004E00723039301E007230393C4
:104C0000039B184604B07047A407002000B585B088
:104C10000190019B002B0AD0074B43F00103039343
:104C2000019B9B010293039B0298984700E000BF01
:104C300005B05DF804FB00BF6092000000B583B0D2
:104C40000190019B002B0AD04FF47A70FFF7DEFF32
:104C5000019B013B0193019B002BF5D100E000BFBC
:104C600003B05DF804FB000000B585B003468DF885
:104C700007301F4B00225A709DF807300E3B032B64
:104C800030D80023039323E0039B1846FCF7CEFEA5
:104C90000346002B03D0039B1846FCF793FE039BAF
:104CA0001846FCF707FE0346002B04D00122039BA5
:104CB00002FA03F300E000230D4A527852B25BB2CD
:104CC00013435BB2DAB20A4B5A70039B013303936E
:104CD000039B032BD8DD064B01221A70044800F019
:104CE00025F900E000BF00BF05B05DF804FB00BF80
:104CF000D807002000B587B04FF480410020FBF7B3
:104D00007FFD0590059B002B04D0274A492105987B
:104D1000FCF758FFFBF70AFD03F072F90490049BBF
:104D20000393039B002B04D01F4A4E210398FCF7EA
:104D300049FF002003F0BAF9FDF780FA0490049BC4
:104D40000293029B002B04D0174A52210298FCF7D1
:104D500039FF164B01221A60154B0122C3F840257A
:104D60004FF080430022C3F800214FF0804301221E
:104D70001A6000BF4FF08043D3F80031002BF9D008
:104D800000210120FFF782FE0490049B0193019B08
:104D9000002B04D0044A65210198FCF713FF00BFE3
:104DA00007B05DF804FB00BF2892000000D000406F
:104DB00000E0014000B583B0FFF79CFF00F02EF843
:104DC00013490320FFF762FE0190019B0093009BB3
:104DD000002B04D00F4A6F210098FCF7F3FE0B2044
:104DE00000F070F8002000F08FF87F2200210A48C0
:104DF00003F0DEFA084B01221A70074B00225A70AA
:104E00004FF47A70FFF71AFF034800F08FF8F7E7C6
:104E1000694C000028920000D8070020194BD3F8F5
:104E20005036184A23F00103C2F85036154B164A83
:104E3000C3F81825134B0022C3F83425114B002268
:104E4000C3F82C250F4B0122C3F830250D4B4FF032
:104E5000CC32C3F824250B4B4FF0CC32C3F81C25C1
:104E6000084B0A4AC3F81425064B7F22C3F81825BD
:104E7000044BD3F85036034A43F00103C2F85036CE
:104E800000BF7047001000407E00040308000002CD
:104E90000B4B0022C3F80022094B0022C3F810215B
:104EA000074B01221A6100BF054BD3F81031002BCC
:104EB000FAD0034B0022C3F8102100BF704700BF97
:104EC0000010004082B003468DF807309DF807308F
:104ED0000A2B0ED99DF807301A2B0AD89DF80730F7
:104EE000A3F10A0213469B001A44064BC3F8082597
:104EF00004E0044B0522C3F8082500BF00BF02B040
:104F0000704700BF0010004000B583B003468DF825
:104F10000730FFF7BDFF044A9DF80730C2F80C3593
:104F200000BF03B05DF804FB0010004000B583B083
:104F30000190FFF7ADFF124A019BC2F80435104BF8
:104F4000104AC3F800220E4B0022C3F80C250C4B6C
:104F50000F22C3F810250B20FFF7B4FF084B0022E7
:104F6000C3F80C21064B01221A6000BF044BD3F892
:104F70000C31002BFAD000BF00BF03B05DF804FB7A
:104F80000010004001002000BFF34F8F00BF074B0F
:104F9000DB6803F4E0620549054B1343CB60BFF3C4
:104FA0004F8F00BF00BF00BFFCE700BF00ED00E077
:104FB0000400FA05024B034A1A6000BF704700BFA5
:104FC0005C0000200090D00308B500F027F90346EC
:104FD000002B0ED04FF080430022C3F80C214FF07D
:104FE00080430022C3F810214FF080430022C3F811
:104FF000382500F037F90346002B76D04FF0805368
:105000007D4AD3F80434C2F820354FF080537A4AF1
:10501000D3F80834C2F824354FF08053764AD3F8D9
:105020000C34C2F828354FF08053734AD3F810344B
:10503000C2F82C354FF080536F4AD3F81434C2F8BD
:1050400030354FF080536C4AD3F81834C2F83435F9
:105050004FF08053684AD3F81C34C2F840354FF003
:105060008053654AD3F82034C2F844354FF080535A
:10507000614AD3F82434C2F848354FF080535E4A71
:10508000D3F82834C2F84C354FF080535A4AD3F83D
:105090002C34C2F850354FF08053574AD3F830348F
:1050A000C2F854354FF08053534AD3F83434C2F821
:1050B00060354FF08053504AD3F83834C2F8643525
:1050C0004FF080534C4AD3F83C34C2F868354FF067
:1050D0008053494AD3F84034C2F86C354FF08053BE
:1050E000454AD3F84434C2F8703500F0DFF803467F
:1050F000002B02D0414B424A1A6000F0E9F8034607
:10510000002B03D03F4BFB22C3F8182500F0F2F828
:105110000346002B0AD03C4B1B6823F00F023B4B8D
:105120001B6803F00F03384913430B6000F0F4F8D9
:105130000346002B03D0364B4FF400721A6000F088
:10514000FDF80346002B0DD04FF08043D3F8003418
:1051500003F00103002B05D04FF080436FF00102F4
:10516000C3F800242B4BD3F888302A4A43F4700349
:10517000C2F88830BFF34F8F00BFBFF36F8F00BFFF
:105180004FF01023D3F80032002B05DB4FF0102333
:10519000D3F80432002B2BDA1F4B0122C3F804256D
:1051A00000BF1D4BD3F80034002BFAD04FF0102372
:1051B0001222C3F8002200BF174BD3F80034002B93
:1051C000FAD04FF010231222C3F8042200BF124B72
:1051D000D3F80034002BFAD00F4B0022C3F804257B
:1051E00000BF0D4BD3F80034002BFAD0FFF7CCFEF4
:1051F000FFF7E0FE00BF08BD00C000408C56004035
:105200004881030000F00040E40E00405802001006
:105210004096024000ED00E000E001400F4B1B68AB
:10522000082B17D10E4B1B68002B01D1012312E074
:105230000B4B1B68012B01D101230CE0084B1B68B1
:10524000022B01D1012306E0054B1B68032B01D182
:10525000012300E001231846704700BF3001001011
:10526000340100100F4B1B68082B17D10E4B1B6825
:10527000002B01D1012312E00B4B1B68012B01D144
:1052800001230CE0084B1B68022B01D1012306E02F
:10529000054B1B68032B01D1012300E001231846B5
:1052A000704700BF3001001034010010064B1B682E
:1052B000082B05D1054B1B68002B01D1012300E011
:1052C00000231846704700BF300100103401001061
:1052D000064B1B68082B05D1054B1B68002B01D121
:1052E000012300E000231846704700BF3001001082
:1052F00034010010064B1B68082B05D1054B1B68B9
:10530000002B01D1012300E000231846704700BFA5
:105310003001001034010010064B1B68082B05D12A
:10532000054B1B68002B01D1012300E00023184628
:10533000704700BF30010010340100100F4B1B6894
:10534000082B17D10E4B1B68002B01D1012312E053
:105350000B4B1B68012B01D101230CE0084B1B6890
:10536000022B01D1012306E0054B1B68032B01D161
:10537000012300E001231846704700BF30010010F0
:105380003401001000B589B001900091009B079393
:10539000019B1B788DF80C30019B5B680493019B8B
:1053A0009B68DBB28DF81430019BDB680693074ADB
:1053B000079B52F823300649079A51F8221003AA96
:1053C0001046984700BF09B05DF804FB580800205C
:1053D0006008002000B589B001900091009B079300
:1053E000019B1B788DF80C30019B5B680493019B3B
:1053F0009B68DBB28DF81430019BDB680693074A8B
:10540000079B52F823300649079A51F8221003AA45
:105410001046984700BF09B05DF804FB580800200B
:105420006008002030B58FB0039002910192039B79
:105430001B780C932C490C9B019A41F82320029B6A
:105440001A692A490C9B41F823200C9B012B07D198
:10545000029B5B7F002B03D125497620FDF7F4FBEF
:10546000029B5B7F1946234A0C9B13440A461A7021
:10547000029B04AC1D460FCD0FC495E80F0084E8D5
:105480000F000C9B089300230D93039B1B781A4677
:10549000184B9B5C002B0DD0039B181D019B002B10
:1054A00001D0154A00E0002204AB194602F072F95F
:1054B0000D9014E0039B1B781A460E4B9B5C002B4F
:1054C0000DD1039B03F10C00019B002B01D00B4A73
:1054D00000E0002204AB194601F01AFB0D900D9B71
:1054E00018460FB030BD00BF5808002060080020EB
:1054F000689200006808002085530000D553000022
:1055000082B003468DF807309DF8073003F01F0284
:1055100005499DF907305B09012000FA02F241F8C4
:10552000232000BF02B0704700E100E082B00346D4
:1055300000918DF807309DF90730002B0CDA009BA5
:10554000DAB20C499DF8073003F00F03043B520117
:10555000D2B20B441A7609E0009BDAB206499DF9F3
:1055600007305201D2B20B4483F8002300BF02B0CF
:10557000704700BF00ED00E000E100E000B583B03F
:1055800003460A468DF8073013468DF806309DF81D
:105590000630072B03D908496B20FDF755FB9DF812
:1055A00006209DF9073011461846FFF7BFFF00BFE0
:1055B00003B05DF804FB00BFB892000000B583B0F3
:1055C00003468DF807309DF907301846FFF798FF1E
:1055D00000BF03B05DF804FB00B583B00346ADF82F
:1055E0000630BDF80630184600F026F803461B6862
:1055F000012B0CBF01230023DBB2184603B05DF87A
:1056000004FB00B585B00346ADF80630BDF80630A2
:10561000184600F011F803461A4600231360BDF83F
:105620000630184600F008F803461B680393039BF6
:1056300000BF05B05DF804FB82B00346ADF806304C
:10564000BDF8063003F1804303F5C043184602B0AD
:105650007047000082B00190034A019BC2F80433F6
:1056600000BF02B0704700BF0060004082B00190F0
:10567000034BD3F80423019B1340184602B0704734
:105680000060004082B00190084A019B03F5A273BC
:1056900052F82330054943F00102019B03F5A27340
:1056A00041F8232000BF02B0704700BF00600040F7
:1056B00084B00390029113468DF80730144A039B7F
:1056C00003F5A27352F82330114923F44F3323F426
:1056D0004073039A02F5A27241F822300C4A039BF0
:1056E00003F5A27352F82320029B1B0203F47C51A2
:1056F0009DF807301B0403F440330B4304491A435D
:10570000039B03F5A27341F8232000BF04B0704748
:105710000060004082B00190054A019B03F5A2732E
:1057200052F823301B0A03F03F03184602B07047BB
:105730000060004082B00190064A019B03F5A2730D
:1057400052F823301B0C03F00303DBB2184602B0FF
:10575000704700BF0060004000B583B00190019B1E
:105760001B682F2B04D90B4940F2CD10FDF76CFAC2
:10577000019B1B681F2B02D84FF0A04306E0019B42
:105780001B6803F01F02019B1A60034B184603B00D
:105790005DF804FBDC9200000003005000B585B00A
:1057A0000190084611461A4603468DF803300B4611
:1057B0008DF8023013468DF8013001AB1846FFF723
:1057C000CBFF03909DF803209DF802305B001A4345
:1057D0009DF801309B001A439DF818301B0242EAE5
:1057E00003019DF81C301B04019A1943039B02F529
:1057F000E07243F8221000BF05B05DF804FB00B56D
:1058000085B003900B468DF80B309DF80B300022CD
:10581000019200220092002200210398FFF7BEFFB0
:1058200000BF05B05DF804FB00B585B0019001AB89
:105830001846FFF791FF0390019A039B02F5E0726F
:1058400053F8223023F002030293019A039B02F5DE
:10585000E072029943F8221000BF05B05DF804FB26
:1058600000B585B001900B468DF8033001AB1846AA
:10587000FFF772FF0390019A039B02F5E07253F861
:105880002230019A23F44031039B02F5E07243F881
:105890002210019A039B02F5E07253F822309DF822
:1058A000032012041146019A1943039B02F5E0728A
:1058B00043F8221000BF05B05DF804FB00B585B0C9
:1058C000019001AB1846FFF747FF0390039800F0E3
:1058D00020F80246019B22FA03F303F00103184665
:1058E00005B05DF804FB00B585B0019001AB18462A
:1058F000FFF732FF0390019A039B02F5E07253F821
:1059000022301B0C03F00303DBB2184605B05DF830
:1059100004FB82B00190019BD3F81035184602B009
:105920007047000000B589B0039002910192184AB7
:1059300005AB92E8030083E80300039A029B13443B
:10594000022B04D9134940F2FD20FDF77DF9039B9A
:10595000079311E0079B9B0008AA134453F80C3CE3
:105960001846FFF7D6FF0246019B1A60019B0433DD
:105970000193079B01330793039A029B1344079AF1
:105980009A42E7D300BF00BF09B05DF804FB00BF37
:1059900000930000DC92000084B001900091009B15
:1059A0000393019BDB080293019B03F00703019320
:1059B0000122019B02FA03F30399029A0A44127826
:1059C0001340184604B0704784B001900091009BCA
:1059D0000393019BDB080293019B03F007030193F0
:1059E000039A029B13441B785AB20121019B01FACE
:1059F00003F35BB2134359B2039A029B1344CAB236
:105A00001A7000BF04B0704782B001900C4A019B2D
:105A10001344303393F90030002B09DB084A019B13
:105A20001344303393F90030072B01DC012300E0ED
:105A3000002303F00103DBB2184602B0704700BF39
:105A40006C08002082B00190064A019B1344303359
:105A500093F90030072BCCBF01230023DBB218469B
:105A600002B070476C08002082B00190064A019B8A
:105A70001344303393F90030DB43DBB2DB09DBB294
:105A8000184602B0704700BF6C08002084B0039035
:105A9000029101928DF80330029B59B20E4A039B8A
:105AA000134430330A461A700B49029B019A41F89D
:105AB00023209DF8033083F00103DBB2002B08D0D4
:105AC000029B083B039A51B2034A13440A4683F8E7
:105AD000602000BF04B070476C08002082B00190C5
